:020000040800F2
:1028000048240020712A0008877500080352000838
:102810008375000821450008FBA80008000000009F
:10282000000000000000000000000000DB91000834
:102830007148000800000000FB2A0008C598000845
:102840008B2A00088B2A00088B2A0008F97E0008D2
:102850008B2A00088B2A00088B2A00088B2A000884
:102860008B2A00088B2A00082F4A00088B2A0008B0
:102870008B2A00088B2A00088B2A00088B2A000864
:102880008B2A00088B2A00088B2A00088B2A000854
:102890008B2A00088B2A00088B2A00088B2A000844
:1028A0008B2A00088B2A00088B2A00088B2A000834
:1028B000A5990008D1990008ED9900088B2A000815
:1028C0008B2A00088B2A00088B2A00088B2A000814
:1028D0008B2A000829A4000819A500088B2A0008E3
:1028E0008B2A00088B2A00088B2A00088B2A0008F4
:1028F0008B2A00088B2A00088B2A00088B2A0008E4
:102900008B2A00088B2A00088B2A00088B2A0008D3
:102910008B2A00088B2A00088B2A00088B2A0008C3
:102920008B2A00088B2A00088B2A00088B2A0008B3
:1029300000F002F800F07CF80AA090E8000C824455
:102940008344AAF10107DA4501D100F071F8AFF232
:10295000090EBAE80F0013F0010F18BFFB1A43F07D
:1029600001031847A85D0100C85D01000A444FF04B
:10297000000C10F8013B13F0070408BF10F8014BDE
:102980001D1108BF10F8015B641E05D010F8016B23
:10299000641E01F8016BF9D113F0080F1EBF10F887
:1029A000014BAD1C0C1B09D16D1E58BF01F801CBAA
:1029B000FAD505E014F8016B01F8016B6D1EF9D52D
:1029C0009142D6D370470000002300240025002642
:1029D000103A28BF78C1FBD8520728BF30C148BF82
:1029E0000B607047662915F09082652915F08D827D
:1029F000642900F03381752900F03081782900F0D6
:102A00006981732900F09F86002070471FB500F090
:102A10009FFE04000020002114F0D2F9401C6060E9
:102A20000020002114F0E2F9E0601FBD10B510BDD8
:102A300000F08EFF1146FFF7E9FF0FF039F800F0C4
:102A4000ACFF03B4FFF7F2FF03BC08F0E0FA0000AC
:102A5000EFF30980704780F309887047EFF308802F
:102A6000704780F30888704740BA7047C0BA704713
:102A70000948804709480047FEE7FEE7FEE7FEE712
:102A8000FEE7FEE7FEE7FEE7FEE7FEE7044805494E
:102A9000034A054B7047000045990008312900089A
:102AA000482200204824002048220020EFF3108014
:102AB00072B6704780F310887047254C254D25600D
:102AC0004FF0000484F30988234C4FF00105257072
:102AD000224C4FF08055256062B6FEE730B41F4CA3
:102AE0004FF08055256030BC704730B41B4C4FF020
:102AF0008055256030BC704700BF72B6EFF3098087
:102B000028B1203880E8F00F15490968086000B541
:102B10001448006800B180475DF804EB124813497F
:102B20000A7802700E4812490A680260106890E83C
:102B3000F00F203080F309884EF0040E62B6704723
:102B4000B0FA80F0704790FAA0F04FEA104070475A
:102B500020ED00E00000FFFF4400002004ED00E055
:102B60005000002060000020480000204C000020A1
:102B700054000020704710B5044600F03BFB00688D
:102B8000005DC00602D504F1200010BD204610BD36
:102B90000FB41CB5084B06AA7B4469460090059803
:102BA00000F0A7FD04460020694600F0B5FD204670
:102BB0001CBC5DF814FB00007D0B000070B50446E2
:102BC00085690068C10601D5302600E02026C007CF
:102BD00007D070BDD4E9012130469047206A401CDF
:102BE00020626D1EF6D570BD70B50446856900780B
:102BF000C00707D170BDD4E9012120209047206A89
:102C0000401C20626D1EF6D570BD70B50C460546A1
:102C1000012A05D02878800600D5EA69002302E061
:102C2000012305E05B1C934202D2E05C0028F9D14D
:102C3000A869E618C01AA861286A184428622846BC
:102C4000FFF7BCFF04E0D5E9012114F8010B904720
:102C5000B442F8D32846FFF7C7FF70BD2DE9F04115
:102C60000646002410687529314616A510D0AFF32A
:102C70000080002802DA404213A507E031688A0785
:102C800001D512A502E0490704D511A5012401E0F0
:102C9000AFF3008000210A2206F1240709E0B0FB0F
:102CA000F2FCB0FBF2F302FB1C0030307854184603
:102CB000491C0028F3D123462A463046BDE8F0419E
:102CC00000F0ABBA000000002D0000002B00000057
:102CD0002000000070B504460D4621461068AFF391
:102CE00000802188090502D50F4A7A4402E00E4A85
:102CF0007A440E32002104F1240305E000F00F06AF
:102D00000009965D5E54491C0028F7D12078002305
:102D1000000704D5702D02D009B1022311322046DC
:102D2000BDE8704000F079BA115601002DE9F05F5E
:102D3000894604464FF0000ADFF824B1FB44C0F88E
:102D400020A02046E168884700287DD0252806D0AD
:102D5000D4E901219047206A401C2062F1E7002558
:102D60005F462046E16888472028064607DB312E6B
:102D700005D2B81910F8200C08B10543F1E7A807EF
:102D800001D525F00405C4F81CA00027C4F818A03C
:102D90002A2E09D0304608F033F938B304EB8708FF
:102DA000303EC8F8186019E059F8041B204604EBBF
:102DB00087029161E1688847012F064618D1E069D2
:102DC000002820DA25F020051DE0D8F8180000EBD7
:102DD000800006EB40003038C8F818002046E16853
:102DE0008847064608F00CF90028EED1012F0AD0DA
:102DF0002E2E08D12046E16888477F1C0646022F08
:102E000045F02005C4DBA069002803DA404245F004
:102E10000105A061E80701D025F01005A6B1A6F1D3
:102E20004100192802D8203645F400654A4631464B
:102E3000204625604D46FFF7D5FD60B1012807D03B
:102E4000ED1D25F0070000E007E000F1080978E734
:102E500005F1040975E730467AE7206ABDE8F09F7E
:102E6000E7550100401ECAB210F8011F8A4202D085
:102E70000029F9D10020704740EA0103024630B52D
:102E80009B0710D14FF0013400E008C208C91D1B98
:102E90009D4315EAC41FF8D013F0FF0102F8011B8F
:102EA0000DD01B0AF8E711F8013B002B02F8013B9B
:102EB00005D011F8013B002B02F8013BF3D130BDE6
:102EC00010B5431C02E010F8011B71B18107FAD163
:102ED0004FF0013202C88C1A8C4314EAC211F9D0A7
:102EE000C01A0A0603D0C01E10BDC01A10BD0A04C5
:102EF00001D0801E10BD0902FCD0401E10BD40EA6A
:102F0000010370B59B072ED14FF00136042A2AD356
:102F100008C810C99D1B9D43121F15EAC61517D07E
:102F2000D8B2E1B2401A50EA056110D198B2A1B20C
:102F3000401A50EA05410AD123F07F4024F07F4136
:102F4000401A50EA052102D1180EA0EB146070BDA2
:102F5000A342DBD018BA21BA884201D9012070BD42
:102F60004FF0FF3070BD0AB9002070BD10F8013B72
:102F700011F8014B63B1A3420AD1521E08D010F8D8
:102F8000013B11F8014B1BB1A34201D1521EEDD1FF
:102F9000181B70BD032A40F2308010F0030C00F0C3
:102FA000158011F8013BBCF1020F624498BF11F883
:102FB00001CB00F8013B38BF11F8013BA2F104023C
:102FC00098BF00F801CB38BF00F8013B11F00303B4
:102FD00000F02580083AC0F0088051F8043B083A18
:102FE00051F804CBA0E80810F5E7121D5CBF51F8BA
:102FF000043B40F8043BAFF30080D20724BF11F834
:10300000013B11F801CB48BF11F8012B24BF00F898
:10301000013B00F801CB48BF00F8012B704710B509
:10302000203AC0F00B80B1E81850203AA0E81850C0
:10303000B1E81850A0E81850BFF4F5AF5FEA027C81
:1030400024BFB1E81850A0E8185044BF18C918C0F0
:10305000BDE810405FEA827C24BF51F8043B40F891
:10306000043B08BF7047D20728BF31F8023B48BF76
:1030700011F8012B28BF20F8023B48BF00F8012BB4
:1030800070474FF000020429C0F0128010F0030CCA
:1030900000F01B80CCF1040CBCF1020F18BF00F84B
:1030A000012BA8BF20F8022BA1EB0C0100F00DB8FA
:1030B0005FEAC17C24BF00F8012B00F8012B48BF58
:1030C00000F8012B70474FF0000200B513469446FC
:1030D0009646203922BFA0E80C50A0E80C50B1F170
:1030E0002001BFF4F7AF090728BFA0E80C5048BF84
:1030F0000CC05DF804EB890028BF40F8042B08BF22
:10310000704748BF20F8022B11F0804F18BF00F81D
:10311000012B704710B5044610F0030F08BF11F0E3
:10312000030F40F015804FF0013E121FC0F20E80D9
:1031300051F8043BA3EB0E0C2CEA030C1CEACE1C4A
:1031400008BF40F8043BF0D0A1F1040102F10402F1
:10315000521E08DB11F8013B002B00F8013BF7D1B0
:103160001146FFF78EFF204610BD00004FF0013CD6
:1031700050F8042B51F8043B9A4221D1A2EB0C03E6
:10318000934313EACC1317D150F8042B51F8043BA6
:103190009A4215D1A2EB0C03934313EACC130BD143
:1031A00050F8042B51F8043B9A4209D1A2EB0C03CE
:1031B000934313EACC13DBD04FF00000704700BFFD
:1031C000D01A01BAB1FA81F101F0180122FA01F026
:1031D000CB40C1F12001DBB2C0B2C01A2CFA01F31E
:1031E000D11A914311EAC311E6D170477047704775
:1031F0007047704710B500F0ABFA001D10BD00BF5E
:10320000C13B010010B500F0A7FA006810BD10B571
:10321000044600F0A1FA046010BD2DE9F0470D4608
:1032200099469246044600F124080168880604D5B0
:10323000E06921F01001216000E00120A84201DDD9
:10324000471B00E00027A1697A1902EB0900081A60
:10325000A0612078C00602D42046FFF7AFFC00260C
:1032600008E0D4E901211AF806009047206A401CC2
:10327000761C20624E45F4DB2078C0060AD5204635
:10328000FFF79CFC06E0D4E9012130209047206A3A
:10329000401C2062381EA7F10107F4DC07E0D4E9E6
:1032A000012118F805009047206A401C2062281E62
:1032B000A5F10105F3DC2046FFF796FC2078000617
:1032C00002D50220BDE8F0870120FBE770472DE919
:1032D000FF4F0C461E464FF0FF378BB0D2E900017E
:1032E000DDF860800A908A46C1F30A5505B93D466B
:1032F000002108464FF00000BAF1000F00F4400032
:1033000005DA00EB80004FF4400101EA50004FEA7B
:103310009059B9F1010F00DDB9460A9850EA4A0008
:103320000ED044F61050A5F2FF3545432F14B8F1E6
:10333000000F1ED07542291E1EDDC9F100021CE0DF
:10334000B8F1010F4FF0000001D0302103E0F2434B
:1033500005E02154401CB042FBDB30460022002136
:1033600021540B99C1F80880C1E900200FB0BDE8D5
:10337000F08FBD1B6D1CDEE74A4600DA694206A8E5
:1033800000F074FA06AB93E8070003AB83E807008C
:1033900050460A9900F007FB8DE80700A0F50050A1
:1033A0001F3800900398002D09DD42F21F014A46A4
:1033B000084403A90390684600F066FD08E0A0F504
:1033C00000504A461F3803A90390684600F070FD7C
:1033D0008DE807000004000C03D04FF0FF304108D7
:1033E00000E01046B8F1000F03D00022009215460D
:1033F0001EE0751E05D400F0B3F9303262556D1E23
:10340000F9D5B3460122084302D000227F1C04E014
:103410002078302801D100227F1E002A099786D00B
:103420001DE0112D07DA00F09BF9303262556D1C5A
:1034300050EA0102F5D1084302D00098C8B10EE06D
:103440000021681E05E0235C625C63542254401E28
:10345000491C8142F7DBAB46A81B401E09900020A7
:1034600004F80B000B98099AC0F80880C0E9002BFB
:103470007CE711264FF0000859E72DE9F04F884608
:103480000446D21D22F0070191B0D1E90001CDE937
:103490000A0107F02BFD02460B98C00F01D02D202A
:1034A00007E02068810701D52B2002E0202101EAF6
:1034B000C000032A099001D0072A05DB03464146D4
:1034C000204600F093F90BE12078800601D5E069F1
:1034D00000E00620B8F1650F814606D0B8F1660F0E
:1034E00018D0B8F1670F70D131E00020B9F1110F99
:1034F000009001DB112301E009F101030AAA01A9EF
:103500000CA8FFF7E4FEDDE90C70002609F10105C7
:10351000834647E001204B4600904FF000470AAA3F
:1035200001A90CA8FFF7D3FEDDE90DB00C995D46AB
:10353000002610B909F101000D18B9EB050003D4FC
:10354000C0F1FF3609F10105A5EB09002BE0B9F147
:10355000010F01DA4FF001090020B9F1110F0090BD
:10356000484601DD112300E003460AAA01A90CA880
:10357000FFF7ADFEDDE90C704D460026834620784E
:1035800000070AD4AB4500DA5D4601A8012D04DD31
:10359000411911F8011C302907D04F4502DA17F103
:1035A000040F04DA012082460FE06D1EEEE7002FC3
:1035B00002DCED1B3E4403E0781CA84200DD7D1CCC
:1035C000B81B00F1010A4FF000472078000703D430
:1035D000AA4501DB4FF0FF3A0021B7F1004F0DF192
:1035E00043088DF8431024D002202B23002F01DA4A
:1035F0007F422D230A21021EA0F1010000DC5FB1F1
:1036000097FBF1FC97FBF1F201FB1C7C17460CF1D8
:10361000300C08F801CDEEE7A8F101000370218815
:10362000090501D5452100E06521A0F1010800F858
:10363000011C09980FA9A1EB0807FF1D00B101208B
:10364000411901EBEA70A1693844081A401EA061D3
:103650002078C00602D42046FFF7B0FA099828B1B6
:10366000D4E901219047206A401C20622078C006DE
:1036700022D52046FFF7A2FA1EE0002E04DBB34558
:1036800002DD01A8805D00E03020D4E901219047EF
:10369000206A401C2062761CAAF101005FEA000A41
:1036A0000AD100F055F8C0680168405CD4E90121F6
:1036B0009047206A401C2062281EA5F10105DCDC31
:1036C00007E0D4E9012118F8010B9047206A401C5B
:1036D0002062381EA7F10107F3DC2046FFF784FAC9
:1036E000032011B043E6000001694A1C026108781A
:1036F000704700B58FB0CDE9013100210591054932
:103700007944CDE9031011466846FFF70FFB0FB06F
:1037100000BD0000E5FFFFFF0A6802F8010B0A6028
:10372000704710B5436913B1AFF3008001E0FFF7B4
:103730006CFA012010BD127800F124010A700022F9
:103740004A700122EDE711684FF0FF32E9E700000F
:10375000004870470822002000487047E8210020F8
:1037600030B5B0F10A024FEA900E71F100034EEA53
:10377000817EB0EB0E0061EB91014FEA101E4EEA24
:10378000017E10EB0E0041EB11114FEA102E4EEAB4
:10379000016E10EB0E0041EB11214FEA104E4EEA84
:1037A000014E10EB0E0041EB1141401841F10001B8
:1037B0004FEAD00040EA41704FEAD10110EB80059A
:1037C0004FEA810444EA907444EB01046D1944EB20
:1037D0000404521BA3414FF0000348BF0A3200D536
:1037E00030BD401C41F1000130BD00002DE9F04129
:1037F0001F46044603260168072A01F4006004DB23
:1038000008B116A505E016A503E008B115A500E06E
:1038100015A521F010002060A069C01EA0610FB1A5
:10382000401EA0612046FFF7C9F94FB1D4E901213C
:1038300038469047206A401C2062C01C206206E087
:10384000206AFAE7D4E9012115F8010B9047761EAA
:10385000F8D22046FFF7C8F9BDE8F0814E414E008E
:103860006E616E00494E4600696E66002DE9F047B4
:10387000814616468AB0334878440DC88DE80D005D
:1038800030487844801C03AC0DC884E80D0041F634
:103890009B300844372190FBF1F290FBF1F5A5F144
:1038A000800501FB12041B3C02D56442012000E0AC
:1038B0000020DFF890A080460027FA44AAF1BE0A53
:1038C0000DE0E00709D03246684607EB47010AEBF6
:1038D000810100F0EDFA8DE8070064107F1C002CD8
:1038E000EFD1184F7F44AC3F18E0E80714D007EB46
:1038F00004100DF1180A90E80E008AE80E00C06866
:10390000F04201D198190890324606A903A800F0A8
:10391000CFFA03AB83E807006D10641C002DE4D1DF
:1039200032466946B8F1000F03A802D000F0ACFAA5
:1039300001E000F0BDFAC9E90001C9F808200AB0A9
:10394000BDE8F087C84B010000487047E82100201F
:103950007546FFF7F9FFAE4605006946534620F06D
:103960000700854618B020B5FFF790F8BDE8204065
:103970004FF000064FF000074FF000084FF0000B2B
:1039800021F00701AC46ACE8C009ACE8C009ACE8DE
:10399000C009ACE8C0098D4670470446AFF300800B
:1039A0002046FFF74EF85FEA400C08BF91F0000F89
:1039B0004FEA8C234FEAC12243EA51514FEA1C508F
:1039C00018BF00F5F0404FEA300018BF41F0004149
:1039D0005FEA6C5C00F02980BCF1FF3F08BF40F05B
:1039E00080407047130C06BF12044FF0100C4FF0CC
:1039F000000C130E04BF12020CF1080C130F04BFCD
:103A000012010CF1040C930F04BF92000CF1020C94
:103A1000D30F04BF52000CF1010C11464FF000020D
:103A2000A0F11F00A0EB0C00704711F0004F08BF81
:103A3000704731F000413FF4D5AF0B0C06BF0904CD
:103A40004FF0100C4FF0000C0B0E04BF09020CF1EC
:103A5000080C0B0F04BF09010CF1040C8B0F04BF01
:103A600089000CF1020CCB0F04BF49000CF1010CD2
:103A7000CCF12003A0EB0C0022FA03F302FA0CF2C3
:103A800041EA030100F10100704720F07F4C80EA19
:103A9000030023F07F47ACEB070303F57C5300F0F2
:103AA000004003F1FF032DE980494FEA154B09B4AB
:103AB0004FEA144325EA0B4E24EA03480FF204268A
:103AC00006EB132749083E785FEA320203FB0667DC
:103AD000C7F5000707FB06F64FEA54374FEAD6460C
:103AE00006F1020607FB066CCCF1005C4FEA1C47AE
:103AF0002CEA074C07FB06F40CFB06F504EB154615
:103B00004FEA961634BF00204FF000404FEAD137FD
:103B100006FB07FC4FEA1C4C0CFB0BF7D21B03FB0C
:103B20000CF761EB07010CFB0EF7B0EB074072EBF3
:103B300017420CFB08F734BFA2EB0742B2EB074277
:103B400061EB17414FEA0C444FEA910706FB07FC73
:103B50004FEA1C4C0CFB0BF7B0EBC74072EB573233
:103B600003FB0CF734BFA2EBC742B2EBC74261EBD9
:103B700057310CFB0EF7B0EBC70072EB57720CFB22
:103B800008F734BFA2EBC702B2EBC70261EB577173
:103B9000039F4FEA816141EA921104EBCC044FEAA2
:103BA000D1374FEA826206FB07FC42EA90124FEAE5
:103BB00080604FEA1C4C0CFB0BF7D21B03FB0CF78D
:103BC00061EB07010CFB0EF7B0EB074072EB1742FD
:103BD0000CFB08F734BFA2EB0742B2EB074261EBE4
:103BE00017414FEA8C554FEA910704EB9C2406FBE2
:103BF00007FC4FEA1C4C0CFB0BF7B0EBC74072EB19
:103C0000573203FB0CF734BFA2EBC742B2EBC742FB
:103C100061EB57310CFB0EF7B0EBC70072EB57723C
:103C20000CFB08F734BFA2EBC702B2EBC70261EB93
:103C3000577115EB4C254FEA816141EA92114FEA29
:103C400082624FEAD13742EA901206FB07FC44F148
:103C500000044FEA80604FEA1C4C0CFB0BF7D21BB0
:103C600003FB0CF761EB07010CFB0EF7B0EB074011
:103C700072EB17420CFB08F734BFA2EB0742B2EB22
:103C8000074261EB174115EB1C154FEA813141EA00
:103C900092414FEA823242EA90424FEA80304FEA44
:103CA0000C7644F1000448EA03434EEA0B484FF017
:103CB000000EB2EB080C71EB030724BF62463946D5
:103CC0004EEB0E0E4FF0000B0018524149414BEBEA
:103CD0000B0BB2EB080C71EB03077BF1000B24BF5D
:103CE000624639464EEB0E0E4FF0000B0018524163
:103CF00049414BEB0B0BB2EB080C71EB03077BF16B
:103D0000000B24BF624639464EEB0E0E51EA020705
:103D100018BF46F0010616EB0E7655F1000254F17D
:103D2000000103D5BDE88901BDE80088BDE889012F
:103D3000BDE80048B619524141EB0101A3F101036E
:103D4000704780807F7E7D7C7B7A79787776767508
:103D50007473727171706F6E6E6D6C6C6B6A6A6980
:103D60006868676666656464636362616160605F1A
:103D70005F5E5E5D5D5C5C5B5B5A5A595958585793
:103D800057565655555554545353525252515150FB
:103D900050504F4F4F4E4E4D4D4D4C4C4C4B4B4B4E
:103DA0004A4A4A4949494848484747474746464694
:103DB00045454544444444434343434242424241CF
:103DC0004141002B26D4770021D01CB54FEA37079C
:103DD00003B44FF010004FF010014FF000000FBC83
:103DE000BDE810400BF1010BBBF1010F08BF5FEA0A
:103DF000170722BF12F1010211F101014FF000413A
:103E000043F1000300F0004043EA00007047F9D39B
:103E10005708DAE746EA064613F1400F4FEA16461E
:103E20001FDD13F1200FDFBF16430A4600212033A8
:103E30005B42C8D0C3F1200746EA064602FA07F7FC
:103E40004FEA164646EA0706C3F1200722FA03F2B4
:103E500001FA07F721FA03F14FF0000342EA0702E3
:103E6000B1E746EA020646EA06464FEA164646EA41
:103E70000106BCBF46EA0646360C4FF000034FF081
:103E800000024FF000019EE72DE9C048934630B490
:103E900091E8380007C831EA400C48BF34EA430CC7
:103EA00003D5FFF7F2FDFFF78CFFF0BCBDE80088FB
:103EB0002DE9C048934630B491E8380007C810F0A7
:103EC000804F08BF13F0804F03D100F005F8FFF7D3
:103ED00078FFF0BCBDE8008820F07F4780EA03004F
:103EE00023F07F4C07EB0C03A3F57C5300F000405C
:103EF000A3F1FE0392F0000F00F0B38095F0000FE5
:103F000000F077802DE901494FEA11404FEA14464D
:103F100021EA004800FB06FC24EA064708FB06F6F7
:103F200007FB08F800FB07F718EB06484CEB164CAC
:103F30004FEA124B18EB07484FEA15464CEB174077
:103F400022EA0B4E0BFB06FC25EA06470EFB06F6A3
:103F500007FB0EFE0BFB07F71EEB064E4CEB164C59
:103F60004FF000061EEB074E4CEB174B18EB0B08FF
:103F700040F1000018EB0E0B58EB000840F1000078
:103F80008F1A4FF000013CBFC943661B14BFB5EB4D
:103F9000040C00213CBFC943F61B4FEA17444EEA0C
:103FA0008E0E27EA04454FEA1C4704FB07622CEA01
:103FB000074C05FB07F70CFB05F604FB0CFC16EBA6
:103FC000074642EB174216EB0C4642EB1C421BEB3A
:103FD000060658EB0202414146EA9E0601D5BDE8BD
:103FE0000189B619524141EB0101A3F10103BDE87A
:103FF00001894FEA14454FEA114724EA054621EAB0
:10400000074C05FB07F406FB07F70CFB06F105FB65
:104010000CFC11EB074144EB17444FEA124711EB3C
:104020000C4144EB1C4422EA074C05FB07F206FB5B
:1040300007F70CFB06F605FB0CFC16EB074642EBFC
:10404000174216EB0C4642EB1C456A1854F100016E
:1040500048BF7047B619524141EB0101A3F101037A
:10406000704795F0000F37D04FEA11424FEA1447DE
:1040700021EA024624EA074C02FB07F106FB07F798
:104080000CFB06F402FB0CFC14EB074441EB17415C
:104090004FEA154714EB0C4441EB1C4125EA074C51
:1040A00002FB07F506FB07F70CFB06F602FB0CFC10
:1040B00016EB074645EB174516EB0C4645EB1C4245
:1040C000121951F1000148BF7047B619524141EB36
:1040D0000101A3F1010370474FEA14454FEA11476C
:1040E00024EA054621EA074C05FB07F106FB07F722
:1040F0000CFB06F24FF0000605FB0CFC12EB07422E
:1041000041EB174112EB0C4251EB1C4148BF704789
:10411000921841EB0101A3F10103704710B50BF0B8
:1041200033FD408C012804D10BF02EFD0021418489
:1041300003E00BF029FD012141840BF025FD90F8EF
:104140002240214606200CF021FE10BD1CB510A116
:1041500003C9CDE900010BF017FD808A01280BD1BE
:1041600000208DF807000821684601F07FFA0BF067
:104170000BFD002181820AE00BF006FD0121818206
:1041800001208DF807000821684601F06FFA1CBD78
:104190005AA505821009000008B50121102003F07E
:1041A00041FB4FF40050ADF8000010208DF80300E3
:1041B00002208DF802006946054800F053FD0020FA
:1041C00003F0DEFB4FF40051014800F01FFE08BD74
:1041D0000010014010B5012003F044FB002003F063
:1041E00041FB10BD08B50146002000900348009037
:1041F0000098084400900098008808BD006C0040BA
:1042000008B500220092044A0092009A02440092EB
:10421000009A116008BD0000006C00400EB500203F
:1042200000900190029003208DF8000002208DF88C
:10423000010000208DF802008DF8030002208DF8A7
:1042400004008DF805006946032011F0CDFC0EBD79
:104250000EB5002000900190029002208DF8000021
:104260008DF8010000208DF802008DF80300022077
:104270008DF804008DF805006946032011F0B4FCA8
:104280000EBD0EB5002000900190029004208DF824
:10429000000002208DF8010000208DF802008DF84A
:1042A000030002208DF804008DF805006946032004
:1042B00011F09AFC0EBD0EB5002000900190029006
:1042C00005208DF8000002208DF8010000208DF8F7
:1042D00002008DF8030002208DF8040001208DF803
:1042E00005006946032011F07FFC0EBD0EB50020CD
:1042F00000900190029002208DF800008DF80100DE
:1043000000208DF802008DF8030002208DF80400D3
:1043100001208DF805006946032011F065FC0EBDF3
:104320007FB505460024384B0FCB8DE80F0037488A
:104330000078012800D17FBD0120344908704FF476
:1043400016700EF08DF9324908600846006800B911
:10435000F1E74AE0287830383DF8100061002C4A37
:10436000126822F8110068785F280DD16100284A90
:10437000126832F8110000EBD07149106200244B32
:104380001B6823F8121010E068787E280DD16000B9
:104390001F49096831F810004FF6FF7101EA40002B
:1043A00061001B4A126822F81100A87930380821F0
:1043B00091FBF0F0012101EB4401154A126822F84B
:1043C0001100012000EB44001149096831F8100088
:1043D000297930394843012101EB44010C4A126824
:1043E00022F811000835601C84B228780028B1D169
:1043F000012101EB4401064A126822F81100054828
:1044000006F068FE00BF96E71880010870000020E3
:10441000740000201944000810B53A4800680028CC
:104420006FD03948008840003649096831F81000DB
:10443000364991FBF0F436480068401C3449086066
:1044400034480068401C3349086064B1601F30493B
:104450000968884203D201202F49086006E0002045
:104460002D49086002E000202B490860264800889A
:1044700040002449096831F81000244991FBF0F00C
:1044800023490968884202D80020214908601E4853
:104490000088012101EB40001A49096831F8100039
:1044A00040F2712148431B490968B1EB001F27D333
:1044B00015480088401C14490880002015490860F0
:1044C00011480088012101EB40000E49096831F8CC
:1044D0001000A8B900200C4908800E4908600C495A
:1044E0000860084800680EF0A7F800200549086039
:1044F0000949086009490870AFF2E3000AF07CFC42
:1045000000BF10BD7400002078000020A0860100CC
:10451000800000207C000020B401224270000020B6
:1045200003F080F870B50546002401240AE000F08D
:1045300075FC610030F81100A84201D1012070BD66
:10454000601C84B200F06AFC610030F811000028A1
:10455000EDD100BFF3E700002DE9F0410025002771
:104560000024FEF7A3FA0646002039E0204901EBBB
:104570004011496891B31E4901EB401189691C4AF9
:1045800002EB4012928A92B2A1EB82010C1D00BF95
:1045900002CC491C0029FBD0154901EB4011896967
:1045A000091B012202EBA105114901EB40114969E8
:1045B0000F0CAF4212D20E4901EB4011898A89B229
:1045C0000B4A02EB40125161094901EB4011496964
:1045D00041EA0541064A02EB40125161411CC8B252
:1045E0002028C3D33046FEF765FABDE8F08100000D
:1045F000F4190020002000BF04E00021034A1154F8
:10460000411C88B23A28F8DB70470000F61E0020F3
:104610007FB505460C4600260020019002900390CD
:104620000090FF208DF804008DF8050028128DF809
:104630000600E8B28DF8070001208DF80800002080
:104640008DF8090002208DF80A0000208DF80B007B
:104650001E208DF80C006A46092101A800F0BCFC60
:104660009DF800008DF80D009DF801008DF80E00FA
:104670000B2101A803F0ACF900BF33E0C8200AF019
:10468000FDFB9DF80C0000F10901204603F0E4F960
:1046900030B3A079C11D6A46204600F09DFC9DF80C
:1046A0000010A079C01D205C814219D19DF8011035
:1046B000A0790830205C814212D1E078A17840EAEC
:1046C0000120A8420CD120799DF8081041F080010A
:1046D000884205D1207AE17940EA012004B070BD1A
:1046E000701CC6B2052EC9DB0A20F7E72DE9F041A0
:1046F0008EB004460D4616461F464FF000080020B7
:1047000002900390049005900190FF208DF808001E
:104710008DF8090020128DF80A00E0B28DF80B0028
:1047200003208DF80C0000208DF80D0003208DF87B
:104730000E008DF80F508DF810608DF8117001AAE1
:104740000A2102A800F048FC9DF804008DF8120030
:104750009DF805008DF813000C2102A803F038F92C
:1047600000BF3DE0C8200AF089FB182106A803F02D
:1047700073F980B39DF81E00C11D01AA06A800F0C0
:104780002BFC9DF804109DF81E00C01D06AA105CAD
:10479000814221D19DF805109DF81E000830105C63
:1047A000814219D19DF81B009DF81A1040EA0120A2
:1047B000A04211D19DF81C009DF80C1041F0800121
:1047C000884209D19DF820009DF81F1040EA012081
:1047D0000EB0BDE8F081FFE708F101001FFA80F894
:1047E000B8F1050FBEDB0A20F2E700002DE9F05F0B
:1047F00081468A4617461C460A9D4FF0004020FA23
:1048000005F807EB8400061F1748006800EA080057
:1048100010B10120BDE8F09F1348006840EA08008D
:1048200011490860002006E04FF0FF31A6EB80023E
:104830001160411C88B2A042F6D30C4800EB451031
:104840008661002332465146484602F027FF8346E0
:104850002A465946484602F0A3FFA0B2034901EB9D
:10486000451148610020D5E768000020F4190020B8
:1048700002F0D8FE10B50446A0B20AF0FFFA10BD4F
:10488000FEB504460E4615460020009001900290A9
:1048900002208DF80000022C52D1A6B3012D17D1B1
:1048A00001208DF801008DF802006946042011F006
:1048B0009BF96946022011F097F900208DF801005C
:1048C00002208DF802006946042011F08DF9ADE058
:1048D000022DFCD101208DF8010002208DF802008C
:1048E0006946042011F080F96946022011F07CF934
:1048F00000208DF8010001208DF802006946042097
:1049000011F072F992E0FFE700208DF8010001201C
:104910008DF802006946042011F066F9694602200C
:1049200011F062F900208DF8010002208DF80200DC
:10493000694611F059F96946042011F055F975E0FE
:10494000032C01D0052C51D19EB3012D17D101208C
:104950008DF8010003208DF802006946042011F053
:1049600043F96946022011F03FF900208DF801005B
:1049700004208DF80200694611F036F956E0022D48
:1049800054D101208DF8010004208DF80200694601
:1049900011F02AF96946022011F026F900208DF85D
:1049A000010003208DF802006946042011F01CF973
:1049B0003CE0FFE700208DF8010004208DF80200A4
:1049C000694611F011F96946022011F00DF9002035
:1049D0008DF8010003208DF802006946042011F0D3
:1049E00003F96946022011F0FFF81FE0042C1DD1E5
:1049F00076B101208DF8010006208DF8020069468D
:104A0000042011F0F1F86946022011F0EDF80DE0F4
:104A100000208DF8010006208DF802006946042070
:104A200011F0E2F86946022011F0DEF8FEBD10B583
:104A3000102000F00FF830B1102000F005F8102120
:104A4000002005F041FA10BD0149086070470000E0
:104A500014040140014600200022074B1B6803EAB2
:104A60000102054B14331B680B4013B10AB101203E
:104A700000E00020704700000004014000212349AD
:104A80008279002A3AD00A46126803689A430B4694
:104A90001A600A1D126803689A430B1D1A60027996
:104AA00011440A6803681A430A60184A08321268F7
:104AB00003689A43154B08331A601A1D126803687D
:104AC0009A43124B0C331A604279102A0ED11A1FE6
:104AD000126803681A430D4B08331A601A1D1268D6
:104AE00003681A43094B0C331A600DE007494279F9
:104AF00011440A6803681A430A6005E00279114408
:104B00000A6803689A430A60704700000004014085
:104B100030B5044604254FF4302000F06FF8054608
:104B2000042D17D10C48006940F002000A490861C1
:104B300008464461006940F0400008614FF43020AD
:104B400000F05CF805460448006941F6FD71084034
:104B500001490861284630BD0020024004200B496D
:104B6000C96801F0010109B101200EE00749C968D7
:104B700001F0040109B1022007E00449C96801F00D
:104B8000100109B1032000E004207047002002401A
:104B90000348006940F08000014908617047000047
:104BA0000020024070B504460D460426F00200F0D5
:104BB00025F80646042E11D10948006940F001008D
:104BC000074908612580F00200F018F806460448FD
:104BD000006941F6FE71084001490861304670BD28
:104BE000002002400248034948600348486070477B
:104BF0002301674500200240AB89EFCD00B5024696
:104C00000423FFF7ABFF034603E0FFF7A7FF0346CC
:104C1000521E012B01D1002AF7D102B905231846F3
:104C200000BD000030B500228B071C0F0F2303FAD4
:104C300004F20B4B8C1053F824309343084C8D1026
:104C400044F8253023468C1053F824308C07240F69
:104C500000FA04F42343024C8D1044F8253030BD93
:104C6000080001402DE9F041024600250026002001
:104C700000230024002791F803C00CF00F0591F8E1
:104C800003C00CF0100CBCF1000F03D091F802C06F
:104C90004CEA050591F800C0BCF1000F31D0146852
:104CA00000202BE04FF0010C0CFA00F3B1F800C02B
:104CB0000CEA03069E4220D183004FF00F0C0CFA41
:104CC00003F7BC4305FA03FC4CEA040491F803C063
:104CD000BCF1280F06D14FF0010C0CFA00FCC2F811
:104CE00014C00AE091F803C0BCF1480F05D14FF0A1
:104CF000010C0CFA00FCC2F810C0401C0828D1D3EB
:104D00001460B1F800C0BCF1FF0F34DD546800201E
:104D10002EE000F1080C4FF0010808FA0CF3B1F88E
:104D200000C00CEA03069E4221D183004FF00F0C15
:104D30000CFA03F7BC4305FA03FC4CEA040491F8AF
:104D400003C0BCF1280F05D100F1080C08FA0CF8DB
:104D5000C2F8148091F803C0BCF1480F07D100F1EC
:104D6000080C4FF0010808FA0CF8C2F81080401C3B
:104D70000828CED35460BDE8F0810000F0B50A46A3
:104D8000002300240021002500F00046B6F1004F6A
:104D900002D11D4EF16901E01B4E7168C0F303455D
:104DA00083B200F44016B6F5401F08D121F07061BF
:104DB000154E766826F07066134F7E6012E000F4A0
:104DC0008016B6F5801F06D1032606FA05F4A14326
:104DD00041F0706106E0460D360103FA06F6B14374
:104DE00041F0706122B1460D360103FA06F63143F7
:104DF00000F00046B6F1004F02D1034EF16101E030
:104E0000014E7160F0BD000000000140416170473B
:104E1000016170470048704710210020004870472A
:104E2000801F00200246002100BF0DE0012000EBA2
:104E300041000A4B13F81000904203D1480033F8A8
:104E400010007047481C81B2012000EB4100034B69
:104E500033F810000028E9D100BFF2E7100100206C
:104E600000B502460021012112E0FFF7D7FF4B00F9
:104E700030F81300904209D1FFF7D0FF012303EB74
:104E8000410330F8130000F47F4000BD481C81B29C
:104E9000FFF7C4FF4B0030F813000028E5D1FF20D6
:104EA000F3E700B50246002100BF10E0FFF7B6FFB0
:104EB0004B0030F81300904207D1FFF7AFFF0123FA
:104EC00003EB410310F8130000BD481C81B2FFF74B
:104ED000A5FF4B0030F813000028E7D1FF20F3E7CF
:104EE00030B502460B4600210024012114E0FFF7F3
:104EF00095FF012505EB410510F81500904209D1F9
:104F00009C4205D1FFF78AFF4D0030F8150030BDF7
:104F1000601C84B2481C81B2FFF780FF012505EBBD
:104F2000410530F815000028E1D100BFEFE700008F
:104F300070B504460025FDF7B9FD0646044800EBB0
:104F40004410808A85B23046FDF7B4FD284670BD16
:104F5000F419002070B504460025FDF7A7FD0646AC
:104F6000044800EB44104069050C3046FDF7A2FDF3
:104F7000284670BDF419002013490988322904DA43
:104F80001249114A1288885C05E000210E4A1180FE
:104F90000E491288885C00210D4A11600B4A0A4BA9
:104FA0001B88D1540B49098821B10A490988491E37
:104FB000084A11800121064A116003490988491CE9
:104FC000014A118070470000B8000020C41E002074
:104FD00094012742BE000020F0B50B46FF24FF25B8
:104FE00009E010F8016B86EA0401074E765C86EA58
:104FF0000504064E755C1E00A3F10107BBB2F0D19B
:1050000014705570F0BD0000808001088081010897
:1050100010B501464A1E034B985C00234A1E014C02
:10502000A35410BD8400002000B5FFF7F7FE0088F0
:1050300000BD00B5FFF7F2FE90F8660100BD00B5B7
:10504000FFF7ECFE00F5B47000BD000010B504469B
:10505000002300BF04E00548C05CE054581C83B244
:105060003A2BF8DBFFF7C6FA184610BDF61E0020F3
:10507000F8B506460C46002500200090002717488A
:1050800006602078FF2819D16078FF2816D1A07912
:10509000617940EA0120C01D85B26A462946204652
:1050A000FFF79AFF605D9DF80010884206D1681CEA
:1050B000205C9DF80110884200D1012767B120795A
:1050C000052803D1204606F09AFB04E0052120467E
:1050D00006F0EEFB00BF00BFF8BD00008801002015
:1050E0000146002000BF04E0034A125C0A54421C3F
:1050F00090B20628F8DB70479800002010B5002316
:10510000154C2360002020E030B9C0F10603134C99
:10511000E35CDB43DAB203E0C0F106030F4CE25C70
:1051200000210FE000230C4C241D2360C1F1070374
:1051300042FA03F30A4CC4F880310123064C241DC3
:105140002360491C0829EDDB401C0728DCDB012318
:10515000014C236010BD000088012242980000200D
:105160000000224210B5142009F088FE0AF00CFD60
:10517000C08B01280ED1012108460BF007FE6420E8
:1051800009F096FE002102200BF000FE642009F0D9
:105190008FFE21E00AF0F8FCC08B02280ED100211E
:1051A00001200BF0F3FD642009F082FE01210220B2
:1051B0000BF0ECFD642009F07BFE0DE000210120E6
:1051C0000BF0E4FD642009F073FE002102200BF0D7
:1051D000DDFD642009F06CFE0AF0D6FC408C01284D
:1051E00007D1012106200BF0D1FD642009F060FEFB
:1051F00006E0002106200BF0C9FD642009F058FEEE
:1052000010BD02F00FFA00000D480078642805DA9E
:105210000B480078401C0A4908700FE0002008493C
:105220000870084800883C2805DA06480088401CB9
:105230000449088002E0002002490880704700000D
:10524000050200200602002010B500F001F810BD94
:105250004AF6AA200149086070470000003000406B
:105260001CB5044609A103C9CDE90001E07960B984
:10527000207A052809D1607A0D2806D1A07AC028A5
:1052800003D10621684600F0F1F91CBD5AA5038040
:105290004F0200000146CA1701EB92729210A1EB77
:1052A000820292B9642091FBF0F200FB121050B917
:1052B0004FF4C87091FBF0F200FB121008B9012006
:1052C00070470020FCE70120FAE70020F8E7000023
:1052D00010B5FF2487480068A8B98748007810BB3C
:1052E00003208649087086480078401C844908706D
:1052F00008460078502816DB0220804908700120FB
:105300007D4908700FE07E480078012806DD7C4862
:105310000078502802DA0120784908700020784986
:1053200008707549087077480068A8B972484078D5
:1053300010BB03207149487071484078401C704987
:10534000487008464078502816DB02206B494870A8
:105350000120694948700FE069484078012806DD5E
:1053600067484078502802DA0120644948700020DC
:1053700063494870604948705E48001D0068A8B9DC
:105380005D48807810BB03205C4988705C48807859
:10539000401C5B49887008468078502816DB022044
:1053A000564988700120544988700FE0544880782D
:1053B000012806DD52488078502802DA01204F4942
:1053C000887000204E4988704B4988704E480068AC
:1053D000A8B94948C07810BB03204849C87048485C
:1053E000C078401C4649C8700846C078502816DB73
:1053F00002204249C87001203F49C8700FE0404870
:10540000C078012806DD3E48C078502802DA012025
:105410003A49C87000203A49C8703749C8703548C1
:1054200008300068A8B93448007910BB032033491C
:10543000087133480079401C3149087108460079E9
:10544000502816DB02202D49087101202A490871D5
:105450000FE02B480079012806DD29480079502803
:1054600002DA0120254908710020254908712249E6
:1054700008712548001F0068A8B91F48407910BB73
:1054800003201E4948711E484079401C1C49487140
:1054900008464079502816DB02201849487101203F
:1054A000154948710FE016484079012806DD144877
:1054B0004079502802DA0120104948710020104933
:1054C00048710D4948710D48007870B90B48407813
:1054D00058B90A48807840B90848C07828B90748C0
:1054E000007910B90548407918B10121002004F075
:1054F0007DFD10BD1C012242900000208400002090
:105500008A000020000121422481214210B501219E
:10551000042002F087F90121082002F083F901211B
:10552000102002F07FF90121084602F07BF90248C1
:1055300005F0BCFD10BD0000D152000810B586B0CA
:1055400004460121042002F06DF90121082002F037
:1055500069F90121480402F045F94FF48050ADF893
:10556000140010208DF8170003208DF8160005A9EF
:105570002A48FFF777FB0420ADF8140018208DF8B7
:10558000170005A92648FFF76DFB0820ADF81400A9
:1055900004208DF8170005A92148FFF763FB0121BE
:1055A000480402F02FF900214FF4003002F02AF9EC
:1055B00001940020ADF80800ADF80A00ADF80C0029
:1055C000ADF810000C20ADF80E0001A9154805F04B
:1055D000A7F826208DF8000000208DF80100022099
:1055E0008DF8020001208DF80300684601F0CEFF1F
:1055F000012240F225510B4805F06DF8012240F2DE
:105600002441084805F067F80121064804F0D1FF5D
:1056100000200549086006B010BD0000000C0140E4
:105620000008014000440040B081214270B50546A9
:105630000C460B480678007820800A48007801283C
:105640000CD13246084928460DF020F83246002198
:1056500005480DF028F800200149087070BD0000D1
:105660009600002097000020FE1D002070B5054622
:105670000E4601200E49086000240CE000BF4021C6
:105680000C4804F0F1FF0028F9D0295D094805F025
:10569000B8F8601CC4B2B442F0DB00BF402105483A
:1056A00004F0E2FF0028F9D000200149086070BD35
:1056B000B081214200440040704700B50AF064FA0E
:1056C000408C00BD00B50146052904DA0AF05CFAF9
:1056D00030F8110000BD0020FCE700B501460AF0DB
:1056E00053FA418400BD00B50246052A03DA0AF0E8
:1056F0004BFA20F81210002000BD000008B501216F
:10570000102002F08FF80F20ADF8000010208DF867
:10571000030003208DF8020069461B48FFF7A2FA38
:1057200000201A4908601A49C1F8A0010121082087
:1057300002F078F80120ADF8000010208DF8030089
:1057400003208DF8020069461248FFF78BFA012109
:10575000042002F067F80220ADF8000010208DF858
:10576000030003208DF8020069460B48FFF77AFA20
:1057700000200A490860FFF7C1FC00200449C1F875
:1057800084010BF08FFF08BD001001409C012242F4
:1057900000002242000C01400008014080812142AB
:1057A00070B50024FFF73AFB0546C82229461D487C
:1057B00003F0D8FB00BF0EE0FFF730FB30F8140019
:1057C0004FF6FF71884204D1FFF728FB002120F833
:1057D0001410601C84B2C82CEEDB002417E004F027
:1057E000010090B1FFF71AFB00EB44010878088034
:1057F000FFF714FB10F8140038B1FFF70FFB00EBB4
:105800004401088840F400600880601C84B2642C65
:10581000E5DBFFF703FB811C408840F480700880C3
:1058200070BD000028FC03087CB500240020009017
:1058300001900AF0A9F9808BADF800000AF0A4F9F4
:10584000C08BADF802000AF09FF9008CADF804009F
:105850000AF09AF9408CADF806000AF095F9054671
:1058600014222946124803F07DFB00BF0EE00AF027
:105870008BF930F814004FF6FF71884204D10AF01A
:1058800083F9002120F81410601C84B2142CEEDB84
:105890000AF07AF9BDF8001081830AF075F9BDF8B5
:1058A0000210C1830AF070F9BDF8041001847CBDB8
:1058B00000FC03081CB500200090019006220F494F
:1058C0000F480CF0E3FE0D49891D062268460CF0D6
:1058D000DDFE002008E00A49095C1DF800201144A3
:1058E000074A1154411CC8B20628F4DB044800786A
:1058F00000F0FE00024908701CBD0000E8F7FF1F21
:10590000F200002070B54FF4C8600CF0A9FE054607
:105910002C4614A214A1204610F0D2FB083411A288
:1059200012A1204610F0CCFB08340EA210A1204694
:1059300010F0C6FB08340BA20EA1204610F0C0FBED
:1059400008340DA20DA1204610F0BAFB0834204601
:105950000AF02EFA2846FEF7E3FC28460CF06CFE0F
:1059600070BD0000312F320035000000340000000F
:105970003300000032000000312F31003100000000
:1059800070B54FF4C8600CF06BFE05462C46FEA2C5
:10599000FEA1204610F094FB0834FDA2FDA1204694
:1059A00010F08EFB0834FCA2FCA1204610F088FB0E
:1059B0000834FBA2FBA1204610F082FB0834F6A2BB
:1059C000F9A1204610F07CFB0834F1A2F3A1204697
:1059D00010F076FB0834F0A2EEA1204610F070FB28
:1059E0000834EDA2EDA1204610F06AFB0834EAA2CB
:1059F000E8A1204610F064FB0834E3A2E9A12046A8
:105A000010F05EFB0834E9A2E9A1204610F058FB33
:105A10000834DDA2DDA1204610F052FB0834DCA2E0
:105A2000DCA1204610F04CFB0834DBA2DBA12046B1
:105A300010F046FB0834DAA2DAA1204610F040FB51
:105A40000834D5A2D8A1204610F03AFB0834D2A2DF
:105A5000D2A1204610F034FB0834CBA2CDA12046C1
:105A600010F02EFB0834CEA2C8A1204610F028FB6F
:105A70000834C5A2C7A1204610F022FB0834C8A2F2
:105A8000C8A1204610F01CFB0834BFA2BFA12046CD
:105A900010F016FB0834BCA2C2A1204610F010FB87
:105AA0000834BDA2BBA1204610F00AFB0834BAA2FC
:105AB000BAA1204610F004FB0834B9A2B5A12046D3
:105AC00010F0FEFA0834B0A2B7A1204610F0F8FAA0
:105AD0000834ADA2B1A1204610F0F2FA0834ACA20D
:105AE000ACA1204610F0ECFA0834A7A2ADA12046E4
:105AF00010F0E6FA0834ADA2ADA1204610F0E0FAAD
:105B00000834A1A2A1A1204610F0DAFA08349EA21E
:105B1000A4A1204610F0D4FA08349BA29BA12046F1
:105B200010F0CEFA083498A2A2A1204610F0C8FACC
:105B3000083495A29BA1204610F0C2FA083492A224
:105B40009CA1204610F0BCFA08348FA29AA12046EE
:105B500010F0B6FA083492A298A1204610F0B0FADC
:105B6000083497A293A1204610F0AAFA08348AA21A
:105B70008CA1204610F0A4FA083489A283A1204603
:105B800010F09EFA083480A286A1204610F098FA00
:105B900008347FA287A1204610F092FA08347EA232
:105BA00081A1204610F08CFA083486A27DA12046FF
:105BB00010F086FA083478A280A1204610F080FA0E
:105BC000083475A27CA1204610F07AFA083472A23B
:105BD00078A1204610F074FA08346FA26BA1204619
:105BE00010F06EFA08346CA277A1204610F068FA23
:105BF000083465A265A1204610F062FA083466A256
:105C000068A1204610F05CFA083465A265A1204620
:105C100010F056FA083460A262A1204610F050FA43
:105C200008345FA259A1204610F04AFA08345AA25B
:105C30005CA1204610F044FA083453A25DA120462E
:105C400010F03EFA083450A250A1204610F038FA65
:105C5000083451A254A1204610F032FA08344EA262
:105C600050A1204610F02CFA083447A249A1204642
:105C700010F026FA083444A248A1204610F020FA79
:105C8000083441A243A1204610F01AFA08344FA26A
:105C900044A1204610F014FA08343FA241A1204646
:105CA00010F00EFA08343EA238A1204610F008FA8F
:105CB000083435A23BA1204610F002FA083434A281
:105CC0003CA1204610F0FCF9083433A236A120464E
:105CD00010F0F6F9083430A232A1204610F0F0F9A5
:105CE00008342DA235A1204610F0EAF908342AA282
:105CF00031A1204610F0E4F9083427A22DA1204656
:105D000010F0DEF9083424A220A1204610F0D8F9C2
:105D1000083421A22CA1204610F0D2F908341AA28E
:105D20001AA1204610F0CCF9083420A21DA120466B
:105D300010F0C6F9083418A21AA1204610F0C0F9D4
:105D4000083417A211A1204610F0BAF9083412A2A3
:105D500014A1204610F0B4F908340BA21CA120466F
:105D600010F0AEF908340AA214A1204610F0A8F9E8
:105D7000083409A216A1204610F0A2F9083408A29E
:105D80000DA1204626E00000312F31003600000032
:105D9000332F320032000000312F3200310000007A
:105DA000322F31003300000030000000352F320068
:105DB000365F000037000000317E0000327E0000B8
:105DC000362F3100312F330035000000332F3100E2
:105DD000337E000010F074F90834AFF25402AFF2D1
:105DE0002C01204610F06CF90834AFF22C02AFF20F
:105DF0006401204610F064F90834204609F0D8FF09
:105E00002846FEF78DFA28460CF016FC70BD0000FF
:105E100070B54FF4C8600CF023FC05462C46FEA27A
:105E2000FEA1204610F04CF90834FDA2FDA1204649
:105E300010F046F90834F8A2F8A1204610F040F915
:105E40000834F9A2F9A1204610F03AF90834F4A276
:105E5000F7A1204610F034F90834F6A2F1A120464B
:105E600010F02EF90834ECA2F3A1204610F028F926
:105E70000834EBA2E9A1204610F022F90834E6A28A
:105E8000EDA1204610F01CF90834E7A2E8A1204655
:105E900010F016F90834E0A2E4A1204610F010F941
:105EA0000834DDA2DFA1204610F00AF90834E1A28F
:105EB000DAA1204610F004F90834E0A2DBA1204664
:105EC00010F0FEF80834D8A2DDA1204610F0F8F852
:105ED0000834DAA2D5A1204610F0F2F80834D0A296
:105EE000D7A1204610F0ECF80834CBA2D5A120466B
:105EF00010F0E6F80834C8A2D3A1204610F0E0F86C
:105F00000834CEA2C9A1204610F0DAF80834C6A29F
:105F1000C4A1204610F0D4F80834BFA2C4A1204682
:105F200010F0CEF80834BEA2C0A1204610F0C8F888
:105F30000834B9A2C4A1204610F0C2F80834B6A2B1
:105F4000BAA1204610F0BCF80834C0A2B8A120467F
:105F500010F0B6F80834B2A2B0A1204610F0B0F8A4
:105F60000834AFA2B1A1204610F0AAF80834AAA2C2
:105F7000AFA1204610F0A4F80834A7A2ABA1204698
:105F800010F09EF80834A6A2A4A1204610F098F8BC
:105F90000834AFA2A3A1204610F092F80834A0A2C2
:105FA000A2A1204610F08CF808349BA2A0A12046A4
:105FB00010F086F8083498A29FA1204610F080F8CF
:105FC000083495A2A3A1204610F07AF8083492A2D2
:105FD00096A1204610F074F808348FA294A12046B0
:105FE00010F06EF808348CA28CA1204610F068F8EE
:105FF000083489A28BA1204610F062F8083486A2EA
:106000008BA1204610F05CF8083490A287A12046AE
:1060100010F056F8083489A284A1204610F050F8F8
:10602000083481A286A1204610F04AF808347AA2EA
:106030007EA1204610F044F8083479A280A12046C1
:1060400010F03EF8083474A27EA1204610F038F813
:10605000083471A27CA1204610F032F8083477A2EF
:1060600072A1204610F02CF808346BA275A12046CE
:1060700010F026F8083468A26DA1204610F020F830
:10608000083465A273A1204610F01AF8083462A201
:106090006DA1204610F014F808345FA263A12046D9
:1060A00010F00EF808345CA261A1204610F008F848
:1060B00008345BA25BA1204610F002F8083464A209
:1060C0005BA120460FF0FCFF083455A257A12046E3
:1060D0000FF0F6FF083450A255A120460FF0F0FF54
:1060E00008344DA254A120460FF0EAFF08344AA21A
:1060F00058A120460FF0E4FF083447A24BA12046E8
:106100000FF0DEFF083444A24BA120460FF0D8FF69
:10611000083441A241A120460FF0D2FF083440A22A
:106120004DA120460FF0CCFF083449A23BA12046E8
:106130000FF0C6FF08343AA23CA120460FF0C0FF82
:10614000083443A23FA120460FF0BAFF083432A220
:1061500036A120460FF0B4FF08342FA239A1204603
:106160000FF0AEFF083430A235A120460FF0A8FF93
:10617000083429A239A120460FF0A2FF083426A234
:1061800037A120460FF09CFF083423A22CA1204603
:106190000FF096FF083422A22AA120460FF090FFAC
:1061A00008342AA226A120460FF08AFF083423A231
:1061B0002AA120460FF084FF08341BA228A1204604
:1061C0000FF07EFF083418A21DA120460FF078FFC3
:1061D000083424A21BA120460FF072FF08340EA23F
:1061E00017A120460FF06CFF083418A20FA120461B
:1061F0000FF066FF083411A218A120460FF060FFCF
:10620000083409A216A120460FF05AFF083406A24E
:106210000BA1204628E00000312F3200365F00003D
:10622000312F310031000000332F320033000000E5
:1062300032000000372F3200375F0000322F31006C
:10624000360000003500000034000000342F31001B
:10625000332F310030000000355F0000317E000038
:1062600037000000352F32000FF02AFF0834AFF25C
:106270000C02AFF2300120460FF022FF0834AFF2DB
:106280006802AFF2440120460FF01AFF0834AFF263
:106290004402AFF2680120460FF012FF0834AFF25B
:1062A0008002AFF2880120460FF00AFF0834AFF2F7
:1062B0009002AFF2900120460FF002FF0834AFF2D7
:1062C000A002AFF2940120460FF0FAFE0834AFF2BC
:1062D000A802AFF2A80120460FF0F2FE0834AFF298
:1062E000C802AFF2C00120460FF0EAFE0834AFF258
:1062F000D002AFF2C80120460FF0E2FE0834AFF240
:10630000B002AFF2D40120460FF0DAFE0834AFF24B
:10631000F802AFF2E40120460FF0D2FE0834AFF2EB
:106320000812AFF2EC0120460FF0CAFE0834AFF2BB
:106330001812AFF2E00120460FF0C2FE0834AFF2AF
:106340002812AFF2181120460FF0BAFE0834AFF24F
:106350003812AFF21C1120460FF0B2FE0834AFF233
:106360004812AFF2481120460FF0AAFE0834AFF2EF
:106370005012AFF21C1120460FF0A2FE0834AFF20B
:106380003412AFF2681120460FF09AFE0834AFF2D3
:106390007812AFF2781120460FF092FE0834AFF277
:1063A0008012AFF2801120460FF08AFE0834AFF25F
:1063B0009812AFF2841120460FF082FE0834AFF23B
:1063C0009812AFF2981120460FF07AFE0834AFF21F
:1063D000B812AFF2B01120460FF072FE0834AFF2DF
:1063E000C012AFF2B81120460FF06AFE0834AFF2C7
:1063F000A012AFF2C41120460FF062FE0834AFF2D3
:10640000E012AFF2D81120460FF05AFE0834AFF276
:10641000D412AFF2D01120460FF052FE0834AFF282
:106420000022AFF2F81120460FF04AFE0834AFF216
:106430000822AFF2D41120460FF042FE0834AFF22A
:106440002822AFF2202120460FF03AFE0834AFF2A6
:106450003822AFF2F41120460FF032FE0834AFF2CA
:106460004822AFF2242120460FF02AFE0834AFF272
:106470005022AFF2302120460FF022FE083408A24D
:10648000AFF2442120460FF01BFE0834204609F0ED
:106490008FFC2846FDF744FF28460CF0CDF870BD70
:1064A000372F310070B54FF4C8600CF0D9F80546AD
:1064B0002C46FEA2FEA120460FF002FE0834FDA2EB
:1064C000FDA120460FF0FCFD0834FCA2FCA12046F3
:1064D0000FF0F6FD0834FBA2FBA120460FF0F0FD03
:1064E0000834F4A2F2A120460FF0EAFD0834F1A22C
:1064F000F3A120460FF0E4FD0834ECA2EEA1204603
:106500000FF0DEFD0834EBA2F0A120460FF0D8FD1D
:106510000834EFA2E8A120460FF0D2FD0834EDA226
:10652000E3A120460FF0CCFD0834E6A2E6A1204608
:106530000FF0C6FD0834DDA2DDA120460FF0C0FD3E
:106540000834DCA2DCA120460FF0BAFD0834DBA23F
:10655000DBA120460FF0B4FD0834DAA2DAA1204610
:106560000FF0AEFD0834D3A2D1A120460FF0A8FD54
:106570000834D0A2D2A120460FF0A2FD0834CBA24D
:10658000D5A120460FF09CFD0834CAA2CCA120461C
:106590000FF096FD0834CEA2CFA120460FF090FD5B
:1065A0000834C2A2CDA120460FF08AFD0834C5A24E
:1065B000C5A120460FF084FD0834C2A2BCA120462C
:1065C0000FF07EFD0834C6A2C6A120460FF078FD6C
:1065D0000834BCA2BAA120460FF072FD0834B5A25F
:1065E000BDA120460FF06CFD0834B2A2B4A1204634
:1065F0000FF066FD0834B3A2B7A120460FF060FD8E
:106600000834B0A2B0A120460FF05AFD0834ADA264
:10661000AEA120460FF054FD0834A4A2AFA120463D
:106620000FF04EFD0834AAA2ABA120460FF048FDA2
:106630000834A2A2A2A120460FF042FD08349DA278
:10664000A1A120460FF03CFD08349EA2A2A1204645
:106650000FF036FD083497A299A120460FF030FDC7
:10666000083494A292A120460FF02AFD08348FA28C
:1066700099A120460FF024FD08348EA28CA120465B
:106680000FF01EFD08348BA28DA120460FF018FDDF
:10669000083488A286A120460FF012FD083483A298
:1066A00087A120460FF00CFD083482A28AA1204663
:1066B0000FF006FD083483A28AA120460FF000FDEA
:1066C000083489A285A120460FF0FAFC08347BA289
:1066D00082A120460FF0F4FC08347AA27AA1204669
:1066E0000FF0EEFC083477A280A120460FF0E8FC02
:1066F00008346EA27EA120460FF0E2FC083471A29D
:106700007CA120460FF0DCFC08346AA27AA1204666
:106710000FF0D6FC083467A274A120460FF0D0FC1D
:10672000083464A274A120460FF0CAFC083465A2A4
:106730006EA120460FF0C4FC08345EA26EA1204674
:106740000FF0BEFC08345BA25FA120460FF0B8FC3E
:1067500008345CA265A120460FF0B2FC083455A2B3
:1067600065A120460FF0ACFC083450A263A120467E
:106770000FF0A6FC083453A25CA120460FF0A0FC49
:1067800008344CA25EA120460FF09AFC08344BA2BC
:1067900056A120460FF094FC08344AA24AA1204694
:1067A0000FF08EFC083447A250A120460FF088FC61
:1067B00008343EA24EA120460FF082FC083441A2CC
:1067C0004CA120460FF07CFC08343AA24AA1204696
:1067D0000FF076FC083437A244A120460FF070FC7D
:1067E000083434A244A120460FF06AFC083435A2D4
:1067F0003EA120460FF064FC08342EA23EA12046A4
:106800000FF05EFC08342BA22FA120460FF058FC9D
:1068100008342CA235A120460FF052FC083425A2E2
:1068200035A120460FF04CFC083420A233A12046AD
:106830000FF046FC08341FA231A120460FF040FCA7
:10684000083420A22DA120460FF03AFC08341BA2E8
:1068500026A120460FF034FC08341AA21AA12046C3
:106860000FF02EFC083417A220A120460FF028FCC0
:1068700008340EA21EA120460FF022FC083411A2FB
:106880001CA120460FF01CFC08340AA21AA12046C5
:106890000FF016FC083407A214A120460FF010FCDC
:1068A000083404A214A120462CE00000322F32004C
:1068B000365F0000312F3400375F0000352F340081
:1068C00031000000312F320030000000355F000041
:1068D000332F3400342F3200320000003300000028
:1068E000332F320034000000382F3400360000000F
:1068F000337E0000327E0000317E00003700000051
:10690000350000000FF0DCFB0834AFF24802AFF2B4
:10691000240120460FF0D4FB0834AFF26802AFF236
:10692000280120460FF0CCFB0834AFF27802AFF21A
:10693000680120460FF0C4FB0834AFF27802AFF2D2
:10694000540120460FF0BCFB0834AFF29802AFF2BE
:10695000580120460FF0B4FB0834AFF2B002AFF29A
:10696000640120460FF0ACFB0834AFF2A802AFF28E
:10697000840120460FF0A4FB0834AFF2C802AFF246
:10698000800120460FF09CFB0834AFF2D002AFF23A
:10699000B40120460FF094FB0834AFF2D802AFF2F6
:1069A000D80120460FF08CFB0834AFF2E802AFF2BA
:1069B000C40120460FF084FB0834AFF2EC02AFF2C2
:1069C000D00120460FF07CFB0834AFF208122FA153
:1069D00020460FF075FB0834AFF21812AFF2F00149
:1069E00020460FF06DFB0834AFF22812AFF2FC0125
:1069F00020460FF065FB0834AFF23812AFF20811F1
:106A000020460FF05DFB0834AFF25812AFF21C11B4
:106A100020460FF055FB0834AFF24C12AFF23411A0
:106A200020460FF04DFB0834AFF28012AFF23C115C
:106A300020460FF045FB0834AFF27812AFF2481150
:106A400020460FF03DFB0834AFF27C12AFF2541138
:106A500020460FF035FB0834AFF29812AFF2681100
:106A600020460FF02DFB0834AFF28C12AFF28411E8
:106A700020460FF025FB0834204609F099F92846F6
:106A8000FDF74EFC28460BF0D7FD70BD357E0000AB
:106A900070B54FF416600BF0E3FD05462C46FEA2E0
:106AA000FEA120460FF00CFB0834FDA2FDA12046FC
:106AB0000FF006FB0834FCA2FCA120460FF000FBFF
:106AC0000834F7A2FAA120460FF0FAFA0834F4A22B
:106AD000F6A120460FF0F4FA0834F3A2EFA1204605
:106AE0000FF0EEFA0834EEA2F2A120460FF0E8FA19
:106AF0000834EBA2E9A120460FF0E2FA0834EAA23A
:106B0000EDA120460FF0DCFA0834E5A2EBA1204607
:106B10000FF0D6FA0834E2A2E6A120460FF0D0FA30
:106B20000834DDA2DDA120460FF0CAFA0834DCA249
:106B3000DEA120460FF0C4FA0834D9A2DCA1204619
:106B40000FF0BEFA0834D8A2DDA120460FF0B8FA43
:106B50000834DCA2D3A120460FF0B2FA0834D9A23F
:106B6000D9A120460FF0ACFA0834D8A2D4A120460F
:106B70000FF0A6FA0834D5A2D0A120460FF0A0FA53
:106B80000834C5A2C5A120460FF09AFA0834C4A261
:106B9000C4A120460FF094FA0834C3A2C3A1204632
:106BA0000FF08EFA0834BEA2C1A120460FF088FA79
:106BB0000834BBA2BDA120460FF082FA0834BAA265
:106BC000B6A120460FF07CFA0834B5A2B9A1204640
:106BD0000FF076FA0834B2A2B0A120460FF070FA96
:106BE0000834B1A2B4A120460FF06AFA0834ACA26E
:106BF000B2A120460FF064FA0834A9A2B4A120463D
:106C00000FF05EFA0834A6A2ABA120460FF058FAA6
:106C10000834A3A2A7A120460FF052FA0834A0A27C
:106C20009EA120460FF04CFA08349DA2A0A1204658
:106C30000FF046FA08349CA298A120460FF040FAC3
:106C4000083499A29BA120460FF03AFA08349FA27B
:106C500092A120460FF034FA083493A297A120465F
:106C60000FF02EFA08348EA291A120460FF028FAD8
:106C700008348BA292A120460FF022FA083488A291
:106C800088A120460FF01CFA083485A28CA120466A
:106C90000FF016FA083482A282A120460FF010FAF3
:106CA00008347DA288A120460FF00AFA08347CA29D
:106CB0007CA120460FF004FA083479A280A1204676
:106CC0000FF0FEF9083478A279A120460FF0F8F908
:106CD000083473A271A120460FF0F2F9083470A2B3
:106CE00074A120460FF0ECF908346FA272A120467F
:106CF0000FF0E6F908346AA26DA120460FF0E0F922
:106D0000083467A26EA120460FF0DAF9083464A2B5
:106D100064A120460FF0D4F9083461A268A120468E
:106D20000FF0CEF908345EA25EA120460FF0C8F93C
:106D300008345BA264A120460FF0C2F9083458A2BF
:106D400058A120460FF0BCF9083455A25CA120469A
:106D50000FF0B6F908345BA255A120460FF0B0F948
:106D600008345CA24DA120460FF0AAF9083457A2BE
:106D70004CA120460FF0A4F9083449A24CA12046AA
:106D80000FF09EF9083446A24DA120460FF098F965
:106D9000083443A243A120460FF092F9083440A2E0
:106DA00047A120460FF08CF908343DA23DA12046B2
:106DB0000FF086F9083438A243A120460FF080F97D
:106DC000083437A237A120460FF07AF9083434A2EC
:106DD0003BA120460FF074F9083431A234A12046BB
:106DE0000FF06EF9083437A235A120460FF068F98C
:106DF000083434A22EA120460FF062F9083428A2EC
:106E000026A120460FF05CF9083425A229A12046CE
:106E10000FF056F9083424A227A120460FF050F9AC
:106E200008341FA225A120460FF04AF908341CA2FD
:106E300020A120460FF044F9083419A217A12046DA
:106E40000FF03EF9083416A21AA120460FF038F9C7
:106E5000083413A211A120460FF032F9083410A211
:106E600010A120460FF02CF908340DA20BA12046EA
:106E70000FF026F908340AA20EA120460FF020F9DF
:106E8000083407A205A120460FF01AF9083404A21D
:106E900008A1204620E00000332F32003600000019
:106EA000312F3200337E0000322F320037000000D5
:106EB000317E00003500000033000000300000008B
:106EC000327E0000312F3400357E0000342F320036
:106ED00032000000332F34000FF0F2F80834AFF224
:106EE0001402AFF2480120460FF0EAF80834AFF27E
:106EF0004802AFF2380120460FF0E2F80834AFF252
:106F00006002AFF2600120460FF0DAF80834AFF209
:106F10007002AFF24C0120460FF0D2F80834AFF205
:106F20008002A6A120460FF0CBF80834AFF2900201
:106F3000AFF26C0120460FF0C3F80834AFF2A002A4
:106F4000AFF2A00120460FF0BBF80834AFF2A80260
:106F5000AFF2940120460FF0B3F80834AFF2C0024C
:106F6000AFF2B40120460FF0ABF80834AFF2D00214
:106F7000AFF2D80120460FF0A3F80834AFF2D802E0
:106F8000AFF2C40120460FF09BF80834AFF2F002D4
:106F9000AFF2CC0120460FF093F80834AFF208129C
:106FA000AFF2001120460FF08BF80834AFF2101248
:106FB000AFF2F80120460FF083F80834AFF2FC027C
:106FC000AFF2201120460FF07BF80834AFF20C121C
:106FD000AFF20C1120460FF073F80834AFF23812FC
:106FE00076A120460FF06CF80834AFF24C12AFF2E5
:106FF000281120460FF064F80834AFF25C12AFF2AB
:107000005C1120460FF05CF80834AFF26412AFF266
:10701000501120460FF054F80834AFF27C12AFF252
:107020007C1120460FF04CF80834AFF28C12AFF20E
:10703000681120460FF044F80834AFF27012AFF236
:107040009C1120460FF03CF80834AFF2A412AFF2C6
:10705000941120460FF034F80834AFF2BC12AFF2AE
:10706000BC1120460FF02CF80834AFF2CC12AFF26E
:10707000A81120460FF024F80834AFF2D4124FA123
:1070800020460FF01DF80834AFF2EC12AFF2C81131
:1070900020460FF015F80834AFF2FC12AFF2FC11E5
:1070A00020460FF00DF80834AFF20422AFF2F011D1
:1070B00020460FF005F80834AFF21422AFF2102189
:1070C00020460EF0FDFF0834AFF22422AFF2242157
:1070D00020460EF0F5FF0834AFF23422AFF22C2137
:1070E00020460EF0EDFF0834AFF24422AFF240210B
:1070F00020460EF0E5FF0834AFF25C22AFF26421C7
:1071000020460EF0DDFF0834AFF26C22AFF25C21B6
:1071100020460EF0D5FF0834AFF27422AFF284217E
:1071200020460EF0CDFF0834AFF28C22AFF274216E
:1071300020460EF0C5FF0834AFF29C22AFF290213A
:1071400020460EF0BDFF0834AFF2AC22AFF2A4210E
:1071500020460EF0B5FF0834AFF29822AFF2B0210E
:1071600020460EF0ADFF0834AFF2A822AFF2C421E2
:1071700020460EF0A5FF0834AFF2DC22AFF2E42186
:1071800020460EF09DFF0834AFF2EC22AFF2DC2176
:1071900020460EF095FF083409A2AFF200312046D8
:1071A0000EF08EFF0834204608F002FE2846FDF758
:1071B000B7F828460BF040FA70BD0000367E00009C
:1071C000362F320070B54FF4C8600BF049FA05460F
:1071D0002C4614A214A120460EF072FF083411A20E
:1071E00012A120460EF06CFF08340EA210A120461A
:1071F0000EF066FF08340BA20EA120460EF060FFD1
:1072000008340DA20DA120460EF05AFF0834204686
:1072100008F0CEFD2846FDF783F828460BF00CFA5F
:1072200070BD0000312F320031000000320000003C
:107230003300000034000000312F31003500000021
:107240002DE9FF4704460D46164699460020039057
:10725000029600278046009002A80DF0B7F98DF83D
:107260000C000398C0F30310022800D01FE001A90E
:10727000029800F04DF88046029908440290DDE93A
:10728000011047180298381A022800DA0FE002A805
:107290000DF09CF98DF80000009800F001002070BE
:1072A00002A80DF093F928704FF0010800BF404686
:1072B00004B0BDE8F0872DE9F84305460C460126E9
:1072C00000270020206000BF4FF0FF38781C0746E1
:1072D000042801DD00BF17E001216846A847804669
:1072E000B8F1010F00D00FE09DF8001001F07F0110
:1072F000206801FB06002060F6019DF8000000F008
:1073000080000028E0D100BF3846BDE8F8830000C7
:1073100070B504460D460348046029460248FFF74D
:10732000CAFF70BD0C020020FDB0000830B5024657
:10733000002300BF0846CD1701EB5565ED11A1EB09
:10734000C515ECB2CD1701EB5565E911002901DD3A
:1073500044F0800418465B1C14540029EADC1846EB
:1073600030BD0000401C802801DA401C0AE0B0F566
:10737000804F01DA801C05E00349884201DAC01C15
:1073800000E0001D70470000FFFF1F002DE9FE43D5
:1073900005460E46144602950020019000900027F5
:1073A0004FF0FF38204600F0A5F807468146FFF76A
:1073B000D9FFB04202DD6FF001088FE000208DF8A8
:1073C0000400019820F0F000103001909DF80410A6
:1073D00002A80FF003FB39460298FFF7A7FF0299B6
:1073E00008440290207A042808D13EA102A80FF098
:1073F000E1FA042102A80FF0F1FA07E03BA102A88C
:107400000FF0D8FA032102A80FF0E8FA00208DF857
:107410000000A17E009861F341000090E07E08B179
:10742000012100E00021009861F3820000900098A3
:10743000C0F3800058B194F83D10009861F3C40087
:10744000009094F83C10009861F345100090206C77
:1074500008B9A06C20B1009820F080008030009026
:10746000E06C08B9606D20B1009820F04000403019
:1074700000909DF8001002A80FF0B0FA218B02A82E
:107480000FF0B2FA02A8D4E90423E1680FF0C4FABD
:10749000E07E58B102A8D4E90A23616A0FF0BCFA71
:1074A00002A8D4E90D23216B0FF0B6FA0098C0F3BF
:1074B000C01028B102A8D4E91123216C0FF0ACFA56
:1074C0000098C0F3801028B102A8D4E91423E16C1D
:1074D0000FF0A2FA0298A0EB050800BF4046BDE8F5
:1074E000FE8300004D515454000000004D5149737B
:1074F0006470000070B504460025207A032801D18D
:107500000C2503E0207A042800D10A25D4E90412CE
:10751000E06800F02AF8801C0544E07E68B1D4E9F8
:107520000A12606A00F021F8861CD4E90D12206B63
:1075300000F01BF83044801C0544206C08B9A06C96
:1075400030B1D4E91112206C00F00FF8801C054412
:10755000E06C08B9606D30B1D4E91412E06C00F051
:1075600004F8801C0544284670BD37B500240098F7
:1075700020B10098FBF7A4FC044600E0019C2046E3
:107580003EBD00F04FF800F04DF8000070B500214E
:1075900000230F22C47804B3154C246804F4E0647B
:1075A000C4F5E064210AC1F10403CA40447804FA36
:1075B00003F184781440214309010E4C0678A1554B
:1075C000047804F01F050124AC4005786D11AD006E
:1075D00005F1E025C5F8004109E0047804F01F0535
:1075E0000124AC40044D0678761145F8264070BD64
:1075F0000CED00E000E400E080E100E0024901431E
:10760000024A1160704700000000FA050CED00E02E
:10761000024A0A400243024B1A60704780FFFF1F74
:1076200008ED00E00648006800F4E0600549084302
:10763000001D03490860BFF3408F00BFFEE7000054
:107640000CED00E00000FA0510B50D480068B0B977
:107650000C480068FBF774FA0B490860084600689C
:107660000A4908600A480849096800EB41100949BD
:1076700008600846006808490860FBF71EFA10BD5C
:1076800044000020680000204C000020480000203A
:10769000F4190020540000205000002070B504466A
:1076A00010464FF080750560051F28462C606FF06E
:1076B0000106051F28462E604FF01236051F28468A
:1076C0002E604FF00336051F28462E604FF002361D
:1076D000051F28462E607610051F28462E60051FC0
:1076E000284629604FF01136051F28462E604FF0BE
:1076F0001036051F28462E604FF00936051F284614
:107700002E604FF00836051F28462E604FF00736D2
:10771000051F28462E604FF00636051F28462E60AE
:107720004FF00536051F28462E604FF00436051F22
:1077300028462E6070BD000010B5FBF7B7F904466F
:1077400006480078401C054908700548007805493E
:1077500008702046FBF7AEF910BD00006400002061
:107760004C0000206C00002010B5FBF79FF9044688
:107770000948007820B108480078401E0649087082
:107780000548007810B92020044908702046FBF70E
:1077900091F902F01DFE10BD640000206C00002075
:1077A00010B50346074800EB42100160054800EBA6
:1077B000421043604FF00040024C04EB4214E06082
:1077C000002010BDF4190020014908627047000034
:1077D00000000E42024800880A30014908807047C4
:1077E0006801002029B1064AD2690243044BDA61DC
:1077F00004E0034AD2698243014BDA61704700001A
:107800000010024029B1064A12690243044B1A6172
:1078100004E0034A12698243014B1A617047000079
:107820000010024029B1064A92690243044B9A6152
:1078300004E0034A92698243014B9A617047000059
:107840000010024029B1064AD2680243044BDA60B4
:1078500004E0034AD2688243014BDA6070470000BB
:107860000010024001490860704700004004424295
:1078700030B500210022002400232D4D6D6805F055
:107880000C0121B1042905D0082923D105E0294D97
:10789000056022E0274D05601FE0254D6D6805F469
:1078A0007012234D6D6805F48034022505EB924279
:1078B0001CB9214D554305600BE01D4D6D6805F465
:1078C00000351DB11C4D5543056002E0194D55436F
:1078D000056002E0174D056000BF00BF144D6D68E4
:1078E00005F0F0010909154D6B5C0568DD40456048
:1078F0000F4D6D6805F4E061090A104D6B5C456839
:10790000DD4085600A4D6D6805F46051C90A0B4D74
:107910006B5C4568DD40C560054D6D6805F4404110
:10792000890B074D6B5CC568B5FBF3F5056130BD90
:107930000010024000127A0000093D0018000020EB
:107940002800002010B501460022002300204A1123
:10795000012A02D1094C236806E0022A02D1074C11
:10796000236A01E0054C636A01F01F020124944080
:107970001C400CB1012000E0002010BD00100240AE
:1079800000210B4A11700A4A203A82F8201001287F
:1079900002D0042808D103E00121054A117004E057
:1079A0000521034A117000E000BF00BF70470000CE
:1079B0002010024001490860704700003C04424228
:1079C0000249096A0143014A1162704700100240EE
:1079D00070B504460D4602F021FD0E490968884243
:1079E00001D0002070BD0DB90020FBE70BE000BF07
:1079F0008021094802F038FE0028F9D02078064995
:107A0000091D0880641C2800A5F10101CDB2EED14A
:107A100000BFE7E74C0000200038014070B5054684
:107A20000E4600240B48008838B100BF03E0002058
:107A30002855601C84B2B442F9DB002404E0FDF751
:107A40009BFA2855601C84B2024800880028F6D1B1
:107A5000204670BDBE0000202DE9F04105460E46CF
:107A6000002400BF03E000202855601C84B2B4420B
:107A7000F9DB002442F2107809E0A8F101001FFAB6
:107A800080F8B8F1000F02D10020BDE8F081214854
:107A900000780028F1D020480068002838D0002461
:107AA00000270CE001F0B2FBFF2804D101F0C2FB7B
:107AB000FF2800D105E0FDF75FFA781C87B2322F6E
:107AC000F0DB00BF002410E0FDF756FA2855601CDB
:107AD00084B2B44200D10CE001F098FBFF2804D13D
:107AE00001F0A8FBFF2800D103E00C480088002823
:107AF000EAD100BF0948008850B900200849088031
:107B0000084908600849088001200849C1F8940123
:107B10002046BAE7C000002020012142BE0000201C
:107B2000B800002094012742BA000020000027423C
:107B300010B586B0044601210420FFF773FE012131
:107B40008803FFF76FFE464802F040FD4FF4807057
:107B5000ADF8140004208DF8170003208DF81600EE
:107B600005A94048FDF77EF84FF480713D48FDF7C8
:107B70004FF94FF40060ADF8140010208DF8170095
:107B800003208DF8160005A93648FDF76BF84FF471
:107B900000613448FDF73AF94FF48050ADF8140015
:107BA00010208DF8170003208DF8160005A92D4828
:107BB000FDF758F84FF480512A48FDF727F94FF4A4
:107BC0000070ADF8140002208DF8160018208DF812
:107BD000170005A92348FDF745F84FF48060ADF87C
:107BE000140004208DF8170005A91E48FDF73AF887
:107BF00025208DF8000000208DF801008DF802008E
:107C000001208DF803006846FFF7C0FC01940020B6
:107C1000ADF80800ADF80A00ADF80C00ADF81000A2
:107C20000C20ADF80E0000210D4802F0C2FC0C48FB
:107C300002F0CCFC01A90A4802F072FD012240F2D8
:107C40002551074802F047FD012240F22441044833
:107C500002F041FD0121024802F0ABFC06B010BD6C
:107C600000380140000801401FB504464FF416508B
:107C7000FFF75EFF01201F4908601F49C1F8AC01F2
:107C8000642007F0FBF81DA103C9CDE902018DF8BE
:107C90000C401CE0062102A8FFF79AFE4FF4FA7090
:107CA00007F0ECF800200090019006216846FFF7ED
:107CB000B5FE694613A00DF0E9F900B108E09DF8A2
:107CC00004009DF80C10884200D101E000BFE1E7FC
:107CD00000BF0020074908600749C1F8AC016420D3
:107CE00007F0CCF84FF4E130FFF722FF002004B09A
:107CF00010BD0000B001214200002142C200003A44
:107D0000144000004F4B0000024909888143014A9A
:107D100011807047042800400348008840F010009C
:107D2000014908807047000004280040034800888B
:107D30004FF6EF7108400149088070470428004061
:107D400070B500260024002500F07AF80646384871
:107D5000B6FBF0F437480088A0423CD035490C808F
:107D600040F2B27510E02846FDF794FA40B1B4F540
:107D7000B77F02D3A4F5B77404E0681C85B206E0AF
:107D8000A4F26D14681C85B2B4F5B67FEBD800BFC1
:107D900029488580002516E027498888FDF77AFA6A
:107DA00030B1012D04D11D2C01D31D3C09E00CE0A4
:107DB0002248405DA04203D82048405D241A00E0DC
:107DC00003E0681C85B21C2CE6D200BF681C1A496F
:107DD0008871601CC8711648B6FBF0F100FB116495
:107DE0004FF46160B4FBF0F0134908704FF4616028
:107DF000B4FBF0F100FB11403C21B0FBF1F00E4967
:107E000048704FF46160B4FBF0F100FB11403C217D
:107E1000B0FBF1F201FB1200074988700B46DA79DA
:107E20009979988800F02CF803490872002070BDF9
:107E3000805101006E000020F41D00200A8001081E
:107E4000002103480188001F008841EA0040704774
:107E50001C28004001460020064A12880A40D0B281
:107E6000044A121F12880A4012B108B1012000E032
:107E7000002070470428004000487047F41D00208F
:107E8000F0B503460C461546642093FBF0F0C6B2ED
:107E9000642093FBF0F700FB1730C1B2132E02DD14
:107EA00001F16400C1B20846CF1701EB977701EBEF
:107EB000A707BAB2072092FBF0F700FB172082B2A7
:107EC0005719601EDFF82CC01CF80000384482B23D
:107ED000CF1701EB9777BF10A1EB87071FB9032CD2
:107EE00001DA501E82B2072092FBF0F700FB172048
:107EF000C0B2F0BDFE7F010810B50120FFF7AAFF58
:107F000008B1FFF71DFF0220FFF7A4FF10B1022008
:107F1000FFF7FAFE0520FFF7F7FE00F015F910BD98
:107F200029B1064A12880243044B1A8004E0034A2E
:107F300012888243014B1A807047000000280040DD
:107F40001CB500240420FCF74DF945F2500188428D
:107F500047D001214FF0C050FFF744FC0120FFF74C
:107F600033FCFCF737F90120FFF70AFD04E0601C41
:107F7000C4B20A2006F09CFF4120FFF7E3FC002872
:107F8000F5D0FA2C01DB01201CBD4FF48070FFF707
:107F900017FD0120FFF70EFD00F0D6F800F0DEF827
:107FA00001210846FFF7BCFF00F0CEF8FFF7B4FE52
:107FB00047F6FF7000F0A6F800F0C6F83720002161
:107FC0000A230222CDE900100C2140F2D97000F002
:107FD00027F8FFF7ABFE45F250010420FCF710F93B
:107FE00007E000F0BBF801210846FFF799FF00F019
:107FF000ABF800F004F8FFF7A3FE0020C4E708B5D3
:1080000003208DF8000001208DF8010003208DF879
:10801000020001208DF803006846FFF7B7FA08BD9B
:108020002DE9F05F06460F4690469946DDE90AAB1A
:10803000002440F2B270864203DB40F633008642F1
:1080400002DD0120BDE8F09F40F2B2750AE028464B
:10805000FDF720F910B12048044401E01F48044412
:10806000681C85B2B542F2DB781EC7B2002510E06D
:108070001B48405D40F2A321484304EBC014304646
:10808000FDF708F918B1012D01D116480444681C08
:1080900085B2BD42ECDBA8F1010040F2A3214843C8
:1080A00004EBC014C9EB4910C0EB092004EB001429
:1080B000CAEB0A1004EB80045C4401214FF0C0506D
:1080C000FFF790FB0120FFF77FFB204600F00CF844
:1080D00000F03AF80020B5E70085E2018033E101C5
:1080E0000A8001088051010000B50246FFF714FE26
:1080F000100C03490880091D0A80FFF717FE00BD18
:108100001828004000B50246FFF706FEC2F3034000
:1081100003490880091D0A80FFF708FE00BD000022
:108120000828004010B5044601214FF0C050FFF769
:1081300059FB0120FFF748FB2046FFF7D5FF00F071
:1081400003F8002010BD000000BF0348008800F0C5
:1081500020000028F9D07047042800400748008814
:108160004FF6F77108400549088000BF03480088B2
:1081700000F008000028F9D07047000004280040F3
:108180002DE9F04780460D462621404600F0D6F8FE
:10819000064616B90020BDE8F08740F2B45086428A
:1081A00000DD06462821404600F0C8F80746B946DB
:1081B000C7F30A0710213A48FCF728FE384600F0BA
:1081C0001BFC182101EB4811C8B200F005FC354832
:1081D00000F0A5FE00F0FF0AB819B0F5006F11DA43
:1081E00000240CE0002000F0F7FB2E4800F097FE82
:1081F00000F0FF0A85F800A06D1C601C84B2B44238
:10820000F0DB39E0C7F5006087B200240CE0002005
:1082100000F0E2FB234800F082FE00F0FF0A85F840
:1082200000A06D1C601C84B2BC42F0DB10211C4815
:10823000FCF7EEFD10211A48FCF7E8FD002000F0E5
:10824000DBFB182101EB4811C8B200F0C5FB154853
:1082500000F065FE00F0FF0A0CE0002000F0BCFB1F
:10826000104800F05CFE00F0FF0A85F800A06D1CCD
:10827000601C84B2B442F0DB10210948FCF7C8FD51
:1082800009EB06001FFA80F94A462821404602F011
:10829000C3FD40220121404602F0A0FD30467AE7AE
:1082A000000801400030014070B5044610210D481F
:1082B000FCF7ACFD204600F09FFB012000F08CFB9A
:1082C000094800F02CFEC5B2002000F085FB0648EE
:1082D00000F025FEC5B210210248FCF799FD2846A2
