:020000040800F2
:1028000060260020A92A00086B780008CF53000832
:10281000677800089D4600089BB40008000000008F
:1028200000000000000000000000000053950008B8
:10283000F949000800000000332B000875A40008C7
:10284000C32A0008C32A0008C32A0008E58100083B
:10285000C32A0008C32A0008C32A0008C32A0008A4
:10286000C32A0008C32A0008EF4B0008C32A000847
:10287000C32A0008C32A0008C32A0008C32A000884
:10288000C32A0008C32A0008C32A0008C32A000874
:10289000C32A0008C32A0008C32A0008C32A000864
:1028A000C32A0008C32A0008C32A0008C32A000854
:1028B00051A500087DA5000899A50008C32A0008B5
:1028C000C32A0008C32A0008C32A0008C32A000834
:1028D000C32A0008B1AF0008A9B00008C32A000845
:1028E000C32A0008C32A0008C32A0008C32A000814
:1028F000C32A0008C32A0008C32A0008C32A000804
:10290000C32A0008C32A0008C32A0008C32A0008F3
:10291000C32A0008C32A0008C32A0008C32A0008E3
:10292000C32A0008C32A0008C32A0008C32A0008D3
:1029300000F002F800F07EF80AA090E8000C824453
:102940008344AAF10107DA4501D100F073F8AFF230
:10295000090EBAE80F0013F0010F18BFFB1A43F07D
:1029600001031847FC9E01001C9F01000A444FF020
:10297000000C10F8013B13F0070408BF10F8014BDE
:102980001D1108BF10F8015B641E05D010F8016B23
:10299000641E01F8016BF9D113F0080F1EBF10F887
:1029A000014BAD1C0C1B09D16D1E58BF01F801CBAA
:1029B000FAD505E014F8016B01F8016B6D1EF9D52D
:1029C0009142D6D370470000002300240025002642
:1029D000103A28BF78C1FBD8520728BF30C148BF82
:1029E0000B607047662918F02A82652918F0278243
:1029F000642900F05181752900F04E81782900F09A
:102A00008781732900F0DB86002070471FB500F036
:102A10005CFA00F0D9FE04000020002117F06AF9EA
:102A2000401C60600020002117F07AF9E0601FBDB3
:102A300010B510BD00F0C8FF1146FFF7E7FF11F019
:102A400037FB00F0E6FF03B4FFF7F2FF03BC09F029
:102A5000B0F80000EFF30980704780F309887047F1
:102A6000EFF30880704780F30888704740BA7047DA
:102A7000C0BA70470B49D1F800C04A685CF8043B03
:102A80001068184442F8040B8C4528BFA1F1DC0CF7
:102A90008A4228BFA1F1DC02C1F800C04A6020F0E0
:102AA00000407047F8230020094880470948004744
:102AB000FEE7FEE7FEE7FEE7FEE7FEE7FEE7FEE7EE
:102AC000FEE7FEE704480549034A054B704700004E
:102AD000F1A40008312900086024002060260020AD
:102AE00060240020EFF3108072B6704780F31088E6
:102AF0007047264C264D25604FF0000484F309886A
:102B0000244C4FF001052570234C4FF08055256073
:102B100062B6FEE730B4204C4FF08055256030BCE3
:102B2000704730B41C4C4FF08055256030BC704766
:102B300000BF72B6EFF3098028B1203880E8F00FAB
:102B400016490968086000B51548006800B180475B
:102B50005DF804EB134814490A7802700F481349D2
:102B60000A680260106890E8F00F203080F309884E
:102B70004EF0040E62B67047B0FA80F0704790FADB
:102B8000A0F04FEA10407047DDF810F020ED00E0B3
:102B90000000FFFF4400002004ED00E05000002092
:102BA00060000020480000204C000020540000205D
:102BB000704710B5044600F059FB0068005DC00680
:102BC00002D504F1200010BD204610BD0FB41CB585
:102BD000084B06AA7B4469460090059800F0C5FDA5
:102BE00004460020694600F0D3FD20461CBC5DF879
:102BF00014FB0000B90B000070B50446856900683D
:102C0000C10601D5302600E02026C00707D070BDE0
:102C1000D4E9012130469047206A401C20626D1E95
:102C2000F6D570BD70B5044685690078C00707D138
:102C300070BDD4E9012120209047206A401C206209
:102C40006D1EF6D570BD70B50C460546012A05D03F
:102C50002878800600D5EA69002302E0012305E018
:102C60005B1C934202D2E05C0028F9D1A869E61807
:102C7000C01AA861286A184428622846FFF7BCFFDA
:102C800004E0D5E9012114F8010B9047B442F8D3D0
:102C90002846FFF7C7FF70BD2DE9F0410646002426
:102CA00010687529314616A510D0AFF300800028B2
:102CB00002DA404213A507E031688A0701D512A560
:102CC00002E0490704D511A5012401E0AFF300801B
:102CD00000210A2206F1240709E0B0FBF2FCB0FB58
:102CE000F2F302FB1C00303078541846491C0028CF
:102CF000F3D123462A463046BDE8F04100F0C9BA78
:102D0000000000002D0000002B000000200000004B
:102D100070B504460D4621461068AFF30080218847
:102D2000090502D50F4A7A4402E00E4A7A440E326F
:102D3000002104F1240305E000F00F060009965D70
:102D40005E54491C0028F7D120780023000704D5E1
:102D5000702D02D009B1022311322046BDE8704027
:102D600000F097BAFE8A01002DE9F05F894604461B
:102D70004FF0000ADFF824B1FB44C0F820A0204641
:102D8000E168884700287DD0252806D0D4E90121B4
:102D90009047206A401C2062F1E700255F462046EC
:102DA000E16888472028064607DB312E05D2B8198E
:102DB00010F8200C08B10543F1E7A80701D525F06C
:102DC0000405C4F81CA00027C4F818A02A2E09D0B6
:102DD000304608F0E7FE38B304EB8708303EC8F809
:102DE000186019E059F8041B204604EB8702916132
:102DF000E1688847012F064618D1E069002820DAEB
:102E000025F020051DE0D8F8180000EB800006EB47
:102E100040003038C8F818002046E1688847064668
:102E200008F0C0FE0028EED1012F0AD02E2E08D1C6
:102E30002046E16888477F1C0646022F45F02005A2
:102E4000C4DBA069002803DA404245F00105A06117
:102E5000E80701D025F01005A6B1A6F14100192818
:102E600002D8203645F400654A46314620462560A2
:102E70004D46FFF7B7FD60B1012807D0ED1D25F0E5
:102E8000070000E007E000F1080978E705F1040910
:102E900075E730467AE7206ABDE8F09FD48A0100E2
:102EA0000B4910B5A1F17C020A4CC2E93712372157
:102EB00006E000EB104342F82130074B00FB0340D3
:102EC0000B1EA1F10101F4DC10BD0120E8E70000B8
:102ED00098230020E119D666CD0D0100401ECAB22C
:102EE00010F8011F8A4202D00029F9D10020704752
:102EF00040EA0103024630B59B0710D14FF0013480
:102F000000E008C208C91D1B9D4315EAC41FF8D084
:102F100013F0FF0102F8011B0DD01B0AF8E711F8AE
:102F2000013B002B02F8013B05D011F8013B002BBF
:102F300002F8013BF3D130BD10B5431C02E010F89C
:102F4000011B71B18107FAD14FF0013202C88C1A0E
:102F50008C4314EAC211F9D0C01A0A0603D0C01E6D
:102F600010BDC01A10BD0A0401D0801E10BD090298
:102F7000FCD0401E10BD40EA010370B59B072ED166
:102F80004FF00136042A2AD308C810C99D1B9D435F
:102F9000121F15EAC61517D0D8B2E1B2401A50EA8E
:102FA000056110D198B2A1B2401A50EA05410AD188
:102FB00023F07F4024F07F41401A50EA052102D1DE
:102FC000180EA0EB146070BDA342DBD018BA21BA72
:102FD000884201D9012070BD4FF0FF3070BD0AB9A1
:102FE000002070BD10F8013B11F8014B63B1A34202
:102FF0000AD1521E08D010F8013B11F8014B1BB149
:10300000A34201D1521EEDD1181B70BD032A40F21C
:10301000308010F0030C00F0158011F8013BBCF17A
:10302000020F624498BF11F801CB00F8013B38BF92
:1030300011F8013BA2F1040298BF00F801CB38BFA0
:1030400000F8013B11F0030300F02580083AC0F0BE
:10305000088051F8043B083A51F804CBA0E8081066
:10306000F5E7121D5CBF51F8043B40F8043BAFF399
:103070000080D20724BF11F8013B11F801CB48BFF3
:1030800011F8012B24BF00F8013B00F801CB48BF29
:1030900000F8012B704710B5203AC0F00B80B1E862
:1030A0001850203AA0E81850B1E81850A0E818507D
:1030B000BFF4F5AF5FEA027C24BFB1E81850A0E886
:1030C000185044BF18C918C0BDE810405FEA827CA0
:1030D00024BF51F8043B40F8043B08BF7047D207B7
:1030E00028BF31F8023B48BF11F8012B28BF20F858
:1030F000023B48BF00F8012B70474FF00002042943
:10310000C0F0128010F0030C00F01B80CCF1040C16
:10311000BCF1020F18BF00F8012BA8BF20F8022B4A
:10312000A1EB0C0100F00DB85FEAC17C24BF00F8F0
:10313000012B00F8012B48BF00F8012B70474FF01E
:10314000000200B5134694469646203922BFA0E8F7
:103150000C50A0E80C50B1F12001BFF4F7AF090703
:1031600028BFA0E80C5048BF0CC05DF804EB8900F4
:1031700028BF40F8042B08BF704748BF20F8022B37
:1031800011F0804F18BF00F8012B704710B50446AE
:1031900010F0030F08BF11F0030F40F015804FF03F
:1031A000013E121FC0F20E8051F8043BA3EB0E0C3F
:1031B0002CEA030C1CEACE1C08BF40F8043BF0D0FC
:1031C000A1F1040102F10402521E08DB11F8013BD7
:1031D000002B00F8013BF7D11146FFF78EFF204688
:1031E00010BD00004FF0013C50F8042B51F8043B97
:1031F0009A4221D1A2EB0C03934313EACC1317D1CB
:1032000050F8042B51F8043B9A4215D1A2EB0C0361
:10321000934313EACC130BD150F8042B51F8043B21
:103220009A4209D1A2EB0C03934313EACC13DBD0EF
:103230004FF00000704700BFD01A01BAB1FA81F117
:1032400001F0180122FA01F0CB40C1F12001DBB2FC
:10325000C0B2C01A2CFA01F3D11A914311EAC3117A
:10326000E6D17047704770477047704710B500F05F
:10327000ABFA001D10BD00BF7D6A010010B500F063
:10328000A7FA006810BD10B5044600F0A1FA04606A
:1032900010BD2DE9F0470D4699469246044600F1CF
:1032A00024080168880604D5E06921F01001216036
:1032B00000E00120A84201DD471B00E00027A169D2
:1032C0007A1902EB0900081AA0612078C00602D41E
:1032D0002046FFF791FC002608E0D4E901211AF806
:1032E00006009047206A401C761C20624E45F4DBA5
:1032F0002078C0060AD52046FFF77EFC06E0D4E918
:10330000012130209047206A401C2062381EA7F11E
:103310000107F4DC07E0D4E9012118F80500904723
:10332000206A401C2062281EA5F10105F3DC20461E
:10333000FFF778FC2078000602D50220BDE8F08770
:103340000120FBE770472DE9FF4F0C461E464FF06A
:10335000FF378BB0D2E90001DDF860800A908A4621
:10336000C1F30A5505B93D46002108464FF000005B
:10337000BAF1000F00F4400005DA00EB80004FF4D2
:10338000400101EA50004FEA9059B9F1010F00DD08
:10339000B9460A9850EA4A000ED044F61050A5F2F9
:1033A000FF3545432F14B8F1000F1ED07542291E7A
:1033B0001EDDC9F100021CE0B8F1010F4FF0000062
:1033C00001D0302103E0F24305E02154401CB0421B
:1033D000FBDB30460022002121540B99C1F8088004
:1033E000C1E900200FB0BDE8F08FBD1B6D1CDEE70A
:1033F0004A4600DA694206A800F074FA06AB93E880
:10340000070003AB83E8070050460A9900F007FB6A
:103410008DE80700A0F500501F3800900398002D9C
:1034200009DD42F21F014A46084403A90390684699
:1034300000F066FD08E0A0F500504A461F3803A9D9
:103440000390684600F070FD8DE807000004000C52
:1034500003D04FF0FF30410800E01046B8F1000FF4
:1034600003D00022009215461EE0751E05D400F020
:10347000B3F9303262556D1EF9D5B34601220843C7
:1034800002D000227F1C04E02078302801D10022E5
:103490007F1E002A099786D01DE0112D07DA00F063
:1034A0009BF9303262556D1C50EA0102F5D1084398
:1034B00002D00098C8B10EE00021681E05E0235C30
:1034C000625C63542254401E491C8142F7DBAB46C8
:1034D000A81B401E0990002004F80B000B98099AC5
:1034E000C0F80880C0E9002B7CE711264FF00008E7
:1034F00059E72DE9F04F88460446D21D22F0070116
:1035000091B0D1E90001CDE90A0108F0C1FA024603
:103510000B98C00F01D02D2007E02068810701D54E
:103520002B2002E0202101EAC000032A099001D0EB
:10353000072A05DB03464146204600F093F90BE1DC
:103540002078800601D5E06900E00620B8F1650F1B
:10355000814606D0B8F1660F18D0B8F1670F70D168
:1035600031E00020B9F1110F009001DB112301E0DF
:1035700009F101030AAA01A90CA8FFF7E4FEDDE99D
:103580000C70002609F10105834647E001204B46F7
:1035900000904FF000470AAA01A90CA8FFF7D3FE3C
:1035A000DDE90DB00C995D46002610B909F1010066
:1035B0000D18B9EB050003D4C0F1FF3609F1010580
:1035C000A5EB09002BE0B9F1010F01DA4FF0010979
:1035D0000020B9F1110F0090484601DD112300E0F1
:1035E00003460AAA01A90CA8FFF7ADFEDDE90C709D
:1035F0004D4600268346207800070AD4AB4500DA02
:103600005D4601A8012D04DD411911F8011C302986
:1036100007D04F4502DA17F1040F04DA0120824681
:103620000FE06D1EEEE7002F02DCED1B3E4403E0D1
:10363000781CA84200DD7D1CB81B00F1010A4FF088
:1036400000472078000703D4AA4501DB4FF0FF3A7A
:103650000021B7F1004F0DF143088DF8431024D03D
:1036600002202B23002F01DA7F422D230A21021E84
:10367000A0F1010000DC5FB197FBF1FC97FBF1F2D8
:1036800001FB1C7C17460CF1300C08F801CDEEE76D
:10369000A8F1010003702188090501D5452100E04A
:1036A0006521A0F1010800F8011C09980FA9A1EB00
:1036B0000807FF1D00B10120411901EBEA70A16963
:1036C0003844081A401EA0612078C00602D4204663
:1036D000FFF792FA099828B1D4E901219047206AAE
:1036E000401C20622078C00622D52046FFF784FACD
:1036F0001EE0002E04DBB34502DD01A8805D00E082
:103700003020D4E901219047206A401C2062761CB9
:10371000AAF101005FEA000A0AD100F055F8C0687A
:103720000168405CD4E901219047206A401C206276
:10373000281EA5F10105DCDC07E0D4E9012118F819
:10374000010B9047206A401C2062381EA7F1010738
:10375000F3DC2046FFF766FA032011B043E60000D1
:1037600001694A1C02610878704700B58FB0CDE945
:1037700001310021059105497944CDE90310114635
:103780006846FFF7F1FA0FB000BD0000E5FFFFFF4C
:103790000A6802F8010B0A60704710B5436913B15B
:1037A000AFF3008001E0FFF74EFA012010BD127860
:1037B00000F124010A7000224A700122EDE711682D
:1037C0004FF0FF32E9E70000004870472024002056
:1037D000004870470024002030B5B0F10A024FEADB
:1037E000900E71F100034EEA817EB0EB0E0061EBAA
:1037F00091014FEA101E4EEA017E10EB0E0041EBE4
:1038000011114FEA102E4EEA016E10EB0E0041EB43
:1038100011214FEA104E4EEA014E10EB0E0041EB23
:103820001141401841F100014FEAD00040EA4170D7
:103830004FEAD10110EB80054FEA810444EA90740D
:1038400044EB01046D1944EB0404521BA3414FF0F7
:10385000000348BF0A3200D530BD401C41F10001D1
:1038600030BD00002DE9F0411F46044603260168E3
:10387000072A01F4006004DB08B116A505E016A5CF
:1038800003E008B115A500E015A521F010002060A7
:10389000A069C01EA0610FB1401EA0612046FFF7C5
:1038A000ABF94FB1D4E9012138469047206A401C5A
:1038B0002062C01C206206E0206AFAE7D4E90121F8
:1038C00015F8010B9047761EF8D22046FFF7AAF9AB
:1038D000BDE8F0814E414E006E616E00494E4600DB
:1038E000696E66002DE9F047814616468AB0334876
:1038F00078440DC88DE80D0030487844801C03AC36
:103900000DC884E80D0041F69B300844372190FB38
:10391000F1F290FBF1F5A5F1800501FB12041B3CCF
:1039200002D56442012000E00020DFF890A080462C
:103930000027FA44AAF1BE0A0DE0E00709D032469A
:10394000684607EB47010AEB810100F0EDFA8DE8CC
:10395000070064107F1C002CEFD1184F7F44AC3F50
:1039600018E0E80714D007EB04100DF1180A90E8EE
:103970000E008AE80E00C068F04201D19819089044
:10398000324606A903A800F0CFFA03AB83E807008C
:103990006D10641C002DE4D132466946B8F1000F69
:1039A00003A802D000F0ACFA01E000F0BDFAC9E9CA
:1039B0000001C9F808200AB0BDE8F0878080010046
:1039C00000487047002400207546FFF7F9FFAE4617
:1039D00005006946534620F00700854618B020B51B
:1039E000FFF770F8BDE820404FF000064FF00007E9
:1039F0004FF000084FF0000B21F00701AC46ACE897
:103A0000C009ACE8C009ACE8C009ACE8C0098D4603
:103A100070470446AFF300802046FFF714F85FEAD2
:103A2000400C08BF91F0000F4FEA8C234FEAC122EF
:103A300043EA51514FEA1C5018BF00F5F0404FEADD
:103A4000300018BF41F000415FEA6C5C00F0298053
:103A5000BCF1FF3F08BF40F080407047130C06BF29
:103A600012044FF0100C4FF0000C130E04BF1202A2
:103A70000CF1080C130F04BF12010CF1040C930F8E
:103A800004BF92000CF1020CD30F04BF52000CF1E2
:103A9000010C11464FF00002A0F11F00A0EB0C003A
:103AA000704711F0004F08BF704731F000413FF4FC
:103AB000D5AF0B0C06BF09044FF0100C4FF0000CF3
:103AC0000B0E04BF09020CF1080C0B0F04BF090117
:103AD0000CF1040C8B0F04BF89000CF1020CCB0F0E
:103AE00004BF49000CF1010CCCF12003A0EB0C0049
:103AF00022FA03F302FA0CF241EA030100F1010099
:103B0000704720F07F4C80EA030023F07F47ACEB46
:103B1000070303F57C5300F0004003F1FF032DE998
:103B200080494FEA154B09B44FEA144325EA0B4E7E
:103B300024EA03480FF2042606EB132749083E78CF
:103B40005FEA320203FB0667C7F5000707FB06F6CC
:103B50004FEA54374FEAD64606F1020607FB066CD9
:103B6000CCF1005C4FEA1C472CEA074C07FB06F43B
:103B70000CFB06F504EB15464FEA961634BF002001
:103B80004FF000404FEAD13706FB07FC4FEA1C4CD0
:103B90000CFB0BF7D21B03FB0CF761EB07010CFBD3
:103BA0000EF7B0EB074072EB17420CFB08F734BF7F
:103BB000A2EB0742B2EB074261EB17414FEA0C441C
:103BC0004FEA910706FB07FC4FEA1C4C0CFB0BF776
:103BD000B0EBC74072EB573203FB0CF734BFA2EBDC
:103BE000C742B2EBC74261EB57310CFB0EF7B0EBAB
:103BF000C70072EB57720CFB08F734BFA2EBC70289
:103C0000B2EBC70261EB5771039F4FEA816141EA52
:103C1000921104EBCC044FEAD1374FEA826206FBE3
:103C200007FC42EA90124FEA80604FEA1C4C0CFB02
:103C30000BF7D21B03FB0CF761EB07010CFB0EF734
:103C4000B0EB074072EB17420CFB08F734BFA2EB56
:103C50000742B2EB074261EB17414FEA8C554FEA3E
:103C6000910704EB9C2406FB07FC4FEA1C4C0CFB61
:103C70000BF7B0EBC74072EB573203FB0CF734BFC6
:103C8000A2EBC742B2EBC74261EB57310CFB0EF718
:103C9000B0EBC70072EB57720CFB08F734BFA2EB16
:103CA000C702B2EBC70261EB577115EB4C254FEA27
:103CB000816141EA92114FEA82624FEAD13742EACA
:103CC000901206FB07FC44F100044FEA80604FEAC3
:103CD0001C4C0CFB0BF7D21B03FB0CF761EB070131
:103CE0000CFB0EF7B0EB074072EB17420CFB08F72A
:103CF00034BFA2EB0742B2EB074261EB174115EB71
:103D00001C154FEA813141EA92414FEA823242EA80
:103D100090424FEA80304FEA0C7644F1000448EAC2
:103D200003434EEA0B484FF0000EB2EB080C71EB68
:103D3000030724BF624639464EEB0E0E4FF0000BD0
:103D40000018524149414BEB0B0BB2EB080C71EBE5
:103D500003077BF1000B24BF624639464EEB0E0E83
:103D60004FF0000B0018524149414BEB0B0BB2EBEB
:103D7000080C71EB03077BF1000B24BF6246394648
:103D80004EEB0E0E51EA020718BF46F0010616EB85
:103D90000E7655F1000254F1000103D5BDE889010A
:103DA000BDE80088BDE88901BDE80048B619524168
:103DB00041EB0101A3F10103704780807F7E7D7C90
:103DC0007B7A7978777676757473727171706F6EAD
:103DD0006E6D6C6C6B6A6A69686867666665646458
:103DE000636362616160605F5F5E5E5D5D5C5C5BE2
:103DF0005B5A5A5959585857575656555555545451
:103E0000535352525251515050504F4F4F4E4E4DAE
:103E10004D4D4C4C4C4B4B4B4A4A4A4949494848FA
:103E2000484747474746464645454544444444433A
:103E300043434342424242414141002B26D4770052
:103E400021D01CB54FEA370703B44FF010004FF0F4
:103E500010014FF000000FBCBDE810400BF1010B4A
:103E6000BBF1010F08BF5FEA170722BF12F1010281
:103E700011F101014FF0004143F1000300F0004057
:103E800043EA00007047F9D35708DAE746EA0646E6
:103E900013F1400F4FEA16461FDD13F1200FDFBF6D
:103EA00016430A46002120335B42C8D0C3F12007E5
:103EB00046EA064602FA07F74FEA164646EA0706BA
:103EC000C3F1200722FA03F201FA07F721FA03F1FE
:103ED0004FF0000342EA0702B1E746EA020646EA6B
:103EE00006464FEA164646EA0106BCBF46EA0646C3
:103EF000360C4FF000034FF000024FF000019EE738
:103F00002DE9C048934630B491E8380007C831EA3B
:103F1000400C48BF34EA430C03D5FFF7F2FDFFF72E
:103F20008CFFF0BCBDE800882DE9C048934630B452
:103F300091E8380007C810F0804F08BF13F0804F99
:103F400003D100F005F8FFF778FFF0BCBDE800886A
:103F500020F07F4780EA030023F07F4C07EB0C033F
:103F6000A3F57C5300F00040A3F1FE0392F0000F94
:103F700000F0B38095F0000F00F077802DE9014943
:103F80004FEA11404FEA144621EA004800FB06FCC4
:103F900024EA064708FB06F607FB08F800FB07F7CC
:103FA00018EB06484CEB164C4FEA124B18EB07483F
:103FB0004FEA15464CEB174022EA0B4E0BFB06FC72
:103FC00025EA06470EFB06F607FB0EFE0BFB07F77E
:103FD0001EEB064E4CEB164C4FF000061EEB074E48
:103FE0004CEB174B18EB0B0840F1000018EB0E0BD5
:103FF00058EB000840F100008F1A4FF000013CBF61
:10400000C943661B14BFB5EB040C00213CBFC94378
:10401000F61B4FEA17444EEA8E0E27EA04454FEA94
:104020001C4704FB07622CEA074C05FB07F70CFB57
:1040300005F604FB0CFC16EB074642EB174216EBA9
:104040000C4642EB1C421BEB060658EB02024141B8
:1040500046EA9E0601D5BDE80189B619524141EBF9
:104060000101A3F10103BDE801894FEA14454FEABC
:10407000114724EA054621EA074C05FB07F406FB35
:1040800007F70CFB06F105FB0CFC11EB074144EBB9
:1040900017444FEA124711EB0C4144EB1C4422EA4F
:1040A000074C05FB07F206FB07F70CFB06F605FBC2
:1040B0000CFC16EB074642EB174216EB0C4642EBA4
:1040C0001C456A1854F1000148BF7047B6195241A7
:1040D00041EB0101A3F10103704795F0000F37D0C8
:1040E0004FEA11424FEA144721EA024624EA074CFC
:1040F00002FB07F106FB07F70CFB06F402FB0CFCC6
:1041000014EB074441EB17414FEA154714EB0C44FD
:1041100041EB1C4125EA074C02FB07F506FB07F7BC
:104120000CFB06F602FB0CFC16EB074645EB1745AD
:1041300016EB0C4645EB1C42121951F1000148BF29
:104140007047B619524141EB0101A3F101037047D9
:104150004FEA14454FEA114724EA054621EA074C85
:1041600005FB07F106FB07F70CFB06F24FF0000614
:1041700005FB0CFC12EB074241EB174112EB0C4222
:1041800051EB1C4148BF7047921841EB0101A3F16C
:104190000103704710B50DF0A1FC408C012804D13B
:1041A0000DF09CFC0021418403E00DF097FC0121FF
:1041B00041840DF093FC90F82240214606200FF038
:1041C000DBF810BD1CB510A103C9CDE900010DF04D
:1041D00085FC808A01280BD100208DF8070008217A
:1041E000684601F041FB0DF079FC002181820AE074
:1041F0000DF074FC0121818201208DF80700082157
:10420000684601F031FB1CBD5AA50582100900006B
:1042100008B50121102003F077FC4FF40050ADF8F1
:10422000000010208DF8030002208DF8020069467E
:10423000054800F0F7FD002003F014FD4FF4005195
:10424000014800F0C3FE08BD0010014010B5012078
:1042500003F07AFC002003F077FC10BD08B501469E
:1042600000200090034800900098084400900098B7
:10427000008808BD006C004008B500220092044A86
:104280000092009A02440092009A116008BD00005A
:10429000006C00400EB500200090019002900320B9
:1042A0008DF8000002208DF8010000208DF802003A
:1042B0008DF8030002208DF804008DF80500694692
:1042C000032014F0DFFA0EBD0EB50020009001901F
:1042D000029002208DF800008DF8010000208DF87A
:1042E00002008DF8030002208DF804008DF805000F
:1042F0006946032014F0C6FA0EBD0EB500200090EA
:104300000190029004208DF8000002208DF8010039
:1043100000208DF802008DF8030002208DF80400C3
:104320008DF805006946032014F0ACFA0EBD0EB5F9
:10433000002000900190029005208DF800000220DE
:104340008DF8010000208DF802008DF80300022096
:104350008DF8040001208DF805006946032014F053
:1043600091FA0EBD0EB5002000900190029002203F
:104370008DF800008DF8010000208DF802008DF806
:10438000030002208DF8040001208DF80500694625
:10439000032014F077FA0EBD10B50848008830B934
:1043A000002007490860AFF20F000CF0EDFA034857
:1043B0000088401E0149088010BD000080000020D8
:1043C000B401224210B50748006810F06FFB0020CE
:1043D00004490860044908600449087004480CF066
:1043E000E9FA10BD78000020B401224274000020D8
:1043F0006945000810B500200249086002480CF029
:10440000C3FA10BDB40122429943000810B5044616
:1044100001200449086004480480044807F018FC9F
:1044200010BD0000B4012242800000209943000822
:104430002DE9FF4105460024464BD3E901211868C8
:10444000DB68CDE90213CDE90002002611E03DF85A
:10445000160016F039FB80463F480168404616F0CA
:104460007BFB074616F0F8FA80B22DF81600701C98
:10447000C6B2082EEBDB39480078012801D1BDE82F
:10448000FF810120354908704FF4167010F022FBAF
:10449000334908600846006800B9F0E74AE0287828
:1044A00030383DF8100061002D4A126822F81100E2
:1044B00068785F280DD16100294A126832F811002E
:1044C00000EBD07149106200254B1B6823F81210D5
:1044D00010E068787E280DD160002149096831F824
:1044E00010004FF6FF7101EA400061001C4A12689B
:1044F00022F81100A8793038082191FBF0F0012151
:1045000001EB4401164A126822F81100012000EB69
:1045100044001349096831F81000297930394843BB
:10452000012101EB44010E4A126822F811000835FE
:10453000601C84B228780028B1D1012101EB44012C
:10454000074A126822F81100064807F095FB00BFE1
:1045500095E700002CB501087C00002074000020C5
:10456000780000206945000810B53A480068002826
:104570006FD03948008840003649096831F810008A
:10458000364991FBF0F436480068401C3449086015
:1045900034480068401C3349086064B1601F3049EA
:1045A0000968884203D201202F49086006E00020F4
:1045B0002D49086002E000202B4908602648008849
:1045C00040002449096831F81000244991FBF0F0BB
:1045D00023490968884202D80020214908601E4802
:1045E0000088012101EB40001A49096831F81000E8
:1045F00040F2712148431B490968B1EB001F27D3E2
:1046000015480088401C144908800020154908609E
:1046100011480088012101EB40000E49096831F87A
:104620001000A8B900200C4908800E4908600C4908
:1046300008600848006810F039FA00200549086051
:104640000949086009490870AFF2E3000CF0B2F9BB
:1046500000BF10BD7800002082000020A08601006D
:104660008800002084000020B40122427400002051
:104670002DE9F0410446204615F0F4FD05460022E0
:10468000044B15F051FC074615F060FB0249086029
:10469000BDE8F081000024407C00002003F034F9E4
:1046A00070B50546002401240AE000F097FC610083
:1046B00030F81100A84201D1012070BD601C84B205
:1046C00000F08CFC610030F811000028EDD100BF33
:1046D000F3E700002DE9F041002500270024FEF754
:1046E00001FA0646002039E0204901EB40114968F3
:1046F00091B31E4901EB401189691C4A02EB40123B
:10470000928A92B2A1EB82010C1D00BF02CC491C1F
:104710000029FBD0154901EB40118969091B0122D1
:1047200002EBA105114901EB401149690F0CAF42A1
:1047300012D20E4901EB4011898A89B20B4A02EB71
:1047400040125161094901EB4011496941EA0541B3
:10475000064A02EB40125161411CC8B22028C3D363
:104760003046FEF7C3F9BDE8F0810000141B0020BD
:10477000002000BF04E00021034A1154411C88B20C
:104780003A28F8DB70470000162000207FB5054668
:104790000C46002600200190029003900090FF201C
:1047A0008DF804008DF8050028128DF80600E8B297
:1047B0008DF8070001208DF8080000208DF8090011
:1047C00002208DF80A0000208DF80B001E208DF8C5
:1047D0000C006A46092101A800F0E4FC9DF80000E5
:1047E0008DF80D009DF801008DF80E000B2101A839
:1047F00003F060FA00BF33E0C8200CF035F99DF8F3
:104800000C0000F10901204603F098FA30B3A079BA
:10481000C11D6A46204600F0C5FC9DF80010A07935
:10482000C01D205C814219D19DF80110A07908308B
:10483000205C814212D1E078A17840EA0120A842B0
:104840000CD120799DF8081041F08001884205D1F3
:10485000207AE17940EA012004B070BD701CC6B234
:10486000052EC9DB0A20F7E72DE9F0418EB004469A
:104870000D4616461F464FF0000800200290039098
:10488000049005900190FF208DF808008DF8090034
:1048900020128DF80A00E0B28DF80B0003208DF88D
:1048A0000C0000208DF80D0003208DF80E008DF80F
:1048B0000F508DF810608DF8117001AA0A2102A81E
:1048C00000F070FC9DF804008DF812009DF80500C2
:1048D0008DF813000C2102A803F0ECF900BF3DE0B5
:1048E000C8200CF0C1F8182106A803F027FA80B3FD
:1048F0009DF81E00C11D01AA06A800F053FC9DF8FA
:1049000004109DF81E00C01D06AA105C814221D132
:104910009DF805109DF81E000830105C814219D1E9
:104920009DF81B009DF81A1040EA0120A04211D109
:104930009DF81C009DF80C1041F08001884209D1BF
:104940009DF820009DF81F1040EA01200EB0BDE840
:10495000F081FFE708F101001FFA80F8B8F1050FB8
:10496000BEDB0A20F2E700002DE9F84F81468A46B7
:1049700017461C460A9D4FF0004020FA05F807EB49
:104980008400061FFEF7AEF883461948006800EA67
:10499000080010B10120BDE8F88F1548006840EA12
:1049A000080013490860002006E04FF0FF31A6EB35
:1049B00080021160411C88B2A042F6D30D4800EB82
:1049C00045108661002332465146484602F0D8FF22
:1049D00000902A464846009903F054F8A0B20549D1
:1049E00001EB451148615846FEF780F80020D2E7F8
:1049F00068000020141B002002F086FF10B504465A
:104A0000A0B20CF031F810BD70B504464FF0004074
:104A100020FA04F5FEF766F8064607480068A84342
:104A2000054908600020054901EB44114860304603
:104A3000FEF75CF870BD000068000020141B002029
:104A4000FEB504460E4615460020009001900290E7
:104A500002208DF80000022C52D1A6B3012D17D1EF
:104A600001208DF801008DF802006946042013F042
:104A700009FF6946022013F005FF00208DF80100B0
:104A800002208DF802006946042013F0FBFEADE021
:104A9000022DFCD101208DF8010002208DF80200CA
:104AA0006946042013F0EEFE6946022013F0EAFE88
:104AB00000208DF8010001208DF8020069460420D5
:104AC00013F0E0FE92E0FFE700208DF801000120E6
:104AD0008DF802006946042013F0D4FE69460220D6
:104AE00013F0D0FE00208DF8010002208DF80200A6
:104AF000694613F0C7FE6946042013F0C3FE75E053
:104B0000032C01D0052C51D19EB3012D17D10120CA
:104B10008DF8010003208DF802006946042013F08F
:104B2000B1FE6946022013F0ADFE00208DF80100B1
:104B300004208DF80200694613F0A4FE56E0022D11
:104B400054D101208DF8010004208DF8020069463F
:104B500013F098FE6946022013F094FE00208DF8B1
:104B6000010003208DF802006946042013F08AFE3C
:104B70003CE0FFE700208DF8010004208DF80200E2
:104B8000694613F07FFE6946022013F07BFE002089
:104B90008DF8010003208DF802006946042013F00F
:104BA00071FE6946022013F06DFE1FE0042C1DD13A
:104BB00076B101208DF8010006208DF802006946CB
:104BC000042013F05FFE6946022013F05BFE0DE047
:104BD00000208DF8010006208DF8020069460420AF
:104BE00013F050FE6946022013F04CFEFEBD10B5D6
:104BF000102000F00FF830B1102000F005F810215F
:104C0000002005F025FF10BD014908607047000035
:104C100014040140014600200022074B1B6803EAF0
:104C20000102054B14331B680B4013B10AB101207C
:104C300000E00020704700000004014000212349EB
:104C40008279002A3AD00A46126803689A430B46D2
:104C50001A600A1D126803689A430B1D1A600279D4
:104C600011440A6803681A430A60184A0832126835
:104C700003689A43154B08331A601A1D12680368BB
:104C80009A43124B0C331A604279102A0ED11A1F24
:104C9000126803681A430D4B08331A601A1D126814
:104CA00003681A43094B0C331A600DE00749427937
:104CB00011440A6803681A430A6005E00279114446
:104CC0000A6803689A430A607047000000040140C4
:104CD00030B5044604254FF4302000F06FF8054647
:104CE000042D17D10C48006940F002000A49086100
:104CF00008464461006940F0400008614FF43020EC
:104D000000F05CF805460448006941F6FD71084072
:104D100001490861284630BD0020024004200B49AB
:104D2000C96801F0010109B101200EE00749C96815
:104D300001F0040109B1022007E00449C96801F04B
:104D4000100109B1032000E0042070470020024058
:104D50000348006940F08000014908617047000085
:104D60000020024070B504460D460426F00200F013
:104D700025F80646042E11D10948006940F00100CB
:104D8000074908612580F00200F018F8064604483B
:104D9000006941F6FE71084001490861304670BD66
:104DA00000200240024803494860034848607047B9
:104DB0002301674500200240AB89EFCD00B50246D4
:104DC0000423FFF7ABFF034603E0FFF7A7FF03460B
:104DD000521E012B01D1002AF7D102B90523184632
:104DE00000BD000030B500228B071C0F0F2303FA13
:104DF00004F20B4B8C1053F824309343084C8D1065
:104E000044F8253023468C1053F824308C07240FA7
:104E100000FA04F42343024C8D1044F8253030BDD1
:104E2000080001402DE9F04102460025002600203F
:104E300000230024002791F803C00CF00F0591F81F
:104E400003C00CF0100CBCF1000F03D091F802C0AD
:104E50004CEA050591F800C0BCF1000F31D0146890
:104E600000202BE04FF0010C0CFA00F3B1F800C069
:104E70000CEA03069E4220D183004FF00F0C0CFA7F
:104E800003F7BC4305FA03FC4CEA040491F803C0A1
:104E9000BCF1280F06D14FF0010C0CFA00FCC2F84F
:104EA00014C00AE091F803C0BCF1480F05D14FF0DF
:104EB000010C0CFA00FCC2F810C0401C0828D1D329
:104EC0001460B1F800C0BCF1FF0F34DD546800205D
:104ED0002EE000F1080C4FF0010808FA0CF3B1F8CD
:104EE00000C00CEA03069E4221D183004FF00F0C54
:104EF0000CFA03F7BC4305FA03FC4CEA040491F8EE
:104F000003C0BCF1280F05D100F1080C08FA0CF819
:104F1000C2F8148091F803C0BCF1480F07D100F12A
:104F2000080C4FF0010808FA0CF8C2F81080401C79
:104F30000828CED35460BDE8F0810000F0B50A46E1
:104F4000002300240021002500F00046B6F1004FA8
:104F500002D11D4EF16901E01B4E7168C0F303459B
:104F600083B200F44016B6F5401F08D121F07061FD
:104F7000154E766826F07066134F7E6012E000F4DE
:104F80008016B6F5801F06D1032606FA05F4A14364
:104F900041F0706106E0460D360103FA06F6B143B2
:104FA00041F0706122B1460D360103FA06F6314335
:104FB00000F00046B6F1004F02D1034EF16101E06E
:104FC000014E7160F0BD000000000140416170477A
:104FD0000161704700487047302200200048704748
:104FE000A02000200246002100BF0DE0012000EBC0
:104FF00041000A4B13F81000904203D1480033F8E7
:1050000010007047481C81B2012000EB4100034BA7
:1050100033F810000028E9D100BFF2E714010020A6
:1050200000B502460021012112E0FFF7D7FF4B0037
:1050300030F81300904209D1FFF7D0FF012303EBB2
:10504000410330F8130000F47F4000BD481C81B2DA
:10505000FFF7C4FF4B0030F813000028E5D1FF2014
:10506000F3E700B50246002100BF10E0FFF7B6FFEE
:105070004B0030F81300904207D1FFF7AFFF012338
:1050800003EB410310F8130000BD481C81B2FFF789
:10509000A5FF4B0030F813000028E7D1FF20F3E70D
:1050A00030B502460B4600210024012114E0FFF731
:1050B00095FF012505EB410510F81500904209D137
:1050C0009C4205D1FFF78AFF4D0030F8150030BD36
:1050D000601C84B2481C81B2FFF780FF012505EBFC
:1050E000410530F815000028E1D100BFEFE70000CE
:1050F00070B504460025FDF7F5FC0646044800EBB4
:105100004410808A85B23046FDF7F0FC284670BD19
:10511000141B002070B504460026FDF7E3FC05468D
:10512000074800EB4410406820B1054800EB4410EC
:105130004069060C2846FDF7D9FC304670BD0000DA
:10514000141B002013490988322904DA1249114A34
:105150001288885C05E000210E4A11800E491288F1
:10516000885C00210D4A11600B4A0A4B1B88D15400
:105170000B49098821B10A490988491E084A11804A
:105180000121064A116003490988491C014A11801E
:1051900070470000C2000020E41F00209401274255
:1051A000C8000020F0B50B46FF24FF2509E010F8E9
:1051B000016B86EA0401074E765C86EA0504064E1A
:1051C000755C1E00A3F10107BBB2F0D114705570DD
:1051D000F0BD000094B5010894B6010810B5014671
:1051E0004A1E034B985C00234A1E014CA35410BD79
:1051F0008C00002000B5FFF7F1FE008800BD00B56F
:10520000FFF7ECFE90F8660100BD00B5FFF7E6FE83
:1052100000F5B47000BD000010B50446002300BFC7
:1052200004E00548C05CE054581C83B23A2BF8DB1C
:10523000FFF79EFA184610BD16200020F8B5064666
:105240000C460025002000900027174806602078B3
:10525000FF2819D16078FF2816D1A079617940EA3A
:105260000120C01D85B26A4629462046FFF79AFFF5
:10527000605D9DF80010884206D1681C205C9DF896
:105280000110884200D1012767B12079052803D198
:10529000204607F01AFD04E00521204607F074FDC2
:1052A00000BF00BFF8BD00008C01002001460020B7
:1052B00000BF04E0034A125C0A54421C90B2062864
:1052C000F8DB7047A000002010B50023154C2360C8
:1052D000002020E030B9C0F10603134CE35CDB434F
:1052E000DAB203E0C0F106030F4CE25C00210FE0EC
:1052F00000230C4C241D2360C1F1070342FA03F381
:105300000A4CC4F880310123064C241D2360491C3B
:105310000829EDDB401C0728DCDB0123014C23605E
:1053200010BD000088012242A0000020000022429F
:1053300010B514200BF098FB0CF0D0FBC08B0128AB
:105340000ED1012108460EF017F864200BF0A6FBE1
:10535000002102200EF010F864200BF09FFB21E0EA
:105360000CF0BCFBC08B02280ED1002101200EF0F6
:1053700003F864200BF092FB012102200DF0FCFFEA
:1053800064200BF08BFB0DE0002101200DF0F4FFF9
:1053900064200BF083FB002102200DF0EDFF642060
:1053A0000BF07CFB0CF09AFB408C012807D101210B
:1053B00006200DF0E1FF64200BF070FB06E00021F9
:1053C00006200DF0D9FF64200BF068FB10BD02F041
:1053D0009BFA00004CF6CC40014908607047000081
:1053E0000030004010B500F01DF810BD70B5044647
:1053F00007254FF6FF7000EA44142046E11704EB3E
:1054000011610E1245F2555000F020F8284600F0C8
:1054100011F8304600F014F800F004F8FFF7DAFF56
:1054200070BD00004AF6AA200149086070470000DC
:1054300000300040014948607047000000300040E3
:105440000149886070470000003000400149086051
:1054500070470000003000401CB5044609A103C994
:10546000CDE90001E07960B9207A052809D1607A98
:105470000D2806D1A07AC02803D10621684600F085
:10548000F3F91CBD5AA503804F0200000146CA175C
:1054900001EB92729210A1EB820292B9642091FB0F
:1054A000F0F200FB121050B94FF4C87091FBF0F20B
:1054B00000FB121008B9012070470020FCE7012012
:1054C000FAE70020F8E7000010B588480068A8B99E
:1054D0008748007810BB032086490870864800780A
:1054E000401C8549087008460078502816DB0220C9
:1054F0008049087001207E4908700FE07E480078DE
:10550000012806DD7C480078502802DA012079491C
:10551000087000207849087075490870774800685D
:10552000A8B97348407810BB03207249487072488C
:105530004078401C7049487008464078502816DB77
:1055400002206C4948700120694948700FE06A48A0
:105550004078012806DD68484078502802DA0120AA
:1055600064494870002064494870614948705F4848
:10557000001D0068A8B95E48807810BB03205D4913
:1055800088705D488078401C5B4988700846807848
:10559000502816DB02205749887001205449887032
:1055A0000FE055488078012806DD53488078502860
:1055B00002DA01204F49887000204F4988704C4919
:1055C00088704F480068A8B94948C07810BB0320CC
:1055D0004849C8704848C078401C4749C8700846C8
:1055E000C078502816DB02204249C870012040498B
:1055F000C8700FE04048C078012806DD3E48C078FA
:10560000502802DA01203B49C87000203A49C8708E
:105610003749C870354808300068A8B9344800795F
:1056200010BB03203349087133480079401C3249CC
:10563000087108460079502816DB02202D490871B0
:1056400001202B4908710FE02B480079012806DD65
:1056500029480079502802DA0120264908710020E3
:1056600025490871224908712548001F0068A8B91A
:105670001F48407910BB03201E4948711E484079DD
:10568000401C1D49487108464079502816DB02200D
:10569000184948710120164948710FE016484079B1
:1056A000012806DD14484079502802DA012011490A
:1056B00048710020104948710D4948710D48007823
:1056C00070B90C48407858B90A48807840B9094800
:1056D000C07828B90748007910B90648407918B150
:1056E0000121002005F046FA10BD00001C012242F5
:1056F000980000208C000020920000200001214230
:105700002481214210B50121042002F0FDF901217C
:10571000082002F0F9F90121102002F0F5F9012129
:10572000084602F0F1F9024806F092FA10BD0000B6
:10573000C954000810B586B004460121042002F0C7
:10574000E3F90121082002F0DFF90121480402F009
:10575000BBF94FF48050ADF8140010208DF81700FD
:1057600003208DF8160005A92A48FFF75BFB0420EB
:10577000ADF8140018208DF8170005A92648FFF78A
:1057800051FB0820ADF8140004208DF8170005A97E
:105790002148FFF747FB0121480402F0A5F9002149
:1057A0004FF4003002F0A0F901940020ADF8080099
:1057B000ADF80A00ADF80C00ADF810000C20ADF803
:1057C0000E0001A9154805F07BFD26208DF800008C
:1057D00000208DF8010002208DF8020001208DF8D4
:1057E0000300684602F044F8012240F225510B48BC
:1057F00005F041FD012240F22441084805F03BFD3F
:105800000121064805F0A5FC00200549086006B006
:1058100010BD0000000C01400008014000440040A1
:10582000B081214270B505460C460C480678002030
:1058300020800B48007801280FD10848007820808C
:105840003246084928460FF05BF9324600210548E8
:105850000FF063F900200149087070BD9E00002020
:105860009F0000201E1F002070B505460E46012037
:105870000E49086000240CE000BF40210C4805F0F0
:10588000C3FC0028F9D0295D094805F08AFD601C99
:10589000C4B2B442F0DB00BF4021054805F0B4FCBF
:1058A0000028F9D000200149086070BDB081214274
:1058B00000440040704700B587B000200490059078
:1058C000069001900290039003208DF810000120B3
:1058D0008DF811003F208DF8120000208DF8130084
:1058E00001208DF8140000208DF8150001208DF89E
:1058F000040005208DF805003F208DF8060001A961
:10590000012012F0BFFF02208DF8040000208DF866
:10591000050005208DF8060001A9042012F0B2FF51
:1059200004A9022012F0AEFF07B000BD00B587B099
:1059300000200490059006900190029003900320AF
:105940008DF8100001208DF8110000208DF8120054
:105950008DF8130001208DF8140000208DF815003B
:1059600001208DF8040005208DF8050000208DF839
:10597000060001A9012012F085FF02208DF8040025
:1059800001208DF8050005208DF8060001A90420EE
:1059900012F078FF04A9022012F074FF07B000BDD6
:1059A00000B50CF09BF8408C00BD00B50146052900
:1059B00004DA0CF093F830F8110000BD0020FCE789
:1059C00000B501460CF08AF8418400BD00B50246DE
:1059D000052A03DA0CF082F820F81210002000BD2E
:1059E00008B50121102002F08FF80F20ADF800005B
:1059F00010208DF8030003208DF8020069461B4833
:105A0000FFF710FA00201A4908601A49C1F8A001EE
:105A10000121082002F078F80120ADF800001020E4
:105A20008DF8030003208DF8020069461248FFF745
:105A3000F9F90121042002F067F80220ADF8000016
:105A400010208DF8030003208DF8020069460B48F2
:105A5000FFF7E8F900200A490860FFF735FC00204D
:105A60000449C1F884010EF019F908BD0010014085
:105A70009C01224200002242000C0140000801402B
:105A80008081214270B50024FFF7A8FA0546C8229C
:105A900029461D4803F022FCFFF7A0FA00884FF6C4
:105AA000FF7188420CD100BF06E0FFF797FA002192
:105AB00020F81410601C84B2C82CF6DB04F00AF93C
:105AC000002417E004F0010090B1FFF787FA00EB23
:105AD000440108780880FFF781FA10F8140038B103
:105AE000FFF77CFA00EB4401088840F4006008806E
:105AF000601C84B2642CE5DBFFF770FA811C4088DF
:105B000040F48070088070BD28FC03087CB5002438
:105B10000020009001900BF0E1FF808BADF80000B9
:105B20000BF0DCFFC08BADF802000BF0D7FF008C50
:105B3000ADF804000BF0D2FF408CADF806000BF07E
:105B4000CDFF054614222946124803F0C7FB00BFCB
:105B50000EE00BF0C3FF30F814004FF6FF718842DF
:105B600004D10BF0BBFF002120F81410601C84B29C
:105B7000142CEEDB0BF0B2FFBDF8001081830BF0AC
:105B8000ADFFBDF80210C1830BF0A8FFBDF80410F3
:105B900001847CBD00FC03081CB50020009001902E
:105BA00006220F490F480EF0ABFF0D49891D062252
:105BB00068460EF0A5FF002008E00A49095C1DF8C0
:105BC00000201144074A1154411CC8B20628F4DBD6
:105BD0000448007800F0FE00024908701CBD000077
:105BE000E8F7FF1FF600002070B54FF4C8600EF014
:105BF00071FF05462C4614A214A1204613F06AF842
:105C0000083411A212A1204613F064F808340EA241
:105C100010A1204613F05EF808340BA20EA1204616
:105C200013F058F808340DA20DA1204613F052F8D5
:105C3000083420460CF0A0F82846FEF7F9FB284669
:105C40000EF034FF70BD0000312F3200350000002F
:105C5000340000003300000032000000312F31001A
:105C60003100000070B54FF4C8600EF033FF0546F8
:105C70002C46FEA2FEA1204613F02CF80834FDA20B
:105C8000FDA1204613F026F80834FCA2FCA1204612
:105C900013F020F80834FBA2FBA1204613F01AF8F9
:105CA0000834F6A2F9A1204613F014F80834F1A242
:105CB000F3A1204613F00EF80834F0A2EEA120461E
:105CC00013F008F80834EDA2EDA1204613F002F815
:105CD0000834EAA2E8A1204612F0FCFF0834E3A24F
:105CE000E9A1204612F0F6FF0834E9A2E9A1204616
:105CF00012F0F0FF0834DDA2DDA1204612F0EAFF29
:105D00000834DCA2DCA1204612F0E4FF0834DBA258
:105D1000DBA1204612F0DEFF0834DAA2DAA1204629
:105D200012F0D8FF0834D5A2D8A1204612F0D2FF35
:105D30000834D2A2D2A1204612F0CCFF0834CBA264
:105D4000CDA1204612F0C6FF0834CEA2C8A120463D
:105D500012F0C0FF0834C5A2C7A1204612F0BAFF56
:105D60000834C8A2C8A1204612F0B4FF0834BFA26C
:105D7000BFA1204612F0AEFF0834BCA2C2A120464B
:105D800012F0A8FF0834BDA2BBA1204612F0A2FF6A
:105D90000834BAA2BAA1204612F09CFF0834B9A276
:105DA000B5A1204612F096FF0834B0A2B7A1204654
:105DB00012F090FF0834ADA2B1A1204612F08AFF84
:105DC0000834ACA2ACA1204612F084FF0834A7A28C
:105DD000ADA1204612F07EFF0834ADA2ADA1204651
:105DE00012F078FF0834A1A2A1A1204612F072FFA0
:105DF00008349EA2A4A1204612F06CFF08349BA296
:105E00009BA1204612F066FF083498A2A2A120466A
:105E100012F060FF083495A29BA1204612F05AFFB1
:105E2000083492A29CA1204612F054FF08348FA29D
:105E30009AA1204612F04EFF083492A298A1204663
:105E400012F048FF083497A293A1204612F042FFB7
:105E500008348AA28CA1204612F03CFF083489A2A3
:105E600083A1204612F036FF083480A286A1204686
:105E700012F030FF08347FA287A1204612F02AFFDB
:105E800008347EA281A1204612F024FF083486A2A5
:105E90007DA1204612F01EFF083478A280A1204682
:105EA00012F018FF083475A27CA1204612F012FFF0
:105EB000083472A278A1204612F00CFF08346FA2B9
:105EC0006BA1204612F006FF08346CA277A1204691
:105ED00012F000FF083465A265A1204612F0FAFE18
:105EE000083466A268A1204612F0F4FE083465A2C8
:105EF00065A1204612F0EEFE083460A262A12046A1
:105F000012F0E8FE08345FA259A1204612F0E2FE2A
:105F100008345AA25CA1204612F0DCFE083453A2D9
:105F20005DA1204612F0D6FE083450A250A12046B2
:105F300012F0D0FE083451A254A1204612F0CAFE3D
:105F400008344EA250A1204612F0C4FE083447A2E5
:105F500049A1204612F0BEFE083444A248A12046C2
:105F600012F0B8FE083441A243A1204612F0B2FE5E
:105F700008344FA244A1204612F0ACFE08343FA2E0
:105F800041A1204612F0A6FE08343EA238A12046C8
:105F900012F0A0FE083435A23BA1204612F09AFE72
:105FA000083434A23CA1204612F094FE083433A2F7
:105FB00036A1204612F08EFE083430A232A12046CF
:105FC00012F088FE08342DA235A1204612F082FE80
:105FD00008342AA231A1204612F07CFE083427A200
:105FE0002DA1204612F076FE083424A220A12046DE
:105FF00012F070FE083421A22CA1204612F06AFE95
:1060000008341AA21AA1204612F064FE083420A215
:106010001DA1204612F05EFE083418A21AA12046E7
:1060200012F058FE083417A211A1204612F052FEB9
:10603000083412A214A1204612F04CFE08340BA220
:106040001CA1204612F046FE08340AA214A12046E4
:1060500012F040FE083409A216A1204612F03AFEC2
:10606000083408A20DA1204626E00000312F31009F
:1060700036000000332F320032000000312F320092
:1060800031000000322F31003300000030000000EA
:10609000352F3200365F000037000000317E0000EF
:1060A000327E0000362F3100312F330035000000E2
:1060B000332F3100337E000012F00CFE0834AFF2B3
:1060C0005402AFF22C01204612F004FE0834AFF265
:1060D0002C02AFF26401204612F0FCFD0834204689
:1060E0000BF04AFE2846FEF7A3F928460EF0DEFC28
:1060F00070BD000070B54FF4C8600EF0EBFC0546B3
:106100002C46FEA2FEA1204612F0E4FD0834FDA2BA
:10611000FDA1204612F0DEFD0834F8A2F8A12046C9
:1061200012F0D8FD0834F9A2F9A1204612F0D2FDF0
:106130000834F4A2F7A1204612F0CCFD0834F6A2F0
:10614000F1A1204612F0C6FD0834ECA2F3A12046CE
:1061500012F0C0FD0834EBA2E9A1204612F0BAFD0E
:106160000834E6A2EDA1204612F0B4FD0834E7A2FF
:10617000E8A1204612F0AEFD0834E0A2E4A12046DA
:1061800012F0A8FD0834DDA2DFA1204612F0A2FD26
:106190000834E1A2DAA1204612F09CFD0834E0A206
:1061A000DBA1204612F096FD0834D8A2DDA12046DE
:1061B00012F090FD0834DAA2D5A1204612F08AFD33
:1061C0000834D0A2D7A1204612F084FD0834CBA217
:1061D000D5A1204612F07EFD0834C8A2D3A12046E6
:1061E00012F078FD0834CEA2C9A1204612F072FD4B
:1061F0000834C6A2C4A1204612F06CFD0834BFA228
:10620000C4A1204612F066FD0834BEA2C0A12046FB
:1062100012F060FD0834B9A2C4A1204612F05AFD64
:106220000834B6A2BAA1204612F054FD0834C0A228
:10623000B8A1204612F04EFD0834B2A2B0A120460B
:1062400012F048FD0834AFA2B1A1204612F042FD81
:106250000834AAA2AFA1204612F03CFD0834A7A240
:10626000ABA1204612F036FD0834A6A2A4A1204618
:1062700012F030FD0834AFA2A3A1204612F02AFD8F
:106280000834A0A2A2A1204612F024FD08349BA24B
:10629000A0A1204612F01EFD083498A29FA120461E
:1062A00012F018FD083495A2A3A1204612F012FDA9
:1062B000083492A296A1204612F00CFD08348FA259
:1062C00094A1204612F006FD08348CA28CA1204631
:1062D00012F000FD083489A28BA1204612F0FAFCCE
:1062E000083486A28BA1204612F0F4FC083490A258
:1062F00087A1204612F0EEFC083489A284A1204632
:1063000012F0E8FC083481A286A1204612F0E2FCDB
:1063100008347AA27EA1204612F0DCFC083479A26F
:1063200080A1204612F0D6FC083474A27EA120463B
:1063300012F0D0FC083471A27CA1204612F0CAFCF5
:10634000083477A272A1204612F0C4FC08346BA274
:1063500075A1204612F0BEFC083468A26DA120464B
:1063600012F0B8FC083465A273A1204612F0B2FC0A
:10637000083462A26DA1204612F0ACFC08345FA282
:1063800063A1204612F0A6FC08345CA261A120465D
:1063900012F0A0FC08345BA25BA1204612F09AFC2C
:1063A000083464A25BA1204612F094FC083455A284
:1063B00057A1204612F08EFC083450A255A1204669
:1063C00012F088FC08344DA254A1204612F082FC41
:1063D00008344AA258A1204612F07CFC083447A297
:1063E0004BA1204612F076FC083444A24BA1204673
:1063F00012F070FC083441A241A1204612F06AFC60
:10640000083440A24DA1204612F064FC083449A291
:106410003BA1204612F05EFC08343AA23CA1204683
:1064200012F058FC083443A23FA1204612F052FC5F
:10643000083432A236A1204612F04CFC08342FA2B8
:1064400039A1204612F046FC083430A235A120467E
:1064500012F040FC083429A239A1204612F03AFC7F
:10646000083426A237A1204612F034FC083423A2B7
:106470002CA1204612F02EFC083422A22AA120468C
:1064800012F028FC08342AA226A1204612F022FC91
:10649000083423A22AA1204612F01CFC08341BA2B7
:1064A00028A1204612F016FC083418A21DA120468F
:1064B00012F010FC083424A21BA1204612F00AFCA2
:1064C00008340EA217A1204612F004FC083418A2CA
:1064D0000FA1204612F0FEFB083411A218A120469D
:1064E00012F0F8FB083409A216A1204612F0F2FBC4
:1064F000083406A20BA1204628E00000312F32000C
:10650000365F0000312F310031000000332F3200A0
:106510003300000032000000372F3200375F0000E8
:10652000322F31003600000035000000340000003A
:10653000342F3100332F310030000000355F000070
:10654000317E000037000000352F320012F0C2FB10
:106550000834AFF20C02AFF23001204612F0BAFB61
:106560000834AFF26802AFF24401204612F0B2FBE9
:106570000834AFF24402AFF26801204612F0AAFBE1
:106580000834AFF28002AFF28801204612F0A2FB7D
:106590000834AFF29002AFF29001204612F09AFB5D
:1065A0000834AFF2A002AFF29401204612F092FB41
:1065B0000834AFF2A802AFF2A801204612F08AFB1D
:1065C0000834AFF2C802AFF2C001204612F082FBDD
:1065D0000834AFF2D002AFF2C801204612F07AFBC5
:1065E0000834AFF2B002AFF2D401204612F072FBD1
:1065F0000834AFF2F802AFF2E401204612F06AFB71
:106600000834AFF20812AFF2EC01204612F062FB40
:106610000834AFF21812AFF2E001204612F05AFB34
:106620000834AFF22812AFF21811204612F052FBD4
:106630000834AFF23812AFF21C11204612F04AFBB8
:106640000834AFF24812AFF24811204612F042FB74
:106650000834AFF25012AFF21C11204612F03AFB90
:106660000834AFF23412AFF26811204612F032FB58
:106670000834AFF27812AFF27811204612F02AFBFC
:106680000834AFF28012AFF28011204612F022FBE4
:106690000834AFF29812AFF28411204612F01AFBC0
:1066A0000834AFF29812AFF29811204612F012FBA4
:1066B0000834AFF2B812AFF2B011204612F00AFB64
:1066C0000834AFF2C012AFF2B811204612F002FB4C
:1066D0000834AFF2A012AFF2C411204612F0FAFA59
:1066E0000834AFF2E012AFF2D811204612F0F2FAFD
:1066F0000834AFF2D412AFF2D011204612F0EAFA09
:106700000834AFF20022AFF2F811204612F0E2FA9C
:106710000834AFF20822AFF2D411204612F0DAFAB0
:106720000834AFF22822AFF22021204612F0D2FA2C
:106730000834AFF23822AFF2F411204612F0CAFA50
:106740000834AFF24822AFF22421204612F0C2FAF8
:106750000834AFF25022AFF23021204612F0BAFADC
:10676000083408A2AFF24421204612F0B3FA0834EC
:1067700020460BF001FB2846FDF75AFE28460EF096
:1067800095F970BD372F310070B54FF4C8600EF029
:10679000A1F905462C46FEA2FEA1204612F09AFA67
:1067A0000834FDA2FDA1204612F094FA0834FCA2A0
:1067B000FCA1204612F08EFA0834FBA2FBA1204671
:1067C00012F088FA0834F4A2F2A1204612F082FAFC
:1067D0000834F1A2F3A1204612F07CFA0834ECA2AE
:1067E000EEA1204612F076FA0834EBA2F0A1204682
:1067F00012F070FA0834EFA2E8A1204612F06AFA0B
:106800000834EDA2E3A1204612F064FA0834E6A2AF
:10681000E6A1204612F05EFA0834DDA2DDA1204692
:1068200012F058FA0834DCA2DCA1204612F052FA29
:106830000834DBA2DBA1204612F04CFA0834DAA2BD
:10684000DAA1204612F046FA0834D3A2D1A120469C
:1068500012F040FA0834D0A2D2A1204612F03AFA3F
:106860000834CBA2D5A1204612F034FA0834CAA2CB
:10687000CCA1204612F02EFA0834CEA2CFA1204699
:1068800012F028FA0834C2A2CDA1204612F022FA52
:106890000834C5A2C5A1204612F01CFA0834C2A2D1
:1068A000BCA1204612F016FA0834C6A2C6A12046A2
:1068B00012F010FA0834BCA2BAA1204612F00AFA6B
:1068C0000834B5A2BDA1204612F004FA0834B2A2E1
:1068D000B4A1204612F0FEF90834B3A2B7A12046B5
:1068E00012F0F8F90834B0A2B0A1204612F0F2F983
:1068F0000834ADA2AEA1204612F0ECF90834A4A2EF
:10690000AFA1204612F0E6F90834AAA2ABA12046B6
:1069100012F0E0F90834A2A2A2A1204612F0DAF99E
:1069200008349DA2A1A1204612F0D4F908349EA2F9
:10693000A2A1204612F0CEF9083497A299A12046D0
:1069400012F0C8F9083494A292A1204612F0C2F9BC
:1069500008348FA299A1204612F0BCF908348EA207
:106960008CA1204612F0B6F908348BA28DA12046E6
:1069700012F0B0F9083488A286A1204612F0AAF9D4
:10698000083483A287A1204612F0A4F9083482A219
:106990008AA1204612F09EF9083483A28AA12046DB
:1069A00012F098F9083489A285A1204612F092F9D4
:1069B00008347BA282A1204612F08CF908347AA216
:1069C0007AA1204612F086F9083477A280A12046E9
:1069D00012F080F908346EA27EA1204612F07AF9F6
:1069E000083471A27CA1204612F074F908346AA21E
:1069F0007AA1204612F06EF9083467A274A12046ED
:106A000012F068F9083464A274A1204612F062F909
:106A1000083465A26EA1204612F05CF908345EA22B
:106A20006EA1204612F056F908345BA25FA1204601
:106A300012F050F908345CA265A1204612F04AF920
:106A4000083455A265A1204612F044F9083450A23A
:106A500063A1204612F03EF9083453A25CA12046FF
:106A600012F038F908344CA25EA1204612F032F937
:106A700008344BA256A1204612F02CF908344AA241
:106A80004AA1204612F026F9083447A250A1204618
:106A900012F020F908343EA24EA1204612F01AF955
:106AA000083441A24CA1204612F014F908343AA24D
:106AB0004AA1204612F00EF9083437A244A120461C
:106AC00012F008F9083434A244A1204612F002F969
:106AD000083435A23EA1204612F0FCF808342EA25C
:106AE0003EA1204612F0F6F808342BA22FA1204632
:106AF00012F0F0F808342CA235A1204612F0EAF882
:106B0000083425A235A1204612F0E4F8083420A26A
:106B100033A1204612F0DEF808341FA231A120462E
:106B200012F0D8F8083420A22DA1204612F0D2F895
:106B300008341BA226A1204612F0CCF808341AA271
:106B40001AA1204612F0C6F8083417A220A1204648
:106B500012F0C0F808340EA21EA1204612F0BAF8B6
:106B6000083411A21CA1204612F0B4F808340AA27D
:106B70001AA1204612F0AEF8083407A214A120464C
:106B800012F0A8F8083404A214A120462CE000005A
:106B9000322F3200365F0000312F3400375F0000A3
:106BA000352F340031000000312F3200300000005A
:106BB000355F0000332F3400342F320032000000E4
:106BC00033000000332F320034000000382F34002F
:106BD00036000000337E0000327E0000317E00006F
:106BE000370000003500000012F074F80834AFF2EE
:106BF0004802AFF22401204612F06CF80834AFF2DC
:106C00006802AFF22801204612F064F80834AFF2AF
:106C10007802AFF26801204612F05CF80834AFF257
:106C20007802AFF25401204612F054F80834AFF263
:106C30009802AFF25801204612F04CF80834AFF237
:106C4000B002AFF26401204612F044F80834AFF20B
:106C5000A802AFF28401204612F03CF80834AFF2EB
:106C6000C802AFF28001204612F034F80834AFF2C7
:106C7000D002AFF2B401204612F02CF80834AFF283
:106C8000D802AFF2D801204612F024F80834AFF24F
:106C9000E802AFF2C401204612F01CF80834AFF24B
:106CA000EC02AFF2D001204612F014F80834AFF233
:106CB00008122FA1204612F00DF80834AFF2181276
:106CC000AFF2F001204612F005F80834AFF22812B6
:106CD000AFF2FC01204611F0FDFF0834AFF238128C
:106CE000AFF20811204611F0F5FF0834AFF2581248
:106CF000AFF21C11204611F0EDFF0834AFF24C1238
:106D0000AFF23411204611F0E5FF0834AFF28012E3
:106D1000AFF23C11204611F0DDFF0834AFF27812DB
:106D2000AFF24811204611F0D5FF0834AFF27C12C3
:106D3000AFF25411204611F0CDFF0834AFF2981293
:106D4000AFF26811204611F0C5FF0834AFF28C1283
:106D5000AFF28411204611F0BDFF083420460BF03D
:106D60000BF82846FDF764FB28460DF09FFE70BD2A
:106D7000357E000070B54FF416600DF0ABFE054691
:106D80002C46FEA2FEA1204611F0A4FF0834FDA26D
:106D9000FDA1204611F09EFF0834FCA2FCA1204674
:106DA00011F098FF0834F7A2FAA1204611F092FFE3
:106DB0000834F4A2F6A1204611F08CFF0834F3A2A7
:106DC000EFA1204611F086FF0834EEA2F2A1204682
:106DD00011F080FF0834EBA2E9A1204611F07AFF00
:106DE0000834EAA2EDA1204611F074FF0834E5A2B0
:106DF000EBA1204611F06EFF0834E2A2E6A1204686
:106E000011F068FF0834DDA2DDA1204611F062FF19
:106E10000834DCA2DEA1204611F05CFF0834D9A2C0
:106E2000DCA1204611F056FF0834D8A2DDA120468F
:106E300011F050FF0834DCA2D3A1204611F04AFF24
:106E40000834D9A2D9A1204611F044FF0834D8A2B1
:106E5000D4A1204611F03EFF0834D5A2D0A120468F
:106E600011F038FF0834C5A2C5A1204611F032FF49
:106E70000834C4A2C4A1204611F02CFF0834C3A2D8
:106E8000C3A1204611F026FF0834BEA2C1A12046AE
:106E900011F020FF0834BBA2BDA1204611F01AFF5B
:106EA0000834BAA2B6A1204611F014FF0834B5A2E6
:106EB000B9A1204611F00EFF0834B2A2B0A12046BD
:106EC00011F008FF0834B1A2B4A1204611F002FF6E
:106ED0000834ACA2B2A1204611F0FCFE0834A9A2ED
:106EE000B4A1204611F0F6FE0834A6A2ABA12046BC
:106EF00011F0F0FE0834A3A2A7A1204611F0EAFE8B
:106F00000834A0A29EA1204611F0E4FE08349DA200
:106F1000A0A1204611F0DEFE08349CA298A12046D4
:106F200011F0D8FE083499A29BA1204611F0D2FEA0
:106F300008349FA292A1204611F0CCFE083493A2FF
:106F400097A1204611F0C6FE08348EA291A12046DA
:106F500011F0C0FE08348BA292A1204611F0BAFEB7
:106F6000083488A288A1204611F0B4FE083485A216
:106F70008CA1204611F0AEFE083482A282A12046E8
:106F800011F0A8FE08347DA288A1204611F0A2FECF
:106F900008347CA27CA1204611F09CFE083479A222
:106FA00080A1204611F096FE083478A279A12046EF
:106FB00011F090FE083473A271A1204611F08AFEF0
:106FC000083470A274A1204611F084FE08346FA228
:106FD00072A1204611F07EFE08346AA26DA12046FF
:106FE00011F078FE083467A26EA1204611F072FEFF
:106FF000083464A264A1204611F06CFE083461A23A
:1070000068A1204611F066FE08345EA25EA120460B
:1070100011F060FE08345BA264A1204611F05AFE14
:10702000083458A258A1204611F054FE083455A245
:107030005CA1204611F04EFE08345BA255A120460B
:1070400011F048FE08345CA24DA1204611F042FE2A
:10705000083457A24CA1204611F03CFE083449A246
:107060004CA1204611F036FE083446A24DA1204620
:1070700011F030FE083443A243A1204611F02AFE4D
:10708000083440A247A1204611F024FE08343DA256
:107090003DA1204611F01EFE083438A243A120462F
:1070A00011F018FE083437A237A1204611F012FE65
:1070B000083434A23BA1204611F00CFE083431A262
:1070C00034A1204611F006FE083437A235A120462F
:1070D00011F000FE083434A22EA1204611F0FAFD72
:1070E000083428A226A1204611F0F4FD083425A278
:1070F00029A1204611F0EEFD083424A227A1204644
:1071000011F0E8FD08341FA225A1204611F0E2FD90
:1071100008341CA220A1204611F0DCFD083419A27D
:1071200017A1204611F0D6FD083416A21AA1204658
:1071300011F0D0FD083413A211A1204611F0CAFDB0
:10714000083410A210A1204611F0C4FD08340DA28D
:107150000BA1204611F0BEFD08340AA20EA1204664
:1071600011F0B8FD083407A205A1204611F0B2FDC8
:10717000083404A208A1204620E00000332F32008A
:1071800036000000312F3200337E0000322F3200F3
:1071900037000000317E00003500000033000000A1
:1071A00030000000327E0000312F3400357E0000B8
:1071B000342F320032000000332F340011F08AFDEA
:1071C0000834AFF21402AFF24801204611F082FDFC
:1071D0000834AFF24802AFF23801204611F07AFDD0
:1071E0000834AFF26002AFF26001204611F072FD88
:1071F0000834AFF27002AFF24C01204611F06AFD84
:107200000834AFF28002A6A1204611F063FD0834D5
:10721000AFF29002AFF26C01204611F05BFD083432
:10722000AFF2A002AFF2A001204611F053FD0834E6
:10723000AFF2A802AFF29401204611F04BFD0834E2
:10724000AFF2C002AFF2B401204611F043FD0834A2
:10725000AFF2D002AFF2D801204611F03BFD083466
:10726000AFF2D802AFF2C401204611F033FD08346A
:10727000AFF2F002AFF2CC01204611F02BFD083442
:10728000AFF20812AFF20011204611F023FD0834CE
:10729000AFF21012AFF2F801204611F01BFD0834D6
:1072A000AFF2FC02AFF22011204611F013FD0834BA
:1072B000AFF20C12AFF20C11204611F00BFD0834A6
:1072C000AFF2381276A1204611F004FD0834AFF277
:1072D0004C12AFF22811204611F0FCFC0834AFF23A
:1072E0005C12AFF25C11204611F0F4FC0834AFF2EE
:1072F0006412AFF25011204611F0ECFC0834AFF2EA
:107300007C12AFF27C11204611F0E4FC0834AFF29D
:107310008C12AFF26811204611F0DCFC0834AFF299
:107320007012AFF29C11204611F0D4FC0834AFF279
:10733000A412AFF29411204611F0CCFC0834AFF245
:10734000BC12AFF2BC11204611F0C4FC0834AFF2FD
:10735000CC12AFF2A811204611F0BCFC0834AFF2F9
:10736000D4124FA1204611F0B5FC0834AFF2EC1254
:10737000AFF2C811204611F0ADFC0834AFF2FC1298
:10738000AFF2FC11204611F0A5FC0834AFF2042244
:10739000AFF2F011204611F09DFC0834AFF2142238
:1073A000AFF21021204611F095FC0834AFF22422F0
:1073B000AFF22421204611F08DFC0834AFF23422C4
:1073C000AFF22C21204611F085FC0834AFF24422A4
:1073D000AFF24021204611F07DFC0834AFF25C2270
:1073E000AFF26421204611F075FC0834AFF26C2234
:1073F000AFF25C21204611F06DFC0834AFF274222C
:10740000AFF28421204611F065FC0834AFF28C22E3
:10741000AFF27421204611F05DFC0834AFF29C22DB
:10742000AFF29021204611F055FC0834AFF2AC22A7
:10743000AFF2A421204611F04DFC0834AFF298229F
:10744000AFF2B021204611F045FC0834AFF2A8227B
:10745000AFF2C421204611F03DFC0834AFF2DC222B
:10746000AFF2E421204611F035FC0834AFF2EC22F3
:10747000AFF2DC21204611F02DFC083409A2AFF256
:107480000031204611F026FC083420460AF074FC36
:107490002846FCF7CDFF28460DF008FB70BD000024
:1074A000367E0000362F320070B54FF4C8600DF004
:1074B00011FB05462C4614A214A1204611F00AFC2B
:1074C000083411A212A1204611F004FC08340EA2C7
:1074D00010A1204611F0FEFB08340BA20EA120469D
:1074E00011F0F8FB08340DA20DA1204611F0F2FBBB
:1074F000083420460AF040FC2846FCF799FF28464D
:107500000DF0D4FA70BD0000312F320031000000C0
:10751000320000003300000034000000312F310041
:10752000350000002DE9FF4704460D4616469946F2
:1075300000200390029600278046009002A80FF0DA
:10754000B1FA8DF80C000398C0F30310022800D0A4
:107550001FE001A9029800F04DF880460299084406
:107560000290DDE9011047180298381A022800DA63
:107570000FE002A80FF096FA8DF80000009800F0D6
:107580000100207002A80FF08DFA28704FF001085A
:1075900000BF404604B0BDE8F0872DE9F84305463A
:1075A0000C46012600270020206000BF4FF0FF3866
:1075B000781C0746042801DD00BF17E0012168465A
:1075C000A8478046B8F1010F00D00FE09DF80010E9
:1075D00001F07F01206801FB06002060F6019DF8A4
:1075E000000000F080000028E0D100BF3846BDE870
:1075F000F883000070B504460D4603480460294630
:107600000248FFF7CAFF70BD2C020020B9BF000876
:1076100030B50246002300BF0846CD1701EB556583
:10762000ED11A1EBC515ECB2CD1701EB5565E911D4
:10763000002901DD44F0800418465B1C1454002925
:10764000EADC184630BD0000401C802801DA401CEE
:107650000AE0B0F5804F01DA801C05E0034988425A
:1076600001DAC01C00E0001D70470000FFFF1F0092
:107670002DE9FE4305460E46144602950020019072
:10768000009000274FF0FF38204600F0A5F807468D
:107690008146FFF7D9FFB04202DD6FF001088FE0AD
:1076A00000208DF80400019820F0F00010300190C7
:1076B0009DF8041002A812F02BF939460298FFF742
:1076C000A7FF029908440290207A042808D13EA11D
:1076D00002A812F009F9042102A812F019F907E032
:1076E0003BA102A812F000F9032102A812F010F940
:1076F00000208DF80000A17E009861F34100009009
:10770000E07E08B1012100E00021009861F38200D1
:1077100000900098C0F3800058B194F83D10009894
:1077200061F3C400009094F83C10009861F3451098
:107730000090206C08B9A06C20B1009820F0800067
:1077400080300090E06C08B9606D20B1009820F0A6
:107750004000403000909DF8001002A812F0D8F8C8
:10776000218B02A812F0DAF802A8D4E90423E16818
:1077700012F0ECF8E07E58B102A8D4E90A23616A5D
:1077800012F0E4F802A8D4E90D23216B12F0DEF820
:107790000098C0F3C01028B102A8D4E91123216CCD
:1077A00012F0D4F80098C0F3801028B102A8D4E9F0
:1077B0001423E16C12F0CAF80298A0EB050800BF90
:1077C0004046BDE8FE8300004D51545400000000C7
:1077D0004D5149736470000070B504460025207A4D
:1077E000032801D10C2503E0207A042800D10A25C2
:1077F000D4E90412E06800F02AF8801C0544E07E19
:1078000068B1D4E90A12606A00F021F8861CD4E954
:107810000D12206B00F01BF83044801C0544206CD6
:1078200008B9A06C30B1D4E91112206C00F00FF847
:10783000801C0544E06C08B9606D30B1D4E91412C5
:10784000E06C00F004F8801C0544284670BD37B594
:107850000024009820B10098FBF76EFB044600E07E
:10786000019C20463EBD00F04FF800F04DF80000AE
:1078700070B5002100230F22C47804B3154C24688E
:1078800004F4E064C4F5E064210AC1F10403CA40D1
:10789000447804FA03F184781440214309010E4C22
:1078A0000678A155047804F01F050124AC40057842
:1078B0006D11AD0005F1E025C5F8004109E004783F
:1078C00004F01F050124AC40044D0678761145F8FC
:1078D000264070BD0CED00E000E400E080E100E037
:1078E00002490143024A1160704700000000FA0596
:1078F0000CED00E0024A0A400243024B1A60704756
:1079000080FFFF1F08ED00E00648006800F4E0601B
:1079100005490843001D03490860BFF3408F00BFBD
:10792000FEE700000CED00E00000FA0510B50D4880
:107930000068B0B90C480068FBF71EF90B490860F5
:10794000084600680A4908600A480849096800EBC7
:107950004110094908600846006808490860FBF7BB
:10796000C8F810BD44000020680000204C00002032
:1079700048000020141B002054000020500000206C
:1079800070B5044610464FF080750560051F284607
:107990002C606FF00106051F28462E604FF012364E
:1079A000051F28462E604FF00336051F28462E601F
:1079B0004FF00236051F28462E607610051F284618
:1079C0002E60051F284629604FF01136051F2846F6
:1079D0002E604FF01036051F28462E604FF00936F6
:1079E000051F28462E604FF00836051F28462E60DA
:1079F0004FF00736051F28462E604FF00636051F4C
:107A000028462E604FF00536051F28462E604FF0A1
:107A10000436051F28462E6070BD000010B5FBF728
:107A200061F8044606480078401C0549087005487E
:107A30000078054908702046FBF758F810BD000093
:107A4000640000204C0000206C00002010B5FBF703
:107A500049F804460948007820B108480078401EDB
:107A6000064908700548007810B9202004490870BC
:107A70002046FBF73BF803F06FFA10BD64000020CE
:107A80006C00002010B50346074800EB421001606F
:107A9000054800EB421043604FF00040024C04EBFD
:107AA0004214E060002010BD141B00200149086250
:107AB0007047000000000E42024800880A30014969
:107AC000088070476C01002029B1064AD269024340
:107AD000044BDA6104E0034AD2698243014BDA6164
:107AE000704700000010024029B1064A12690243A3
:107AF000044B1A6104E0034A12698243014B1A6184
:107B0000704700000010024029B1064A9269024302
:107B1000044B9A6104E0034A92698243014B9A61E3
:107B2000704700000010024029B1064AD2680243A3
:107B3000044BDA6004E0034AD2688243014BDA6006
:107B400070470000001002400149086070470000C3
:107B50004004424230B500210022002400232D4D74
:107B60006D6805F00C0121B1042905D0082923D145
:107B700005E0294D056022E0274D05601FE0254DF9
:107B80006D6805F47012234D6D6805F4803402258C
:107B900005EB92421CB9214D554305600BE01D4D8C
:107BA0006D6805F400351DB11C4D5543056002E0BC
:107BB000194D5543056002E0174D056000BF00BF39
:107BC000144D6D6805F0F0010909154D6B5C0568F1
:107BD000DD4045600F4D6D6805F4E061090A104D08
:107BE0006B5C4568DD4085600A4D6D6805F4605149
:107BF000C90A0B4D6B5C4568DD40C560054D6D687D
:107C000005F44041890B074D6B5CC568B5FBF3F586
:107C1000056130BD0010024000127A0000093D00ED
:107C2000180000202800002010B501460022002383
:107C300000204A11012A02D1094C236806E0022AD9
:107C400002D1074C236A01E0054C636A01F01F0270
:107C5000012494401C400CB1012000E0002010BD24
:107C60000010024000210B4A11700A4A203A82F8A3
:107C70002010012802D0042808D103E00121054A80
:107C8000117004E00521034A117000E000BF00BF3D
:107C90007047000020100240014908607047000052
:107CA0003C0442420249096A0143014A1162704799
:107CB0000010024070B504460D4603F073F90E49FA
:107CC0000968884201D0002070BD0DB90020FBE793
:107CD0000BE000BF8021094803F096FA0028F9D094
:107CE00020780649091D0880641C2800A5F10101BF
:107CF000CDB2EED100BFE7E74C00002000380140D4
:107D000070B505460E4600240B48008838B100BF08
:107D100003E000202855601C84B2B442F9DB002443
:107D200004E0FDF70FFA2855601C84B20248008871
:107D30000028F6D1204670BDC80000202DE9F04192
:107D400005460E46002400BF03E000202855601CB5
:107D500084B2B442F9DB002442F2107809E0A8F1C1
:107D600001001FFA80F8B8F1000F02D10020BDE831
:107D7000F081214800780028F1D0204800680028D0
:107D800038D0002400270CE001F0BCFFFF2804D10C
:107D900001F0CCFFFF2800D105E0FDF7D3F9781CF6
:107DA00087B2322FF0DB00BF002410E0FDF7CAF9E4
:107DB0002855601C84B2B44200D10CE001F0A2FF4F
:107DC000FF2804D101F0B2FFFF2800D103E00C48E6
:107DD00000880028EAD100BF0948008850B9002077
:107DE00008490880084908600849088001200849B6
:107DF000C1F894012046BAE7CA00002020012142C0
:107E0000C8000020C200002094012742C4000020C6
:107E10000000274210B586B0044601210420FFF778
:107E200073FE01218803FFF76FFE464803F09EF9B9
:107E30004FF48070ADF8140004208DF81700032073
:107E40008DF8160005A94048FCF7ECFF4FF480714F
:107E50003D48FDF7BDF84FF40060ADF81400102068
:107E60008DF8170003208DF8160005A93648FCF799
:107E7000D9FF4FF400613448FDF7A8F84FF4805063
:107E8000ADF8140010208DF8170003208DF81600AF
:107E900005A92D48FCF7C6FF4FF480512A48FDF78D
:107EA00095F84FF40070ADF8140002208DF816001C
:107EB00018208DF8170005A92348FCF7B3FF4FF4ED
:107EC0008060ADF8140004208DF8170005A91E4845
:107ED000FCF7A8FF25208DF8000000208DF8010098
:107EE00001208DF802008DF803006846FFF7C0FC02
:107EF00001940020ADF80800ADF80A00ADF80C00C0
:107F0000ADF810000C20ADF80E0000210D4803F074
:107F100020F90C4803F02AF901A90A4803F0D0F926
:107F2000012240F22551074803F0A5F9012240F251
:107F30002441044803F09FF90121024803F009F9A4
:107F400006B010BD00380140000801401FB50446CE
:107F50004FF41650FFF75EFF01201F4908601F49CC
:107F6000C1F8AC01642008F07FFD1DA103C9CDE973
:107F700002018DF80C401CE0062102A8FFF79AFED2
:107F80004FF4FA7008F070FD002000900190062177
:107F90006846FFF7B5FE694613A00FF06BFC00B111
:107FA00008E09DF804009DF80C10884200D101E023
:107FB00000BFE1E700BF0020074908600749C1F89A
:107FC000AC01642008F050FD4FF4E130FFF722FFD0
:107FD000002004B010BD0000B00121420000214289
:107FE000C200003A144000004F4B000002490988CB
:107FF0008143014A118070470428004003480088EB
:1080000040F010000149088070470000042800403B
:10801000034800884FF6EF71084001490880704717
:108020000428004070B500260024002500F07AF8EE
:1080300006463848B6FBF0F437480088A0423CD0EA
:1080400035490C8040F2B27510E02846FDF71EFA63
:1080500040B1B4F5B77F02D3A4F5B77404E0681C4F
:1080600085B206E0A4F26D14681C85B2B4F5B67F43
:10807000EBD800BF29488580002516E0274988886D
:10808000FDF704FA30B1012D04D11D2C01D31D3CA4
:1080900009E00CE02248405DA04203D82048405D42
:1080A000241A00E003E0681C85B21C2CE6D200BF55
:1080B000681C1A498871601CC8711648B6FBF0F13B
:1080C00000FB11644FF46160B4FBF0F013490870D9
:1080D0004FF46160B4FBF0F100FB11403C21B0FBB8
:1080E000F1F00E4948704FF46160B4FBF0F100FB11
:1080F00011403C21B0FBF1F201FB120007498870EE
:108100000B46DA799979988800F030F803490872BB
:10811000002070BD8051010070000020141F00205D
:1081200020B50108002103480188001F008841EAAA
:10813000004070471C28004001460020064A128873
:108140000A40D0B2044A121F12880A4012B108B184
:10815000012000E0002070470428004010B5FFF720
:10816000E1FF10BD00487047141F0020F0B5034622
:108170000C461546642093FBF0F0C6B2642093FBD6
:10818000F0F700FB1730C1B2132E02DD01F16400DD
:10819000C1B20846CF1701EB977701EBA707BAB238
:1081A000072092FBF0F700FB172082B25719601EE0
:1081B000DFF82CC01CF80000384482B2CF1701EB66
:1081C0009777BF10A1EB87071FB9032C01DA501E68
:1081D00082B2072092FBF0F700FB1720C0B2F0BD7F
:1081E00014B5010810B50120FFF7A6FF08B1FFF78D
:1081F00019FF0220FFF7A0FF10B10220FFF7F6FEE3
:108200000520FFF7F3FE00F02DF910BD29B1064A55
:1082100012880243044B1A8004E0034A1288824306
:10822000014B1A8070470000002800401CB5002454
:108230000420FCF713F845F2500188424AD001218E
:108240004FF0C050FFF740FC0120FFF72FFCFBF779
:10825000FDFF0120FFF706FD0BE0601C84B24FF428
:108260007A7008F01BFC40F6C410844201DB012048
:108270001CBD4120FFF7D8FC0028EED04FF48070E1
:10828000FFF710FD0120FFF707FD00F0EBF800F00D
:10829000F3F801210846FFF7B9FF00F0E3F8FFF714
:1082A000ADFE47F6FF7000F0B5F800F0DBF83720C0
:1082B00000210A230222CDE900100C2140F2D970DE
:1082C00000F02EF8FFF7A4FE45F250010420FBF762
:1082D000D3FF07E000F0D0F801210846FFF796FF32
