:020000040800F2
:1028000060260020A92A000877780008DB5300081A
:1028100073780008A946000863B4000800000000AF
:102820000000000000000000000000001B950008F0
:10283000054A000800000000332B00083DA40008F2
:10284000C32A0008C32A0008C32A0008F18100082F
:10285000C32A0008C32A0008C32A0008C32A0008A4
:10286000C32A0008C32A0008FB4B0008C32A00083B
:10287000C32A0008C32A0008C32A0008C32A000884
:10288000C32A0008C32A0008C32A0008C32A000874
:10289000C32A0008C32A0008C32A0008C32A000864
:1028A000C32A0008C32A0008C32A0008C32A000854
:1028B00019A5000845A5000861A50008C32A00085D
:1028C000C32A0008C32A0008C32A0008C32A000834
:1028D000C32A000879AF000871B00008C32A0008B5
:1028E000C32A0008C32A0008C32A0008C32A000814
:1028F000C32A0008C32A0008C32A0008C32A000804
:10290000C32A0008C32A0008C32A0008C32A0008F3
:10291000C32A0008C32A0008C32A0008C32A0008E3
:10292000C32A0008C32A0008C32A0008C32A0008D3
:1029300000F002F800F07EF80AA090E8000C824453
:102940008344AAF10107DA4501D100F073F8AFF230
:10295000090EBAE80F0013F0010F18BFFB1A43F07D
:10296000010318471C9C01003C9C01000A444FF0E5
:10297000000C10F8013B13F0070408BF10F8014BDE
:102980001D1108BF10F8015B641E05D010F8016B23
:10299000641E01F8016BF9D113F0080F1EBF10F887
:1029A000014BAD1C0C1B09D16D1E58BF01F801CBAA
:1029B000FAD505E014F8016B01F8016B6D1EF9D52D
:1029C0009142D6D370470000002300240025002642
:1029D000103A28BF78C1FBD8520728BF30C148BF82
:1029E0000B607047662918F0BC80652918F0B98023
:1029F000642900F05781752900F05481782900F08E
:102A00008D81732900F0E186002070471FB500F02A
:102A100062FA00F0DFFE04000020002116F0FCFF47
:102A2000401C60600020002117F00CF8E0601FBD22
:102A300010B510BD00F0CEFF1146FFF7E7FF11F013
:102A4000F3FA00F0ECFF03B4FFF7F2FF03BC09F068
:102A50009AF80000EFF30980704780F30988704707
:102A6000EFF30880704780F30888704740BA7047DA
:102A7000C0BA70470B49D1F800C04A685CF8043B03
:102A80001068184442F8040B8C4528BFA1F1DC0CF7
:102A90008A4228BFA1F1DC02C1F800C04A6020F0E0
:102AA00000407047F8230020094880470948004744
:102AB000FEE7FEE7FEE7FEE7FEE7FEE7FEE7FEE7EE
:102AC000FEE7FEE704480549034A054B704700004E
:102AD000B9A40008312900086024002060260020E5
:102AE00060240020EFF3108072B6704780F31088E6
:102AF0007047294C294D25604FF0000484F3098864
:102B0000274C4FF001052570264C4FF0805525606D
:102B100062B6FEE730B4234C4FF08055256030BCE0
:102B2000704730B41F4C4FF08055256030BC704763
:102B300000BF72B6EFF3098028B1203880E8F00FAB
:102B400019490968086000B51848006800B1804755
:102B50005DF804EB164817490A78027012481649C6
:102B60000A680260106890E8F00F203080F309884E
:102B70004EF0040E62B67047B0FA80F0704790FADB
:102B8000A0F04FEA1040704700B520B4069DA8475A
:102B900020BC5DF804EB704720ED00E00000FFFF73
:102BA0004400002004ED00E0500000206000002000
:102BB000480000204C00002054000020704710B551
:102BC000044600F059FB0068005DC00602D504F120
:102BD000200010BD204610BD0FB41CB5084B06AA3E
:102BE0007B4469460090059800F0C5FD044600202E
:102BF000694600F0D3FD20461CBC5DF814FB0000C4
:102C0000B90B000070B5044685690068C10601D59E
:102C1000302600E02026C00707D070BDD4E901218E
:102C200030469047206A401C20626D1EF6D570BD6C
:102C300070B5044685690078C00707D170BDD4E936
:102C4000012120209047206A401C20626D1EF6D58D
:102C500070BD70B50C460546012A05D0287880065F
:102C600000D5EA69002302E0012305E05B1C9342E2
:102C700002D2E05C0028F9D1A869E618C01AA86160
:102C8000286A184428622846FFF7BCFF04E0D5E90B
:102C9000012114F8010B9047B442F8D32846FFF7FE
:102CA000C7FF70BD2DE9F041064600241068752964
:102CB000314616A510D0AFF30080002802DA40425A
:102CC00013A507E031688A0701D512A502E049077C
:102CD00004D511A5012401E0AFF3008000210A22F0
:102CE00006F1240709E0B0FBF2FCB0FBF2F302FBB3
:102CF0001C00303078541846491C0028F3D1234674
:102D00002A463046BDE8F04100F0C9BA0000000094
:102D10002D0000002B0000002000000070B50446CC
:102D20000D4621461068AFF300802188090502D5C1
:102D30000F4A7A4402E00E4A7A440E32002104F12E
:102D4000240305E000F00F060009965D5E54491C5F
:102D50000028F7D120780023000704D5702D02D079
:102D600009B1022311322046BDE8704000F097BA45
:102D7000168801002DE9F05F894604464FF0000AED
:102D8000DFF824B1FB44C0F820A02046E168884762
:102D900000287DD0252806D0D4E901219047206A5B
:102DA000401C2062F1E700255F462046E168884725
:102DB0002028064607DB312E05D2B81910F8200C62
:102DC00008B10543F1E7A80701D525F00405C4F8CB
:102DD0001CA00027C4F818A02A2E09D0304608F0FD
:102DE000CBFE38B304EB8708303EC8F8186019E012
:102DF00059F8041B204604EB87029161E16888477B
:102E0000012F064618D1E069002820DA25F02005B8
:102E10001DE0D8F8180000EB800006EB40003038C9
:102E2000C8F818002046E1688847064608F0A4FE66
:102E30000028EED1012F0AD02E2E08D12046E168BD
:102E400088477F1C0646022F45F02005C4DBA06999
:102E5000002803DA404245F00105A061E80701D0EF
:102E600025F01005A6B1A6F14100192802D8203698
:102E700045F400654A463146204625604D46FFF739
:102E8000B1FD60B1012807D0ED1D25F0070000E07D
:102E900007E000F1080978E705F1040975E7304615
:102EA0007AE7206ABDE8F09FEC8701000B4910B576
:102EB000A1F17C020A4CC2E93712372106E000EB8F
:102EC000104342F82130074B00FB03400B1EA1F1D9
:102ED0000101F4DC10BD0120E8E700009823002088
:102EE000E119D666CD0D0100401ECAB210F8011FCF
:102EF0008A4202D00029F9D10020704740EA01033C
:102F0000024630B59B0710D14FF0013400E008C2F3
:102F100008C91D1B9D4315EAC41FF8D013F0FF011B
:102F200002F8011B0DD01B0AF8E711F8013B002B3A
:102F300002F8013B05D011F8013B002B02F8013BE0
:102F4000F3D130BD10B5431C02E010F8011B71B184
:102F50008107FAD14FF0013202C88C1A8C4314EA6F
:102F6000C211F9D0C01A0A0603D0C01E10BDC01A83
:102F700010BD0A0401D0801E10BD0902FCD0401E05
:102F800010BD40EA010370B59B072ED14FF001360A
:102F9000042A2AD308C810C99D1B9D43121F15EA95
:102FA000C61517D0D8B2E1B2401A50EA056110D167
:102FB00098B2A1B2401A50EA05410AD123F07F40ED
:102FC00024F07F41401A50EA052102D1180EA0EBEF
:102FD000146070BDA342DBD018BA21BA884201D96F
:102FE000012070BD4FF0FF3070BD0AB9002070BDE8
:102FF00010F8013B11F8014B63B1A3420AD1521EF4
:1030000008D010F8013B11F8014B1BB1A34201D1CC
:10301000521EEDD1181B70BD032A40F2308010F013
:10302000030C00F0158011F8013BBCF1020F624463
:1030300098BF11F801CB00F8013B38BF11F8013BF4
:10304000A2F1040298BF00F801CB38BF00F8013BA1
:1030500011F0030300F02580083AC0F0088051F811
:10306000043B083A51F804CBA0E80810F5E7121D1C
:103070005CBF51F8043B40F8043BAFF30080D2073B
:1030800024BF11F8013B11F801CB48BF11F8012B07
:1030900024BF00F8013B00F801CB48BF00F8012B2A
:1030A000704710B5203AC0F00B80B1E81850203AB4
:1030B000A0E81850B1E81850A0E81850BFF4F5AFD8
:1030C0005FEA027C24BFB1E81850A0E8185044BF62
:1030D00018C918C0BDE810405FEA827C24BF51F8CF
:1030E000043B40F8043B08BF7047D20728BF31F8C3
:1030F000023B48BF11F8012B28BF20F8023B48BF14
:1031000000F8012B70474FF000020429C0F0128034
:1031100010F0030C00F01B80CCF1040CBCF1020F8A
:1031200018BF00F8012BA8BF20F8022BA1EB0C015F
:1031300000F00DB85FEAC17C24BF00F8012B00F855
:10314000012B48BF00F8012B70474FF0000200B57B
:10315000134694469646203922BFA0E80C50A0E8BA
:103160000C50B1F12001BFF4F7AF090728BFA0E868
:103170000C5048BF0CC05DF804EB890028BF40F834
:10318000042B08BF704748BF20F8022B11F0804F76
:1031900018BF00F8012B704710B5044610F0030F5C
:1031A00008BF11F0030F40F015804FF0013E121FD1
:1031B000C0F20E8051F8043BA3EB0E0C2CEA030C7A
:1031C0001CEACE1C08BF40F8043BF0D0A1F104017A
:1031D00002F10402521E08DB11F8013B002B00F83B
:1031E000013BF7D11146FFF78EFF204610BD0000CE
:1031F0004FF0013C50F8042B51F8043B9A4221D186
:10320000A2EB0C03934313EACC1317D150F8042B11
:1032100051F8043B9A4215D1A2EB0C03934313EAF5
:10322000CC130BD150F8042B51F8043B9A4209D12E
:10323000A2EB0C03934313EACC13DBD04FF0000056
:10324000704700BFD01A01BAB1FA81F101F018013C
:1032500022FA01F0CB40C1F12001DBB2C0B2C01AAA
:103260002CFA01F3D11A914311EAC311E6D1704748
:10327000704770477047704710B500F0ABFA001DFB
:1032800010BD00BF9567010010B500F0A7FA0068F7
:1032900010BD10B5044600F0A1FA046010BD2DE980
:1032A000F0470D4699469246044600F1240801680D
:1032B000880604D5E06921F01001216000E00120BA
:1032C000A84201DD471B00E00027A1697A1902EB43
:1032D0000900081AA0612078C00602D42046FFF732
:1032E00091FC002608E0D4E901211AF80600904775
:1032F000206A401C761C20624E45F4DB2078C00614
:103300000AD52046FFF77EFC06E0D4E901213020F3
:103310009047206A401C2062381EA7F10107F4DCA8
:1033200007E0D4E9012118F805009047206A401C05
:103330002062281EA5F10105F3DC2046FFF778FC8A
:103340002078000602D50220BDE8F0870120FBE7C7
:1033500070472DE9FF4F0C461E464FF0FF378BB0EC
:10336000D2E90001DDF860800A908A46C1F30A556F
:1033700005B93D46002108464FF00000BAF1000FA4
:1033800000F4400005DA00EB80004FF4400101EA50
:1033900050004FEA9059B9F1010F00DDB9460A9883
:1033A00050EA4A000ED044F61050A5F2FF354543CE
:1033B0002F14B8F1000F1ED07542291E1EDDC9F171
:1033C00000021CE0B8F1010F4FF0000001D03021E5
:1033D00003E0F24305E02154401CB042FBDB3046E1
:1033E0000022002121540B99C1F80880C1E9002076
:1033F0000FB0BDE8F08FBD1B6D1CDEE74A4600DA5A
:10340000694206A800F074FA06AB93E8070003AB24
:1034100083E8070050460A9900F007FB8DE8070093
:10342000A0F500501F3800900398002D09DD42F2EE
:103430001F014A46084403A90390684600F066FD50
:1034400008E0A0F500504A461F3803A903906846DB
:1034500000F070FD8DE807000004000C03D04FF071
:10346000FF30410800E01046B8F1000F03D0002201
:10347000009215461EE0751E05D400F0B3F93032F7
:1034800062556D1EF9D5B3460122084302D00022D1
:103490007F1C04E02078302801D100227F1E002A02
:1034A000099786D01DE0112D07DA00F09BF9303224
:1034B00062556D1C50EA0102F5D1084302D0009814
:1034C000C8B10EE00021681E05E0235C625C635415
:1034D0002254401E491C8142F7DBAB46A81B401E0C
:1034E0000990002004F80B000B98099AC0F8088096
:1034F000C0E9002B7CE711264FF0000859E72DE9C1
:10350000F04F88460446D21D22F0070191B0D1E960
:103510000001CDE90A0108F0A5FA02460B98C00F98
:1035200001D02D2007E02068810701D52B2002E083
:10353000202101EAC000032A099001D0072A05DBF7
:1035400003464146204600F093F90BE120788006BF
:1035500001D5E06900E00620B8F1650F814606D08C
:10356000B8F1660F18D0B8F1670F70D131E00020C4
:10357000B9F1110F009001DB112301E009F1010302
:103580000AAA01A90CA8FFF7E4FEDDE90C700026E9
:1035900009F10105834647E001204B4600904FF0BA
:1035A00000470AAA01A90CA8FFF7D3FEDDE90DB078
:1035B0000C995D46002610B909F101000D18B9EB10
:1035C000050003D4C0F1FF3609F10105A5EB0900A0
:1035D0002BE0B9F1010F01DA4FF001090020B9F138
:1035E000110F0090484601DD112300E003460AAAAE
:1035F00001A90CA8FFF7ADFEDDE90C704D460026D1
:103600008346207800070AD4AB4500DA5D4601A85E
:10361000012D04DD411911F8011C302907D04F4557
:1036200002DA17F1040F04DA012082460FE06D1E62
:10363000EEE7002F02DCED1B3E4403E0781CA842BD
:1036400000DD7D1CB81B00F1010A4FF00047207817
:10365000000703D4AA4501DB4FF0FF3A0021B7F180
:10366000004F0DF143088DF8431024D002202B2386
:10367000002F01DA7F422D230A21021EA0F1010052
:1036800000DC5FB197FBF1FC97FBF1F201FB1C7CC6
:1036900017460CF1300C08F801CDEEE7A8F1010057
:1036A00003702188090501D5452100E06521A0F1BD
:1036B000010800F8011C09980FA9A1EB0807FF1DDC
:1036C00000B10120411901EBEA70A1693844081AE0
:1036D000401EA0612078C00602D42046FFF792FA6F
:1036E000099828B1D4E901219047206A401C206242
:1036F0002078C00622D52046FFF784FA1EE0002E6F
:1037000004DBB34502DD01A8805D00E03020D4E990
:1037100001219047206A401C2062761CAAF101001A
:103720005FEA000A0AD100F055F8C0680168405C01
:10373000D4E901219047206A401C2062281EA5F18F
:103740000105DCDC07E0D4E9012118F8010B904702
:10375000206A401C2062381EA7F10107F3DC2046D6
:10376000FFF766FA032011B043E6000001694A1C26
:1037700002610878704700B58FB0CDE901310021B2
:10378000059105497944CDE9031011466846FFF7D4
:10379000F1FA0FB000BD0000E5FFFFFF0A6802F874
:1037A000010B0A60704710B5436913B1AFF3008095
:1037B00001E0FFF74EFA012010BD127800F124015C
:1037C0000A7000224A700122EDE711684FF0FF32C3
:1037D000E9E70000004870472024002000487047B7
:1037E0000024002030B5B0F10A024FEA900E71F1CA
:1037F00000034EEA817EB0EB0E0061EB91014FEACF
:10380000101E4EEA017E10EB0E0041EB11114FEA43
:10381000102E4EEA016E10EB0E0041EB11214FEA23
:10382000104E4EEA014E10EB0E0041EB11414018D4
:1038300041F100014FEAD00040EA41704FEAD10166
:1038400010EB80054FEA810444EA907444EB0104D4
:103850006D1944EB0404521BA3414FF0000348BF11
:103860000A3200D530BD401C41F1000130BD0000DE
:103870002DE9F0411F46044603260168072A01F49A
:10388000006004DB08B116A505E016A503E008B149
:1038900015A500E015A521F010002060A069C01E4C
:1038A000A0610FB1401EA0612046FFF7ABF94FB1F8
:1038B000D4E9012138469047206A401C2062C01C90
:1038C000206206E0206AFAE7D4E9012115F8010B2D
:1038D0009047761EF8D22046FFF7AAF9BDE8F0819E
:1038E0004E414E006E616E00494E4600696E6600A4
:1038F0002DE9F047814616468AB0334878440DC812
:103900008DE80D0030487844801C03AC0DC884E875
:103910000D0041F69B300844372190FBF1F290FBFB
:10392000F1F5A5F1800501FB12041B3C02D56442B0
:10393000012000E00020DFF890A080460027FA4434
:10394000AAF1BE0A0DE0E00709D03246684607EB4F
:1039500047010AEB810100F0EDFA8DE807006410E1
:103960007F1C002CEFD1184F7F44AC3F18E0E807D4
:1039700014D007EB04100DF1180A90E80E008AE845
:103980000E00C068F04201D198190890324606A98D
:1039900003A800F0CFFA03AB83E807006D10641CA6
:1039A000002DE4D132466946B8F1000F03A802D0D9
:1039B00000F0ACFA01E000F0BDFAC9E90001C9F875
:1039C00008200AB0BDE8F087947D010000487047E8
:1039D000002400207546FFF7F9FFAE460500694652
:1039E000534620F00700854618B020B5FFF76AF867
:1039F000BDE820404FF000064FF000074FF00008F0
:103A00004FF0000B21F00701AC46ACE8C009ACE870
:103A1000C009ACE8C009ACE8C0098D46704704464F
:103A2000AFF300802046FFF70EF85FEA400C08BFB6
:103A300091F0000F4FEA8C234FEAC12243EA515123
:103A40004FEA1C5018BF00F5F0404FEA300018BF95
:103A500041F000415FEA6C5C00F02980BCF1FF3F5F
:103A600008BF40F080407047130C06BF12044FF0AF
:103A7000100C4FF0000C130E04BF12020CF1080CD6
:103A8000130F04BF12010CF1040C930F04BF92003A
:103A90000CF1020CD30F04BF52000CF1010C1146C3
:103AA0004FF00002A0F11F00A0EB0C00704711F0D6
:103AB000004F08BF704731F000413FF4D5AF0B0C09
:103AC00006BF09044FF0100C4FF0000C0B0E04BFA2
:103AD00009020CF1080C0B0F04BF09010CF1040CD6
:103AE0008B0F04BF89000CF1020CCB0F04BF4900FF
:103AF0000CF1010CCCF12003A0EB0C0022FA03F333
:103B000002FA0CF241EA030100F10100704720F0D3
:103B10007F4C80EA030023F07F47ACEB070303F5FB
:103B20007C5300F0004003F1FF032DE980494FEA88
:103B3000154B09B44FEA144325EA0B4E24EA034817
:103B40000FF2042606EB132749083E785FEA32029B
:103B500003FB0667C7F5000707FB06F64FEA543775
:103B60004FEAD64606F1020607FB066CCCF1005C74
:103B70004FEA1C472CEA074C07FB06F40CFB06F542
:103B800004EB15464FEA961634BF00204FF0004074
:103B90004FEAD13706FB07FC4FEA1C4C0CFB0BF736
:103BA000D21B03FB0CF761EB07010CFB0EF7B0EB2C
:103BB000074072EB17420CFB08F734BFA2EB074239
:103BC000B2EB074261EB17414FEA0C444FEA910711
:103BD00006FB07FC4FEA1C4C0CFB0BF7B0EBC74095
:103BE00072EB573203FB0CF734BFA2EBC742B2EBC8
:103BF000C74261EB57310CFB0EF7B0EBC70072EB1D
:103C000057720CFB08F734BFA2EBC702B2EBC70236
:103C100061EB5771039F4FEA816141EA921104EB16
:103C2000CC044FEAD1374FEA826206FB07FC42EA36
:103C300090124FEA80604FEA1C4C0CFB0BF7D21B32
:103C400003FB0CF761EB07010CFB0EF7B0EB074031
:103C500072EB17420CFB08F734BFA2EB0742B2EB42
:103C6000074261EB17414FEA8C554FEA910704EB8D
:103C70009C2406FB07FC4FEA1C4C0CFB0BF7B0EB3B
:103C8000C74072EB573203FB0CF734BFA2EBC742BD
:103C9000B2EBC74261EB57310CFB0EF7B0EBC7003C
:103CA00072EB57720CFB08F734BFA2EBC702B2EB02
:103CB000C70261EB577115EB4C254FEA816141EA70
:103CC00092114FEA82624FEAD13742EA901206FB24
:103CD00007FC44F100044FEA80604FEA1C4C0CFBE7
:103CE0000BF7D21B03FB0CF761EB07010CFB0EF784
:103CF000B0EB074072EB17420CFB08F734BFA2EBA6
:103D00000742B2EB074261EB174115EB1C154FEA76
:103D1000813141EA92414FEA823242EA90424FEACF
:103D200080304FEA0C7644F1000448EA03434EEA3F
:103D30000B484FF0000EB2EB080C71EB030724BFE9
:103D4000624639464EEB0E0E4FF0000B0018524102
:103D500049414BEB0B0BB2EB080C71EB03077BF10A
:103D6000000B24BF624639464EEB0E0E4FF0000B9F
:103D70000018524149414BEB0B0BB2EB080C71EBB5
:103D800003077BF1000B24BF624639464EEB0E0E53
:103D900051EA020718BF46F0010616EB0E7655F100
:103DA000000254F1000103D5BDE88901BDE8008897
:103DB000BDE88901BDE80048B619524141EB010157
:103DC000A3F10103704780807F7E7D7C7B7A7978C8
:103DD000777676757473727171706F6E6E6D6C6CD0
:103DE0006B6A6A6968686766666564646363626172
:103DF0006160605F5F5E5E5D5D5C5C5B5B5A5A59F3
:103E0000595858575756565555555454535352525E
:103E10005251515050504F4F4F4E4E4D4D4D4C4CB6
:103E20004C4B4B4B4A4A4A494949484848474747FF
:103E3000474646464545454444444443434343423C
:103E4000424242414141002B26D4770021D01CB58B
:103E50004FEA370703B44FF010004FF010014FF056
:103E600000000FBCBDE810400BF1010BBBF1010FCE
:103E700008BF5FEA170722BF12F1010211F1010129
:103E80004FF0004143F1000300F0004043EA00001E
:103E90007047F9D35708DAE746EA064613F1400FB0
:103EA0004FEA16461FDD13F1200FDFBF16430A4607
:103EB000002120335B42C8D0C3F1200746EA064602
:103EC00002FA07F74FEA164646EA0706C3F120074B
:103ED00022FA03F201FA07F721FA03F14FF0000387
:103EE00042EA0702B1E746EA020646EA06464FEA18
:103EF000164646EA0106BCBF46EA0646360C4FF0B7
:103F000000034FF000024FF000019EE72DE9C0488A
:103F1000934630B491E8380007C831EA400C48BFF6
:103F200034EA430C03D5FFF7F2FDFFF78CFFF0BC3A
:103F3000BDE800882DE9C048934630B491E83800C8
:103F400007C810F0804F08BF13F0804F03D100F076
:103F500005F8FFF778FFF0BCBDE8008820F07F4748
:103F600080EA030023F07F4C07EB0C03A3F57C539E
:103F700000F00040A3F1FE0392F0000F00F0B380C8
:103F800095F0000F00F077802DE901494FEA1140CC
:103F90004FEA144621EA004800FB06FC24EA0647E3
:103FA00008FB06F607FB08F800FB07F718EB0648C6
:103FB0004CEB164C4FEA124B18EB07484FEA1546EC
:103FC0004CEB174022EA0B4E0BFB06FC25EA06479A
:103FD0000EFB06F607FB0EFE0BFB07F71EEB064E6D
:103FE0004CEB164C4FF000061EEB074E4CEB174BFC
:103FF00018EB0B0840F1000018EB0E0B58EB000813
:1040000040F100008F1A4FF000013CBFC943661B0E
:1040100014BFB5EB040C00213CBFC943F61B4FEAAB
:1040200017444EEA8E0E27EA04454FEA1C4704FB6C
:1040300007622CEA074C05FB07F70CFB05F604FBAF
:104040000CFC16EB074642EB174216EB0C4642EB14
:104050001C421BEB060658EB0202414146EA9E0653
:1040600001D5BDE80189B619524141EB0101A3F127
:104070000103BDE801894FEA14454FEA114724EADC
:10408000054621EA074C05FB07F406FB07F70CFB86
:1040900006F105FB0CFC11EB074144EB17444FEA1A
:1040A000124711EB0C4144EB1C4422EA074C05FB80
:1040B00007F206FB07F70CFB06F605FB0CFC16EBFC
:1040C000074642EB174216EB0C4642EB1C456A18BA
:1040D00054F1000148BF7047B619524141EB01014C
:1040E000A3F10103704795F0000F37D04FEA11425A
:1040F0004FEA144721EA024624EA074C02FB07F183
:1041000006FB07F70CFB06F402FB0CFC14EB074460
:1041100041EB17414FEA154714EB0C4441EB1C41AE
:1041200025EA074C02FB07F506FB07F70CFB06F632
:1041300002FB0CFC16EB074645EB174516EB0C464D
:1041400045EB1C42121951F1000148BF7047B619E6
:10415000524141EB0101A3F1010370474FEA1445BD
:104160004FEA114724EA054621EA074C05FB07F10F
:1041700006FB07F70CFB06F24FF0000605FB0CFCF4
:1041800012EB074241EB174112EB0C4251EB1C4181
:1041900048BF7047921841EB0101A3F1010370473A
:1041A00010B50DF06FFC408C012804D10DF06AFCB5
:1041B0000021418403E00DF065FC012141840DF0F4
:1041C00061FC90F82240214606200FF0A9F810BDAE
:1041D0001CB510A103C9CDE900010DF053FC808A84
:1041E00001280BD100208DF807000821684601F056
:1041F00041FB0DF047FC002181820AE00DF042FCFA
:104200000121818201208DF807000821684601F014
:1042100031FB1CBD5AA505821009000008B501211B
:10422000102003F077FC4FF40050ADF80000102090
:104230008DF8030002208DF802006946054800F061
:10424000F7FD002003F014FD4FF40051014800F089
:10425000C3FE08BD0010014010B5012003F07AFC38
:10426000002003F077FC10BD08B501460020009047
:10427000034800900098084400900098008808BD0A
:10428000006C004008B500220092044A0092009A97
:1042900002440092009A116008BD0000006C0040CA
:1042A0000EB5002000900190029003208DF80000D0
:1042B00002208DF8010000208DF802008DF8030027
:1042C00002208DF804008DF805006946032014F0E3
:1042D00067FA0EBD0EB500200090019002900220FA
:1042E0008DF800008DF8010000208DF802008DF897
:1042F000030002208DF804008DF8050069460320B4
:1043000014F04EFA0EBD0EB5002000900190029000
:1043100004208DF8000002208DF8010000208DF8A7
:1043200002008DF8030002208DF804008DF80500CE
:104330006946032014F034FA0EBD0EB5002000903B
:104340000190029005208DF8000002208DF80100F8
:1043500000208DF802008DF8030002208DF8040083
:1043600001208DF805006946032014F019FA0EBDEE
:104370000EB5002000900190029002208DF8000000
:104380008DF8010000208DF802008DF80300022056
:104390008DF8040001208DF805006946032014F013
:1043A000FFF90EBD10B50848008830B90020074954
:1043B0000860AFF20F000CF0BBFA03480088401E03
:1043C0000149088010BD00007C000020B401224299
:1043D00010B50748006810F00FFB00200449086082
:1043E000044908600449087004480CF0B7FA10BD8D
:1043F00074000020B40122427000002075450008BE
:1044000010B500200249086002480CF091FA10BD76
:10441000B4012242A543000810B504460120044916
:10442000086004480480044807F0FCFB10BD00004D
:10443000B40122427C000020A54300082DE9FF4181
:1044400005460024464BD3E901211868DB68CDE915
:104450000213CDE90002002611E03DF8160016F027
:10446000C5F980463F480168404616F007FA0746FE
:1044700016F084F980B22DF81600701CC6B2082E12
:10448000EBDB39480078012801D1BDE8FF8101202C
:10449000354908704FF4167010F0C2FA33490860BD
:1044A0000846006800B9F0E74AE0287830383DF85F
:1044B000100061002D4A126822F8110068785F2808
:1044C0000DD16100294A126832F8110000EBD07159
:1044D00049106200254B1B6823F8121010E0687821
:1044E0007E280DD160002149096831F810004FF68F
:1044F000FF7101EA400061001C4A126822F81100B5
:10450000A8793038082191FBF0F0012101EB44013A
:10451000164A126822F81100012000EB44001349EA
:10452000096831F81000297930394843012101EB3D
:1045300044010E4A126822F811000835601C84B24A
:1045400028780028B1D1012101EB4401074A126803
:1045500022F81100064807F079FB00BF95E700003C
:1045600050B2010878000020700000207400002084
:104570007545000810B53A48006800286FD03948E2
:10458000008840003649096831F81000364991FB2F
:10459000F0F436480068401C34490860344800682C
:1045A000401C3349086064B1601F30490968884283
:1045B00003D201202F49086006E000202D49086041
:1045C00002E000202B49086026480088400024496A
:1045D000096831F81000244991FBF0F0234909687B
:1045E000884202D80020214908601E480088012125
:1045F00001EB40001A49096831F8100040F27121BE
:1046000048431B490968B1EB001F27D315480088B0
:10461000401C144908800020154908601148008892
:10462000012101EB40000E49096831F81000A8B9DA
:1046300000200C4908800E4908600C4908600848B1
:10464000006810F0D9F900200549086009490860A0
:1046500009490870AFF2E3000CF080F900BF10BD0B
:10466000740000207E000020A0860100840000204D
:1046700080000020B4012242700000202DE9F041AA
:104680000446204615F080FC05460022044B15F038
:10469000DDFA074615F0ECF902490860BDE8F08143
:1046A000000024407800002003F034F970B505467E
:1046B000002401240AE000F097FC610030F81100AA
:1046C000A84201D1012070BD601C84B200F08CFCB6
:1046D000610030F811000028EDD100BFF3E70000C1
:1046E0002DE9F041002500270024FEF7FBF90646DE
:1046F000002039E0204901EB4011496891B31E497F
:1047000001EB401189691C4A02EB4012928A92B275
:10471000A1EB82010C1D00BF02CC491C0029FBD07B
:10472000154901EB40118969091B012202EBA10522
:10473000114901EB401149690F0CAF4212D20E49E9
:1047400001EB4011898A89B20B4A02EB4012516198
:10475000094901EB4011496941EA0541064A02EB6A
:1047600040125161411CC8B22028C3D33046FEF725
:10477000BDF9BDE8F0810000141B0020002000BF3F
:1047800004E00021034A1154411C88B23A28F8DBA6
:1047900070470000162000207FB505460C46002615
:1047A00000200190029003900090FF208DF80400FB
:1047B0008DF8050028128DF80600E8B28DF8070084
:1047C00001208DF8080000208DF8090002208DF8E6
:1047D0000A0000208DF80B001E208DF80C006A46A0
:1047E000092101A800F0E4FC9DF800008DF80D00FF
:1047F0009DF801008DF80E000B2101A803F060FA6E
:1048000000BF33E0C8200CF003F99DF80C0000F164
:104810000901204603F098FA30B3A079C11D6A4619
:10482000204600F0C5FC9DF80010A079C01D205C5A
:10483000814219D19DF80110A0790830205C814295
:1048400012D1E078A17840EA0120A8420CD1207969
:104850009DF8081041F08001884205D1207AE17965
:1048600040EA012004B070BD701CC6B2052EC9DB41
:104870000A20F7E72DE9F0418EB004460D461646B2
:104880001F464FF00008002002900390049005900E
:104890000190FF208DF808008DF8090020128DF896
:1048A0000A00E0B28DF80B0003208DF80C00002008
:1048B0008DF80D0003208DF80E008DF80F508DF847
:1048C00010608DF8117001AA0A2102A800F070FC96
:1048D0009DF804008DF812009DF805008DF8130076
:1048E0000C2102A803F0ECF900BF3DE0C8200CF059
:1048F0008FF8182106A803F027FA80B39DF81E0050
:10490000C11D01AA06A800F053FC9DF804109DF8F3
:104910001E00C01D06AA105C814221D19DF8051021
:104920009DF81E000830105C814219D19DF81B00D3
:104930009DF81A1040EA0120A04211D19DF81C00F8
:104940009DF80C1041F08001884209D19DF82000AB
:104950009DF81F1040EA01200EB0BDE8F081FFE78E
:1049600008F101001FFA80F8B8F1050FBEDB0A203C
:10497000F2E700002DE9F84F81468A4617461C46AB
:104980000A9D4FF0004020FA05F807EB8400061F4F
:10499000FEF7A8F883461948006800EA080010B13D
:1049A0000120BDE8F88F1548006840EA0800134967
:1049B0000860002006E04FF0FF31A6EB8002116096
:1049C000411C88B2A042F6D30D4800EB4510866129
:1049D000002332465146484602F0D8FF00902A464E
:1049E0004846009903F054F8A0B2054901EB45117F
:1049F00048615846FEF77AF80020D2E768000020A8
:104A0000141B002002F086FF10B50446A0B20BF084
:104A1000FFFF10BD70B504464FF0004020FA04F5CA
:104A2000FEF760F8064607480068A8430549086095
:104A30000020054901EB441148603046FEF756F866
:104A400070BD000068000020141B0020FEB5044665
:104A50000E461546002000900190029002208DF82D
:104A60000000022C52D1A6B3012D17D101208DF8E0
:104A700001008DF802006946042013F091FE69469A
:104A8000022013F08DFE00208DF8010002208DF829
:104A900002006946042013F083FEADE0022DFCD134
:104AA00001208DF8010002208DF8020069460420E3
:104AB00013F076FE6946022013F072FE00208DF896
:104AC000010001208DF802006946042013F068FE01
:104AD00092E0FFE700208DF8010001208DF8020030
:104AE0006946042013F05CFE6946022013F058FE6C
:104AF00000208DF8010002208DF80200694613F0B5
:104B00004FFE6946042013F04BFE75E0032C01D0E4
:104B1000052C51D19EB3012D17D101208DF8010034
:104B200003208DF802006946042013F039FE69461F
:104B3000022013F035FE00208DF8010004208DF8CE
:104B40000200694613F02CFE56E0022D54D10120DC
:104B50008DF8010004208DF80200694613F020FE54
:104B60006946022013F01CFE00208DF8010003208E
:104B70008DF802006946042013F012FE3CE0FFE7C6
:104B800000208DF8010004208DF80200694613F022
:104B900007FE6946022013F003FE00208DF8010095
:104BA00003208DF802006946042013F0F9FD6946E0
:104BB000022013F0F5FD1FE0042C1DD176B1012079
:104BC0008DF8010006208DF802006946042013F0DC
:104BD000E7FD6946022013F0E3FD0DE000208DF8AB
:104BE000010006208DF802006946042013F0D8FD6C
:104BF0006946022013F0D4FDFEBD10B5102000F070
:104C00000FF830B1102000F005F81021002005F059
:104C100003FF10BD01490860704700001404014003
:104C2000014600200022074B1B6803EA0102054BE6
:104C300014331B680B4013B10AB1012000E00020BF
:104C40007047000000040140002123498279002AB6
:104C50003AD00A46126803689A430B461A600A1D46
:104C6000126803689A430B1D1A60027911440A689E
:104C700003681A430A60184A0832126803689A43A4
:104C8000154B08331A601A1D126803689A43124BB9
:104C90000C331A604279102A0ED11A1F1268036869
:104CA0001A430D4B08331A601A1D126803681A4321
:104CB000094B0C331A600DE00749427911440A6828
:104CC00003681A430A6005E0027911440A68036820
:104CD0009A430A60704700000004014030B5044662
:104CE00004254FF4302000F06FF80546042D17D14D
:104CF0000C48006940F002000A4908610846446116
:104D0000006940F0400008614FF4302000F05CF88A
:104D100005460448006941F6FD71084001490861F3
:104D2000284630BD0020024004200B49C96801F02C
:104D3000010109B101200EE00749C96801F0040131
:104D400009B1022007E00449C96801F0100109B166
:104D5000032000E00420704700200240034800695F
:104D600040F08000014908617047000000200240C7
:104D700070B504460D460426F00200F025F80646FC
:104D8000042E11D10948006940F00100074908616B
:104D90002580F00200F018F806460448006941F644
:104DA000FE71084001490861304670BD0020024094
:104DB000024803494860034848607047230167453B
:104DC00000200240AB89EFCD00B502460423FFF777
:104DD000ABFF034603E0FFF7A7FF0346521E012B7C
:104DE00001D1002AF7D102B90523184600BD000001
:104DF00030B500228B071C0F0F2303FA04F20B4B74
:104E00008C1053F824309343084C8D1044F825300F
:104E100023468C1053F824308C07240F00FA04F436
:104E20002343024C8D1044F8253030BD080001406A
:104E30002DE9F04102460025002600200023002431
:104E4000002791F803C00CF00F0591F803C00CF097
:104E5000100CBCF1000F03D091F802C04CEA05051C
:104E600091F800C0BCF1000F31D0146800202BE095
:104E70004FF0010C0CFA00F3B1F800C00CEA030685
:104E80009E4220D183004FF00F0C0CFA03F7BC4375
:104E900005FA03FC4CEA040491F803C0BCF1280FA6
:104EA00006D14FF0010C0CFA00FCC2F814C00AE065
:104EB00091F803C0BCF1480F05D14FF0010C0CFA7A
:104EC00000FCC2F810C0401C0828D1D31460B1F80F
:104ED00000C0BCF1FF0F34DD546800202EE000F16B
:104EE000080C4FF0010808FA0CF3B1F800C00CEA06
:104EF00003069E4221D183004FF00F0C0CFA03F7FA
:104F0000BC4305FA03FC4CEA040491F803C0BCF16D
:104F1000280F05D100F1080C08FA0CF8C2F814802B
:104F200091F803C0BCF1480F07D100F1080C4FF015
:104F3000010808FA0CF8C2F81080401C0828CED3EB
:104F40005460BDE8F0810000F0B50A46002300245B
:104F50000021002500F00046B6F1004F02D11D4EA1
:104F6000F16901E01B4E7168C0F3034583B200F4A0
:104F70004016B6F5401F08D121F07061154E7668D5
:104F800026F07066134F7E6012E000F48016B6F5CE
:104F9000801F06D1032606FA05F4A14341F0706193
:104FA00006E0460D360103FA06F6B14341F07061A2
:104FB00022B1460D360103FA06F6314300F00046F1
:104FC000B6F1004F02D1034EF16101E0014E716074
:104FD000F0BD000000000140416170470161704771
:104FE000004870473022002000487047A020002071
:104FF0000246002100BF0DE0012000EB41000A4BFA
:1050000013F81000904203D1480033F810007047A5
:10501000481C81B2012000EB4100034B33F8100023
:105020000028E9D100BFF2E71401002000B50246D4
:105030000021012112E0FFF7D7FF4B0030F81300E9
:10504000904209D1FFF7D0FF012303EB410330F871
:10505000130000F47F4000BD481C81B2FFF7C4FF7D
:105060004B0030F813000028E5D1FF20F3E700B52E
:105070000246002100BF10E0FFF7B6FF4B0030F8FA
:105080001300904207D1FFF7AFFF012303EB410369
:1050900010F8130000BD481C81B2FFF7A5FF4B00BC
:1050A00030F813000028E7D1FF20F3E730B50246BF
:1050B0000B4600210024012114E0FFF795FF012594
:1050C00005EB410510F81500904209D19C4205D12D
:1050D000FFF78AFF4D0030F8150030BD601C84B228
:1050E000481C81B2FFF780FF012505EB410530F830
:1050F00015000028E1D100BFEFE7000070B50446BD
:105100000025FDF7EFFC0646044800EB4410808ABA
:1051100085B23046FDF7EAFC284670BD141B00201E
:1051200070B504460026FDF7DDFC0546074800EB98
:105130004410406820B1054800EB44104069060C5B
:105140002846FDF7D3FC304670BD0000141B00203C
:1051500013490988322904DA1249114A1288885CF5
:1051600005E000210E4A11800E491288885C00215A
:105170000D4A11600B4A0A4B1B88D1540B49098810
:1051800021B10A490988491E084A11800121064AAD
:10519000116003490988491C014A118070470000C9
:1051A000BC000020E41F002094012742C200002020
:1051B000F0B50B46FF24FF2509E010F8016B86EAE5
:1051C0000401074E765C86EA0504064E755C1E00F7
:1051D000A3F10107BBB2F0D114705570F0BD00000F
:1051E000B8B20108B8B3010810B501464A1E034B16
:1051F000985C00234A1E014CA35410BD8800002077
:1052000000B5FFF7F1FE008800BD00B5FFF7ECFE2A
:1052100090F8660100BD00B5FFF7E6FE00F5B4703A
:1052200000BD000010B50446002300BF04E005489F
:10523000C05CE054581C83B23A2BF8DBFFF79EFAAF
:10524000184610BD16200020F8B506460C4600256D
:10525000002000900027174806602078FF2819D109
:105260006078FF2816D1A079617940EA0120C01D3D
:1052700085B26A4629462046FFF79AFF605D9DF891
:105280000010884206D1681C205C9DF801108842FD
:1052900000D1012767B12079052803D1204607F006
:1052A000F2FC04E00521204607F046FD00BF00BFE8
:1052B000F8BD00008C0100200146002000BF04E082
:1052C000034A125C0A54421C90B20628F8DB70476D
:1052D0009C00002010B50023154C2360002020E026
:1052E00030B9C0F10603134CE35CDB43DAB203E0F0
:1052F000C0F106030F4CE25C00210FE000230C4CD0
:10530000241D2360C1F1070342FA03F30A4CC4F8D9
:1053100080310123064C241D2360491C0829EDDB44
:10532000401C0728DCDB0123014C236010BD00007A
:10533000880122429C0000200000224210B5142067
:105340000BF066FB0CF09EFBC08B01280ED10121F7
:1053500008460DF0E5FF64200BF074FB00210220ED
:105360000DF0DEFF64200BF06DFB21E00CF08AFBFA
:10537000C08B02280ED1002101200DF0D1FF642046
:105380000BF060FB012102200DF0CAFF64200BF03E
:1053900059FB0DE0002101200DF0C2FF64200BF04D
:1053A00051FB002102200DF0BBFF64200BF04AFBF3
:1053B0000CF068FB408C012807D1012106200DF07C
:1053C000AFFF64200BF03EFB06E0002106200DF04D
:1053D000A7FF64200BF036FB10BD02F09BFA000023
:1053E0004CF6CC4001490860704700000030004096
:1053F00010B500F01DF810BD70B5044607254FF636
:10540000FF7000EA44142046E11704EB11610E120C
:1054100045F2555000F020F8284600F011F83046CB
:1054200000F014F800F004F8FFF7DAFF70BD000098
:105430004AF6AA2001490860704700000030004089
:105440000149486070470000003000400149886011
:1054500070470000003000400149086070470000BC
:10546000003000401CB5044609A103C9CDE9000184
:10547000E07960B9207A052809D1607A0D2806D133
:10548000A07AC02803D10621684600F0F3F91CBDBC
:105490005AA503804F0200000146CA1701EB927221
:1054A0009210A1EB820292B9642091FBF0F200FB12
:1054B000121050B94FF4C87091FBF0F200FB1210BB
:1054C00008B9012070470020FCE70120FAE700201E
:1054D000F8E7000010B588480068A8B98748007848
:1054E00010BB03208649087086480078401C854917
:1054F000087008460078502816DB022080490870A2
:1055000001207E4908700FE07E480078012806DD02
:105510007C480078502802DA012079490870002080
:10552000784908707549087077480068A8B97348C9
:10553000407810BB03207249487072484078401C84
:105540007049487008464078502816DB02206C49A4
:1055500048700120694948700FE06A484078012886
:1055600006DD68484078502802DA01206449487016
:10557000002064494870614948705F48001D006818
:10558000A8B95E48807810BB03205D4988705D48EB
:105590008078401C5B49887008468078502816DB6C
:1055A0000220574988700120544988700FE05548FF
:1055B0008078012806DD53488078502802DA0120DF
:1055C0004F49887000204F4988704C4988704F4877
:1055D0000068A8B94948C07810BB03204849C87082
:1055E0004848C078401C4749C8700846C0785028D1
:1055F00016DB02204249C87001204049C8700FE004
:105600004048C078012806DD3E48C078502802DABC
:1056100001203B49C87000203A49C8703749C8701A
:10562000354808300068A8B93448007910BB032019
:105630003349087133480079401C324908710846E3
:105640000079502816DB02202D49087101202B49D2
:1056500008710FE02B480079012806DD2948007900
:10566000502802DA012026490871002025490871D6
:10567000224908712548001F0068A8B91F484079D1
:1056800010BB03201E4948711E484079401C1D492B
:10569000487108464079502816DB022018494871A5
:1056A0000120164948710FE016484079012806DDAF
:1056B00014484079502802DA01201149487100202D
:1056C000104948710D4948710D48007870B90C486F
:1056D000407858B90A48807840B90948C07828B954
:1056E0000748007910B90648407918B10121002017
:1056F00005F024FA10BD00001C0122429400002095
:10570000880000208E0000200001214224812142D7
:1057100010B50121042002F0FDF90121082002F05A
:10572000F9F90121102002F0F5F90121084602F0F3
:10573000F1F9024806F076FA10BD0000D5540008D1
:1057400010B586B004460121042002F0E3F90121DE
:10575000082002F0DFF90121480402F0BBF94FF400
:105760008050ADF8140010208DF8170003208DF83C
:10577000160005A92A48FFF75BFB0420ADF81400CA
:1057800018208DF8170005A92648FFF751FB0820BF
:10579000ADF8140004208DF8170005A92148FFF783
:1057A00047FB0121480402F0A5F900214FF4003025
:1057B00002F0A0F901940020ADF80800ADF80A004D
:1057C000ADF80C00ADF810000C20ADF80E0001A9EA
:1057D000154805F059FD26208DF8000000208DF8B1
:1057E000010002208DF8020001208DF803006846B8
:1057F00002F044F8012240F225510B4805F01FFD4C
:10580000012240F22441084805F019FD0121064813
:1058100005F083FC00200549086006B010BD0000BB
:10582000000C01400008014000440040B0812142CA
:1058300070B505460C460C480678002020800B48C1
:10584000007801280FD108480078208032460849A6
:1058500028460FF0FBF83246002105480FF003F907
:1058600000200149087070BD9A0000209B000020B4
:105870001E1F002070B505460E4601200E49086027
:1058800000240CE000BF40210C4805F0A1FC0028DA
:10589000F9D0295D094805F068FD601CC4B2B44226
:1058A000F0DB00BF4021054805F092FC0028F9D04C
:1058B00000200149086070BDB081214200440040D1
:1058C000704700B587B000200490059006900190C5
:1058D0000290039003208DF8100001208DF8110034
:1058E0003F208DF8120000208DF8130001208DF864
:1058F000140000208DF8150001208DF8040005200B
:105900008DF805003F208DF8060001A9012012F056
:1059100047FF02208DF8040000208DF805000520C7
:105920008DF8060001A9042012F03AFF04A9022014
:1059300012F036FF07B000BD00B587B0002004901C
:105940000590069001900290039003208DF81000BE
:1059500001208DF8110000208DF812008DF8130041
:1059600001208DF8140000208DF8150001208DF81D
:10597000040005208DF8050000208DF8060001A91F
:10598000012012F00DFF02208DF8040001208DF897
:10599000050005208DF8060001A9042012F000FF83
:1059A00004A9022012F0FCFE07B000BD00B50CF007
:1059B00069F8408C00BD00B50146052904DA0CF0F9
:1059C00061F830F8110000BD0020FCE700B5014689
:1059D0000CF058F8418400BD00B50246052A03DAF0
:1059E0000CF050F820F81210002000BD08B501217D
:1059F000102002F08FF80F20ADF8000010208DF875
:105A0000030003208DF8020069461B48FFF710FAD7
:105A100000201A4908601A49C1F8A0010121082094
:105A200002F078F80120ADF8000010208DF8030096
:105A300003208DF8020069461248FFF7F9F90121A9
:105A4000042002F067F80220ADF8000010208DF865
:105A5000030003208DF8020069460B48FFF7E8F9C0
:105A600000200A490860FFF735FC00200449C1F80E
:105A700084010EF0E1F808BD001001409C012242B3
:105A800000002242000C01400008014080812142B8
:105A900070B50024FFF7A8FA0546C82229461D481C
:105AA00003F000FCFFF7A0FA00884FF6FF71884270
:105AB0000CD100BF06E0FFF797FA002120F8141080
:105AC000601C84B2C82CF6DB04F0E8F8002417E070
:105AD00004F0010090B1FFF787FA00EB4401087869
:105AE0000880FFF781FA10F8140038B1FFF77CFA4C
:105AF00000EB4401088840F400600880601C84B218
:105B0000642CE5DBFFF770FA811C408840F480705C
:105B1000088070BD28FC03087CB50024002000909C
:105B200001900BF0AFFF808BADF800000BF0AAFFE7
:105B3000C08BADF802000BF0A5FF008CADF804009F
:105B40000BF0A0FF408CADF806000BF09BFF054664
:105B500014222946124803F0A5FB00BF0EE00BF00B
:105B600091FF30F814004FF6FF71884204D10BF01A
:105B700089FF002120F81410601C84B2142CEEDB85
:105B80000BF080FFBDF8001081830BF07BFFBDF8A8
:105B90000210C1830BF076FFBDF8041001847CBDB8
:105BA00000FC03081CB500200090019006220F495C
:105BB0000F480EF04BFF0D49891D062268460EF076
:105BC00045FF002008E00A49095C1DF80020114447
:105BD000074A1154411CC8B20628F4DB0448007877
:105BE00000F0FE00024908701CBD0000E8F7FF1F2E
:105BF000F600002070B54FF4C8600EF011FF0546A6
:105C00002C4614A214A1204612F0F2FF083411A26F
:105C100012A1204612F0ECFF08340EA210A120467B
:105C200012F0E6FF08340BA20EA1204612F0E0FFAE
:105C300008340DA20DA1204612F0DAFF08342046E8
:105C40000CF06EF82846FEF7F9FB28460EF0D4FE5D
:105C500070BD0000312F320035000000340000001C
:105C60003300000032000000312F3100310000000D
:105C700070B54FF4C8600EF0D3FE05462C46FEA268
:105C8000FEA1204612F0B4FF0834FDA2FDA120467B
:105C900012F0AEFF0834FCA2FCA1204612F0A8FFCF
:105CA0000834FBA2FBA1204612F0A2FF0834F6A2A2
:105CB000F9A1204612F09CFF0834F1A2F3A120467E
:105CC00012F096FF0834F0A2EEA1204612F090FFE9
:105CD0000834EDA2EDA1204612F08AFF0834EAA2B2
:105CE000E8A1204612F084FF0834E3A2E9A120468F
:105CF00012F07EFF0834E9A2E9A1204612F078FFF5
:105D00000834DDA2DDA1204612F072FF0834DCA2C7
:105D1000DCA1204612F06CFF0834DBA2DBA1204698
:105D200012F066FF0834DAA2DAA1204612F060FF12
:105D30000834D5A2D8A1204612F05AFF0834D2A2C6
:105D4000D2A1204612F054FF0834CBA2CDA12046A8
:105D500012F04EFF0834CEA2C8A1204612F048FF30
:105D60000834C5A2C7A1204612F042FF0834C8A2D9
:105D7000C8A1204612F03CFF0834BFA2BFA12046B4
:105D800012F036FF0834BCA2C2A1204612F030FF48
:105D90000834BDA2BBA1204612F02AFF0834BAA2E3
:105DA000BAA1204612F024FF0834B9A2B5A12046BA
:105DB00012F01EFF0834B0A2B7A1204612F018FF5F
:105DC0000834ADA2B1A1204612F012FF0834ACA2F3
:105DD000ACA1204612F00CFF0834A7A2ADA12046CA
:105DE00012F006FF0834ADA2ADA1204612F000FF6C
:105DF0000834A1A2A1A1204612F0FAFE08349EA206
:105E0000A4A1204612F0F4FE08349BA29BA12046D8
:105E100012F0EEFE083498A2A2A1204612F0E8FE8D
:105E2000083495A29BA1204612F0E2FE083492A20B
:105E30009CA1204612F0DCFE08348FA29AA12046D5
:105E400012F0D6FE083492A298A1204612F0D0FE9D
:105E5000083497A293A1204612F0CAFE08348AA201
:105E60008CA1204612F0C4FE083489A283A12046EA
:105E700012F0BEFE083480A286A1204612F0B8FEC1
:105E800008347FA287A1204612F0B2FE08347EA219
:105E900081A1204612F0ACFE083486A27DA12046E6
:105EA00012F0A6FE083478A280A1204612F0A0FECF
:105EB000083475A27CA1204612F09AFE083472A222
:105EC00078A1204612F094FE08346FA26BA1204600
:105ED00012F08EFE08346CA277A1204612F088FEE4
:105EE000083465A265A1204612F082FE083466A23D
:105EF00068A1204612F07CFE083465A265A1204608
:105F000012F076FE083460A262A1204612F070FE04
:105F100008345FA259A1204612F06AFE08345AA242
:105F20005CA1204612F064FE083453A25DA1204615
:105F300012F05EFE083450A250A1204612F058FE26
:105F4000083451A254A1204612F052FE08344EA249
:105F500050A1204612F04CFE083447A249A1204629
:105F600012F046FE083444A248A1204612F040FE3A
:105F7000083441A243A1204612F03AFE08344FA251
:105F800044A1204612F034FE08343FA241A120462D
:105F900012F02EFE08343EA238A1204612F028FE50
:105FA000083435A23BA1204612F022FE083434A268
:105FB0003CA1204612F01CFE083433A236A1204634
:105FC00012F016FE083430A232A1204612F010FE64
:105FD00008342DA235A1204612F00AFE08342AA268
:105FE00031A1204612F004FE083427A22DA120463C
:105FF00012F0FEFD083424A220A1204612F0F8FD84
:10600000083421A22CA1204612F0F2FD08341AA275
:106010001AA1204612F0ECFD083420A21DA1204652
:1060200012F0E6FD083418A21AA1204612F0E0FD95
:10603000083417A211A1204612F0DAFD083412A28A
:1060400014A1204612F0D4FD08340BA21CA1204656
:1060500012F0CEFD08340AA214A1204612F0C8FDA9
:10606000083409A216A1204612F0C2FD083408A285
:106070000DA1204626E00000312F3100360000003F
:10608000332F320032000000312F32003100000087
:10609000322F31003300000030000000352F320075
:1060A000365F000037000000317E0000327E0000C5
:1060B000362F3100312F330035000000332F3100EF
:1060C000337E000012F094FD0834AFF25402AFF2B8
:1060D0002C01204612F08CFD0834AFF22C02AFF2F6
:1060E0006401204612F084FD083420460BF018FEAF
:1060F0002846FEF7A3F928460EF07EFC70BD00008E
:1061000070B54FF4C8600EF08BFC05462C46FEA21D
:10611000FEA1204612F06CFD0834FDA2FDA1204630
:1061200012F066FD0834F8A2F8A1204612F060FDD6
:106130000834F9A2F9A1204612F05AFD0834F4A25D
:10614000F7A1204612F054FD0834F6A2F1A1204632
:1061500012F04EFD0834ECA2F3A1204612F048FDE7
:106160000834EBA2E9A1204612F042FD0834E6A271
:10617000EDA1204612F03CFD0834E7A2E8A120463C
:1061800012F036FD0834E0A2E4A1204612F030FD02
:106190000834DDA2DFA1204612F02AFD0834E1A276
:1061A000DAA1204612F024FD0834E0A2DBA120464B
:1061B00012F01EFD0834D8A2DDA1204612F018FD11
:1061C0000834DAA2D5A1204612F012FD0834D0A27C
:1061D000D7A1204612F00CFD0834CBA2D5A1204651
:1061E00012F006FD0834C8A2D3A1204612F000FD2B
:1061F0000834CEA2C9A1204612F0FAFC0834C6A287
:10620000C4A1204612F0F4FC0834BFA2C4A1204669
:1062100012F0EEFC0834BEA2C0A1204612F0E8FC49
:106220000834B9A2C4A1204612F0E2FC0834B6A298
:10623000BAA1204612F0DCFC0834C0A2B8A1204666
:1062400012F0D6FC0834B2A2B0A1204612F0D0FC65
:106250000834AFA2B1A1204612F0CAFC0834AAA2A9
:10626000AFA1204612F0C4FC0834A7A2ABA120467F
:1062700012F0BEFC0834A6A2A4A1204612F0B8FC7D
:106280000834AFA2A3A1204612F0B2FC0834A0A2A9
:10629000A2A1204612F0ACFC08349BA2A0A120468B
:1062A00012F0A6FC083498A29FA1204612F0A0FC90
:1062B000083495A2A3A1204612F09AFC083492A2B9
:1062C00096A1204612F094FC08348FA294A1204697
:1062D00012F08EFC08348CA28CA1204612F088FCAF
:1062E000083489A28BA1204612F082FC083486A2D1
:1062F0008BA1204612F07CFC083490A287A1204696
:1063000012F076FC083489A284A1204612F070FCB9
:10631000083481A286A1204612F06AFC08347AA2D1
:106320007EA1204612F064FC083479A280A12046A8
:1063300012F05EFC083474A27EA1204612F058FCD4
:10634000083471A27CA1204612F052FC083477A2D6
:1063500072A1204612F04CFC08346BA275A12046B5
:1063600012F046FC083468A26DA1204612F040FCF1
:10637000083465A273A1204612F03AFC083462A2E8
:106380006DA1204612F034FC08345FA263A12046C0
:1063900012F02EFC08345CA261A1204612F028FC09
:1063A00008345BA25BA1204612F022FC083464A2F0
:1063B0005BA1204612F01CFC083455A257A12046D0
:1063C00012F016FC083450A255A1204612F010FC21
:1063D00008344DA254A1204612F00AFC08344AA207
:1063E00058A1204612F004FC083447A24BA12046D5
:1063F00012F0FEFB083444A24BA1204612F0F8FB39
:10640000083441A241A1204612F0F2FB083440A218
:106410004DA1204612F0ECFB083449A23BA12046D6
:1064200012F0E6FB08343AA23CA1204612F0E0FB51
:10643000083443A23FA1204612F0DAFB083432A20E
:1064400036A1204612F0D4FB08342FA239A12046F1
:1064500012F0CEFB083430A235A1204612F0C8FB62
:10646000083429A239A1204612F0C2FB083426A222
:1064700037A1204612F0BCFB083423A22CA12046F1
:1064800012F0B6FB083422A22AA1204612F0B0FB7B
:1064900008342AA226A1204612F0AAFB083423A21F
:1064A0002AA1204612F0A4FB08341BA228A12046F2
:1064B00012F09EFB083418A21DA1204612F098FB92
:1064C000083424A21BA1204612F092FB08340EA22D
:1064D00017A1204612F08CFB083418A20FA1204609
:1064E00012F086FB083411A218A1204612F080FB9E
:1064F000083409A216A1204612F07AFB083406A23D
:106500000BA1204628E00000312F3200365F00004A
:10651000312F310031000000332F320033000000F2
:1065200032000000372F3200375F0000322F310079
:10653000360000003500000034000000342F310028
:10654000332F310030000000355F0000317E000045
:1065500037000000352F320012F04AFB0834AFF24A
:106560000C02AFF23001204612F042FB0834AFF2C9
:106570006802AFF24401204612F03AFB0834AFF251
:106580004402AFF26801204612F032FB0834AFF249
:106590008002AFF28801204612F02AFB0834AFF2E5
:1065A0009002AFF29001204612F022FB0834AFF2C5
:1065B000A002AFF29401204612F01AFB0834AFF2A9
:1065C000A802AFF2A801204612F012FB0834AFF285
:1065D000C802AFF2C001204612F00AFB0834AFF245
:1065E000D002AFF2C801204612F002FB0834AFF22D
:1065F000B002AFF2D401204612F0FAFA0834AFF23A
:10660000F802AFF2E401204612F0F2FA0834AFF2D9
:106610000812AFF2EC01204612F0EAFA0834AFF2A9
:106620001812AFF2E001204612F0E2FA0834AFF29D
:106630002812AFF21811204612F0DAFA0834AFF23D
:106640003812AFF21C11204612F0D2FA0834AFF221
:106650004812AFF24811204612F0CAFA0834AFF2DD
:106660005012AFF21C11204612F0C2FA0834AFF2F9
:106670003412AFF26811204612F0BAFA0834AFF2C1
:106680007812AFF27811204612F0B2FA0834AFF265
:106690008012AFF28011204612F0AAFA0834AFF24D
:1066A0009812AFF28411204612F0A2FA0834AFF229
:1066B0009812AFF29811204612F09AFA0834AFF20D
:1066C000B812AFF2B011204612F092FA0834AFF2CD
:1066D000C012AFF2B811204612F08AFA0834AFF2B5
:1066E000A012AFF2C411204612F082FA0834AFF2C1
:1066F000E012AFF2D811204612F07AFA0834AFF265
:10670000D412AFF2D011204612F072FA0834AFF270
:106710000022AFF2F811204612F06AFA0834AFF204
:106720000822AFF2D411204612F062FA0834AFF218
:106730002822AFF22021204612F05AFA0834AFF294
:106740003822AFF2F411204612F052FA0834AFF2B8
:106750004822AFF22421204612F04AFA0834AFF260
:106760005022AFF23021204612F042FA083408A23B
:10677000AFF24421204612F03BFA083420460BF0D9
:10678000CFFA2846FDF75AFE28460EF035F970BDBF
:10679000372F310070B54FF4C8600EF041F905464F
:1067A0002C46FEA2FEA1204612F022FA0834FDA2D9
:1067B000FDA1204612F01CFA0834FCA2FCA12046E0
:1067C00012F016FA0834FBA2FBA1204612F010FAD0
:1067D0000834F4A2F2A1204612F00AFA0834F1A219
:1067E000F3A1204612F004FA0834ECA2EEA12046F0
:1067F00012F0FEF90834EBA2F0A1204612F0F8F9ED
:106800000834EFA2E8A1204612F0F2F90834EDA214
:10681000E3A1204612F0ECF90834E6A2E6A12046F6
:1068200012F0E6F90834DDA2DDA1204612F0E0F90D
:106830000834DCA2DCA1204612F0DAF90834DBA22D
:10684000DBA1204612F0D4F90834DAA2DAA12046FE
:1068500012F0CEF90834D3A2D1A1204612F0C8F923
:106860000834D0A2D2A1204612F0C2F90834CBA23B
:10687000D5A1204612F0BCF90834CAA2CCA120460A
:1068800012F0B6F90834CEA2CFA1204612F0B0F92A
:106890000834C2A2CDA1204612F0AAF90834C5A23C
:1068A000C5A1204612F0A4F90834C2A2BCA120461A
:1068B00012F09EF90834C6A2C6A1204612F098F93B
:1068C0000834BCA2BAA1204612F092F90834B5A24D
:1068D000BDA1204612F08CF90834B2A2B4A1204622
:1068E00012F086F90834B3A2B7A1204612F080F95D
:1068F0000834B0A2B0A1204612F07AF90834ADA253
:10690000AEA1204612F074F90834A4A2AFA120462B
:1069100012F06EF90834AAA2ABA1204612F068F971
:106920000834A2A2A2A1204612F062F908349DA266
:10693000A1A1204612F05CF908349EA2A2A1204633
:1069400012F056F9083497A299A1204612F050F996
:10695000083494A292A1204612F04AF908348FA27A
:1069600099A1204612F044F908348EA28CA1204649
:1069700012F03EF908348BA28DA1204612F038F9AE
:10698000083488A286A1204612F032F9083483A286
:1069900087A1204612F02CF9083482A28AA1204651
:1069A00012F026F9083483A28AA1204612F020F9B9
:1069B000083489A285A1204612F01AF908347BA276
:1069C00082A1204612F014F908347AA27AA1204656
:1069D00012F00EF9083477A280A1204612F008F9CF
:1069E00008346EA27EA1204612F002F9083471A28A
:1069F0007CA1204612F0FCF808346AA27AA1204655
:106A000012F0F6F8083467A274A1204612F0F0F8EC
:106A1000083464A274A1204612F0EAF8083465A292
:106A20006EA1204612F0E4F808345EA26EA1204662
:106A300012F0DEF808345BA25FA1204612F0D8F80D
:106A400008345CA265A1204612F0D2F8083455A2A1
:106A500065A1204612F0CCF8083450A263A120466C
:106A600012F0C6F8083453A25CA1204612F0C0F818
:106A700008344CA25EA1204612F0BAF808344BA2AA
:106A800056A1204612F0B4F808344AA24AA1204682
:106A900012F0AEF8083447A250A1204612F0A8F830
:106AA00008343EA24EA1204612F0A2F8083441A2BA
:106AB0004CA1204612F09CF808343AA24AA1204684
:106AC00012F096F8083437A244A1204612F090F84C
:106AD000083434A244A1204612F08AF8083435A2C2
:106AE0003EA1204612F084F808342EA23EA1204692
:106AF00012F07EF808342BA22FA1204612F078F86D
:106B000008342CA235A1204612F072F8083425A2D0
:106B100035A1204612F06CF8083420A233A120469B
:106B200012F066F808341FA231A1204612F060F876
:106B3000083420A22DA1204612F05AF808341BA2D6
:106B400026A1204612F054F808341AA21AA12046B1
:106B500012F04EF8083417A220A1204612F048F88F
:106B600008340EA21EA1204612F042F8083411A2E9
:106B70001CA1204612F03CF808340AA21AA12046B3
:106B800012F036F8083407A214A1204612F030F8AB
:106B9000083404A214A120462CE00000322F320059
:106BA000365F0000312F3400375F0000352F34008E
:106BB00031000000312F320030000000355F00004E
:106BC000332F3400342F3200320000003300000035
:106BD000332F320034000000382F3400360000001C
:106BE000337E0000327E0000317E0000370000005E
:106BF0003500000011F0FCFF0834AFF24802AFF29C
:106C00002401204611F0F4FF0834AFF26802AFF21D
:106C10002801204611F0ECFF0834AFF27802AFF201
:106C20006801204611F0E4FF0834AFF27802AFF2B9
:106C30005401204611F0DCFF0834AFF29802AFF2A5
:106C40005801204611F0D4FF0834AFF2B002AFF281
:106C50006401204611F0CCFF0834AFF2A802AFF275
:106C60008401204611F0C4FF0834AFF2C802AFF22D
:106C70008001204611F0BCFF0834AFF2D002AFF221
:106C8000B401204611F0B4FF0834AFF2D802AFF2DD
:106C9000D801204611F0ACFF0834AFF2E802AFF2A1
:106CA000C401204611F0A4FF0834AFF2EC02AFF2A9
:106CB000D001204611F09CFF0834AFF208122FA13A
:106CC000204611F095FF0834AFF21812AFF2F00130
:106CD000204611F08DFF0834AFF22812AFF2FC010C
:106CE000204611F085FF0834AFF23812AFF20811D8
:106CF000204611F07DFF0834AFF25812AFF21C119C
:106D0000204611F075FF0834AFF24C12AFF2341187
:106D1000204611F06DFF0834AFF28012AFF23C1143
:106D2000204611F065FF0834AFF27812AFF2481137
:106D3000204611F05DFF0834AFF27C12AFF254111F
:106D4000204611F055FF0834AFF29812AFF26811E7
:106D5000204611F04DFF0834AFF28C12AFF28411CF
:106D6000204611F045FF083420460AF0D9FF284696
:106D7000FDF764FB28460DF03FFE70BD357E000038
:106D800070B54FF416600DF04BFE05462C46FEA282
:106D9000FEA1204611F02CFF0834FDA2FDA12046E3
:106DA00011F026FF0834FCA2FCA1204611F020FFC0
:106DB0000834F7A2FAA1204611F01AFF0834F4A211
:106DC000F6A1204611F014FF0834F3A2EFA12046EB
:106DD00011F00EFF0834EEA2F2A1204611F008FFD8
:106DE0000834EBA2E9A1204611F002FF0834EAA220
:106DF000EDA1204611F0FCFE0834E5A2EBA12046EF
:106E000011F0F6FE0834E2A2E6A1204611F0F0FEF1
:106E10000834DDA2DDA1204611F0EAFE0834DCA230
:106E2000DEA1204611F0E4FE0834D9A2DCA1204600
:106E300011F0DEFE0834D8A2DDA1204611F0D8FE04
:106E40000834DCA2D3A1204611F0D2FE0834D9A226
:106E5000D9A1204611F0CCFE0834D8A2D4A12046F6
:106E600011F0C6FE0834D5A2D0A1204611F0C0FE14
:106E70000834C5A2C5A1204611F0BAFE0834C4A248
:106E8000C4A1204611F0B4FE0834C3A2C3A1204619
:106E900011F0AEFE0834BEA2C1A1204611F0A8FE3A
:106EA0000834BBA2BDA1204611F0A2FE0834BAA24C
:106EB000B6A1204611F09CFE0834B5A2B9A1204627
:106EC00011F096FE0834B2A2B0A1204611F090FE57
:106ED0000834B1A2B4A1204611F08AFE0834ACA255
:106EE000B2A1204611F084FE0834A9A2B4A1204624
:106EF00011F07EFE0834A6A2ABA1204611F078FE68
:106F00000834A3A2A7A1204611F072FE0834A0A263
:106F10009EA1204611F06CFE08349DA2A0A120463F
:106F200011F066FE08349CA298A1204611F060FE84
:106F3000083499A29BA1204611F05AFE08349FA262
:106F400092A1204611F054FE083493A297A1204646
:106F500011F04EFE08348EA291A1204611F048FE99
:106F600008348BA292A1204611F042FE083488A278
:106F700088A1204611F03CFE083485A28CA1204651
:106F800011F036FE083482A282A1204611F030FEB4
:106F900008347DA288A1204611F02AFE08347CA284
:106FA0007CA1204611F024FE083479A280A120465D
:106FB00011F01EFE083478A279A1204611F018FEC7
:106FC000083473A271A1204611F012FE083470A299
:106FD00074A1204611F00CFE08346FA272A1204665
:106FE00011F006FE08346AA26DA1204611F000FEE1
:106FF000083467A26EA1204611F0FAFD083464A29D
:1070000064A1204611F0F4FD083461A268A1204675
:1070100011F0EEFD08345EA25EA1204611F0E8FDFD
:1070200008345BA264A1204611F0E2FD083458A2A6
:1070300058A1204611F0DCFD083455A25CA1204681
:1070400011F0D6FD08345BA255A1204611F0D0FD09
:1070500008345CA24DA1204611F0CAFD083457A2A5
:107060004CA1204611F0C4FD083449A24CA1204691
:1070700011F0BEFD083446A24DA1204611F0B8FD26
:10708000083443A243A1204611F0B2FD083440A2C7
:1070900047A1204611F0ACFD08343DA23DA1204699
:1070A00011F0A6FD083438A243A1204611F0A0FD3E
:1070B000083437A237A1204611F09AFD083434A2D3
:1070C0003BA1204611F094FD083431A234A12046A2
:1070D00011F08EFD083437A235A1204611F088FD4D
:1070E000083434A22EA1204611F082FD083428A2D3
:1070F00026A1204611F07CFD083425A229A12046B6
:1071000011F076FD083424A227A1204611F070FD6D
:1071100008341FA225A1204611F06AFD08341CA2E4
:1071200020A1204611F064FD083419A217A12046C1
:1071300011F05EFD083416A21AA1204611F058FD88
:10714000083413A211A1204611F052FD083410A2F8
:1071500010A1204611F04CFD08340DA20BA12046D1
:1071600011F046FD08340AA20EA1204611F040FDA0
:10717000083407A205A1204611F03AFD083404A204
:1071800008A1204620E00000332F32003600000026
:10719000312F3200337E0000322F320037000000E2
:1071A000317E000035000000330000003000000098
:1071B000327E0000312F3400357E0000342F320043
:1071C00032000000332F340011F012FD0834AFF20A
:1071D0001402AFF24801204611F00AFD0834AFF264
:1071E0004802AFF23801204611F002FD0834AFF238
:1071F0006002AFF26001204611F0FAFC0834AFF2F1
:107200007002AFF24C01204611F0F2FC0834AFF2EC
:107210008002A6A1204611F0EBFC0834AFF29002E8
:10722000AFF26C01204611F0E3FC0834AFF2A0028B
:10723000AFF2A001204611F0DBFC0834AFF2A80247
:10724000AFF29401204611F0D3FC0834AFF2C00233
:10725000AFF2B401204611F0CBFC0834AFF2D002FB
:10726000AFF2D801204611F0C3FC0834AFF2D802C7
:10727000AFF2C401204611F0BBFC0834AFF2F002BB
:10728000AFF2CC01204611F0B3FC0834AFF2081283
:10729000AFF20011204611F0ABFC0834AFF210122F
:1072A000AFF2F801204611F0A3FC0834AFF2FC0263
:1072B000AFF22011204611F09BFC0834AFF20C1203
:1072C000AFF20C11204611F093FC0834AFF23812E3
:1072D00076A1204611F08CFC0834AFF24C12AFF2CC
:1072E0002811204611F084FC0834AFF25C12AFF292
:1072F0005C11204611F07CFC0834AFF26412AFF24E
:107300005011204611F074FC0834AFF27C12AFF239
:107310007C11204611F06CFC0834AFF28C12AFF2F5
:107320006811204611F064FC0834AFF27012AFF21D
:107330009C11204611F05CFC0834AFF2A412AFF2AD
:107340009411204611F054FC0834AFF2BC12AFF295
:10735000BC11204611F04CFC0834AFF2CC12AFF255
:10736000A811204611F044FC0834AFF2D4124FA10A
:10737000204611F03DFC0834AFF2EC12AFF2C81118
:10738000204611F035FC0834AFF2FC12AFF2FC11CC
:10739000204611F02DFC0834AFF20422AFF2F011B8
:1073A000204611F025FC0834AFF21422AFF2102170
:1073B000204611F01DFC0834AFF22422AFF2242144
:1073C000204611F015FC0834AFF23422AFF22C2124
:1073D000204611F00DFC0834AFF24422AFF24021F8
:1073E000204611F005FC0834AFF25C22AFF26421B4
:1073F000204611F0FDFB0834AFF26C22AFF25C21A5
:10740000204611F0F5FB0834AFF27422AFF284216C
:10741000204611F0EDFB0834AFF28C22AFF274215C
:10742000204611F0E5FB0834AFF29C22AFF2902128
:10743000204611F0DDFB0834AFF2AC22AFF2A421FC
:10744000204611F0D5FB0834AFF29822AFF2B021FC
:10745000204611F0CDFB0834AFF2A822AFF2C421D0
:10746000204611F0C5FB0834AFF2DC22AFF2E42174
:10747000204611F0BDFB0834AFF2EC22AFF2DC2164
:10748000204611F0B5FB083409A2AFF200312046C6
:1074900011F0AEFB083420460AF042FC2846FCF707
:1074A000CDFF28460DF0A8FA70BD0000367E000022
:1074B000362F320070B54FF4C8600DF0B1FA0546B2
:1074C0002C4614A214A1204611F092FB083411A2FC
:1074D00012A1204611F08CFB08340EA210A1204608
:1074E00011F086FB08340BA20EA1204611F080FBA0
:1074F00008340DA20DA1204611F07AFB0834204675
:107500000AF00EFC2846FCF799FF28460DF074FAA5
:1075100070BD0000312F3200310000003200000049
:107520003300000034000000312F3100350000002E
:107530002DE9FF4704460D46164699460020039064
:10754000029600278046009002A80FF039FA8DF8C5
:107550000C000398C0F30310022800D01FE001A91B
:10756000029800F04DF88046029908440290DDE947
:10757000011047180298381A022800DA0FE002A812
:107580000FF01EFA8DF80000009800F00100207046
:1075900002A80FF015FA28704FF0010800BF40460E
:1075A00004B0BDE8F0872DE9F84305460C460126F6
:1075B00000270020206000BF4FF0FF38781C0746EE
:1075C000042801DD00BF17E001216846A847804676
:1075D000B8F1010F00D00FE09DF8001001F07F011D
:1075E000206801FB06002060F6019DF8000000F015
:1075F00080000028E0D100BF3846BDE8F8830000D5
:1076000070B504460D460348046029460248FFF75A
:10761000CAFF70BD280200208DBF000830B50246A9
:10762000002300BF0846CD1701EB5565ED11A1EB16
:10763000C515ECB2CD1701EB5565E911002901DD47
:1076400044F0800418465B1C14540029EADC1846F8
:1076500030BD0000401C802801DA401C0AE0B0F573
:10766000804F01DA801C05E00349884201DAC01C22
:1076700000E0001D70470000FFFF1F002DE9FE43E2
:1076800005460E4614460295002001900090002702
:107690004FF0FF38204600F0A5F807468146FFF777
:1076A000D9FFB04202DD6FF001088FE000208DF8B5
:1076B0000400019820F0F000103001909DF80410B3
:1076C00002A811F0B7FF39460298FFF7A7FF029909
:1076D00008440290207A042808D13EA102A811F0A3
:1076E00095FF042102A811F0A5FF07E03BA102A825
:1076F00011F08CFF032102A811F09CFF00208DF8EF
:107700000000A17E009861F341000090E07E08B186
:10771000012100E00021009861F3820000900098B0
:10772000C0F3800058B194F83D10009861F3C40094
:10773000009094F83C10009861F345100090206C84
:1077400008B9A06C20B1009820F080008030009033
:10775000E06C08B9606D20B1009820F04000403026
:1077600000909DF8001002A811F064FF218B02A880
:1077700011F066FF02A8D4E90423E16811F078FF54
:10778000E07E58B102A8D4E90A23616A11F070FFC3
:1077900002A8D4E90D23216B11F06AFF0098C0F311
:1077A000C01028B102A8D4E91123216C11F060FFA8
:1077B0000098C0F3801028B102A8D4E91423E16C2A
:1077C00011F056FF0298A0EB050800BF4046BDE847
:1077D000FE8300004D515454000000004D51497388
:1077E0006470000070B504460025207A032801D19A
:1077F0000C2503E0207A042800D10A25D4E90412DC
:10780000E06800F02AF8801C0544E07E68B1D4E905
:107810000A12606A00F021F8861CD4E90D12206B70
:1078200000F01BF83044801C0544206C08B9A06CA3
:1078300030B1D4E91112206C00F00FF8801C05441F
:10784000E06C08B9606D30B1D4E91412E06C00F05E
:1078500004F8801C0544284670BD37B50024009804
:1078600020B10098FBF76EFB044600E0019C204627
:107870003EBD00F04FF800F04DF8000070B500215B
:1078800000230F22C47804B3154C246804F4E06488
:10789000C4F5E064210AC1F10403CA40447804FA43
:1078A00003F184781440214309010E4C0678A15558
:1078B000047804F01F050124AC4005786D11AD007B
:1078C00005F1E025C5F8004109E0047804F01F0542
:1078D0000124AC40044D0678761145F8264070BD71
:1078E0000CED00E000E400E080E100E0024901432B
:1078F000024A1160704700000000FA050CED00E03C
:10790000024A0A400243024B1A60704780FFFF1F81
:1079100008ED00E00648006800F4E060054908430F
:10792000001D03490860BFF3408F00BFFEE7000061
:107930000CED00E00000FA0510B50D480068B0B984
:107940000C480068FBF718F90B4908600846006806
:107950000A4908600A480849096800EB41100949CA
:1079600008600846006808490860FBF7C2F810BDC7
:1079700044000020680000204C0000204800002047
:10798000141B0020540000205000002070B5044655
:1079900010464FF080750560051F28462C606FF07B
:1079A0000106051F28462E604FF01236051F284697
:1079B0002E604FF00336051F28462E604FF002362A
:1079C000051F28462E607610051F28462E60051FCD
:1079D000284629604FF01136051F28462E604FF0CB
:1079E0001036051F28462E604FF00936051F284621
:1079F0002E604FF00836051F28462E604FF00736E0
:107A0000051F28462E604FF00636051F28462E60BB
:107A10004FF00536051F28462E604FF00436051F2F
:107A200028462E6070BD000010B5FBF75BF80446D9
:107A300006480078401C054908700548007805494B
:107A400008702046FBF752F810BD000064000020CB
:107A50004C0000206C00002010B5FBF743F80446F2
:107A60000948007820B108480078401E064908708F
:107A70000548007810B92020044908702046FBF71B
:107A800035F803F04DFA10BD640000206C000020B2
:107A900010B50346074800EB42100160054800EBB3
:107AA000421043604FF00040024C04EB4214E0608F
:107AB000002010BD141B002001490862704700001F
:107AC00000000E42024800880A30014908807047D1
:107AD0006C01002029B1064AD2690243044BDA61E5
:107AE00004E0034AD2698243014BDA617047000027
:107AF0000010024029B1064A12690243044B1A6180
:107B000004E0034A12698243014B1A617047000086
:107B10000010024029B1064A92690243044B9A615F
:107B200004E0034A92698243014B9A617047000066
:107B30000010024029B1064AD2680243044BDA60C1
:107B400004E0034AD2688243014BDA6070470000C8
:107B500000100240014908607047000040044242A2
:107B600030B500210022002400232D4D6D6805F062
:107B70000C0121B1042905D0082923D105E0294DA4
:107B8000056022E0274D05601FE0254D6D6805F476
:107B90007012234D6D6805F48034022505EB924286
:107BA0001CB9214D554305600BE01D4D6D6805F472
:107BB00000351DB11C4D5543056002E0194D55437C
:107BC000056002E0174D056000BF00BF144D6D68F1
:107BD00005F0F0010909154D6B5C0568DD40456055
:107BE0000F4D6D6805F4E061090A104D6B5C456846
:107BF000DD4085600A4D6D6805F46051C90A0B4D82
:107C00006B5C4568DD40C560054D6D6805F440411D
:107C1000890B074D6B5CC568B5FBF3F5056130BD9D
:107C20000010024000127A0000093D0018000020F8
:107C30002800002010B501460022002300204A1130
:107C4000012A02D1094C236806E0022A02D1074C1E
:107C5000236A01E0054C636A01F01F02012494408D
:107C60001C400CB1012000E0002010BD00100240BB
:107C700000210B4A11700A4A203A82F8201001288C
:107C800002D0042808D103E00121054A117004E064
:107C90000521034A117000E000BF00BF70470000DB
:107CA0002010024001490860704700003C04424235
:107CB0000249096A0143014A1162704700100240FB
:107CC00070B504460D4603F051F90E490968884223
:107CD00001D0002070BD0DB90020FBE70BE000BF14
:107CE0008021094803F074FA0028F9D02078064969
:107CF000091D0880641C2800A5F10101CDB2EED158
:107D000000BFE7E74C0000200038014070B5054691
:107D10000E4600240B48008838B100BF03E0002065
:107D20002855601C84B2B442F9DB002404E0FDF75E
:107D30000FFA2855601C84B2024800880028F6D14A
:107D4000204670BDC20000202DE9F04105460E46D8
:107D5000002400BF03E000202855601C84B2B44218
:107D6000F9DB002442F2107809E0A8F101001FFAC3
:107D700080F8B8F1000F02D10020BDE8F081214861
:107D800000780028F1D020480068002838D000246E
:107D900000270CE001F09AFFFF2804D101F0AAFFB0
:107DA000FF2800D105E0FDF7D3F9781C87B2322F08
:107DB000F0DB00BF002410E0FDF7CAF92855601C75
:107DC00084B2B44200D10CE001F080FFFF2804D15E
:107DD00001F090FFFF2800D103E00C480088002844
:107DE000EAD100BF0948008850B90020084908803E
:107DF000084908600849088001200849C1F8940131
:107E00002046BAE7C400002020012142C200002021
:107E1000BC00002094012742BE0000200000274241
:107E200010B586B0044601210420FFF773FE01213E
:107E30008803FFF76FFE464803F07CF94FF480702B
:107E4000ADF8140004208DF8170003208DF81600FB
:107E500005A94048FCF7ECFF4FF480713D48FDF761
:107E6000BDF84FF40060ADF8140010208DF8170035
:107E700003208DF8160005A93648FCF7D9FF4FF40A
:107E800000613448FDF7A8F84FF48050ADF81400B5
:107E900010208DF8170003208DF8160005A92D4835
:107EA000FCF7C6FF4FF480512A48FDF795F84FF4D0
:107EB0000070ADF8140002208DF8160018208DF81F
:107EC000170005A92348FCF7B3FF4FF48060ADF815
:107ED000140004208DF8170005A91E48FCF7A8FF20
:107EE00025208DF8000000208DF8010001208DF87C
:107EF00002008DF803006846FFF7C0FC01940020E3
:107F0000ADF80800ADF80A00ADF80C00ADF81000AF
:107F10000C20ADF80E0000210D4803F0FEF80C48CF
:107F200003F008F901A90A4803F0AEF9012240F272
:107F30002551074803F083F9012240F22441044807
:107F400003F07DF90121024803F0E7F806B010BD07
:107F500000380140000801401FB504464FF4165098
:107F6000FFF75EFF01201F4908601F49C1F8AC01FF
:107F7000642008F04DFD1DA103C9CDE902018DF873
:107F80000C401CE0062102A8FFF79AFE4FF4FA709D
:107F900008F03EFD00200090019006216846FFF7A2
:107FA000B5FE694613A00FF0F3FB00B108E09DF8A1
:107FB00004009DF80C10884200D101E000BFE1E709
:107FC00000BF0020074908600749C1F8AC016420E0
:107FD00008F01EFD4FF4E130FFF722FF002004B04F
:107FE00010BD0000B001214200002142C200003A51
:107FF000144000004F4B0000024909888143014AA8
:1080000011807047042800400348008840F01000A9
:108010000149088070470000042800400348008898
:108020004FF6EF710840014908807047042800406E
:1080300070B500260024002500F07AF8064638487E
:10804000B6FBF0F437480088A0423CD035490C809C
:1080500040F2B27510E02846FDF71EFA40B1B4F5C3
:10806000B77F02D3A4F5B77404E0681C85B206E0BC
:10807000A4F26D14681C85B2B4F5B67FEBD800BFCE
:1080800029488580002516E027498888FDF704FAED
:1080900030B1012D04D11D2C01D31D3C09E00CE0B1
:1080A0002248405DA04203D82048405D241A00E0E9
:1080B00003E0681C85B21C2CE6D200BF681C1A497C
:1080C0008871601CC8711648B6FBF0F100FB1164A2
:1080D0004FF46160B4FBF0F0134908704FF4616035
:1080E000B4FBF0F100FB11403C21B0FBF1F00E4974
:1080F00048704FF46160B4FBF0F100FB11403C218B
:10810000B0FBF1F201FB1200074988700B46DA79E7
:108110009979988800F030F803490872002070BD02
:10812000805101006E000020141F002044B201089D
:10813000002103480188001F008841EA0040704781
:108140001C28004001460020064A12880A40D0B28E
:10815000044A121F12880A4012B108B1012000E03F
:10816000002070470428004010B5FFF7E1FF10BD64
:1081700000487047141F0020F0B503460C46154612
:10818000642093FBF0F0C6B2642093FBF0F700FB91
:108190001730C1B2132E02DD01F16400C1B20846EE
:1081A000CF1701EB977701EBA707BAB2072092FB35
:1081B000F0F700FB172082B25719601EDFF82CC0C1
:1081C0001CF80000384482B2CF1701EB9777BF103C
:1081D000A1EB87071FB9032C01DA501E82B20720DA
:1081E00092FBF0F700FB1720C0B2F0BD38B20108D7
:1081F00010B50120FFF7A6FF08B1FFF719FF022015
:10820000FFF7A0FF10B10220FFF7F6FE0520FFF7F1
:10821000F3FE00F015F910BD29B1064A1288024399
:10822000044B1A8004E0034A12888243014B1A80EF
:1082300070470000002800401CB500240420FCF713
:1082400013F845F25001884247D001214FF0C05049
:10825000FFF740FC0120FFF72FFCFBF7FDFF01209B
:10826000FFF706FD08E0601CC4B20A2008F0EAFB34
:10827000FA2C01DB01201CBD4120FFF7DBFC0028AC
:10828000F1D04FF48070FFF713FD0120FFF70AFDD6
:1082900000F0D6F800F0DEF801210846FFF7BCFF39
:1082A00000F0CEF8FFF7B0FE47F6FF7000F0A6F83A
:1082B00000F0C6F8372000210A230222CDE9001081
:1082C0000C2140F2D97000F027F8FFF7A7FE45F225
:1082D00050010420FBF7D6FF07E000F0BBF80121B6
