:020000040800F2
:1028000068240020712A000843760008BB520008A3
:102810003F760008CD450008BBAA00080000000074
:10282000000000000000000000000000E792000827
:102830002949000800000000FB2A0008759A0008DA
:102840008B2A00088B2A00088B2A0008BD7F00080D
:102850008B2A00088B2A00088B2A00088B2A000884
:102860008B2A00088B2A0008E74A00088B2A0008F8
:102870008B2A00088B2A00088B2A00088B2A000864
:102880008B2A00088B2A00088B2A00088B2A000854
:102890008B2A00088B2A00088B2A00088B2A000844
:1028A0008B2A00088B2A00088B2A00088B2A000834
:1028B000559B0008819B00089D9B00088B2A0008FF
:1028C0008B2A00088B2A00088B2A00088B2A000814
:1028D0008B2A0008D9A50008C9A600088B2A000881
:1028E0008B2A00088B2A00088B2A00088B2A0008F4
:1028F0008B2A00088B2A00088B2A00088B2A0008E4
:102900008B2A00088B2A00088B2A00088B2A0008D3
:102910008B2A00088B2A00088B2A00088B2A0008C3
:102920008B2A00088B2A00088B2A00088B2A0008B3
:1029300000F002F800F07CF80AA090E8000C824455
:102940008344AAF10107DA4501D100F071F8AFF232
:10295000090EBAE80F0013F0010F18BFFB1A43F07D
:1029600001031847688F0100888F01000A444FF067
:10297000000C10F8013B13F0070408BF10F8014BDE
:102980001D1108BF10F8015B641E05D010F8016B23
:10299000641E01F8016BF9D113F0080F1EBF10F887
:1029A000014BAD1C0C1B09D16D1E58BF01F801CBAA
:1029B000FAD505E014F8016B01F8016B6D1EF9D52D
:1029C0009142D6D370470000002300240025002642
:1029D000103A28BF78C1FBD8520728BF30C148BF82
:1029E0000B607047662917F0E282652917F0DF82D5
:1029F000642900F03B81752900F03881782900F0C6
:102A00007181732900F0A786002070471FB500F080
:102A1000A7FE04000020002116F024FA401C60608C
:102A20000020002116F034FAE0601FBD10B510BD83
:102A300000F096FF1146FFF7E9FF10F079FE00F075
:102A4000B4FF03B4FFF7F2FF03BC08F0C6FB0000BD
:102A5000EFF30980704780F309887047EFF308802F
:102A6000704780F30888704740BA7047C0BA704713
:102A70000948804709480047FEE7FEE7FEE7FEE712
:102A8000FEE7FEE7FEE7FEE7FEE7FEE7044805494E
:102A9000034A054B70470000F59A000831290008E9
:102AA000682200206824002068220020EFF31080B4
:102AB00072B6704780F310887047294C294D256005
:102AC0004FF0000484F30988274C4FF0010525706E
:102AD000264C4FF08055256062B6FEE730B4234C9B
:102AE0004FF08055256030BC704730B41F4C4FF01C
:102AF0008055256030BC704700BF72B6EFF3098087
:102B000028B1203880E8F00F19490968086000B53D
:102B10001848006800B180475DF804EB1648174973
:102B20000A780270124816490A680260106890E834
:102B3000F00F203080F309884EF0040E62B6704723
:102B4000B0FA80F0704790FAA0F04FEA104070475A
:102B500000B520B4069DA84720BC5DF804EB704783
:102B600020ED00E00000FFFF4400002004ED00E045
:102B70005000002060000020480000204C00002091
:102B800054000020704710B5044600F03BFB00687D
:102B9000005DC00602D504F1200010BD204610BD26
:102BA0000FB41CB5084B06AA7B44694600900598F3
:102BB00000F0A7FD04460020694600F0B5FD204660
:102BC0001CBC5DF814FB00007D0B000070B50446D2
:102BD00085690068C10601D5302600E02026C007BF
:102BE00007D070BDD4E9012130469047206A401CCF
:102BF00020626D1EF6D570BD70B5044685690078FB
:102C0000C00707D170BDD4E9012120209047206A78
:102C1000401C20626D1EF6D570BD70B50C46054691
:102C2000012A05D02878800600D5EA69002302E051
:102C3000012305E05B1C934202D2E05C0028F9D13D
:102C4000A869E618C01AA861286A184428622846AC
:102C5000FFF7BCFF04E0D5E9012114F8010B904710
:102C6000B442F8D32846FFF7C7FF70BD2DE9F04105
:102C70000646002410687529314616A510D0AFF31A
:102C80000080002802DA404213A507E031688A0775
:102C900001D512A502E0490704D511A5012401E0E0
:102CA000AFF3008000210A2206F1240709E0B0FBFF
:102CB000F2FCB0FBF2F302FB1C00303078541846F3
:102CC000491C0028F3D123462A463046BDE8F0418E
:102CD00000F0ABBA000000002D0000002B00000047
:102CE0002000000070B504460D4621461068AFF381
:102CF00000802188090502D50F4A7A4402E00E4A75
:102D00007A440E32002104F1240305E000F00F069E
:102D10000009965D5E54491C0028F7D120780023F5
:102D2000000704D5702D02D009B1022311322046CC
:102D3000BDE8704000F079BABA7B01002DE9F05F80
:102D4000894604464FF0000ADFF824B1FB44C0F87E
:102D500020A02046E168884700287DD0252806D09D
:102D6000D4E901219047206A401C2062F1E7002548
:102D70005F462046E16888472028064607DB312E5B
:102D800005D2B81910F8200C08B10543F1E7A807DF
:102D900001D525F00405C4F81CA00027C4F818A02C
:102DA0002A2E09D0304608F011FA38B304EB870810
:102DB000303EC8F8186019E059F8041B204604EBAF
:102DC00087029161E1688847012F064618D1E069C2
:102DD000002820DA25F020051DE0D8F8180000EBC7
:102DE000800006EB40003038C8F818002046E16843
:102DF0008847064608F0EAF90028EED1012F0AD0EC
:102E00002E2E08D12046E16888477F1C0646022FF7
:102E100045F02005C4DBA069002803DA404245F0F4
:102E20000105A061E80701D025F01005A6B1A6F1C3
:102E30004100192802D8203645F400654A4631463B
:102E4000204625604D46FFF7CDFD60B1012807D033
:102E5000ED1D25F0070000E007E000F1080978E724
:102E600005F1040975E730467AE7206ABDE8F09F6E
:102E7000907B0100401ECAB210F8011F8A4202D0A6
:102E80000029F9D10020704740EA0103024630B51D
:102E90009B0710D14FF0013400E008C208C91D1B88
:102EA0009D4315EAC41FF8D013F0FF0102F8011B7F
:102EB0000DD01B0AF8E711F8013B002B02F8013B8B
:102EC00005D011F8013B002B02F8013BF3D130BDD6
:102ED00010B5431C02E010F8011B71B18107FAD153
:102EE0004FF0013202C88C1A8C4314EAC211F9D097
:102EF000C01A0A0603D0C01E10BDC01A10BD0A04B5
:102F000001D0801E10BD0902FCD0401E10BD40EA59
:102F1000010370B59B072ED14FF00136042A2AD346
:102F200008C810C99D1B9D43121F15EAC61517D06E
:102F3000D8B2E1B2401A50EA056110D198B2A1B2FC
:102F4000401A50EA05410AD123F07F4024F07F4126
:102F5000401A50EA052102D1180EA0EB146070BD92
:102F6000A342DBD018BA21BA884201D9012070BD32
:102F70004FF0FF3070BD0AB9002070BD10F8013B62
:102F800011F8014B63B1A3420AD1521E08D010F8C8
:102F9000013B11F8014B1BB1A34201D1521EEDD1EF
:102FA000181B70BD032A40F2308010F0030C00F0B3
:102FB000158011F8013BBCF1020F624498BF11F873
:102FC00001CB00F8013B38BF11F8013BA2F104022C
:102FD00098BF00F801CB38BF00F8013B11F00303A4
:102FE00000F02580083AC0F0088051F8043B083A08
:102FF00051F804CBA0E80810F5E7121D5CBF51F8AA
:10300000043B40F8043BAFF30080D20724BF11F823
:10301000013B11F801CB48BF11F8012B24BF00F888
:10302000013B00F801CB48BF00F8012B704710B5F9
:10303000203AC0F00B80B1E81850203AA0E81850B0
:10304000B1E81850A0E81850BFF4F5AF5FEA027C71
:1030500024BFB1E81850A0E8185044BF18C918C0E0
:10306000BDE810405FEA827C24BF51F8043B40F881
:10307000043B08BF7047D20728BF31F8023B48BF66
:1030800011F8012B28BF20F8023B48BF00F8012BA4
:1030900070474FF000020429C0F0128010F0030CBA
:1030A00000F01B80CCF1040CBCF1020F18BF00F83B
:1030B000012BA8BF20F8022BA1EB0C0100F00DB8EA
:1030C0005FEAC17C24BF00F8012B00F8012B48BF48
:1030D00000F8012B70474FF0000200B513469446EC
:1030E0009646203922BFA0E80C50A0E80C50B1F160
:1030F0002001BFF4F7AF090728BFA0E80C5048BF74
:103100000CC05DF804EB890028BF40F8042B08BF11
:10311000704748BF20F8022B11F0804F18BF00F80D
:10312000012B704710B5044610F0030F08BF11F0D3
:10313000030F40F015804FF0013E121FC0F20E80C9
:1031400051F8043BA3EB0E0C2CEA030C1CEACE1C3A
:1031500008BF40F8043BF0D0A1F1040102F10402E1
:10316000521E08DB11F8013B002B00F8013BF7D1A0
:103170001146FFF78EFF204610BD00004FF0013CC6
:1031800050F8042B51F8043B9A4221D1A2EB0C03D6
:10319000934313EACC1317D150F8042B51F8043B96
:1031A0009A4215D1A2EB0C03934313EACC130BD133
:1031B00050F8042B51F8043B9A4209D1A2EB0C03BE
:1031C000934313EACC13DBD04FF00000704700BFED
:1031D000D01A01BAB1FA81F101F0180122FA01F016
:1031E000CB40C1F12001DBB2C0B2C01A2CFA01F30E
:1031F000D11A914311EAC311E6D170477047704765
:103200007047704710B500F0ABFA001D10BD00BF4D
:10321000555C010010B500F0A7FA006810BD10B5AC
:10322000044600F0A1FA046010BD2DE9F0470D46F8
:1032300099469246044600F124080168880604D5A0
:10324000E06921F01001216000E00120A84201DDC9
:10325000471B00E00027A1697A1902EB0900081A50
:10326000A0612078C00602D42046FFF7AFFC0026FC
:1032700008E0D4E901211AF806009047206A401CB2
:10328000761C20624E45F4DB2078C0060AD5204625
:10329000FFF79CFC06E0D4E9012130209047206A2A
:1032A000401C2062381EA7F10107F4DC07E0D4E9D6
:1032B000012118F805009047206A401C2062281E52
:1032C000A5F10105F3DC2046FFF796FC2078000607
:1032D00002D50220BDE8F0870120FBE770472DE909
:1032E000FF4F0C461E464FF0FF378BB0D2E900016E
:1032F000DDF860800A908A46C1F30A5505B93D465B
:10330000002108464FF00000BAF1000F00F4400021
:1033100005DA00EB80004FF4400101EA50004FEA6B
:103320009059B9F1010F00DDB9460A9850EA4A00F8
:103330000ED044F61050A5F2FF3545432F14B8F1D6
:10334000000F1ED07542291E1EDDC9F100021CE0CF
:10335000B8F1010F4FF0000001D0302103E0F2433B
:1033600005E02154401CB042FBDB30460022002126
:1033700021540B99C1F80880C1E900200FB0BDE8C5
:10338000F08FBD1B6D1CDEE74A4600DA694206A8D5
:1033900000F074FA06AB93E8070003AB83E807007C
:1033A00050460A9900F007FB8DE80700A0F5005091
:1033B0001F3800900398002D09DD42F21F014A4694
:1033C000084403A90390684600F066FD08E0A0F5F4
:1033D00000504A461F3803A90390684600F070FD6C
:1033E0008DE807000004000C03D04FF0FF304108C7
:1033F00000E01046B8F1000F03D0002200921546FD
:103400001EE0751E05D400F0B3F9303262556D1E12
:10341000F9D5B3460122084302D000227F1C04E004
:103420002078302801D100227F1E002A099786D0FB
:103430001DE0112D07DA00F09BF9303262556D1C4A
:1034400050EA0102F5D1084302D00098C8B10EE05D
:103450000021681E05E0235C625C63542254401E18
:10346000491C8142F7DBAB46A81B401E0990002097
:1034700004F80B000B98099AC0F80880C0E9002BEB
:103480007CE711264FF0000859E72DE9F04F8846F8
:103490000446D21D22F0070191B0D1E90001CDE927
:1034A0000A0107F009FE02460B98C00F01D02D203B
:1034B00007E02068810701D52B2002E0202101EAE6
:1034C000C000032A099001D0072A05DB03464146C4
:1034D000204600F093F90BE12078800601D5E069E1
:1034E00000E00620B8F1650F814606D0B8F1660FFE
:1034F00018D0B8F1670F70D131E00020B9F1110F89
:10350000009001DB112301E009F101030AAA01A9DE
:103510000CA8FFF7E4FEDDE90C70002609F10105B7
:10352000834647E001204B4600904FF000470AAA2F
:1035300001A90CA8FFF7D3FEDDE90DB00C995D469B
:10354000002610B909F101000D18B9EB050003D4EC
:10355000C0F1FF3609F10105A5EB09002BE0B9F137
:10356000010F01DA4FF001090020B9F1110F0090AD
:10357000484601DD112300E003460AAA01A90CA870
:10358000FFF7ADFEDDE90C704D460026834620783E
:1035900000070AD4AB4500DA5D4601A8012D04DD21
:1035A000411911F8011C302907D04F4502DA17F1F3
:1035B000040F04DA012082460FE06D1EEEE7002FB3
:1035C00002DCED1B3E4403E0781CA84200DD7D1CBC
:1035D000B81B00F1010A4FF000472078000703D420
:1035E000AA4501DB4FF0FF3A0021B7F1004F0DF182
:1035F00043088DF8431024D002202B23002F01DA3A
:103600007F422D230A21021EA0F1010000DC5FB1E0
:1036100097FBF1FC97FBF1F201FB1C7C17460CF1C8
:10362000300C08F801CDEEE7A8F101000370218805
:10363000090501D5452100E06521A0F1010800F848
:10364000011C09980FA9A1EB0807FF1D00B101207B
:10365000411901EBEA70A1693844081A401EA061C3
:103660002078C00602D42046FFF7B0FA099828B1A6
:10367000D4E901219047206A401C20622078C006CE
:1036800022D52046FFF7A2FA1EE0002E04DBB34548
:1036900002DD01A8805D00E03020D4E901219047DF
:1036A000206A401C2062761CAAF101005FEA000A31
:1036B0000AD100F055F8C0680168405CD4E90121E6
:1036C0009047206A401C2062281EA5F10105DCDC21
:1036D00007E0D4E9012118F8010B9047206A401C4B
:1036E0002062381EA7F10107F3DC2046FFF784FAB9
:1036F000032011B043E6000001694A1C026108780A
:10370000704700B58FB0CDE9013100210591054921
:103710007944CDE9031011466846FFF70FFB0FB05F
:1037200000BD0000E5FFFFFF0A6802F8010B0A6018
:10373000704710B5436913B1AFF3008001E0FFF7A4
:103740006CFA012010BD127800F124010A700022E9
:103750004A700122EDE711684FF0FF32E9E70000FF
:1037600000487047282200200048704708220020A7
:1037700030B5B0F10A024FEA900E71F100034EEA43
:10378000817EB0EB0E0061EB91014FEA101E4EEA14
:10379000017E10EB0E0041EB11114FEA102E4EEAA4
:1037A000016E10EB0E0041EB11214FEA104E4EEA74
:1037B000014E10EB0E0041EB1141401841F10001A8
:1037C0004FEAD00040EA41704FEAD10110EB80058A
:1037D0004FEA810444EA907444EB01046D1944EB10
:1037E0000404521BA3414FF0000348BF0A3200D526
:1037F00030BD401C41F1000130BD00002DE9F04119
:103800001F46044603260168072A01F4006004DB12
:1038100008B116A505E016A503E008B115A500E05E
:1038200015A521F010002060A069C01EA0610FB195
:10383000401EA0612046FFF7C9F94FB1D4E901212C
:1038400038469047206A401C2062C01C206206E077
:10385000206AFAE7D4E9012115F8010B9047761E9A
:10386000F8D22046FFF7C8F9BDE8F0814E414E007E
:103870006E616E00494E4600696E66002DE9F047A4
:10388000814616468AB0334878440DC88DE80D004D
:1038900030487844801C03AC0DC884E80D0041F624
:1038A0009B300844372190FBF1F290FBF1F5A5F134
:1038B000800501FB12041B3C02D56442012000E09C
:1038C0000020DFF890A080460027FA44AAF1BE0A43
:1038D0000DE0E00709D03246684607EB47010AEBE6
:1038E000810100F0EDFA8DE8070064107F1C002CC8
:1038F000EFD1184F7F44AC3F18E0E80714D007EB36
:1039000004100DF1180A90E80E008AE80E00C06855
:10391000F04201D198190890324606A903A800F098
:10392000CFFA03AB83E807006D10641C002DE4D1CF
:1039300032466946B8F1000F03A802D000F0ACFA95
:1039400001E000F0BDFAC9E90001C9F808200AB099
:10395000BDE8F08778710100004870470822002018
:103960007546FFF7F9FFAE4605006946534620F05D
:103970000700854618B020B5FFF788F8BDE820405D
:103980004FF000064FF000074FF000084FF0000B1B
:1039900021F00701AC46ACE8C009ACE8C009ACE8CE
:1039A000C009ACE8C0098D4670470446AFF30080FB
:1039B0002046FFF746F85FEA400C08BF91F0000F81
:1039C0004FEA8C234FEAC12243EA51514FEA1C507F
:1039D00018BF00F5F0404FEA300018BF41F0004139
:1039E0005FEA6C5C00F02980BCF1FF3F08BF40F04B
:1039F00080407047130C06BF12044FF0100C4FF0BC
:103A0000000C130E04BF12020CF1080C130F04BFBC
:103A100012010CF1040C930F04BF92000CF1020C84
:103A2000D30F04BF52000CF1010C11464FF00002FD
:103A3000A0F11F00A0EB0C00704711F0004F08BF71
:103A4000704731F000413FF4D5AF0B0C06BF0904BD
:103A50004FF0100C4FF0000C0B0E04BF09020CF1DC
:103A6000080C0B0F04BF09010CF1040C8B0F04BFF1
:103A700089000CF1020CCB0F04BF49000CF1010CC2
:103A8000CCF12003A0EB0C0022FA03F302FA0CF2B3
:103A900041EA030100F10100704720F07F4C80EA09
:103AA000030023F07F47ACEB070303F57C5300F0E2
:103AB000004003F1FF032DE980494FEA154B09B49B
:103AC0004FEA144325EA0B4E24EA03480FF204267A
:103AD00006EB132749083E785FEA320203FB0667CC
:103AE000C7F5000707FB06F64FEA54374FEAD646FC
:103AF00006F1020607FB066CCCF1005C4FEA1C479E
:103B00002CEA074C07FB06F40CFB06F504EB154604
:103B10004FEA961634BF00204FF000404FEAD137ED
:103B200006FB07FC4FEA1C4C0CFB0BF7D21B03FBFC
:103B30000CF761EB07010CFB0EF7B0EB074072EBE3
:103B400017420CFB08F734BFA2EB0742B2EB074267
:103B500061EB17414FEA0C444FEA910706FB07FC63
:103B60004FEA1C4C0CFB0BF7B0EBC74072EB573223
:103B700003FB0CF734BFA2EBC742B2EBC74261EBC9
:103B800057310CFB0EF7B0EBC70072EB57720CFB12
:103B900008F734BFA2EBC702B2EBC70261EB577163
:103BA000039F4FEA816141EA921104EBCC044FEA92
:103BB000D1374FEA826206FB07FC42EA90124FEAD5
:103BC00080604FEA1C4C0CFB0BF7D21B03FB0CF77D
:103BD00061EB07010CFB0EF7B0EB074072EB1742ED
:103BE0000CFB08F734BFA2EB0742B2EB074261EBD4
:103BF00017414FEA8C554FEA910704EB9C2406FBD2
:103C000007FC4FEA1C4C0CFB0BF7B0EBC74072EB08
:103C1000573203FB0CF734BFA2EBC742B2EBC742EB
:103C200061EB57310CFB0EF7B0EBC70072EB57722C
:103C30000CFB08F734BFA2EBC702B2EBC70261EB83
:103C4000577115EB4C254FEA816141EA92114FEA19
:103C500082624FEAD13742EA901206FB07FC44F138
:103C600000044FEA80604FEA1C4C0CFB0BF7D21BA0
:103C700003FB0CF761EB07010CFB0EF7B0EB074001
:103C800072EB17420CFB08F734BFA2EB0742B2EB12
:103C9000074261EB174115EB1C154FEA813141EAF0
:103CA00092414FEA823242EA90424FEA80304FEA34
:103CB0000C7644F1000448EA03434EEA0B484FF007
:103CC000000EB2EB080C71EB030724BF62463946C5
:103CD0004EEB0E0E4FF0000B0018524149414BEBDA
:103CE0000B0BB2EB080C71EB03077BF1000B24BF4D
:103CF000624639464EEB0E0E4FF0000B0018524153
:103D000049414BEB0B0BB2EB080C71EB03077BF15A
:103D1000000B24BF624639464EEB0E0E51EA0207F5
:103D200018BF46F0010616EB0E7655F1000254F16D
:103D3000000103D5BDE88901BDE80088BDE889011F
:103D4000BDE80048B619524141EB0101A3F101035E
:103D5000704780807F7E7D7C7B7A797877767675F8
:103D60007473727171706F6E6E6D6C6C6B6A6A6970
:103D70006868676666656464636362616160605F0A
:103D80005F5E5E5D5D5C5C5B5B5A5A595958585783
:103D900057565655555554545353525252515150EB
:103DA00050504F4F4F4E4E4D4D4D4C4C4C4B4B4B3E
:103DB0004A4A4A4949494848484747474746464684
:103DC00045454544444444434343434242424241BF
:103DD0004141002B26D4770021D01CB54FEA37078C
:103DE00003B44FF010004FF010014FF000000FBC73
:103DF000BDE810400BF1010BBBF1010F08BF5FEAFA
:103E0000170722BF12F1010211F101014FF0004129
:103E100043F1000300F0004043EA00007047F9D38B
:103E20005708DAE746EA064613F1400F4FEA16460E
:103E30001FDD13F1200FDFBF16430A460021203398
:103E40005B42C8D0C3F1200746EA064602FA07F7EC
:103E50004FEA164646EA0706C3F1200722FA03F2A4
:103E600001FA07F721FA03F14FF0000342EA0702D3
:103E7000B1E746EA020646EA06464FEA164646EA31
:103E80000106BCBF46EA0646360C4FF000034FF071
:103E900000024FF000019EE72DE9C048934630B480
:103EA00091E8380007C831EA400C48BF34EA430CB7
:103EB00003D5FFF7F2FDFFF78CFFF0BCBDE80088EB
:103EC0002DE9C048934630B491E8380007C810F097
:103ED000804F08BF13F0804F03D100F005F8FFF7C3
:103EE00078FFF0BCBDE8008820F07F4780EA03003F
:103EF00023F07F4C07EB0C03A3F57C5300F000404C
:103F0000A3F1FE0392F0000F00F0B38095F0000FD4
:103F100000F077802DE901494FEA11404FEA14463D
:103F200021EA004800FB06FC24EA064708FB06F6E7
:103F300007FB08F800FB07F718EB06484CEB164C9C
:103F40004FEA124B18EB07484FEA15464CEB174067
:103F500022EA0B4E0BFB06FC25EA06470EFB06F693
:103F600007FB0EFE0BFB07F71EEB064E4CEB164C49
:103F70004FF000061EEB074E4CEB174B18EB0B08EF
:103F800040F1000018EB0E0B58EB000840F1000068
:103F90008F1A4FF000013CBFC943661B14BFB5EB3D
:103FA000040C00213CBFC943F61B4FEA17444EEAFC
:103FB0008E0E27EA04454FEA1C4704FB07622CEAF1
:103FC000074C05FB07F70CFB05F604FB0CFC16EB96
:103FD000074642EB174216EB0C4642EB1C421BEB2A
:103FE000060658EB0202414146EA9E0601D5BDE8AD
:103FF0000189B619524141EB0101A3F10103BDE86A
:1040000001894FEA14454FEA114724EA054621EA9F
:10401000074C05FB07F406FB07F70CFB06F105FB55
:104020000CFC11EB074144EB17444FEA124711EB2C
:104030000C4144EB1C4422EA074C05FB07F206FB4B
:1040400007F70CFB06F605FB0CFC16EB074642EBEC
:10405000174216EB0C4642EB1C456A1854F100015E
:1040600048BF7047B619524141EB0101A3F101036A
:10407000704795F0000F37D04FEA11424FEA1447CE
:1040800021EA024624EA074C02FB07F106FB07F788
:104090000CFB06F402FB0CFC14EB074441EB17414C
:1040A0004FEA154714EB0C4441EB1C4125EA074C41
:1040B00002FB07F506FB07F70CFB06F602FB0CFC00
:1040C00016EB074645EB174516EB0C4645EB1C4235
:1040D000121951F1000148BF7047B619524141EB26
:1040E0000101A3F1010370474FEA14454FEA11475C
:1040F00024EA054621EA074C05FB07F106FB07F712
:104100000CFB06F24FF0000605FB0CFC12EB07421D
:1041100041EB174112EB0C4251EB1C4148BF704779
:10412000921841EB0101A3F10103704710B50DF0A6
:104130003BF8408C012804D10DF036F80021418471
:1041400003E00DF031F8012141840DF02DF890F8D5
:104150002240214606200EF02BFC10BD1CB510A1FC
:1041600003C9CDE900010DF01FF8808A01280BD1A9
:1041700000208DF807000821684601F0D5FA0DF0FF
:1041800013F8002181820AE00DF00EF801218182EE
:1041900001208DF807000821684601F0C5FA1CBD12
:1041A0005AA505821009000008B50121102003F06E
:1041B00097FB4FF40050ADF8000010208DF803007D
:1041C00002208DF802006946054800F0A7FD002096
:1041D00003F034FC4FF40051014800F073FE08BDB9
:1041E0000010014010B5012003F09AFB002003F0FD
:1041F00097FB10BD08B501460020009003480090D1
:104200000098084400900098008808BD006C0040A9
:1042100008B500220092044A0092009A02440092DB
:10422000009A116008BD0000006C00400EB500202F
:1042300000900190029003208DF8000002208DF87C
:10424000010000208DF802008DF8030002208DF897
:1042500004008DF805006946032013F0A7FC0EBD8D
:104260000EB5002000900190029002208DF8000011
:104270008DF8010000208DF802008DF80300022067
:104280008DF804008DF805006946032013F08EFCBC
:104290000EBD0EB5002000900190029004208DF814
:1042A000000002208DF8010000208DF802008DF83A
:1042B000030002208DF804008DF8050069460320F4
:1042C00013F074FC0EBD0EB500200090019002901A
:1042D00005208DF8000002208DF8010000208DF8E7
:1042E00002008DF8030002208DF8040001208DF8F3
:1042F00005006946032013F059FC0EBD0EB50020E1
:1043000000900190029002208DF800008DF80100CD
:1043100000208DF802008DF8030002208DF80400C3
:1043200001208DF805006946032013F03FFC0EBD07
:1043300010B5074800680FF0D5FF00200449086059
:10434000044908600449087004480BF06FFF10BD71
:1043500074000020B401224270000020994400083B
:104360002DE9FF4105460024464BD3E90121186899
:10437000DB68CDE90213CDE90002002611E03DF82B
:10438000160015F059FC80463F480168404615F07C
:104390009BFC074615F018FC80B22DF81600701C27
:1043A000C6B2082EEBDB39480078012801D1BDE800
:1043B000FF810120354908704FF416700FF0A6FFF9
:1043C000334908600846006800B9F0E74AE02878F9
:1043D00030383DF8100061002D4A126822F81100B3
:1043E00068785F280DD16100294A126832F81100FF
:1043F00000EBD07149106200254B1B6823F81210A6
:1044000010E068787E280DD160002149096831F8F4
:1044100010004FF6FF7101EA400061001C4A12686B
:1044200022F81100A8793038082191FBF0F0012121
:1044300001EB4401164A126822F81100012000EB3A
:1044400044001349096831F810002979303948438C
:10445000012101EB44010E4A126822F811000835CF
:10446000601C84B228780028B1D1012101EB4401FD
:10447000074A126822F81100064806F011FF00BF33
:1044800095E70000BCA5010878000020700000201E
:10449000740000209944000810B53A4800680028CC
:1044A0006FD03948008840003649096831F810005B
:1044B000364991FBF0F436480068401C34490860E6
:1044C00034480068401C3349086064B1601F3049BB
:1044D0000968884203D201202F49086006E00020C5
:1044E0002D49086002E000202B490860264800881A
:1044F00040002449096831F81000244991FBF0F08C
:1045000023490968884202D80020214908601E48D2
:104510000088012101EB40001A49096831F81000B8
:1045200040F2712148431B490968B1EB001F27D3B2
:1045300015480088401C144908800020154908606F
:1045400011480088012101EB40000E49096831F84B
:104550001000A8B900200C4908800E4908600C49D9
:104560000860084800680FF0BDFE0020054908609B
:104570000949086009490870AFF2E3000BF056FEE4
:1045800000BF10BD740000207C000020A086010048
:104590008400002080000020B4012242700000202E
:1045A0002DE9F0410446204614F014FF0546002290
:1045B000044B14F071FD074614F080FC02490860BA
:1045C000BDE8F081000024407800002003F088F866
:1045D00070B50546002401240AE000F07BFC610070
:1045E00030F81100A84201D1012070BD601C84B2D6
:1045F00000F070FC610030F811000028EDD100BF20
:10460000F3E700002DE9F041002500270024FEF724
:104610004DFA0646002039E0204901EB4011496877
:1046200091B31E4901EB401189691C4A02EB40120B
:10463000928A92B2A1EB82010C1D00BF02CC491CF0
:104640000029FBD0154901EB40118969091B0122A2
:1046500002EBA105114901EB401149690F0CAF4272
:1046600012D20E4901EB4011898A89B20B4A02EB42
:1046700040125161094901EB4011496941EA054184
:10468000064A02EB40125161411CC8B22028C3D334
:104690003046FEF70FFABDE8F0810000141A002042
:1046A000002000BF04E00021034A1154411C88B2DD
:1046B0003A28F8DB70470000161F00207FB505463A
:1046C0000C46002600200190029003900090FF20ED
:1046D0008DF804008DF8050028128DF80600E8B268
:1046E0008DF8070001208DF8080000208DF80900E2
:1046F00002208DF80A0000208DF80B001E208DF896
:104700000C006A46092101A800F0C2FC9DF80000D7
:104710008DF80D009DF801008DF80E000B2101A809
:1047200003F0B4F900BF33E0C8200BF0C1FD9DF8E1
:104730000C0000F10901204603F0ECF930B3A07938
:10474000C11D6A46204600F0A3FC9DF80010A07928
:10475000C01D205C814219D19DF80110A07908305C
:10476000205C814212D1E078A17840EA0120A84281
:104770000CD120799DF8081041F08001884205D1C4
:10478000207AE17940EA012004B070BD701CC6B205
:10479000052EC9DB0A20F7E72DE9F0418EB004466B
:1047A0000D4616461F464FF0000800200290039069
:1047B000049005900190FF208DF808008DF8090005
:1047C00020128DF80A00E0B28DF80B0003208DF85E
:1047D0000C0000208DF80D0003208DF80E008DF8E0
:1047E0000F508DF810608DF8117001AA0A2102A8EF
:1047F00000F04EFC9DF804008DF812009DF80500B5
:104800008DF813000C2102A803F040F900BF3DE031
:10481000C8200BF04DFD182106A803F07BF980B3EA
:104820009DF81E00C11D01AA06A800F031FC9DF8EC
:1048300004109DF81E00C01D06AA105C814221D103
:104840009DF805109DF81E000830105C814219D1BA
:104850009DF81B009DF81A1040EA0120A04211D1DA
:104860009DF81C009DF80C1041F08001884209D190
:104870009DF820009DF81F1040EA01200EB0BDE811
:10488000F081FFE708F101001FFA80F8B8F1050F89
:10489000BEDB0A20F2E700002DE9F84F81468A4688
:1048A00017461C460A9D4FF0004020FA05F807EB1A
:1048B0008400061FFEF7FAF883461948006800EAEC
:1048C000080010B10120BDE8F88F1548006840EAE3
:1048D000080013490860002006E04FF0FF31A6EB06
:1048E00080021160411C88B2A042F6D30D4800EB53
:1048F00045108661002332465146484602F02CFF9F
:1049000000902A464846009902F0A8FFA0B2054947
:1049100001EB451148615846FEF7CCF80020D2E77C
:1049200068000020141A002002F0DAFE10B50446D8
:10493000A0B20BF0BDFC10BDFEB504460E461546F8
:10494000002000900190029002208DF80000022CBF
:1049500052D1A6B3012D17D101208DF801008DF899
:1049600002006946042013F021F96946022013F081
:104970001DF900208DF8010002208DF80200694623
:10498000042013F013F9ADE0022DFCD101208DF8C5
:10499000010002208DF802006946042013F006F998
:1049A0006946022013F002F900208DF80100012071
:1049B0008DF802006946042013F0F8F892E0FFE752
:1049C00000208DF8010001208DF8020069460420C6
:1049D00013F0ECF86946022013F0E8F800208DF897
:1049E000010002208DF80200694613F0DFF86946E5
:1049F000042013F0DBF875E0032C01D0052C51D115
:104A00009EB3012D17D101208DF8010003208DF8F0
:104A100002006946042013F0C9F86946022013F029
:104A2000C5F800208DF8010004208DF802006946C9
:104A300013F0BCF856E0022D54D101208DF801008E
:104A400004208DF80200694613F0B0F86946022090
:104A500013F0ACF800208DF8010003208DF802005F
:104A60006946042013F0A2F83CE0FFE700208DF82F
:104A7000010004208DF80200694613F097F869469A
:104A8000022013F093F800208DF8010003208DF828
:104A900002006946042013F089F86946022013F0E9
:104AA00085F81FE0042C1DD176B101208DF801009E
:104AB00006208DF802006946042013F077F8694655
:104AC000022013F073F80DE000208DF8010006209D
:104AD0008DF802006946042013F068F86946022048
:104AE00013F064F8FEBD10B5102000F00FF830B1DF
:104AF000102000F005F81021002005F0BDFA10BDCF
:104B0000014908607047000014040140014600207C
:104B10000022074B1B6803EA0102054B14331B6894
:104B20000B4013B10AB1012000E0002070470000E3
:104B300000040140002123498279002A3AD00A4624
:104B4000126803689A430B461A600A1D12680368CC
:104B50009A430B1D1A60027911440A6803681A43CC
:104B60000A60184A0832126803689A43154B0833E2
:104B70001A601A1D126803689A43124B0C331A60AC
:104B80004279102A0ED11A1F126803681A430D4B7E
:104B900008331A601A1D126803681A43094B0C3354
:104BA0001A600DE00749427911440A6803681A4304
:104BB0000A6005E0027911440A6803689A430A60B2
:104BC000704700000004014030B5044604254FF44E
:104BD000302000F06FF80546042D17D10C4800690D
:104BE00040F002000A49086108464461006940F04B
:104BF000400008614FF4302000F05CF8054604489E
:104C0000006941F6FD71084001490861284630BD40
:104C10000020024004200B49C96801F0010109B1DC
:104C200001200EE00749C96801F0040109B1022022
:104C300007E00449C96801F0100109B1032000E050
:104C400004207047002002400348006940F08000C3
:104C500001490861704700000020024070B5044619
:104C60000D460426F00200F025F80646042E11D168
:104C70000948006940F00100074908612580F002F9
:104C800000F018F806460448006941F6FE71084035
:104C900001490861304670BD0020024002480349C6
:104CA0004860034848607047230167450020024080
:104CB000AB89EFCD00B502460423FFF7ABFF0346F7
:104CC00003E0FFF7A7FF0346521E012B01D1002A84
:104CD000F7D102B90523184600BD000030B5002207
:104CE0008B071C0F0F2303FA04F20B4B8C1053F8A5
:104CF00024309343084C8D1044F8253023468C1003
:104D000053F824308C07240F00FA04F42343024C98
:104D10008D1044F8253030BD080001402DE9F041E8
:104D2000024600250026002000230024002791F8D9
:104D300003C00CF00F0591F803C00CF0100CBCF18F
:104D4000000F03D091F802C04CEA050591F800C0AD
:104D5000BCF1000F31D0146800202BE04FF0010CA3
:104D60000CFA00F3B1F800C00CEA03069E4220D111
:104D700083004FF00F0C0CFA03F7BC4305FA03FC59
:104D80004CEA040491F803C0BCF1280F06D14FF09F
:104D9000010C0CFA00FCC2F814C00AE091F803C040
:104DA000BCF1480F05D14FF0010C0CFA00FCC2F821
:104DB00010C0401C0828D1D31460B1F800C0BCF169
:104DC000FF0F34DD546800202EE000F1080C4FF096
:104DD000010808FA0CF3B1F800C00CEA03069E4281
:104DE00021D183004FF00F0C0CFA03F7BC4305FAF6
:104DF00003FC4CEA040491F803C0BCF1280F05D170
:104E000000F1080C08FA0CF8C2F8148091F803C0FD
:104E1000BCF1480F07D100F1080C4FF0010808FA67
:104E20000CF8C2F81080401C0828CED35460BDE8AE
:104E3000F0810000F0B50A4600230024002100257F
:104E400000F00046B6F1004F02D11D4EF16901E0BD
:104E50001B4E7168C0F3034583B200F44016B6F5EB
:104E6000401F08D121F07061154E766826F07066FB
:104E7000134F7E6012E000F48016B6F5801F06D155
:104E8000032606FA05F4A14341F0706106E0460DE1
:104E9000360103FA06F6B14341F0706122B1460DC6
:104EA000360103FA06F6314300F00046B6F1004F32
:104EB00002D1034EF16101E0014E7160F0BD0000CE
:104EC0000000014041617047016170470048704730
:104ED0003021002000487047A01F0020024600211A
:104EE00000BF0DE0012000EB41000A4B13F8100059
:104EF000904203D1480033F810007047481C81B23B
:104F0000012000EB4100034B33F810000028E9D1E9
:104F100000BFF2E71401002000B502460021012184
:104F200012E0FFF7D7FF4B0030F81300904209D191
:104F3000FFF7D0FF012303EB410330F8130000F427
:104F40007F4000BD481C81B2FFF7C4FF4B0030F822
:104F500013000028E5D1FF20F3E700B50246002149
:104F600000BF10E0FFF7B6FF4B0030F8130090428F
:104F700007D1FFF7AFFF012303EB410310F8130044
:104F800000BD481C81B2FFF7A5FF4B0030F81300AD
:104F90000028E7D1FF20F3E730B502460B46002199
:104FA0000024012114E0FFF795FF012505EB4105E1
:104FB00010F81500904209D19C4205D1FFF78AFFF5
:104FC0004D0030F8150030BD601C84B2481C81B221
:104FD000FFF780FF012505EB410530F8150000289B
:104FE000E1D100BFEFE7000070B504460025FDF7F2
:104FF0005DFD0646044800EB4410808A85B23046C9
:10500000FDF758FD284670BD141A002070B50446FF
:105010000025FDF74BFD0646044800EB44104069AF
:10502000050C3046FDF746FD284670BD141A0020D9
:1050300013490988322904DA1249114A1288885C16
:1050400005E000210E4A11800E491288885C00217B
:105050000D4A11600B4A0A4B1B88D1540B49098831
:1050600021B10A490988491E084A11800121064ACE
:10507000116003490988491C014A118070470000EA
:10508000BC000020E41E002094012742C200002042
:10509000F0B50B46FF24FF2509E010F8016B86EA06
:1050A0000401074E765C86EA0504064E755C1E0018
:1050B000A3F10107BBB2F0D114705570F0BD000030
:1050C00024A6010824A7010810B501464A1E034B77
:1050D000985C00234A1E014CA35410BD8800002098
:1050E00000B5FFF7F7FE008800BD00B5FFF7F2FE40
:1050F00090F8660100BD00B5FFF7ECFE00F5B47056
:1051000000BD000010B50446002300BF04E00548C0
:10511000C05CE054581C83B23A2BF8DBFFF7C0FAAE
:10512000184610BD161F0020F8B506460C4600258F
:10513000002000900027174806602078FF2819D12A
:105140006078FF2816D1A079617940EA0120C01D5E
:1051500085B26A4629462046FFF79AFF605D9DF8B2
:105160000010884206D1681C205C9DF8011088421E
:1051700000D1012767B12079052803D1204607F027
:1051800036F804E00521204607F08AF800BF00BF8A
:10519000F8BD00008C0100200146002000BF04E0A3
:1051A000034A125C0A54421C90B20628F8DB70478E
:1051B0009C00002010B50023154C2360002020E047
:1051C00030B9C0F10603134CE35CDB43DAB203E011
:1051D000C0F106030F4CE25C00210FE000230C4CF1
:1051E000241D2360C1F1070342FA03F30A4CC4F8FB
:1051F00080310123064C241D2360491C0829EDDB66
:10520000401C0728DCDB0123014C236010BD00009B
:10521000880122429C0000200000224210B5142088
:105220000BF046F80BF0C0FFC08B01280ED1012116
:1052300008460DF0BDFB64200BF054F8002102205D
:105240000DF0B6FB64200BF04DF821E00BF0ACFF45
:10525000C08B02280ED1002101200DF0A9FB642093
:105260000BF040F8012102200DF0A2FB64200BF0AE
:1052700039F80DE0002101200DF09AFB64200BF0BD
:1052800031F8002102200DF093FB64200BF02AF886
:105290000BF08AFF408C012807D1012106200DF078
:1052A00087FB64200BF01EF806E0002106200DF0BD
:1052B0007FFB64200BF016F810BD02F011FA00001D
:1052C0000D480078642805DA0B480078401C0A492C
:1052D00008700FE0002008490870084800883C2842
:1052E00005DA06480088401C0449088002E00020D6
:1052F0000249088070470000190200201A020020AD
:1053000010B500F001F810BD4AF6AA200149086066
:1053100070470000003000401CB5044609A103C9D5
:10532000CDE90001E07960B9207A052809D1607AD9
:105330000D2806D1A07AC02803D10621684600F0C6
:10534000F3F91CBD5AA503804F0200000146CA179D
:1053500001EB92729210A1EB820292B9642091FB50
:10536000F0F200FB121050B94FF4C87091FBF0F24C
:1053700000FB121008B9012070470020FCE7012053
:10538000FAE70020F8E7000010B5FF24874800681E
:10539000A8B98748007810BB032086490870864862
:1053A0000078401C8449087008460078502816DBB5
:1053B00002208049087001207D4908700FE07E4876
:1053C0000078012806DD7C480078502802DA0120A8
:1053D0007849087000207849087075490870774846
:1053E0000068A8B97248407810BB03207149487022
:1053F00071484078401C70494870084640785028F1
:1054000016DB02206B4948700120694948700FE0A3
:1054100069484078012806DD67484078502802DA5C
:105420000120644948700020634948706049487011
:105430005E48001D0068A8B95D48807810BB032055
:105440005C4988705C488078401C5B4988700846DD
:105450008078502816DB0220564988700120544974
:1054600088700FE054488078012806DD5248807823
:10547000502802DA01204F49887000204E49887078
:105480004B4988704E480068A8B94948C07810BB9D
:1054900003204849C8704848C078401C4649C87035
:1054A0000846C078502816DB02204249C870012007
:1054B0003F49C8700FE04048C078012806DD3E48EB
:1054C000C078502802DA01203A49C87000203A49D1
:1054D000C8703749C870354808300068A8B93448E2
:1054E000007910BB03203349087133480079401C10
:1054F0003149087108460079502816DB02202D49F1
:10550000087101202A4908710FE02B480079012811
:1055100006DD29480079502802DA01202549087162
:10552000002025490871224908712548001F00689C
:10553000A8B91F48407910BB03201E4948711E4876
:105540004079401C1C49487108464079502816DBB8
:105550000220184948710120154948710FE016488A
:105560004079012806DD14484079502802DA0120EC
:10557000104948710020104948710D4948710D4883
:10558000007870B90B48407858B90A48807840B91B
:105590000848C07828B90748007910B9054840790B
:1055A00018B10121002004F0F9FD10BD1C012242B8
:1055B00094000020880000208E000020000121427D
:1055C0002481214210B50121042002F089F9012132
:1055D000082002F085F90121102002F081F9012153
:1055E000084602F07DF9024805F046FE10BD0000B5
:1055F0008953000810B586B004460121042002F04A
:105600006FF90121082002F06BF90121480402F032
:1056100047F94FF48050ADF8140010208DF81700B2
:1056200003208DF8160005A92A48FFF777FB042010
:10563000ADF8140018208DF8170005A92648FFF7CB
:105640006DFB0820ADF8140004208DF8170005A9A3
:105650002148FFF763FB0121480402F031F90021E2
:105660004FF4003002F02CF901940020ADF808004E
:10567000ADF80A00ADF80C00ADF810000C20ADF844
:105680000E0001A9154805F02BF926208DF8000021
:1056900000208DF8010002208DF8020001208DF815
:1056A0000300684601F0D0FF012240F225510B486B
:1056B00005F0F1F8012240F22441084805F0EBF82A
:1056C0000121064805F055F800200549086006B09C
:1056D00010BD0000000C01400008014000440040E3
:1056E000B081214270B505460C460C480678002072
:1056F00020800B48007801280FD1084800782080CE
:105700003246084928460EF017FE32460021054869
:105710000EF01FFE00200149087070BD9A000020A5
:105720009B0000201E1E002070B505460E4601207D
:105730000E49086000240CE000BF40210C4805F031
:1057400073F80028F9D0295D094805F03AF9601C82
:10575000C4B2B442F0DB00BF4021054805F064F854
:105760000028F9D000200149086070BDB0812142B5
:1057700000440040704700B50BF016FD408C00BDA2
:1057800000B50146052904DA0BF00EFD30F81100D2
:1057900000BD0020FCE700B501460BF005FD41848B
:1057A00000BD00B50246052A03DA0BF0FDFC20F827
:1057B0001210002000BD000008B50121102002F0E9
:1057C0008FF80F20ADF8000010208DF803000320A3
:1057D0008DF8020069461B48FFF7A0FA00201A491D
:1057E00008601A49C1F8A0010121082002F078F8E8
:1057F0000120ADF8000010208DF8030003208DF883
:10580000020069461248FFF789FA0121042002F0DC
:1058100067F80220ADF8000010208DF80300032087
:105820008DF8020069460B48FFF778FA00200A4914
:105830000860FFF7BFFC00200449C1F884010DF0A7
:1058400043FD08BD001001409C012242000022429D
:10585000000C0140000801408081214270B5002405
:10586000FFF738FB0546C82229461D4803F000FC17
:1058700000BF0EE0FFF72EFB30F814004FF6FF716B
:10588000884204D1FFF726FB002120F81410601C89
:1058900084B2C82CEEDB002417E004F0010090B1C4
:1058A000FFF718FB00EB440108780880FFF712FBB4
:1058B00010F8140038B1FFF70DFB00EB4401088825
:1058C00040F400600880601C84B2642CE5DBFFF7C4
:1058D00001FB811C408840F48070088070BD00008E
:1058E00028FC03087CB500240020009001900BF0F8
:1058F0005BFC808BADF800000BF056FCC08BADF864
:1059000002000BF051FC008CADF804000BF04CFCD5
:10591000408CADF806000BF047FC054614222946E2
:10592000124803F0A5FB00BF0EE00BF03DFC30F881
:1059300014004FF6FF71884204D10BF035FC0021B2
:1059400020F81410601C84B2142CEEDB0BF02CFC3D
:10595000BDF8001081830BF027FCBDF80210C18355
:105960000BF022FCBDF8041001847CBD00FC030890
:105970001CB500200090019006220F490F480EF040
:10598000DBFC0D49891D062268460EF0D5FC00207F
:1059900008E00A49095C1DF800201144074A115427
:1059A000411CC8B20628F4DB0448007800F0FE0071
:1059B000024908701CBD0000E8F7FF1FF600002038
:1059C00070B54FF4C8600EF0A1FC05462C4614A239
:1059D00014A1204612F032FB083411A212A1204675
:1059E00012F02CFB08340EA210A1204612F026FB68
:1059F00008340BA20EA1204612F020FB08340DA2A1
:105A00000DA1204612F01AFB083420460BF048FD89
:105A10002846FEF7A5FC28460EF064FC70BD000089
:105A2000312F320035000000340000003300000048
:105A300032000000312F31003100000070B54FF40A
:105A4000C8600EF063FC05462C46FEA2FEA120466F
:105A500012F0F4FA0834FDA2FDA1204612F0EEFA8D
:105A60000834FCA2FCA1204612F0E8FA0834FBA29C
:105A7000FBA1204612F0E2FA0834F6A2F9A1204672
:105A800012F0DCFA0834F1A2F3A1204612F0D6FAA3
:105A90000834F0A2EEA1204612F0D0FA0834EDA2AC
:105AA000EDA1204612F0CAFA0834EAA2E8A1204685
:105AB00012F0C4FA0834E3A2E9A1204612F0BEFABB
:105AC0000834E9A2E9A1204612F0B8FA0834DDA2B0
:105AD000DDA1204612F0B2FA0834DCA2DCA1204697
:105AE00012F0ACFA0834DBA2DBA1204612F0A6FAD1
:105AF0000834DAA2DAA1204612F0A0FA0834D5A2BE
:105B0000D8A1204612F09AFA0834D2A2D2A1204697
:105B100012F094FA0834CBA2CDA1204612F08EFAEE
:105B20000834CEA2C8A1204612F088FA0834C5A2D3
:105B3000C7A1204612F082FA0834C8A2C8A12046A4
:105B400012F07CFA0834BFA2BFA1204612F076FA08
:105B50000834BCA2C2A1204612F070FA0834BDA2DB
:105B6000BBA1204612F06AFA0834BAA2BAA12046B4
:105B700012F064FA0834B9A2B5A1204612F05EFA18
:105B80000834B0A2B7A1204612F058FA0834ADA2EA
:105B9000B1A1204612F052FA0834ACA2ACA12046C2
:105BA00012F04CFA0834A7A2ADA1204612F046FA32
:105BB0000834ADA2ADA1204612F040FA0834A1A2EB
:105BC000A1A1204612F03AFA08349EA2A4A12046D0
:105BD00012F034FA08349BA29BA1204612F02EFA50
:105BE000083498A2A2A1204612F028FA083495A2FF
:105BF0009BA1204612F022FA083492A29CA12046D2
:105C000012F01CFA08348FA29AA1204612F016FA5C
:105C1000083492A298A1204612F010FA083497A2F4
:105C200093A1204612F00AFA08348AA28CA12046D9
:105C300012F004FA083489A283A1204612F0FEF97A
:105C4000083480A286A1204612F0F8F908347FA219
:105C500087A1204612F0F2F908347EA281A12046E5
:105C600012F0ECF9083486A27DA1204612F0E6F984
:105C7000083478A280A1204612F0E0F9083475A219
:105C80007CA1204612F0DAF9083472A278A12046ED
:105C900012F0D4F908346FA26BA1204612F0CEF9AD
:105CA00008346CA277A1204612F0C8F9083465A226
:105CB00065A1204612F0C2F9083466A268A1204608
:105CC00012F0BCF9083465A265A1204612F0B6F9BD
:105CD000083460A262A1204612F0B0F908345FA235
:105CE00059A1204612F0AAF908345AA25CA1204614
:105CF00012F0A4F9083453A25DA1204612F09EF9D7
:105D0000083450A250A1204612F098F9083451A24C
:105D100054A1204612F092F908344EA250A1204618
:105D200012F08CF9083447A249A1204612F086F9F6
:105D3000083444A248A1204612F080F9083441A258
:105D400043A1204612F07AF908344FA244A120461C
:105D500012F074F908343FA241A1204612F06EF906
:105D600008343EA238A1204612F068F9083435A262
:105D70003BA1204612F062F9083434A23CA120462F
:105D800012F05CF9083433A236A1204612F056F91D
:105D9000083430A232A1204612F050F908342DA266
:105DA00035A1204612F04AF908342AA231A1204632
:105DB00012F044F9083427A22DA1204612F03EF932
:105DC000083424A220A1204612F038F9083421A278
:105DD0002CA1204612F032F908341AA21AA120464A
:105DE00012F02CF9083420A21DA1204612F026F949
:105DF000083418A21AA1204612F020F9083417A27C
:105E000011A1204612F01AF9083412A214A120465A
:105E100012F014F908340BA21CA1204612F00EF95E
:105E200008340AA214A1204612F008F9083409A285
:105E300016A1204612F002F9083408A20DA120464E
:105E400026E00000312F310036000000332F3200F1
:105E500032000000312F320031000000322F3100BB
:105E60003300000030000000352F3200365F0000A4
:105E700037000000317E0000327E0000362F3100F6
:105E8000312F330035000000332F3100337E000006
:105E900012F0D4F80834AFF25402AFF22C012046CD
:105EA00012F0CCF80834AFF22C02AFF264012046B5
:105EB00012F0C4F8083420460BF0F2FA2846FEF738
:105EC0004FFA28460EF00EFA70BD000070B54FF480
:105ED000C8600EF01BFA05462C46FEA2FEA1204625
:105EE00012F0ACF80834FDA2FDA1204612F0A6F88D
:105EF0000834F8A2F8A1204612F0A0F80834F9A25C
:105F0000F9A1204612F09AF80834F4A2F7A120462D
:105F100012F094F80834F6A2F1A1204612F08EF89F
:105F20000834ECA2F3A1204612F088F80834EBA262
:105F3000E9A1204612F082F80834E6A2EDA120463D
:105F400012F07CF80834E7A2E8A1204612F076F8B7
:105F50000834E0A2E4A1204612F070F80834DDA273
:105F6000DFA1204612F06AF80834E1A2DAA1204647
:105F700012F064F80834E0A2DBA1204612F05EF8CB
:105F80000834D8A2DDA1204612F058F80834DAA26D
:105F9000D5A1204612F052F80834D0A2D7A120464D
:105FA00012F04CF80834CBA2D5A1204612F046F8E6
:105FB0000834C8A2D3A1204612F040F80834CEA27B
:105FC000C9A1204612F03AF80834C6A2C4A120465E
:105FD00012F034F80834BFA2C4A1204612F02EF803
:105FE0000834BEA2C0A1204612F028F80834B9A295
:105FF000C4A1204612F022F80834B6A2BAA1204665
:1060000012F01CF80834C0A2B8A1204612F016F80D
:106010000834B2A2B0A1204612F010F80834AFA2A2
:10602000B1A1204612F00AF80834AAA2AFA1204676
:1060300012F004F80834A7A2ABA1204611F0FEFF2D
:106040000834A6A2A4A1204611F0F8FF0834AFA29C
:10605000A3A1204611F0F2FF0834A0A2A2A120467D
:1060600011F0ECFF08349BA2A0A1204611F0E6FF3E
:10607000083498A29FA1204611F0E0FF083495A2B1
:10608000A3A1204611F0DAFF083492A296A120467F
:1060900011F0D4FF08348FA294A1204611F0CEFF56
:1060A00008348CA28CA1204611F0C8FF083489A2C4
:1060B0008BA1204611F0C2FF083486A28BA1204696
:1060C00011F0BCFF083490A287A1204611F0B6FF62
:1060D000083489A284A1204611F0B0FF083481A2BF
:1060E00086A1204611F0AAFF08347AA27EA120469C
:1060F00011F0A4FF083479A280A1204611F09EFF80
:10610000083474A27EA1204611F098FF083471A2D1
:106110007CA1204611F092FF083477A272A120469C
:1061200011F08CFF08346BA275A1204611F086FF98
:10613000083468A26DA1204611F080FF083465A2E2
:1061400073A1204611F07AFF083462A26DA12046A7
:1061500011F074FF08345FA263A1204611F06EFFB6
:1061600008345CA261A1204611F068FF08345BA2EC
:106170005BA1204611F062FF083464A25BA12046B7
:1061800011F05CFF083455A257A1204611F056FFCC
:10619000083450A255A1204611F050FF08344DA2FA
:1061A00054A1204611F04AFF08344AA258A12046C3
:1061B00011F044FF083447A24BA1204611F03EFFE6
:1061C000083444A24BA1204611F038FF083441A204
:1061D00041A1204611F032FF083440A24DA12046D3
:1061E00011F02CFF083449A23BA1204611F026FFF4
:1061F00008343AA23CA1204611F020FF083443A203
:106200003FA1204611F01AFF083432A236A12046E1
:1062100011F014FF08342FA239A1204611F00EFF0F
:10622000083430A235A1204611F008FF083429A215
:1062300039A1204611F002FF083426A237A12046DA
:1062400011F0FCFE083423A22CA1204611F0F6FE2A
:10625000083422A22AA1204611F0F0FE08342AA216
:1062600026A1204611F0EAFE083423A22AA12046E6
:1062700011F0E4FE08341BA228A1204611F0DEFE36
:10628000083418A21DA1204611F0D8FE083424A21B
:106290001BA1204611F0D2FE08340EA217A1204601
:1062A00011F0CCFE083418A20FA1204611F0C6FE52
:1062B000083411A218A1204611F0C0FE083409A22A
:1062C00016A1204611F0BAFE083406A20BA1204602
:1062D00028E00000312F3200365F0000312F3100FE
:1062E00031000000332F3200330000003200000084
:1062F000372F3200375F0000322F310036000000A8
:106300003500000034000000342F3100332F3100FD
:1063100030000000355F0000317E000037000000D3
:10632000352F320011F08AFE0834AFF20C02AFF2C2
:106330003001204611F082FE0834AFF26802AFF25D
:106340004401204611F07AFE0834AFF24402AFF265
:106350006801204611F072FE0834AFF28002AFF2FD
:106360008801204611F06AFE0834AFF29002AFF2C5
:106370009001204611F062FE0834AFF2A002AFF2A5
:106380009401204611F05AFE0834AFF2A802AFF291
:10639000A801204611F052FE0834AFF2C802AFF255
:1063A000C001204611F04AFE0834AFF2D002AFF22D
:1063B000C801204611F042FE0834AFF2B002AFF23D
:1063C000D401204611F03AFE0834AFF2F802AFF2E1
:1063D000E401204611F032FE0834AFF20812AFF2A9
:1063E000EC01204611F02AFE0834AFF21812AFF289
:1063F000E001204611F022FE0834AFF22812AFF27D
:106400001811204611F01AFE0834AFF23812AFF21C
:106410001C11204611F012FE0834AFF24812AFF200
:106420004811204611F00AFE0834AFF25012AFF2C4
:106430001C11204611F002FE0834AFF23412AFF204
:106440006811204611F0FAFD0834AFF27812AFF26D
:106450007811204611F0F2FD0834AFF28012AFF24D
:106460008011204611F0EAFD0834AFF29812AFF225
:106470008411204611F0E2FD0834AFF29812AFF219
:106480009811204611F0DAFD0834AFF2B812AFF2DD
:10649000B011204611F0D2FD0834AFF2C012AFF2B5
:1064A000B811204611F0CAFD0834AFF2A012AFF2C5
:1064B000C411204611F0C2FD0834AFF2E012AFF271
:1064C000D811204611F0BAFD0834AFF2D412AFF261
:1064D000D011204611F0B2FD0834AFF20022AFF225
:1064E000F811204611F0AAFD0834AFF20822AFF2ED
:1064F000D411204611F0A2FD0834AFF22822AFF2E9
:106500002021204611F09AFD0834AFF23822AFF274
:10651000F411204611F092FD0834AFF24822AFF298
:106520002421204611F08AFD0834AFF25022AFF248
:106530003021204611F082FD083408A2AFF2442138
:10654000204611F07BFD083420460AF0A9FF2846BA
:10655000FDF706FF28460DF0C5FE70BD372F310050
:1065600070B54FF4C8600DF0D1FE05462C46FEA272
:10657000FEA1204611F062FD0834FDA2FDA12046D7
:1065800011F05CFD0834FCA2FCA1204611F056FD80
:106590000834FBA2FBA1204611F050FD0834F4A200
:1065A000F2A1204611F04AFD0834F1A2F3A12046E1
:1065B00011F044FD0834ECA2EEA1204611F03EFD9E
:1065C0000834EBA2F0A1204611F038FD0834EFA208
:1065D000E8A1204611F032FD0834EDA2E3A12046E7
:1065E00011F02CFD0834E6A2E6A1204611F026FDAC
:1065F0000834DDA2DDA1204611F020FD0834DCA224
:10660000DCA1204611F01AFD0834DBA2DBA12046F4
:1066100011F014FD0834DAA2DAA1204611F00EFDC3
:106620000834D3A2D1A1204611F008FD0834D0A22D
:10663000D2A1204611F002FD0834CBA2D5A12046FC
:1066400011F0FCFC0834CAA2CCA1204611F0F6FCE3
:106650000834CEA2CFA1204611F0F0FC0834C2A22B
:10666000CDA1204611F0EAFC0834C5A2C5A1204600
:1066700011F0E4FC0834C2A2BCA1204611F0DEFCFB
:106680000834C6A2C6A1204611F0D8FC0834BCA22A
:10669000BAA1204611F0D2FC0834B5A2BDA1204613
:1066A00011F0CCFC0834B2A2B4A1204611F0C6FC13
:1066B0000834B3A2B7A1204611F0C0FC0834B0A240
:1066C000B0A1204611F0BAFC0834ADA2AEA120461C
:1066D00011F0B4FC0834A4A2AFA1204611F0AEFC26
:1066E0000834AAA2ABA1204611F0A8FC0834A2A24B
:1066F000A2A1204611F0A2FC08349DA2A1A120462F
:1067000011F09CFC08349EA2A2A1204611F096FC38
:10671000083497A299A1204611F090FC083494A265
:1067200092A1204611F08AFC08348FA299A120463C
:1067300011F084FC08348EA28CA1204611F07EFC5E
:1067400008348BA28DA1204611F078FC083488A271
:1067500086A1204611F072FC083483A287A120464E
:1067600011F06CFC083482A28AA1204611F066FC6C
:10677000083483A28AA1204611F060FC083489A263
:1067800085A1204611F05AFC08347BA282A1204644
:1067900011F054FC08347AA27AA1204611F04EFC84
:1067A000083477A280A1204611F048FC08346EA27C
:1067B0007EA1204611F042FC083471A27CA1204643
:1067C00011F03CFC08346AA27AA1204611F036FC94
:1067D000083467A274A1204611F030FC083464A28A
:1067E00074A1204611F02AFC083465A26EA120464F
:1067F00011F024FC08345EA26EA1204611F01EFCAC
:1068000008345BA25FA1204611F018FC08345CA29A
:1068100065A1204611F012FC083455A265A120465E
:1068200011F00CFC083450A263A1204611F006FCC4
:10683000083453A25CA1204611F000FC08344CA29D
:106840005EA1204611F0FAFB08344BA256A1204667
:1068500011F0F4FB08344AA24AA1204611F0EEFBE5
:10686000083447A250A1204611F0E8FB08343EA2AC
:106870004EA1204611F0E2FB083441A24CA1204673
:1068800011F0DCFB08343AA24AA1204611F0D6FBF5
:10689000083437A244A1204611F0D0FB083434A2BA
:1068A00044A1204611F0CAFB083435A23EA120467F
:1068B00011F0C4FB08342EA23EA1204611F0BEFB0D
:1068C00008342BA22FA1204611F0B8FB08342CA2CB
:1068D00035A1204611F0B2FB083425A235A120468F
:1068E00011F0ACFB083420A233A1204611F0A6FB26
:1068F00008341FA231A1204611F0A0FB083420A2C9
:106900002DA1204611F09AFB08341BA226A1204697
:1069100011F094FB08341AA21AA1204611F08EFB44
:10692000083417A220A1204611F088FB08340EA2DB
:106930001EA1204611F082FB083411A21CA12046A2
:1069400011F07CFB08340AA21AA1204611F076FB54
:10695000083407A214A1204611F070FB083404A2E9
:1069600014A120462CE00000322F3200365F0000D8
:10697000312F3400375F0000352F34003100000024
:10698000312F320030000000355F0000332F34001B
:10699000342F32003200000033000000332F320069
:1069A00034000000382F340036000000337E000031
:1069B000327E0000317E000037000000350000000C
:1069C00011F03CFB0834AFF24802AFF2240120463C
:1069D00011F034FB0834AFF26802AFF22801204610
:1069E00011F02CFB0834AFF27802AFF268012046B8
:1069F00011F024FB0834AFF27802AFF254012046C4
:106A000011F01CFB0834AFF29802AFF25801204697
:106A100011F014FB0834AFF2B002AFF2640120466B
:106A200011F00CFB0834AFF2A802AFF2840120464B
:106A300011F004FB0834AFF2C802AFF28001204627
:106A400011F0FCFA0834AFF2D002AFF2B4012046E4
:106A500011F0F4FA0834AFF2D802AFF2D8012046B0
:106A600011F0ECFA0834AFF2E802AFF2C4012046AC
:106A700011F0E4FA0834AFF2EC02AFF2D001204694
:106A800011F0DCFA0834AFF208122FA1204611F001
:106A9000D5FA0834AFF21812AFF2F001204611F027
:106AA000CDFA0834AFF22812AFF2FC01204611F003
:106AB000C5FA0834AFF23812AFF20811204611F0CF
:106AC000BDFA0834AFF25812AFF21C11204611F093
:106AD000B5FA0834AFF24C12AFF23411204611F07F
:106AE000ADFA0834AFF28012AFF23C11204611F03B
:106AF000A5FA0834AFF27812AFF24811204611F02F
:106B00009DFA0834AFF27C12AFF25411204611F016
:106B100095FA0834AFF29812AFF26811204611F0DE
:106B20008DFA0834AFF28C12AFF28411204611F0C6
:106B300085FA083420460AF0B3FC2846FDF710FC1D
:106B400028460DF0CFFB70BD357E000070B54FF4C8
:106B500016600DF0DBFB05462C46FEA2FEA120468A
:106B600011F06CFA0834FDA2FDA1204611F066FA7E
:106B70000834FCA2FCA1204611F060FA0834F7A208
:106B8000FAA1204611F05AFA0834F4A2F6A12046E0
:106B900011F054FA0834F3A2EFA1204611F04EFA96
:106BA0000834EEA2F2A1204611F048FA0834EBA214
:106BB000E9A1204611F042FA0834EAA2EDA12046EC
:106BC00011F03CFA0834E5A2EBA1204611F036FAA8
:106BD0000834E2A2E6A1204611F030FA0834DDA222
:106BE000DDA1204611F02AFA0834DCA2DEA12046FD
:106BF00011F024FA0834D9A2DCA1204611F01EFAC3
:106C00000834D8A2DDA1204611F018FA0834DCA21D
:106C1000D3A1204611F012FA0834D9A2D9A12046F6
:106C200011F00CFA0834D8A2D4A1204611F006FACB
:106C30000834D5A2D0A1204611F000FA0834C5A22C
:106C4000C5A1204611F0FAF90834C4A2C4A1204617
:106C500011F0F4F90834C3A2C3A1204611F0EEF9F3
:106C60000834BEA2C1A1204611F0E8F90834BBA245
:106C7000BDA1204611F0E2F90834BAA2B6A120461F
:106C800011F0DCF90834B5A2B9A1204611F0D6F90B
:106C90000834B2A2B0A1204611F0D0F90834B1A254
:106CA000B4A1204611F0CAF90834ACA2B2A1204622
:106CB00011F0C4F90834A9A2B4A1204611F0BEF91C
:106CC0000834A6A2ABA1204611F0B8F90834A3A25B
:106CD000A7A1204611F0B2F90834A0A29EA1204637
:106CE00011F0ACF908349DA2A0A1204611F0A6F93C
:106CF00008349CA298A1204611F0A0F9083499A26A
:106D00009BA1204611F09AF908349FA292A1204637
:106D100011F094F9083493A297A1204611F08EF94E
:106D200008348EA291A1204611F088F908348BA274
:106D300092A1204611F082F9083488A288A1204649
:106D400011F07CF9083485A28CA1204611F076F967
:106D5000083482A282A1204611F070F908347DA285
:106D600088A1204611F06AF908347CA27CA1204653
:106D700011F064F9083479A280A1204611F05EF97F
:106D8000083478A279A1204611F058F9083473A28A
:106D900071A1204611F052F9083470A274A1204666
:106DA00011F04CF908346FA272A1204611F046F997
:106DB00008346AA26DA1204611F040F9083467A298
:106DC0006EA1204611F03AF9083464A264A120466D
:106DD00011F034F9083461A268A1204611F02EF9AF
:106DE00008345EA25EA1204611F028F908345BA2A7
:106DF00064A1204611F022F9083458A258A1204677
:106E000011F01CF9083455A25CA1204611F016F9C6
:106E100008345BA255A1204611F010F908345CA299
:106E20004DA1204611F00AF9083457A24CA1204682
:106E300011F004F9083449A24CA1204611F0FEF8E3
:106E4000083446A24DA1204611F0F8F8083443A2B8
:106E500043A1204611F0F2F8083440A247A1204691
:106E600011F0ECF808343DA23DA1204611F0E6F8FF
:106E7000083438A243A1204611F0E0F8083437A2C4
:106E800037A1204611F0DAF8083434A23BA120469D
:106E900011F0D4F8083431A234A1204611F0CEF814
:106EA000083437A235A1204611F0C8F8083434A2BE
:106EB0002EA1204611F0C2F8083428A226A12046AF
:106EC00011F0BCF8083425A229A1204611F0B6F82B
:106ED000083424A227A1204611F0B0F808341FA2DC
:106EE00025A1204611F0AAF808341CA220A12046B2
:106EF00011F0A4F8083419A217A1204611F09EF849
:106F0000083416A21AA1204611F098F8083413A2EA
:106F100011A1204611F092F8083410A210A12046C9
:106F200011F08CF808340DA20BA1204611F086F860
:106F300008340AA20EA1204611F080F8083407A2F6
:106F400005A1204611F07AF8083404A208A12046D1
:106F500020E00000332F320036000000312F3200D5
:106F6000337E0000322F320037000000317E0000F7
:106F7000350000003300000030000000327E0000C9
:106F8000312F3400357E0000342F320032000000F3
:106F9000332F340011F052F80834AFF21402AFF27C
:106FA0004801204611F04AF80834AFF24802AFF227
:106FB0003801204611F042F80834AFF26002AFF217
:106FC0006001204611F03AF80834AFF27002AFF2D7
:106FD0004C01204611F032F80834AFF28002A6A12D
:106FE000204611F02BF80834AFF29002AFF26C019A
:106FF000204611F023F80834AFF2A002AFF2A0014E
:10700000204611F01BF80834AFF2A802AFF2940149
:10701000204611F013F80834AFF2C002AFF2B40109
:10702000204611F00BF80834AFF2D002AFF2D801CD
:10703000204611F003F80834AFF2D802AFF2C401D1
:10704000204610F0FBFF0834AFF2F002AFF2CC01A3
:10705000204610F0F3FF0834AFF20812AFF200112F
:10706000204610F0EBFF0834AFF21012AFF2F80137
:10707000204610F0E3FF0834AFF2FC02AFF220111B
:10708000204610F0DBFF0834AFF20C12AFF20C1107
:10709000204610F0D3FF0834AFF2381276A1204614
:1070A00010F0CCFF0834AFF24C12AFF2281120469A
:1070B00010F0C4FF0834AFF25C12AFF25C1120464E
:1070C00010F0BCFF0834AFF26412AFF2501120464A
:1070D00010F0B4FF0834AFF27C12AFF27C112046FE
:1070E00010F0ACFF0834AFF28C12AFF268112046FA
:1070F00010F0A4FF0834AFF27012AFF29C112046DA
:1071000010F09CFF0834AFF2A412AFF294112046A5
:1071100010F094FF0834AFF2BC12AFF2BC1120465D
:1071200010F08CFF0834AFF2CC12AFF2A811204659
:1071300010F084FF0834AFF2D4124FA1204610F0B3
:107140007DFF0834AFF2EC12AFF2C811204610F008
:1071500075FF0834AFF2FC12AFF2FC11204610F0BC
:107160006DFF0834AFF20422AFF2F011204610F0A8
:1071700065FF0834AFF21422AFF21021204610F060
:107180005DFF0834AFF22422AFF22421204610F034
:1071900055FF0834AFF23422AFF22C21204610F014
:1071A0004DFF0834AFF24422AFF24021204610F0E8
:1071B00045FF0834AFF25C22AFF26421204610F0A4
:1071C0003DFF0834AFF26C22AFF25C21204610F094
:1071D00035FF0834AFF27422AFF28421204610F05C
:1071E0002DFF0834AFF28C22AFF27421204610F04C
:1071F00025FF0834AFF29C22AFF29021204610F018
:107200001DFF0834AFF2AC22AFF2A421204610F0EB
:1072100015FF0834AFF29822AFF2B021204610F0EB
:107220000DFF0834AFF2A822AFF2C421204610F0BF
:1072300005FF0834AFF2DC22AFF2E421204610F063
:10724000FDFE0834AFF2EC22AFF2DC21204610F054
:10725000F5FE083409A2AFF20031204610F0EEFE30
:10726000083420460AF01CF92846FDF779F828462C
:107270000DF038F870BD0000367E0000362F320069
:1072800070B54FF4C8600DF041F805462C4614A2C5
:1072900014A1204610F0D2FE083411A212A12046FB
:1072A00010F0CCFE08340EA210A1204610F0C6FE4D
:1072B00008340BA20EA1204610F0C0FE08340DA227
:1072C0000DA1204610F0BAFE083420460AF0E8F876
:1072D0002846FDF745F828460DF004F870BD00007B
:1072E000312F320031000000320000003300000076
:1072F00034000000312F3100350000002DE9FF4738
:1073000004460D4616469946002003900296002733
:107310008046009002A80EF0F7FF8DF80C0003984D
:10732000C0F30310022800D01FE001A9029800F06A
:107330004DF88046029908440290DDE90110471893
:107340000298381A022800DA0FE002A80EF0DCFFDB
:107350008DF80000009800F00100207002A80EF0E7
:10736000D3FF28704FF0010800BF404604B0BDE8CD
:10737000F0872DE9F84305460C460126002700203A
:10738000206000BF4FF0FF38781C0746042801DD5D
:1073900000BF17E001216846A8478046B8F1010FF9
:1073A00000D00FE09DF8001001F07F01206801FB84
:1073B00006002060F6019DF8000000F08000002823
:1073C000E0D100BF3846BDE8F883000070B5044640
:1073D0000D460348046029460248FFF7CAFF70BD06
:1073E00028020020E1B5000830B50246002300BFA6
:1073F0000846CD1701EB5565ED11A1EBC515ECB2B3
:10740000CD1701EB5565E911002901DD44F0800439
:1074100018465B1C14540029EADC184630BD0000F5
:10742000401C802801DA401C0AE0B0F5804F01DAE8
:10743000801C05E00349884201DAC01C00E0001D01
:1074400070470000FFFF1F002DE9FE4305460E4672
:107450001446029500200190009000274FF0FF385D
:10746000204600F0A5F807468146FFF7D9FFB04255
:1074700002DD6FF001088FE000208DF80400019814
:1074800020F0F000103001909DF8041002A811F0D7
:10749000F7FA39460298FFF7A7FF029908440290CD
:1074A000207A042808D13EA102A811F0D5FA0421BF
:1074B00002A811F0E5FA07E03BA102A811F0CCFA0E
:1074C000032102A811F0DCFA00208DF80000A17E53
:1074D000009861F341000090E07E08B1012100E0D6
:1074E0000021009861F3820000900098C0F38000B2
:1074F00058B194F83D10009861F3C400009094F8DE
:107500003C10009861F345100090206C08B9A06C05
:1075100020B1009820F0800080300090E06C08B925
:10752000606D20B1009820F04000403000909DF840
:10753000001002A811F0A4FA218B02A811F0A6FAFB
:1075400002A8D4E90423E16811F0B8FAE07E58B14A
:1075500002A8D4E90A23616A11F0B0FA02A8D4E9BA
:107560000D23216B11F0AAFA0098C0F3C01028B1C6
:1075700002A8D4E91123216C11F0A0FA0098C0F3FD
:10758000801028B102A8D4E91423E16C11F096FA16
:107590000298A0EB050800BF4046BDE8FE8300004E
:1075A0004D515454000000004D5149736470000067
:1075B00070B504460025207A032801D10C2503E08C
:1075C000207A042800D10A25D4E90412E06800F0EA
:1075D0002AF8801C0544E07E68B1D4E90A12606A8A
:1075E00000F021F8861CD4E90D12206B00F01BF886
:1075F0003044801C0544206C08B9A06C30B1D4E93B
:107600001112206C00F00FF8801C0544E06C08B9E2
:10761000606D30B1D4E91412E06C00F004F8801C05
:107620000544284670BD37B50024009820B1009865
:10763000FBF74EFC044600E0019C20463EBD00F0F6
:107640004FF800F04DF8000070B5002100230F2224
:10765000C47804B3154C246804F4E064C4F5E06411
:10766000210AC1F10403CA40447804FA03F1847882
:107670001440214309010E4C0678A155047804F00A
:107680001F050124AC4005786D11AD0005F1E02522
:10769000C5F8004109E0047804F01F050124AC405E
:1076A000044D0678761145F8264070BD0CED00E0DB
:1076B00000E400E080E100E002490143024A116079
:1076C000704700000000FA050CED00E0024A0A4095
:1076D0000243024B1A60704780FFFF1F08ED00E075
:1076E0000648006800F4E06005490843001D0349AE
:1076F0000860BFF3408F00BFFEE700000CED00E024
:107700000000FA0510B50D480068B0B90C480068D3
:10771000FBF716FA0B490860084600680A4908603A
:107720000A480849096800EB411009490860084601
:10773000006808490860FBF7C0F910BD440000204C
:10774000680000204C00002048000020141A00208F
:10775000540000205000002070B5044610464FF041
:1077600080750560051F28462C606FF00106051F17
:1077700028462E604FF01236051F28462E604FF027
:107780000336051F28462E604FF00236051F284697
:107790002E607610051F28462E60051F284629609A
:1077A0004FF01136051F28462E604FF01036051F8A
:1077B00028462E604FF00936051F28462E604FF0F0
:1077C0000836051F28462E604FF00736051F28464D
:1077D0002E604FF00636051F28462E604FF0053606
:1077E000051F28462E604FF00436051F28462E60E0
:1077F00070BD000010B5FBF759F904460648007843
:10780000401C054908700548007805490870204665
:10781000FBF750F910BD0000640000204C00002070
:107820006C00002010B5FBF741F9044609480078C8
:1078300020B108480078401E0649087005480078C5
:1078400010B92020044908702046FBF733F902F0F4
:1078500097FE10BD640000206C00002010B50346A8
:10786000074800EB42100160054800EB42104360FE
:107870004FF00040024C04EB4214E060002010BDC9
:10788000141A0020014908627047000000000E42EF
:10789000024800880A300149088070476C010020C6
:1078A00029B1064AD2690243044BDA6104E0034A73
:1078B000D2698243014BDA61704700000010024038
:1078C00029B1064A12690243044B1A6104E0034AD3
:1078D00012698243014B1A61704700000010024098
:1078E00029B1064A92690243044B9A6104E0034AB3
:1078F00092698243014B9A61704700000010024078
:1079000029B1064AD2680243044BDA6004E0034A14
:10791000D2688243014BDA607047000000100240D9
:1079200001490860704700004004424230B5002120
:107930000022002400232D4D6D6805F00C0121B1BB
:10794000042905D0082923D105E0294D056022E04E
:10795000274D05601FE0254D6D6805F47012234D1D
:107960006D6805F48034022505EB92421CB9214D67
:10797000554305600BE01D4D6D6805F400351DB1E4
:107980001C4D5543056002E0194D5543056002E06A
:10799000174D056000BF00BF144D6D6805F0F00184
:1079A0000909154D6B5C0568DD4045600F4D6D683C
:1079B00005F4E061090A104D6B5C4568DD408560A7
:1079C0000A4D6D6805F46051C90A0B4D6B5C456842
:1079D000DD40C560054D6D6805F44041890B074DDC
:1079E0006B5CC568B5FBF3F5056130BD0010024066
:1079F00000127A0000093D00180000202800002035
:107A000010B501460022002300204A11012A02D1AC
:107A1000094C236806E0022A02D1074C236A01E0E0
:107A2000054C636A01F01F02012494401C400CB114
:107A3000012000E0002010BD0010024000210B4A90
:107A400011700A4A203A82F82010012802D0042836
:107A500008D103E00121054A117004E00521034A21
:107A6000117000E000BF00BF70470000201002400E
:107A700001490860704700003C0442420249096A1B
:107A80000143014A116270470010024070B504467C
:107A90000D4602F09BFD0E490968884201D0002086
:107AA00070BD0DB90020FBE70BE000BF8021094845
:107AB00002F0BAFE0028F9D020780649091D088096
:107AC000641C2800A5F10101CDB2EED100BFE7E7AB
:107AD0004C0000200038014070B505460E460024D9
:107AE0000B48008838B100BF03E000202855601C17
:107AF00084B2B442F9DB002404E0FDF799FA28557A
:107B0000601C84B2024800880028F6D1204670BD6F
:107B1000C20000202DE9F04105460E46002400BFBA
:107B200003E000202855601C84B2B442F9DB002435
:107B300042F2107809E0A8F101001FFA80F8B8F1CC
:107B4000000F02D10020BDE8F08121480078002814
:107B5000F1D020480068002838D0002400270CE02D
:107B600001F0DAFBFF2804D101F0EAFBFF2800D185
:107B700005E0FDF75DFA781C87B2322FF0DB00BF1D
:107B8000002410E0FDF754FA2855601C84B2B4427A
:107B900000D10CE001F0C0FBFF2804D101F0D0FBC4
:107BA000FF2800D103E00C4800880028EAD100BF7C
:107BB0000948008850B90020084908800849086031
:107BC0000849088001200849C1F894012046BAE715
:107BD000C400002020012142C2000020BC0000207F
:107BE00094012742BE0000200000274210B586B055
:107BF000044601210420FFF773FE01218803FFF7EB
:107C00006FFE464802F0C2FD4FF48070ADF81400DC
:107C100004208DF8170003208DF8160005A94048B0
:107C2000FDF77CF84FF480713D48FDF74DF94FF4B6
:107C30000060ADF8140010208DF8170003208DF8B7
:107C4000160005A93648FDF769F84FF4006134487D
:107C5000FDF738F94FF48050ADF8140010208DF87E
:107C6000170003208DF8160005A92D48FDF756F8DA
:107C70004FF480512A48FDF725F94FF40070ADF814
:107C8000140002208DF8160018208DF8170005A9A1
:107C90002348FDF743F84FF48060ADF8140004204A
:107CA0008DF8170005A91E48FDF738F825208DF836
:107CB000000000208DF801008DF8020001208DF8F1
:107CC00003006846FFF7C0FC01940020ADF80800EF
:107CD000ADF80A00ADF80C00ADF810000C20ADF8BE
:107CE0000E0000210D4802F044FD0C4802F04EFD4C
:107CF00001A90A4802F0F4FD012240F2255107488B
:107D000002F0C9FD012240F22441044802F0C3FD03
:107D10000121024802F02DFD06B010BD00380140DF
:107D2000000801401FB504464FF41650FFF75EFFF0
:107D300001201F4908601F49C1F8AC01642008F008
:107D4000B7FA1DA103C9CDE902018DF80C401CE072
:107D5000062102A8FFF79AFE4FF4FA7008F0A8FA7D
:107D600000200090019006216846FFF7B5FE6946A5
:107D700013A00FF06DF900B108E09DF804009DF824
:107D80000C10884200D101E000BFE1E700BF0020F5
:107D9000074908600749C1F8AC01642008F088FA77
:107DA0004FF4E130FFF722FF002004B010BD0000C7
:107DB000B001214200002142C200003A14400000FC
:107DC0004F4B0000024909888143014A11807047E6
:107DD000042800400348008840F010000149088052
:107DE0007047000004280040034800884FF6EF71F8
:107DF00008400149088070470428004070B50026FB
:107E00000024002500F07AF806463848B6FBF0F466
:107E100037480088A0423CD035490C8040F2B2750A
:107E200010E02846FDF792FA40B1B4F5B77F02D3CF
:107E3000A4F5B77404E0681C85B206E0A4F26D14E2
:107E4000681C85B2B4F5B67FEBD800BF29488580A1
:107E5000002516E027498888FDF778FA30B1012D12
:107E600004D11D2C01D31D3C09E00CE02248405DEB
:107E7000A04203D82048405D241A00E003E0681CBB
:107E800085B21C2CE6D200BF681C1A498871601CA0
:107E9000C8711648B6FBF0F100FB11644FF4616045
:107EA000B4FBF0F0134908704FF46160B4FBF0F1DB
:107EB00000FB11403C21B0FBF1F00E4948704FF43B
:107EC0006160B4FBF0F100FB11403C21B0FBF1F22A
:107ED00001FB1200074988700B46DA799979988876
:107EE00000F030F803490872002070BD8051010095
:107EF0006E000020141E0020B0A5010800210348D8
:107F00000188001F008841EA004070471C2800409B
:107F100001460020064A12880A40D0B2044A121FC5
:107F200012880A4012B108B1012000E00020704719
:107F30000428004010B5FFF7E1FF10BD004870476E
:107F4000141E0020F0B503460C461546642093FB32
:107F5000F0F0C6B2642093FBF0F700FB1730C1B21B
:107F6000132E02DD01F16400C1B20846CF1701EB08
:107F7000977701EBA707BAB2072092FBF0F700FB57
:107F8000172082B25719601EDFF82CC01CF80000C1
:107F9000384482B2CF1701EB9777BF10A1EB870768
:107FA0001FB9032C01DA501E82B2072092FBF0F7B2
:107FB00000FB1720C0B2F0BDA4A5010810B5012038
:107FC000FFF7A6FF08B1FFF719FF0220FFF7A0FF98
:107FD00010B10220FFF7F6FE0520FFF7F3FE00F0D8
:107FE00015F910BD29B1064A12880243044B1A80C4
:107FF00004E0034A12888243014B1A807047000054
:10800000002800401CB500240420FCF7F3F845F2DA
:108010005001884247D001214FF0C050FFF740FC8B
:108020000120FFF72FFCFCF7DDF80120FFF706FD2C
:1080300004E0601CC4B20A2008F054F94120FFF7A4
:10804000DFFC0028F5D0FA2C01DB01201CBD4FF429
:108050008070FFF713FD0120FFF70AFD00F0D6F84E
:1080600000F0DEF801210846FFF7BCFF00F0CEF873
:10807000FFF7B0FE47F6FF7000F0A6F800F0C6F874
:10808000372000210A230222CDE900100C2140F202
:10809000D97000F027F8FFF7A7FE45F25001042041
:1080A000FCF7B6F807E000F0BBF801210846FFF73F
:1080B00099FF00F0ABF800F004F8FFF79FFE0020F6
:1080C000C4E708B503208DF8000001208DF80100F9
:1080D00003208DF8020001208DF803006846FFF7A9
:1080E000B3FA08BD2DE9F05F06460F469046994663
:1080F000DDE90AAB002440F2B270864203DB40F6B1
:108100003300864202DD0120BDE8F09F40F2B275E7
:108110000AE02846FDF71AF910B12048044401E0AE
:108120001F480444681C85B2B542F2DB781EC7B212
:10813000002510E01B48405D40F2A321484304EBBA
:10814000C0143046FDF702F918B1012D01D11648CF
:108150000444681C85B2BD42ECDBA8F1010040F28A
:10816000A321484304EBC014C9EB4910C0EB09201C
:1081700004EB0014CAEB0A1004EB80045C440121F8
:108180004FF0C050FFF78CFB0120FFF77BFB204630
:1081900000F00CF800F03AF80020B5E70085E201A5
:1081A0008033E101B0A501088051010000B502460D
:1081B000FFF710FE100C03490880091D0A80FFF725
:1081C00013FE00BD1828004000B50246FFF702FE6E
:1081D000C2F3034003490880091D0A80FFF704FE2B
:1081E00000BD00000828004010B5044601214FF0F2
:1081F000C050FFF755FB0120FFF744FB2046FFF777
:10820000D5FF00F003F8002010BD000000BF0348B8
:10821000008800F020000028F9D0704704280040B2
:10822000074800884FF6F77108400549088000BFED
:108230000348008800F008000028F9D070470000CB
:10824000042800402DE9F04780460D46262140468F
:1082500000F0D6F8064616B90020BDE8F08740F2D7
:10826000B450864200DD06462821404600F0C8F89A
:108270000746B946C7F30A0710213A48FCF722FE21
:10828000384600F03FFC182101EB4811C8B200F05D
:1082900029FC354800F0C9FE00F0FF0AB819B0F516
:1082A000006F11DA00240CE0002000F01BFC2E48C7
:1082B00000F0BBFE00F0FF0A85F800A06D1C601CFA
:1082C00084B2B442F0DB39E0C7F5006087B2002425
:1082D0000CE0002000F006FC234800F0A6FE00F0B1
