:020000040800F2
:1028000070240020852D0008692B00086D2B00081E
:10281000712B0008752B0008792B000800000000C0
:102820000000000000000000000000007D2B0008F8
:102830007F2B000800000000A7550008A7570008DC
:102840009F2D00089F2D00089F2D0008FB6D00089C
:102850009F2D00089F2D00089F2D00089F2D000828
:102860009F2D00089F2D000863C200089F2D0008BF
:102870009F2D00089F2D00089F2D00089F2D000808
:102880009F2D00089F2D00089F2D00089F2D0008F8
:102890009F2D00089F2D00089F2D00089F2D0008E8
:1028A0009F2D00089F2D00089F2D00089F2D0008D8
:1028B00005B500082BB5000841B500089F2D00089C
:1028C0009F2D00089F2D00089F2D00089F2D0008B8
:1028D0009F2D00080BA50008059000089F2D0008FB
:1028E0009F2D00089F2D00089F2D00089F2D000898
:1028F0009F2D00089F2D00089F2D00089F2D000888
:102900009F2D00089F2D00089F2D00089F2D000877
:102910009F2D00089F2D00089F2D00089F2D000867
:102920009F2D00089F2D00089F2D00089F2D000857
:1029300000F002F800F07EF80AA090E8000C824453
:102940008344AAF10107DA4501D100F073F8AFF230
:10295000090EBAE80F0013F0010F18BFFB1A43F07D
:102960000103184768C5010088C501000A444FF0FB
:10297000000C10F8013B13F0070408BF10F8014BDE
:102980001D1108BF10F8015B641E05D010F8016B23
:10299000641E01F8016BF9D113F0080F1EBF10F887
:1029A000014BAD1C0C1B09D16D1E58BF01F801CBAA
:1029B000FAD505E014F8016B01F8016B6D1EF9D52D
:1029C0009142D6D370470000002300240025002642
:1029D000103A28BF78C1FBD8520728BF30C148BF82
:1029E0000B60704766291AF0908565291AF08D856D
:1029F000642917F06584752917F06284782917F027
:102A00009B84732918F0EF81002070471FB517F0E1
:102A100070FD18F0EDF904000020002119F0D0FC41
:102A2000401C60600020002119F0E0FCE0601FBD48
:102A300010B510BD18F0DCFA1146FFF7E7FF00F003
:102A400033F818F0FAFA03B4FFF7F2FF03BC07F00B
:102A500023FB0000EFF30980704780F3098870477B
:102A6000EFF30880704780F30888704740BA7047DA
:102A7000C0BA70470B49D1F800C04A685CF8043B03
:102A80001068184442F8040B8C4528BFA1F1DC0CF7
:102A90008A4228BFA1F1DC02C1F800C04A6020F0E0
:102AA000004070470822002008B50CF031FF0020DC
:102AB00080231F4A014600901E4803F081FB02203C
:102AC00080231D4A002100901C4803F079FB03205D
:102AD0004FF480731A4A002100901A4803F070FBEB
:102AE00004208023184A00210090184803F068FB56
:102AF00007204FF48073164A00210090154803F018
:102B00005FFB08208023144A00210090134803F043
:102B100057FB1F204FF48073114A00210090114889
:102B200003F04EFB03F084FC0CF0FCFE002008BD1B
:102B3000400200200B5B010840040020016B0108EB
:102B4000400600206D7B0108400A0020418E0108EC
:102B5000400C0020C3980108401000203F88010865
:102B6000401200207195010800F00BF800F009F800
:102B700000F007F800F005F800F003F8704700F0E7
:102B800000F80648006800F4E06005490843001DAD
:102B900002490860BFF3408F00BFFEE70CED00E084
:102BA0000000FA050CB50020019000906C48006808
:102BB00040F480306A49086000BF6948006800F44A
:102BC000003000900198401C0190009818B90198BD
:102BD000B0F5A06FF1D16248006800F4003010B188
:102BE0000120009001E0002000900098012843D1CE
:102BF0005C48006840F010005A49086008460068C8
:102C000020F0030008600846006840F002000860F9
:102C10005348406852494860084640684860084642
:102C2000406840F4806048600846406820F47C10AA
:102C300048600846406840F4E8104860084600686C
:102C400040F08070086000BF4548006800F00070E8
:102C50000028F9D04248406820F00300404948600D
:102C60000846406840F00200486000BF3C484068A9
:102C700000F00C000828F9D10CBD10B5FFF792FF49
:102C800010BD10B53648006840F0010034490860B6
:102C900008464068344908403149486008460068A1
:102CA000324908402E4908600846006820F4802018
:102CB00008600846406820F4FE0048604FF41F009A
:102CC0008860FFF7DAFF4FF000602949086010BD07
:102CD00010B5002100200022214B5B6803F00C019D
:102CE00021B1042906D0082928D107E0214B224C24
:102CF000236027E01F4B204C236023E0184B5B68C8
:102D000003F47010164B5B6803F48032022303EB6C
:102D1000904022B9194B4343174C23600DE0104BF0
:102D20005B6803F4003323B1144B4343124C23601C
:102D300003E0104B4343104C236003E00D4B0E4C5B
:102D4000236000BF00BF064B5B68C3F303130C4C4A
:102D5000E15C094B1B68CB40074C236010BD0000B1
:102D600000100240002002400000FFF8FFFFF6FEC6
:102D700008ED00E000127A000400002000093D0088
:102D8000080000200948804709480047FEE7FEE7A1
:102D9000FEE7FEE7FEE7FEE7FEE7FEE7FEE7FEE70B
:102DA00004480549034A054B70470000832C00087E
:102DB0003129000870220020702400207022002099
:102DC00031490143314A1160704770B50021002339
:102DD0000F22C47804B32D4C246804F4E064C4F5D5
:102DE000E064210AC1F10403CA40447804FA03F103
:102DF0008478144021430901254C0678A1550478B4
:102E000004F01F050124AC4005786D11AD0005F1FB
:102E1000E025C5F8004109E0047804F01F0501240D
:102E2000AC401C4D0678761145F8264070BD1A4A14
:102E30000A400243154B1B1F1A60704739B1134AF1
:102E4000121D12680243114B1B1D1A6006E00F4A47
:102E5000121D126882430D4B1B1D1A607047042817
:102E600008D14FF0E021096941F004014FF0E02260
:102E7000116107E04FF0E021096921F004014FF0F2
:102E8000E0221161704700000000FA050CED00E03F
:102E900000E400E080E100E080FFFF1F10B50120AA
:102EA00000F0A0FF002000F09DFF10BD2A4908603F
:102EB00070472949091F0860704727498431086015
:102EC000704701460020254A10884FF67F42104087
:102ED0000843224A10807047014600201F4A10888C
:102EE0004FF68072104008431C4A1080704708B5A6
:102EF00000220092194A2C3A0092009A0244009251
:102F0000009A116008BD08B50146002000901348E2
:102F10002C3800900098084400900098008808BD64
:102F20000D489C300068C0B270470C4808300088DB
:102F300040F0010009490831088070470648A03078
:102F40000068C0B2704705480830008840F00200B1
:102F5000024908310880704704860D422C6C0040FD
:102F6000002044490860091D0860091D0860091D0A
:102F7000086041483F4914310860704700213D49CD
:102F80008279002A3AD00A46126803689A430B46AF
:102F90001A600A1D126803689A430B1D1A600279B1
:102FA00011440A6803681A430A60324A08321268F8
:102FB00003689A432F4B08331A601A1D126803687E
:102FC0009A432C4B0C331A604279102A0ED11A1FE7
:102FD000126803681A43274B08331A601A1D1268D7
:102FE00003681A43234B0C331A600DE021494279E0
:102FF00011440A6803681A430A6005E00279114423
:103000000A6803689A430A607047002101600171F1
:103010000C214171002181717047164910310968F6
:103020000143144A10321160704701460020114AD2
:10303000143212680A400AB1012000E000207047F3
:103040000C49143108607047014600200022094BEA
:103050001B6803EA0102074B14331B680B4013B1D2
:103060000AB1012000E000207047024914310860D5
:103070007047000000040140FFFF0F0001460020E0
:10308000FE4A106800F03800084310607047FB49A2
:10309000096821F00801F94A1160114609680143E5
:1030A00011607047F549096821F01001F34A116079
:1030B00011460968014311607047F148EF494860C3
:1030C000F04848607047EE48EC494860ED48486079
:1030D0007047EA48006940F08000E849086170479D
:1030E000E648006940F08000E44908617047042028
:1030F000E249C96801F0010109B101200EE0DF4990
:10310000C96801F0040109B1022007E0DB49C96880
:1031100001F0100109B1032000E00420704700B560
:1031200002460423FFF7E3FF034603E0FFF7DFFF58
:103130000346521E012B01D1002AF7D102B9052303
:10314000184600BD30B5044604254FF43020FFF783
:10315000E6FF0546042D17D1C848006940F002007B
:10316000C649086108464461006940F040000861B2
:103170004FF43020FFF7D3FF0546C048006941F601
:10318000FD710840BD490861284630BD10B50424D2
:103190004FF43020FFF7C3FF0446042C16D1B74884
:1031A000006940F00400B54908610846006940F034
:1031B000400008614FF43020FFF7B1FF0446AF48EC
:1031C000006941F6FB710840AC490861204610BD1A
:1031D00000B502460423FFF78AFF034603E0FFF72A
:1031E00086FF0346521E012B01D1002AF7D102B9F6
:1031F0000523184600BD10B504244FF43020FFF716
:10320000E7FF0446042C16D19C48006940F00400F6
:103210009A4908610846006940F0400008614FF48F
:103220003020FFF7D5FF04469448006941F6FB7152
:10323000084092490861204610BD00208F49C969A5
:1032400001F0020109B1012000E00020704730B513
:10325000A5250424FFF7F1FF00B100254FF430202D
:10326000FFF75DFF0446042C3AD185488349886006
:10327000844888600846006940F0200008610846DC
:10328000006940F0400008614FF43020FFF747FF2D
:103290000446042C1BD17948006941F6DF710840CF
:1032A000764908610846006940F0100008617648D8
:1032B0000580E002FFF733FF0446052C10D06F486D
:1032C000006941F6EF7108406C49086108E0052C7F
:1032D00006D06A48006941F6EF7108406749086105
:1032E000204630BD78B506460C46042500200090E7
:1032F000E802FFF714FF0546042D24D15F4800695A
:1033000040F001005D4908613480E802FFF707FFE3
:103310000546042D10D1B01C0090200C00990880A7
:10332000E802FFF7FCFE05465448006941F6FE71CD
:1033300008405249086106E05048006941F6FE71B4
:1033400008404E490861284678BD70B504460D46D0
:103350000426F002FFF7E3FE0646042E11D147488B
:10336000006940F00100454908612580F002FFF73F
:10337000D6FE06464148006941F6FE7108403F49C5
:103380000861304670BD70B505460E460424E00263
:10339000FFF7C5FE0446042C17D139483749886029
:1033A000384888600846006940F0100008612E80A7
:1033B000E002FFF7B4FE0446052C06D02F48006952
:1033C00041F6EF7108402D490861204670BD2DE996
:1033D000F04304464FF6FF763746B046B146042523
:1033E000E443E6B2C4F30727C4F307484FEA14697D
:1033F000E802FFF794FE0546042D49D120481F49F5
:103400008860204888600846006940F01000086124
:10341000FF2E06D01C4808300680E802FFF77FFE2A
:103420000546042D08D1FF2F06D017480A30078023
:10343000E802FFF774FE0546042D0AD1B8F1FF0F2C
:1034400007D011480C30A0F80080E802FFF767FEB3
:103450000546042D0AD1B9F1FF0F07D00A480E30F6
:10346000A0F80090E802FFF75AFE0546052D0FD0A0
:103470000248006941F6EF71084007E00020024071
:1034800023016745AB89EFCD00F8FF1F664908614E
:103490002846BDE8F08330B5054604244FF43020BB
:1034A000FFF73DFE0446042C41D160485E49886028
:1034B0005F4888600846006940F0200008610846BF
:1034C000006940F0400008614FF43020FFF727FE0C
:1034D0000446042C22D15448006941F6DF710840AB
:1034E000514908610846006940F0100008611DB1AB
:1034F00000205049088002E0A5204E4908804FF482
:103500003020FFF70CFE0446052C10D04648006919
:1035100041F6EF7108404449086108E0052C06D0E7
:103520004148006941F6DF7108403F490861204683
:1035300030BDF0B505460E46174604243B483A49CF
:1035400088603B488860E002FFF7E9FD0446042CF0
:1035500019D13548006940F010003349086147F03F
:10356000F800304328433349891C0880E002FFF704
:10357000D6FD0446052C06D02B48006941F6EF71B4
:103580000840294908612046F0BD2748C0698008E5
:1035900070472548006A704700202349096801F0F8
:1035A000200109B1012000E00020704729B11E4A26
:1035B000126902431C4B1A6104E01B4A12698243E0
:1035C000194B1A61704701460020012908D1164A9B
:1035D000D26902F001020AB1012008E0002006E0F1
:1035E000114AD2680A400AB1012000E00020704769
:1035F0000D49C860704704200B49C96801F00101FA
:1036000009B101200EE00849C96801F0040109B1BF
:10361000022007E00449C96801F0100109B1032044
:1036200000E00420704700000020024023016745AD
:10363000AB89EFCD00F8FF1F10B50446CC4884429B
:1036400008D10121042000F0B3FB0021042000F088
:10365000AFFB46E0C748844208D10121082000F0B2
:10366000A7FB0021082000F0A3FB3AE0C2488442F7
:1036700008D10121102000F09BFB0021102000F058
:1036800097FB2EE0BD48844208D10121202000F0A4
:103690008FFB0021202000F08BFB22E0B848844201
:1036A00008D10121402000F083FB0021402000F0E0
:1036B0007FFB16E0B348844208D10121802000F04E
:1036C00077FB0021802000F073FB0AE0AE488442C3
:1036D00007D10121801500F06BFB0021A01500F03F
:1036E00067FB10BD10B50121084600F061FB002109
:1036F000012000F05DFB10BD2DE9F04102460025E0
:103700000026002000230024002791F803C00CF0BD
:103710000F0591F803C00CF0100CBCF1000F03D0A2
:1037200091F802C04CEA050591F800C0BCF1000F09
:1037300031D0146800202BE04FF0010C0CFA00F39C
:10374000B1F800C00CEA03069E4220D183004FF07E
:103750000F0C0CFA03F7BC4305FA03FC4CEA040413
:1037600091F803C0BCF1280F06D14FF0010C0CFA00
:1037700000FCC2F814C00AE091F803C0BCF1480F85
:1037800005D14FF0010C0CFA00FCC2F810C0401C2F
:103790000828D1D31460B1F800C0BCF1FF0F34DDAC
:1037A000546800202EE000F1080C4FF0010808FAE0
:1037B0000CF3B1F800C00CEA03069E4221D183004D
:1037C0004FF00F0C0CFA03F7BC4305FA03FC4CEA6C
:1037D000040491F803C0BCF1280F05D100F1080CD6
:1037E00008FA0CF8C2F8148091F803C0BCF1480F35
:1037F00007D100F1080C4FF0010808FA0CF8C2F8E4
:103800001080401C0828CED35460BDE8F0814FF6EC
:10381000FF710180022181700421C170704702464E
:10382000002093680B400BB1012000E0002070479E
:103830000146886880B2704702460020D3680B407A
:103840000BB1012000E0002070470146C86880B23B
:10385000704701617047416170470AB1016100E042
:1038600041617047C16070474FF480320A43826102
:103870008161826182698269704702460020434B00
:1038800018684FF68073184040EA021008433F4B17
:10389000186070473E49C8617047F0B50A4600237A
:1038A00000240021002500F00046B6F1004F02D1AF
:1038B000364EF16901E0354E7168C0F3034583B2BD
:1038C00000F44016B6F5401F08D121F070612F4E6C
:1038D000766826F070662D4F7E6012E000F4801648
:1038E000B6F5801F06D1032606FA05F4A14341F080
:1038F000706106E0460D360103FA06F6B14341F069
:10390000706122B1460D360103FA06F6314300F02C
:103910000046B6F1004F02D11C4EF16101E01B4E92
:103920007160F0BD30B500228B071C0F0F2303FA26
:1039300004F2164B08338C1053F824309343134C85
:1039400008348D1044F8253023468C1053F8243069
:103950008C07240F00FA04F423430C4C08348D1018
:1039600044F8253030BD0A49DC310860704700005A
:1039700000080140000C014000100140001401400B
:1039800000180140001C01400020014000000140DF
:10399000000020420E49086070470D49486070479A
:1039A0000B49886070474AF6AA20094908607047A9
:1039B0004CF6CC4006490860704701460020044A96
:1039C000D2680A400AB1012000E0002070470000E0
:1039D0000030004010B50121080700F0F6F9002181
:1039E0004FF0805000F0F1F910BD2A49086270478D
:1039F00028490861704701460020274A106820F0D6
:103A0000E0000843106070472249A0310860704709
:103A100010B502460020204B186820F00300104328
:103A200018601E4B1B6843F004031C4C23600129E3
:103A300001D130BF00E020BF184B1B6823F0040306
:103A4000164C236010BD1448006840F00400124971
:103A500008600846006840F0020008600F480068EF
:103A600040F004000D49086000BF00BF30BF704740
:103A700001460020084A52680A400AB1012000E0CD
:103A8000002070470449096841EA8001024A116038
:103A90007047000000000E420070004010ED00E092
:103AA000DF48006840F00100DD49086008464068D2
:103AB000DC490840DA49486008460068DA490840AD
:103AC000D74908600846006820F48020086008464E
:103AD000406820F4FE0048604FF41F008860704783
:103AE000CF49096821F48031CD4A11601146096837
:103AF00021F480211160B0F5803F03D0B0F5802F14
:103B00000ED106E0C649096841F48031C44A11600B
:103B100007E0C349096841F4A021C14A116000E0EF
:103B200000BF00BF704710B50146002200230020EF
:103B30004A11012A02D1BA4C236806E0022A02D1B6
:103B4000B74C236A01E0B64C636A01F01F020124FE
:103B500094401C400CB1012000E0002010BD38B59D
:103B6000002000900024002500BF3120FFF7DBFF7C
:103B700005460098401C00900098B0F5A06F01D059
:103B8000002DF2D03120FFF7CEFF08B1012400E074
:103B90000024204638BD01460020A14A106820F0CC
:103BA000F80040EAC10010607047A0490860704703
:103BB000024600209A4B586820F47C1042EA010328
:103BC0001843974B586070479849086670470146FC
:103BD0000020934A506820F003000843506070476B
:103BE0008F48406800F00C007047014600208C4A66
:103BF000506820F0F00008435060704701460020F4
:103C0000874A506820F4E0600843506070470146DE
:103C10000020834A506820F4605040EAC1005060A0
:103C2000704729B17E4A527A02437D4B5A7204E0B2
:103C30007B4A527A82437A4B5A7270477B49D83119
:103C40000860704701460020754A506820F44040E3
:103C50000843506070470021714A20321170704A49
:103C600082F82010012802D004280AD104E00121A2
:103C70006B4A2032117005E00521694A203211702B
:103C800000E000BF00BF70476949086070476449A1
:103C9000096A0143624A1162704765494439086004
:103CA000704730B500210022002400235C4D6D6870
:103CB00005F00C0121B1042905D0082923D105E024
:103CC0005C4D056022E05B4D05601FE0544D6D6862
:103CD00005F47012524D6D6805F48034022505EB31
:103CE00092421CB9544D554305600BE04C4D6D6834
:103CF00005F400351DB1504D5543056002E04D4DB2
:103D00005543056002E04B4D056000BF00BF444DC8
:103D10006D6805F0F0010909484D6B5C0568DD40F0
:103D200045603F4D6D6805F4E061090A434D6B5CE9
:103D30004568DD4085603A4D6D6805F46051C90AFB
:103D40003E4D6B5C4568DD40C560354D6D6805F4E2
:103D50004041890B3A4D6B5CC568B5FBF3F50561D5
:103D600030BD29B12E4A526902432D4B5A6104E0FD
:103D70002B4A526982432A4B5A61704729B1284A1B
:103D800092690243264B9A6104E0254A9269824374
:103D9000234B9A61704729B1214AD2690243204BD3
:103DA000DA6104E01E4AD26982431D4BDA61704732
:103DB00029B11B4AD2680243194BDA6004E0184A61
:103DC000D2688243164BDA60704729B1144A1269EF
:103DD0000243134B1A6104E0114A12698243104BEB
:103DE0001A61704712494039086070470F49C8642A
:103DF00070470B49C87170470948406A40F08070AD
:103E000007494862704701460020054A92680A4007
:103E10000AB1012000E00020704701498872704714
:103E2000001002400000FFF8FFFFF6FE00004242D3
:103E30008004424200127A0000093D001800002070
:103E40002800002029B1504A128802434E4B1A80A4
:103E500004E04D4A128882434B4B1A8070474A480F
:103E6000001D008840F010004749091D0880704778
:103E70004548001D00884FF6EF7108404249091D72
:103E800008807047002140481C300188001F0088CE
:103E900041EA0040704700B50246FFF7E0FF100C12
:103EA000394918310880091D0A80FFF7E1FF00BD7C
:103EB00000B50246FFF7D3FFC2F303403249083191
:103EC0000880091D0A80FFF7D3FF00BD00B5024638
:103ED000FFF7C5FF100C2C4920310880091D0A800E
:103EE000FFF7C6FF00BD00202749103109880907E8
:103EF000080B2549143109880843704700BF224840
:103F0000001D008800F020000028F8D070471E48EF
:103F1000001D00884FF6F77108401B49091D0880F5
:103F200000BF1948001D008800F008000028F8D0E4
:103F3000704701460020144A121D12880A400AB137
:103F4000012000E0002070470F49091D09888143C6
:103F50000D4A121D11807047014600200A4A121DA9
:103F600012880A40D0B2084A12880A4012B108B139
:103F7000012000E0002070470349091D09888143A2
:103F8000014A121D118070470028004010B50446F8
:103F9000BE48844208D101218014FFF709FF0021A7
:103FA000A014FFF705FF16E0B948844208D10121AB
:103FB0000014FFF70AFF00212014FFF706FF0AE0B4
:103FC000B448844207D10121C013FFF7FEFE00214F
:103FD000E013FFF7FAFE10BD10B50022028802F4CC
:103FE00041520B884C8823438C882343CC8823433D
:103FF0000C8923434C8923438C892343CC89234355
:104000001A430280838B4FF2FF74234083830B8A11
:10401000038210BD2DE9F04F85B005460C464FF0E8
:10402000000902274FF000084FF0010B0026B246AE
:10403000A88B4FF240010840A88302202884B5F8DD
:104040001C90A068022801D100BF38E0A08810B9F8
:104050004FF0010B01E04FF0020B8D48854200D17B
:1040600000E000BF6846FFF71CFEDDF800A0E08816
:10407000B0F5007F0AD14FEA1A2000EB8000400023
:10408000A168B0FBF1F0401D86B20BE04FEA4B1087
:10409000BAFBF0F000EB80004000A168B0FBF1F04B
:1040A000401D86B20A20B6FBF0F606F00108A6EB2A
:1040B0000800C0F34F074FF6FF7000EA0828022FF0
:1040C00001DBFF2F02DD02274FF00008E08840EA05
:1040D000080038432884A088A189084361880843E0
:1040E0002188084340F4006040EA0909A5F81C90C3
:1040F00005B0BDE8F08F0021018041808180C18042
:10410000018141818181C1810721018270470021A4
:10411000018041808180C1800221816000218181F4
:10412000704721B1028842F04002028004E0028818
:104130004FF6BF731A400280704721B1828B42F460
:104140008062828304E0828B4FF6FF331A408283C1
:10415000704730B5002400230C110125A540ABB2F7
:104160001AB185881D43858002E085889D4385803E
:1041700030BD1AB183880B43838002E083888B4370
:1041800083807047818170470146888970474FF668
:10419000FF62914204D0028842F48072028004E0FF
:1041A00002884FF6FF631A400280704721B182886F
:1041B00042F00402828004E082884FF6FB731A40CA
:1041C0008280704702884FF2FF731A400280028893
:1041D0000A4302807047018841F480510180704792
:1041E00021B1028842F40052028004E002884DF6B8
:1041F000FF731A400280704702460020012901D057
:10420000108B00E0908A70470146088A7047B1F52C
:10421000804F04D1028842F48042028004E0028888
:104220004BF6FF731A400280704702460020138944
:104230000B400BB1012000E000207047CA4302810F
:104240007047F0B50246002000240023002501F04D
:104250000F070126BE40B4B20B1101269E40B3B237
:10426000968806EA03051689264016B10DB101208D
:1042700000E00020F0BD10B5002201F00F04012382
:10428000A3409AB2D343038110BD00000030014027
:1042900000380040003C004010B50446FE4884420F
:1042A00008D10121C014FFF783FD0021E014FFF7BE
:1042B0007FFDC4E0B4F1804F08D101210846FFF72B
:1042C00084FD00210120FFF780FDB8E0F34884421F
:1042D00008D101210220FFF778FD00210220FFF71D
:1042E00074FDACE0EE48844208D101210420FFF7C0
:1042F0006CFD00210420FFF768FDA0E0E94884423E
:1043000008D101210820FFF760FD00210820FFF7F8
:104310005CFD94E0E448844208D101211020FFF7BD
:1043200054FD00211020FFF750FD88E0DF48844253
:1043300008D101212020FFF748FD00212020FFF7B0
:1043400044FD7CE0DA48844208D101214014FFF7A3
:104350002FFD00216014FFF72BFD70E0D54884424B
:1043600009D10121C804FFF723FD00214FF40020EB
:10437000FFF71EFD63E0D048844209D10121080502
:10438000FFF716FD00214FF48010FFF711FD56E0F6
:10439000CA48844209D101214805FFF709FD0021DF
:1043A0004FF40010FFF704FD49E0C548844208D1EE
:1043B00001214020FFF709FD00214020FFF705FD06
:1043C0003DE0C048844208D101218020FFF7FDFC78
:1043D00000218020FFF7F9FC31E0BB48844208D17E
:1043E00001218015FFF7F1FC0021A015FFF7EDFC7E
:1043F00025E0B648844209D101210804FFF7D8FC22
:1044000000214FF48030FFF7D3FC18E0B04884421D
:1044100009D101214804FFF7CBFC00214FF4003003
:10442000FFF7C6FC0BE0AB48844208D101218804A9
:10443000FFF7BEFC00214FF48020FFF7B9FC10BD50
:1044400000220288944B98420ED0994B98420BD090
:10445000B0F1804F08D0914B984205D0904B9842D4
:1044600002D0904B984204D14FF68F731A404B887C
:104470001A438D4B984207D08C4B984204D04FF68C
:10448000FF431A40CB881A4302808B8883850B88B0
:104490000385814B98420BD0854B984208D08B4BBB
:1044A000984205D08A4B984202D08A4B984201D15B
:1044B0000B7A038601238382704770B500240022A3
:1044C0000023058C4FF6FE7635400584028C8388E8
:1044D000048B4FF68F752C40B51E2C400D882C4355
:1044E000751E2A400D892A434D882A436A4DA842E9
:1044F0000BD06F4DA84208D0744DA84205D0744D22
:10450000A84202D0734DA84213D14FF6F7752A4046
:104510004D892A434FF6FB752A408D882A434FF672
:10452000FF652B404FF6FF552B408D892B43CD89DE
:104530002B4383800483CD888586028470BD70B54B
:10454000002400220023058C4FF6EF7635400584C9
:10455000028C8388048B48F6FF752C404FF6FF458C
:104560002C400D884FF6FF7606EA05252C434FF6C2
:10457000DF752A400D8906EA05152A434D8806EAAB
:1045800005152A43444DA84202D0494DA8421DD1E9
:104590004FF67F752A404D894FF6FF7606EA0515DE
:1045A0002A434FF6BF752A408D8806EA05152A432F
:1045B0004FF6FF352B404FF2FF752B408D8906EAF1
:1045C00085052B43CD8906EA85052B43838004832B
:1045D000CD880587028470BD70B5002400220023B9
:1045E000058C4FF6FF6635400584028C8388848BEA
:1045F0004FF68F752C404FF6FC752C400D882C43E0
:104600004FF6FF552A400D894FF6FF7606EA05253D
:104610002A434D8806EA05252A431F4DA84202D0A9
:10462000234DA8421DD14FF2FF752A404D894FF608
:10463000FF7606EA05252A434FF6FF352A408D8886
:1046400006EA05252A434EF6FF752B404DF6FF7509
:104650002B408D8906EA05152B43CD8906EA051501
:104660002B4383808483CD888587028470BD70B599
:10467000002200230024058C4EF6FF763540058489
:10468000038C8488828B48F6FF752A404FF6FF45DD
:104690002A400D8820E00000002C0140000400406A
:1046A00000080040000C00400010004000140040D2
:1046B00000340140004C01400050014000540140D2
:1046C00000180040001C0040002000400040014055
:1046D00000440140004801404FF6FF7606EA0525F8
:1046E0002A434DF6FF752B400D8906EA05352B430D
:1046F0004D8806EA05352B43FA4DA84202D0FA4D03
:10470000A84208D14BF6FF752C408D894FF6FF76F5
:1047100006EA85152C4384808283CD88A0F840501A
:10472000038470BD828B4FF2FF331A408283828BE9
:104730004FF6FF7303EA01231A4382837047F0B5F3
:104740000C461546002200210026078C4EF6FF7C01
:1047500007EA0C070784828B018C4FF6FF7707EA84
:10476000043640F6FF473A404FF6FF7707EA052741
:104770003A434FF6FF7707EA03373A43D94FB84237
:104780000ED0D94FB8420BD0B0F1804F08D0D74FE0
:10479000B84205D0D64FB84202D0D64FB84206D163
:1047A0004DF6FF77394046F48057394305E047F628
:1047B000FF57394044F48057394382830184F0BD68
:1047C000828B4FF6F3731A408283828B0A43828373
:1047D0007047F0B50C461546002200210026078CD4
:1047E0004FF6FF6C07EA0C070784828B018C4FF6AB
:1047F000FF7707EA04264FF60C773A404FF6FF772B
:1048000007EA03172F433A43B64FB8420ED0B64FCC
:10481000B8420BD0B0F1804F08D0B44FB84205D0A9
:10482000B34FB84202D0B34FB84206D14FF6FF574C
:10483000394046F48077394305E04FF2FF5739405D
:1048400044F48077394382830184F0BD028B4FF2B8
:10485000FF331A400283028B4FF6FF7303EA0123F2
:104860001A4302837047F0B50C461546002200211A
:104870000026078C4FF6EF7C07EA0C070784028BB3
:10488000018C4FF6FF7707EA041640F6FF473A40DF
:104890004FF6FF7707EA03373A434FF6FF7707EA09
:1048A00005273A438F4FB8420ED08F4FB8420BD0F6
:1048B000B0F1804F08D08D4FB84205D08C4FB84230
:1048C00002D08C4FB84206D14FF6DF77394046F020
:1048D0001007394305E04FF65F77394044F0100781
:1048E000394302830184F0BD028B4FF6F3731A4003
:1048F0000283028B0A4302837047F0B50C461546CB
:1049000000220021068C4FF6FE773E400684028B83
:10491000018C4FF60C7632407E1C06EA03162E43BD
:104920003243704EB0420ED06F4EB0420BD0B0F159
:10493000804F08D06D4EB04205D06D4EB04202D0CF
:104940006C4EB04206D14FF6FD76314044F0010680
:10495000314305E04FF6F576314044F0010631432E
:1049600002830184F0BD70B505460C465D48854262
:104970000ED05D4885420BD0B5F1804F08D05B4822
:10498000854205D05A48854202D05A48854200D116
:1049900000E000BF208850B92389A288618828469A
:1049A000FFF7ABFFE1882846FFF79EFF25E0208850
:1049B00004280AD12389A28861882846FFF753FF7B
:1049C000E1882846FFF742FF17E0208808280AD12F
:1049D0002389A28861882846FFF7FBFEE1882846E4
:1049E000FFF7EEFE09E02389A28861882846FFF7D9
:1049F000A6FEE1882846FFF795FE70BD2DE9F0413F
:104A000005460C4600260127608808B9022600E00A
:104A10000026A088012801D1022700E00127208874
:104A2000A0B92389A28861882846FFF766FFE1883C
:104A30002846FFF759FF23893A4631462846FFF7B3
:104A400012FFE1882846FFF701FF13E02389A288BF
:104A500061882846FFF707FFE1882846FFF7F6FE42
:104A600023893A4631462846FFF747FFE188284622
:104A7000FFF73AFFBDE8F0810A884B881A438B881C
:104A80001A43CB881A430B891A434B891A438B89E3
:104A90001A43A0F8442070474FF6FF71818000212F
:104AA0000180C180418001727047002101804180F6
:104AB0008180C180018141818181C1817047002154
:104AC00001804180012181800021C18001817047E6
:104AD0000021018041808180C180018141818181EB
:104AE00070470000002C01400034014000040040E9
:104AF00000080040000C004021B1028842F0010291
:104B0000028004E002884FF6FE731A40028070476C
:104B100031B1B0F8442042F40042A0F8442005E04E
:104B2000B0F84420C2F30E02A0F8442070471AB136
:104B300083890B43838102E083898B4383817047A0
:104B40008182704741EA0203A0F8483070471AB1E9
:104B500083890B43838102E083898B438381704780
:104B600001894FF6F8721140018170470A46002111
:104B700001894FF68F73194011430181704730B599
:104B800004460D4629462046FFF7F0FF208940F0F5
:104B90000700208130BD2DE9F04104460D46164640
:104BA0001F46602D06D13B46012231462046FFF7C5
:104BB0005AFE05E03B46012231462046FFF79DFEA6
:104BC00029462046FFF7D2FF208940F007002081C8
:104BD000BDE8F08130B50C4600210189C9B24FF61D
:104BE000FF7505EA0325154325432943018130BD9F
:104BF0002DE9F04105460E461746984600244346E7
:104C00003A4631462846FFF7E5FF2C894FF6F87003
:104C1000044044F007044FF68F70044044F07004E1
:104C20002C81BDE8F081F0B504460D4616461F46BE
:104C30003B46324629462046FFF7CCFF208940F408
:104C400080402081F0BD0185828270470A460021A4
:104C500001884FF68F731940114301807047F0B5FA
:104C60000C4615461E460021002200230189028BB6
:104C7000038C4FF6F877394021434FF6FC473A4012
:104C800040F201173A434FF6DD773B404FF6FF778E
:104C900007EA06172F433B43018102830384F0BDDB
:104CA0000A460021018B4FF68F731940114301838F
:104CB00070470A460021018B48F6FF7319404FF6F2
:104CC000FF7303EA02231943018370470A46002158
:104CD000818B4FF68F7319401143818370470A46C9
:104CE0000021818B48F6FF7319404FF6FF7303EAEA
:104CF000022319438183704721B1028842F0800268
:104D0000028004E002884FF67F731A4002807047E9
:104D100021B1828842F00402828004E082884FF64A
:104D2000FB731A408280704721B1828842F00802EA
:104D3000828004E082884FF6F7731A4082807047C1
:104D400021B1828842F00102828004E082884FF61D
:104D5000FE731A40828070470A460021018B4FF68D
:104D6000F77319401143018370470A460021018BF4
:104D70004FF2FF7319404FF6FF7303EA0223194302
:104D8000018370470A460021818B4FF6F773194063
:104D90001143818370470A460021818B4FF2FF73D4
:104DA00019404FF6FF7303EA0223194381837047CA
:104DB0000A460021018B4FF6FB7319401143018312
:104DC00070470A460021018B4FF6FF3319404FF61A
:104DD000FF7303EA02231943018370470A46002147
:104DE000818B4FF6FB7319401143818370470A464C
:104DF0000021818B4FF6FF3319404FF6FF7303EA12
:104E000002231943818370470A460021018B4FF624
:104E10007F7319401143018370470A460021018BBB
:104E2000C1F30E014FF6FF7303EA02231943018316
:104E300070470A460021818B4FF67F73194011435A
:104E4000818370470A460021818BC1F30E014FF622
:104E5000FF7303EA02231943818370470A46002146
:104E6000018C4FF6FD7319401143018470470A46C7
:104E70000021018C4FF6F7731940114301847047EC
:104E80000A460021018C4FF6DF7319404FF6FF737D
:104E900003EA02131943018470470A460021018C7A
:104EA0004FF67F7319404FF6FF7303EA021319435D
:104EB000018470470A460021018C4FF6FF531940C8
:104EC0004FF6FF7303EA02231943018470470A4631
:104ED0000021018C4FF2FF7319404FF6FF7303EA74
:104EE00002231943018470470A460021018C4DF6C4
:104EF000FF7319404FF6FF7303EA0233194301842D
:104F0000704730B5002301248C40A3B2048C9C432D
:104F10000484048C02FA01F5ADB22C43048430BD44
:104F200030B5002304248C40A3B2048C9C43048439
:104F3000048C02FA01F5ADB22C43048430BD70B587
:104F40000346002000241846183001258D40ACB2DD
:104F50001D8CA5431D8409B1082909D100EB61000E
:104F6000056825F0700505600568154305600EE0CD
:104F70000D1FC5F34E052844056825F4E04505607E
:104F800005684FF6FF7606EA02263543056070BDD8
:104F900021B1028842F00202028004E002884FF64A
:104FA000FD731A400280704721B1028842F004026A
:104FB000028004E002884FF6FB731A4002807047BB
:104FC00021B1828842F08002828004E082884FF61C
:104FD0007F731A408280704702884FF6F7731A4039
:104FE000028002880A430280704782884FF68F73DE
:104FF0001A40828082880A438280704702894FF675
:10500000F8731A40028102890A43028170470289BB
:105010004FF67F731A40028102890A43028170476A
:10502000818470478185704781867047018770470A
:1050300081877047A0F84010704702884FF6FF4301
:105040001A40028002880A43028070470146888E17
:1050500070470146088F70470146888F70470146A8
:10506000B1F8400070470146888C70470146088DB2
:10507000704702460020138A0B400BB1012000E06C
:1050800000207047CA430282704730B502460020B4
:1050900000230024158A05EA0103958905EA010425
:1050A00013B10CB1012000E0002030BDCA430282E0
:1050B0007047000010B50446FB48844209D1012125
:1050C0008803FEF775FE00214FF48040FEF770FE66
:1050D00032E0F648844209D101214804FEF775FE0A
:1050E00000214FF40030FEF770FE25E0F0488442C6
:1050F00009D101218804FEF768FE00214FF48020C9
:10510000FEF763FE18E0EB48844209D10121C80490
:10511000FEF75BFE00214FF40020FEF756FE0BE089
:10512000E548844208D101210805FEF74EFE002122
:105130004FF48010FEF749FE10BD2DE9F04786B010
:1051400005460E460024A24600BFA1460027B089AE
:1051500000B100BF2F462C8A4CF6FF700440F08847
:1051600004432C82AC894EF6F3100440B088318998
:105170000843718908430443AC81AC8A4FF6FF4071
:105180000440B0890443AC8201A8FEF78AFDC648FA
:10519000874202D1DDF810A001E0DDF80CA0A8895B
:1051A00000F4004040B10AEBCA0000EB0A1031687D
:1051B0004900B0FBF1F807E00AEBCA0000EB0A1067
:1051C00031688900B0FBF1F86420B8FBF0F004010D
:1051D0002009642101FB1089A88900F4004040B136
:1051E000322000EBC900B0FBF1F000F007000443EF
:1051F00008E0322000EB09106421B0FBF1F000F070
:105200000F0004432C8106B0BDE8F0874FF416511F
:10521000016000218180C18001810C214181002138
:105220008181704710B502460020108A4FF2FF03BB
:1052300018400B884C8823438C882343CC88234315
:105240001843108210BD0021018041808180C180FF
:10525000704721B1828942F40052828104E0828940
:105260004DF6FF731A4082817047F0B50346002463
:1052700000260025002040F66A17B94200D100BF81
:105280001846C1F3421401F01F06012707FA06F57C
:10529000012C01D10C3004E0022C01D1103000E0CF
:1052A00014301AB107682F43076002E00768AF4364
:1052B0000760F0BD1AB1838A0B43838202E0838AC0
:1052C0008B4383827047028A4FF6F0731A40028242
:1052D000028A0A430282704782894FF2FF731A40A2
:1052E000828182890A438281704721B1828942F09A
:1052F0000202828104E082894FF6FD731A408281A6
:105300007047028A4FF6DF731A400282028A0A430C
:105310000282704721B1028A42F48042028204E094
:10532000028A4BF6FF731A4002827047C1F30802EB
:105330008280704701468888C0F3080070478189E1
:1053400041F0010181817047028BD2B20283028B4E
:1053500042EA012202837047028B02F47F420283F9
:10536000028B0A430283704721B1828A42F02002F5
:10537000828204E0828A4FF6DF731A40828270478D
:1053800021B1828A42F01002828204E0828A4FF6C2
:10539000EF731A408282704721B1828A42F008027C
:1053A000828204E0828A4FF6F7731A408282704745
:1053B00021B1828942F40042828103E08289C2F3F2
:1053C0000E028281704721B1828A42F40062828299
:1053D00004E0828A4FF2FF731A4082827047828A09
:1053E0004FF6FB731A408282828A0A438282704798
:1053F00021B1828A42F00202828204E0828A4FF660
:10540000FD731A408282704702460020B1F5007F8A
:1054100000D100BF13880B400BB1012000E0002039
:10542000704701F40072B2F5007F00D100BFCA439B
:105430000280704770B5024600240023002500203A
:1054400040F66A16B14200D100BFC1F3421501F027
:105450001F03012606FA03F3012D02D1968933407A
:1054600006E0022D02D1168A334001E0968A3340CD
:105470000C12012606FA04F41688344013B10CB15C
:10548000012000E0002070BD10B50022002340F68E
:105490006A14A14200D100BF0A1201249440A3B2B1
:1054A000DC43048010BD000000380140004400408F
:1054B00000480040004C00400050004070B50446D9
:1054C00010464FF080750560051F28462C606FF070
:1054D0000106051F28462E604FF01236051F28468C
:1054E0002E604FF00336051F28462E604FF002361F
:1054F000051F28462E607610051F28462E60051FC2
:10550000284629604FF01136051F28462E604FF0BF
:105510001036051F28462E604FF00936051F284615
:105520002E604FF00836051F28462E604FF00736D4
:10553000051F28462E604FF00636051F28462E60B0
:105540004FF00536051F28462E604FF00436051F24
:1055500028462E6070BD0000EFF3108072B67047D1
:1055600080F310887047294C294D25604FF00004C6
:1055700084F30988274C4FF001052570264C4FF025
:105580008055256062B6FEE730B4234C4FF080555D
:10559000256030BC704730B41F4C4FF080552560FB
:1055A00030BC704700BF72B6EFF3098028B12038D5
:1055B00080E8F00F19490968086000B518480068CC
:1055C00000B180475DF804EB164817490A7802706D
:1055D000124816490A680260106890E8F00F2030FF
:1055E00080F309884EF0040E62B67047B0FA80F07E
:1055F000704790FAA0F04FEA1040704700B520B411
:10560000069DA84720BC5DF804EB704720ED00E044
:105610000000FFFF4800002004ED00E054000020DF
:10562000640000204C0000205000002058000020A2
:1056300010B56FF00400FDF712FC6C4800686C496F
:10564000B0FBF1F06B4908700846007800EB4001B0
:10565000C1EBC0104FF6FF7101EAC0006649088037
:105660000846008840004FF0E021486148170F21AC
:10567000002807DA0A07140E604A00F00F031B1F08
:10568000D45403E00A07130E5D4A135400BF4FF0D1
:10569000E020006940F003004FF0E021086110BDF8
:1056A00010B501464FF0E0239A6919E04FF0E0236E
:1056B0009869824207D9131A4E4C2478B3FBF4F34D
:1056C0008B420DD30DE04C4B1B88022404FB0323BB
:1056D0001B1A484C2478B3FBF4F38B4200D300E050
:1056E000E4E700BF10BD70B50446FFF735FF05467F
:1056F000204604EBD0714910491C424A424B1B68BA
:1057000002EB431291602846FFF72AFF00F0CDFF1D
:1057100070BD70B50446FFF71FFF0646204604EB38
:10572000D0714910491C374A374B1B6802EB4312B2
:1057300091603046FFF714FF00BF00F0B6FF05434D
:1057400005F000400028F8D0284670BD2F4800889A
:10575000401C2E490880084600884000B0F57A7F3A
:1057600006DB002008802A480068401C28490860A1
:10577000704727480068704710B52648007870B118
:1057800025480088401C2449088008460088B0F558
:10579000FA7F07DB0020088000F0C7FF02E000204E
:1057A0001D49088010BD10B5002400BF19E0154840
:1057B00000EB4410806890B1124800EB4410806800
:1057C000401E104901EB441188600E4800EB441064
:1057D000806820B94FF00041204600F0EBFE601CCD
:1057E000C4B2202CE3DBFFF7B1FF10BD04000020A2
:1057F00000127A002C0000202E00002018ED00E09E
:1058000000E400E0241900205000002034000020B3
:1058100030000020680000203600002010B504F0A1
:10582000E8FE10BD30B5034601E003F8011B14008B
:10583000A2F10102F9D130BD0022002106E09A4810
:10584000C06830F8110000B1521C491C974800682C
:105850008142F4D364205043944B1B68B0FBF3F0B7
:10586000C0B2704700B59249098889B2FF2902D8B1
:105870004FF4205101E04FF414414901222291FBE1
:10588000F2F0C11700EBD161491121F00301874A01
:1058900011602020874908608548008880B2FF2871
:1058A00002D84FF4205001E04FF41440400122216F
:1058B00090FBF1F080490860AFF257007A49086028
:1058C000AFF28B0048607A49098889B2FF2902D873
:1058D0004FF4205101E04FF414414901222291FB81
:1058E000F2F0C11700EBD161491121F00301734AB5
:1058F00002EB41016C4A916070481146C86000207B
:1059000008746A4909684A006749C8680021FFF7B6
:1059100089FF6549886868490A680021FFF782FFA6
:1059200001206149087400BD00B5FFF79BFF00BD71
:1059300070B503460C4603E014F8015B03F8015B05
:105940001500A2F10102F7D170BD2DE9F041064624
:105950000024A0465448007C10B953490868804789
:105960001EB94FF0FF30BDE8F08152480068B6FB29
:10597000F0F085B24F480068B6FBF0F100FB116013
:1059800008B1681C85B249480068441E1DE04648BD
:10599000C06830F8140020B908F101001FFA80F83F
:1059A00001E04FF00008A8450ED1002705E03E4871
:1059B000C068E11920F811507F1CAF42F7D33D4970
:1059C000096804FB01F0CEE7641E002CDFDA4FF01B
:1059D000FF30C8E770B505463348007C20B932492E
:1059E00008688047012070BD33480068854214D2A2
:1059F00030480068B5FBF0F12B48C06830F8112042
:105A0000002406E00020284BDB680E1923F816005E
:105A1000641C9442F6DB0020E5E70220E3E770B562
:105A2000044600F071FE14B900F07FFE70BD1E4800
:105A30008068251A2846FFF7CDFF00F076FE00BFEC
:105A4000F4E770B5054600F05FFE2846FFF77DFFDE
:105A50000446601C18B900F068FE002070BD00F01C
:105A600064FE114880682044F8E770B506460C468D
:105A700000F04AFE2046FFF768FF0546681C18B98B
:105A800000F053FE002070BD07498968481922467E
:105A90003146FFF74DFF3046FFF7C1FF00F045FEEE
:105AA000014880682844EEE74016002038000020B6
:105AB000E0F7FF1F3C0000204000002000280020ED
:105AC000002000BF07E0202100EB4002FE4B03F85E
:105AD0003210411C88B21E28F5DB704700B5FFF775
:105AE000EFFF002000BD0246002100BF0AE001EBED
:105AF0004100F54B13F83000904201D1012070476E
:105B0000481C81B21E29F2DB0020F8E72DE9F041A4
:105B100006460F460024002500BF09E004EB4400C0
:105B2000E94911F83000202800D103E0601C84B25C
:105B30001E2CF3DB00BF1E2C0CD1002407E020201C
:105B400004EB4401E04A02F83100601C84B21E2CD0
:105B5000F5DB002404EB4400DB4901F83060202031
:105B600004EB4401D84A02EBC1014870012004EB68
:105B7000440102EBC101C870002509E0795D04EB26
:105B80004400D14A02EBC0000C304155681C85B27C
:105B9000092DF3DB0221304600F051FD0020BDE865
:105BA000F08170B504460B460021002200BF03E0DF
:105BB00000205854481C81B20929F9DB002109E072
:105BC00001EB4100C04D15F83000A04200D103E0C8
:105BD000481C81B21E29F3DB00BF1E2901D1012020
:105BE00070BD002211E001EB4100B74D05EBC00094
:105BF0000C30805C9854002501EB4100B24E06EB5E
:105C0000C0000C308554501C82B2092AEBDB2020E6
:105C100001EB4105AC4E06F835000020E0E72DE928
:105C2000F04107460E460024002500BF03E0002097
:105C30003055601C84B2092CF9DB14E0002409E023
:105C400004EB4400A04911F83000B84200D103E051
:105C5000601C84B21E2CF3DB00BF1E2C02D100F0AE
:105C600024FD00E000E0E9E700BF002511E004EBBF
:105C70004400954901EBC0000C30405D7055002197
:105C800004EB4400904A02EBC0000C304155681C04
:105C900085B2092DEBDB202004EB44018A4A02F88F
:105CA00031000020BDE8F0810146202903D2874859
:105CB0000170002070470120FCE78448007870479D
:105CC0000146062910D2DFE801F00305070B0D0994
:105CD0007FA0704780A0FCE782A0FAE786A0F8E7E3
:105CE0008BA0F6E78EA0F4E794A0F2E710B5134678
:105CF0000022062B19D2DFE803F018030C0F12154F
:105D0000002203E0845C8C54541CA2B2092AF9DB03
:105D10000CE004680C6009E004680C6006E00468AC
:105D20000C6003E004680C6000BF00BF00BF10BD42
:105D30002DE9F04F89B007460D4691469846DDE9BA
:105D400012AB0024002600BF09E004EB44005E49CA
:105D500011F83000202800D103E0601C84B21E2C12
:105D6000F3DB00BF1E2C19D10220ADF80600BDF8F0
:105D70000600FFF7A5FF0390734800788DF8040034
:105D80008DF80550504890F8B802ADF8080001A809
:105D90000FC887E80F0009B0BDE8F08F0AF00200D5
:105DA00030B3002609E006EB4600474911F8300001
:105DB000A84200D103E0701C86B21E2EF3DB00BFA8
:105DC0001E2E14D00520ADF80600BDF80600FFF722
:105DD00077FF03905C4800788DF804008DF805503B
:105DE000ADF8086001A80FC887E80F00D3E700BF2F
:105DF00004EB4400344901F830505348007804EB78
:105E00004401314A02EBC101487004EB44001146E1
:105E100001EBC00080F8038004EB440001EBC000FC
:105E200080F802A004EB440001EBC000A0F804B02D
:105E300004EB440102EBC1011498886004EB4400B8
:105E400002EBC00000F10C0142464846FFF74EFF4E
:105E50004FF00071284600F0F2FB0020ADF816006C
:105E6000BDF81600FFF72CFF079004EB440016491D
:105E700001EBC00040788DF8140004EB440011F8E9
:105E800030008DF8150005A80FC887E80F0000BF87
:105E900081E72DE9FF4706460F4690461D46DDF88F
:105EA00030A000240020009001900290039000BFD9
:105EB00000F0FBFB814607EA090000287CD0B9F11D
:105EC000807F47D042E000005416002044000020AC
:105ED000B3C9B9A600000000CEB4D6AAB5C4B4EDCB
:105EE000CEF30000B6D3C1D0D2D1C2FAD4ECB3C93C
:105EF000B5C4B4EDCEF30000D2D1D3D0CDACC0E068
:105F0000CFFBCFA2D4DAB6D3C1D0D6D000000000E8
:105F1000C4BFB1EAB5D8D6B7B4EDCEF300000000E7
:105F2000D2F2C6E4CBFBD6B4D0D0BDE1B9FBD4EC01
:105F3000B3C9B5C4B4EDCEF300000000C6E4CBFB9A
:105F4000B4EDCEF30000000050000020B9F1007F56
:105F500033D100E032E000240BE004EB440086493A
:105F600011F8300085490968884200D103E0601CBF
:105F700084B21E2CF1DB00BF04EB44007E4901EB30
:105F8000C00080788AF8000004EB440001EBC000F8
:105F9000C07828702A7804EB4401774B03EBC101E9
:105FA00001F10C004146FFF7A1FE202004EB440163
:105FB000714A02F8310001E048E000BF00BF04EB85
:105FC00044006D4901EBC000808818B30420ADF88F
:105FD0000200BDF80200FFF773FE029004EB4400DC
:105FE000654901EBC0008088ADF8040004EB440073
:105FF00001EBC0008068039004EB440001EBC0009B
:1060000040788DF8000004EB440011F830008DF862
:10601000010015E00020ADF80200BDF80200FFF716
:106020004FFE029004EB4400534901EBC00040785E
:106030008DF8000004EB440011F830008DF80100E9
:106040009DE80F0086E80F00BDE8FF8730E72DE9E7
:10605000FF430546894617461E46DDF82C8000247E
:106060000020009001900290039000BF0BE004EB31
:106070004400414911F8300040490968884200D184
:1060800003E0601C84B21E2CF1DB00BF1E2C65DA1D
:1060900004EB4400384901EBC000807888F8000028
:1060A00004EB440001EBC000C0783070327804EBA0
:1060B0004401314B03EBC10101F10C003946FFF7FC
:1060C00015FE202004EB44012B4A02F8310004EBBA
:1060D0004400114601EBC000808818B30420ADF8DD
:1060E0000200BDF80200FFF7EBFD029004EB440054
:1060F000214901EBC0008088ADF8040004EB4400A6
:1061000001EBC0008068039004EB440001EBC00089
:1061100040788DF8000004EB440011F830008DF851
:10612000010015E00020ADF80200BDF80200FFF705
:10613000C7FD029004EB44000F4901EBC00040781A
:106140008DF8000004EB440011F830008DF80100D8
:106150009DE80F0085E80F00BDE8FF830620ADF83D
:106160000200BDF80200FFF7ABFD02909DE80F00B2
:1061700085E80F0000BFEFE7541600205000002014
:1061800010B5FFF7D1FB00F005F8FFF7A7FCFFF70C
:1061900045FB10BD10B5FFF74BFA10BD10B5034617
:1061A000FD4800EB42100160FB4800EB42104360E9
:1061B0004FF00040F84C04EB4214E060002010BDAA
:1061C0002DE9F84F81468A4617461C460A9D4FF036
:1061D000004020FA05F807EB8400061FFFF7BCF922
:1061E0008346EE48006800EA080010B10120BDE8CF
:1061F000F88FEA48006840EA0800E8490860002093
:1062000006E04FF0FF31A6EB80021160411C88B21E
:10621000A042F6D3E04800EB4510866100233246E9
:1062200051464846FFF74AF900902A4648460099E9
:10623000FFF7B4FFA0B2D84901EB451148615846B9
:10624000FFF78EF90020D2E72DE9F04706460F460A
:1062500090461C464FF0004020FA04F5FFF77CF909
:106260008146CE480068284010B10120BDE8F08783
:10627000CA4800682843C949086000234246394695
:106280003046FFF71BF98246224651463046FFF75B
:1062900085FF4846FFF764F90020E7E770B504463C
:1062A0004FF0004020FA04F5FFF756F90646BB48C8
:1062B0000068A843B94908600020B74901EB4411C0
:1062C00048603046FFF74CF970BD70B504460025B4
:1062D000FFF742F90646B04800EB4410808A85B2C9
:1062E0003046FFF73DF9284670BD70B504460026DC
:1062F000FFF732F90546A84800EB4410406820B18A
:10630000A54800EB44104069060C2846FFF728F921
:10631000304670BD2DE9F041002500270024FFF72D
:106320001BF90646002039E09B4901EB4011496802
:1063300091B3994901EB40118969974A02EB4012E8
:10634000928A92B2A1EB82010C1D00BF02CC491CC3
:106350000029FBD0904901EB40118969091B0122FA
:1063600002EBA1058C4901EB401149690F0CAF42CA
:1063700012D2894901EB4011898A89B2864A02EB1F
:1063800040125161844901EB4011496941EA0541DC
:10639000814A02EB40125161411CC8B22028C3D38C
:1063A0003046FFF7DDF8BDE8F08170B50024002627
:1063B000FFF7D2F8054678487949096800EB4110A3
:1063C000406888B374487649096800EB41108069D9
:1063D0007149734A126801EB42110968401A84102E
:1063E0006D486F49096800EB41104069060CA642F0
:1063F0001AD269486A49096800EB4110808A80B264
:106400006549674A126801EB421148616248644974
:10641000096800EB4110406940EA04405E49604A67
:10642000126801EB421148612846FFF799F870BDE8
:1064300010B55C480068B0B958480068FFF7D6F856
:10644000574908600846006857490860524854494F
:10645000096800EB41105549086008460068544936
:106460000860FFF780F810BD70B50446202C01D3FA
:10647000002070BDFFF770F80546474800EB441058
:10648000406868B14FF00040E04044490968084363
:1064900042490860FFF76DF93F4901EB4411C861BB
:1064A0002846FFF75DF80120E3E770B50446202C8D
:1064B00001D3002070BDFFF74FF80546364800EBCA
:1064C0004410406838B14FF00040E040334909685B
:1064D0008143324801602846FFF742F80120E9E78E
:1064E00070B50446202C01D3002070BDFFF734F8AE
:1064F0000546294800EB44100069401C264901EB81
:1065000044110861E0B2FFF7D0FF2846FFF728F8F2
:106510000120EAE770B50446202C01D3002070BDAD
:10652000FFF71AF805461C4800EB4410006940B11B
:10653000194800EB44100069401E174901EB441153
:106540000861154800EB4410006910B9E0B2FFF78C
:106550008BFF2846FFF704F80120E0E770B5202400
:10656000FEF7FAFF05460D480068FFF73FF80446BE
:106570000B48006884420AD0202C08D208480460E6
:10658000054800EB441009490860FEF7FDFF284666
:10659000FEF7E6FF70BD0000241900206C0000200B
:1065A00050000020480000204C000020580000202F
:1065B000540000202DE9F04104460E46202C01D362
:1065C000BDE8F0812025FEF7C7FF0746634800EBD2
:1065D0004410406880B1614800EB4410C06830430B
:1065E0005E4901EB4411C8605C4800EB441000694F
:1065F00010B92046FFF738FF3846FEF7B1FF58487C
:10660000007800B1DCE7FEF7A7FF074655480068B1
:10661000FEF7ECFF05465448006885420AD2202D5B
:1066200008D2514805604D4800EB45104F490860BD
:10663000FEF7B1FF3846FEF793FF00BFC0E770B525
:1066400004460D46202C01D3002070BDFEF784FFC8
:106650000646424800EB4410406880B13F4800EBDA
:106660004410C06828433D4901EB4411C8603B48D1
:1066700000EB4410006910B92046FFF7F5FE3046E4
:10668000FEF76EFFFFF76AFF0120DEE710B5FEF7A9
:1066900063FF044600203149334A126801EB42117E
:1066A000C8602046FEF75CFF10BD70B50025FEF700
:1066B00053FF044629482C49096800EB4110C06883
:1066C00018B929490878FFF7F0FE2046FEF748FF81
:1066D000FFF744FF00BF234800680028FBD0FEF707
:1066E0003BFF04461D482049096800EB4110C5687E
:1066F00000201A491C4A126801EB4211C86020466A
:10670000FEF72EFF284670BD10B5FEF725FF0446A4
:1067100013480078401C1249087013480078144947
:1067200008702046FEF71CFF10BD10B5FEF714FFE1
:1067300004460B48007820B109480078401E0849FB
:1067400008700748007810B92020094908702046D1
:10675000FEF706FFFFF702FF10BD0000241900201E
:10676000680000206C00002050000020580000202D
:106770007000002070B504460D46204613F0F0FE70
:1067800086B207E020782978884201D0002070BDC9
:10679000641C6D1C3000A6F101018EB2F2D1012003
:1067A000F5E7014600200CE00A78302A08DB0A7879
:1067B000392A05DC00EB800250000A78303A104498
:1067C000491C0A78002AEFD17047FEB505460C46F1
:1067D00016460020009001900290002717E006E086
:1067E00014F8012B3846791CCFB20DF80020207820
:1067F000B04202D020780028F2D100200DF8070026
:106800006846FFF7CEFF05F8010B0027641C18004F
:10681000A3F10101CBB2E2D1FEBD2DE9FE43064654
:106820000B461746002000900190029080460124FC
:10683000A1461D4607E02878B84203D1687808B120
:10684000601CC4B26D1C28780028F4D1A14619E060
:1068500007E013F8012B4046411C01F0FF080DF83A
:1068600000201878B84202D018780028F1D1002012
:106870000DF808006846FFF794FF06F8010B4FF08B
:1068800000085B1C2000A4F10101CCB2E0D1484615
:10689000BDE8FE8370B504460026254609E0287849
:1068A000412805DB2878612802DA28782030287012
:1068B0006D1C28780028F2D1214681A0FFF75AFFED
:1068C000C8B1A41C204613F04BFE082811D80BE0D9
:1068D00036012078612803DA20783038064302E058
:1068E000207857380643641C20780028F0D13046C1
:1068F00070BD0020FCE70020FAE710B504462046F2
:1069000013F02EFE401E00212154601C10BD0146D4
:106910004878704703460A46002107E0505C9842D9
:1069200002D0481C81B201E008467047505C002844
:10693000F4D14FF6FF70F8E770B504460D46002617
:106940000FE020782978884208D121462846FFF7B1
:1069500011FF00B108E0701C86B201E0701C86B225
:10696000641C20780028ECD100BF304670BD2DE9B2
:10697000F04F83468946904600250026AA464446A5
:10698000002700BF21465846FFF7C4FF05462146B1
:106990004846FFF7BFFF0646B54206DA781CC7B285
:1069A000AA460AF10100044409E0B54206DD781E5A
:1069B000C7B2B2460AF10100044400E004E007B99E
:1069C00002E020780028DDD100BF27B9A4EB080041
:1069D00080B2BDE8F08F0020FBE710B503E010F8AF
:1069E000013B01F8013B1300A2F10104A2B2F6D170
:1069F00010BD2DE9F04104460D4617462E4616B946
:106A00000120BDE8F081FEF7A7FD804603E016F8FF
:106A1000010B04F8010B3800A7F101018FB2F6D188
:106A20004046FEF79DFD0020EBE72DE9F0410446CE
:106A30000D4617462E4616B90120BDE8F081FEF737
:106A40008BFD804603E014F8010B06F8010B3800BB
:106A5000A7F101018FB2F6D14046FEF781FD00207B
:106A6000EBE72DE9F04106460C46254615B9012015
:106A7000BDE8F08105F0030008B10120F8E7FEF75A
:106A80006BFD07462E703846FEF76AFD0020EFE7E3
:106A90002DE9F04104460026254615B90120BDE840
:106AA000F08105F0030008B10120F8E7FEF754FD7E
:106AB00007462E683846FEF753FD3046EFE70000E4
:106AC0003078000008B503208DF8000001208DF813
:106AD000010003208DF8020001208DF803006846B4
:106AE000FCF773F908BDF0B503460C461546642063
:106AF00093FBF0F0C6B2642093FBF0F700FB173075
:106B0000C1B2132E02DD01F16400C1B20846CF17F5
:106B100001EB977701EBA707BAB2072092FBF0F7DA
:106B200000FB172082B25719601EDFF824C31CF83F
:106B30000000384482B2CF1701EB9777BF10A1EB6A
:106B400087071FB9032C01DA501E82B2072092FB7F
:106B5000F0F700FB1720C0B2F0BD0146CA1701EBE9
:106B600092729210A1EB820292B9642091FBF0F232
:106B700000FB121050B94FF4C87091FBF0F200FB0B
:106B8000121008B9012070470020FCE70120FAE745
:106B90000020F8E770B5002600240025FDF772F903
:106BA0000646AC48B6FBF0F4AB480088A0423CD0A7
:106BB000A9490C8040F2B27510E02846FFF7CDFFDE
:106BC00040B1B4F5B77F02D3A4F5B77404E0681CF4
:106BD00085B206E0A4F26D14681C85B2B4F5B67FE8
:106BE000EBD800BF9D488580002516E09B4988882A
:106BF000FFF7B3FF30B1012D04D11D2C01D31D3C93
:106C000009E00CE09648405DA04203D89448405DFE
:106C1000241A00E003E0681C85B21C2CE6D200BFF9
:106C2000681C8E498871601CC8718A48B6FBF0F1F7
:106C300000FB11644FF46160B4FBF0F08749087009
:106C40004FF46160B4FBF0F100FB11403C21B0FB5C
:106C5000F1F0824948704FF46160B4FBF0F100FB41
:106C600011403C21B0FBF1F201FB12007B4988701E
:106C70000B46DA7999799888FFF735FF77490872DA
:106C8000002070BD2DE9F05F06460F4690469946FC
:106C9000DDE90AAB002440F2B270864203DB40F625
:106CA0003300864202DD0120BDE8F09F40F2B2755C
:106CB0000AE02846FFF751FF10B16A48044401E09A
:106CC00069480444681C85B2B542F2DB781EC7B23D
:106CD000002510E06248405D40F2A321484304EBE8
:106CE000C0143046FFF739FF18B1012D01D15948C2
:106CF0000444681C85B2BD42ECDBA8F1010040F2FF
:106D0000A321484304EBC014C9EB4910C0EB092090
:106D100004EB0014CAEB0A1004EB80045C4401216C
:106D20004FF0C050FDF737F80120FCF75EFE20461B
:106D3000FDF7B1F8FDF7E2F80020B5E71CB5002437
:106D40000420FCF7E0F845F25001884247D00121C9
:106D50004FF0C050FDF71FF80120FCF746FEFCF78E
:106D60009DF80120FCF777FF04E0601CC4B20A2004
:106D7000FEF796FC4120FCF7D6FE0028F5D0FA2C51
:106D800001DB01201CBD4FF48070FCF780FF012067
:106D9000FCF783FFFDF7B2F8FDF7B9F801210846CB
:106DA000FDF750F8FDF7AAF8FDF759F847F6FF7020
:106DB000FDF77EF8FDF7A2F8372000210A23022212
:106DC000CDE900100C2140F2D970FFF75BFFFDF711
:106DD0004FF845F250010420FCF789F807E0FDF771
:106DE00096F801210846FDF72DF8FDF787F8FFF723
:106DF00069FEFFF7CFFE0020C4E710B50120FDF7C4
:106E0000ABF808B1FFF7C6FE0220FDF7A5F810B1F8
:106E10000220FDF7B1F80520FDF7AEF8FDF76EF89A
:106E200010BD0E48704710B5044601214FF0C05008
:106E3000FCF7B1FF0120FCF7D8FD2046FDF72BF849
:106E4000FDF75CF8002010BD10B5FDF71BF810BD74
:106E5000C0DB01088051010072000020241D0020C9
:106E6000CCDB01080085E2018033E10170B5044606
:106E700007254FF6FF7000EA44142046E11704EBA3
:106E800011610E1245F25550FCF784FD2846FCF7BF
:106E900084FD3046FCF784FDFCF785FDFCF788FD9A
:106EA00070BD10B5FCF77FFD10BD000008B50121D5
:106EB0001020FCF763FF4FF40050ADF800001020E5
:106EC0008DF8030002208DF802006946FE48FCF7A9
:106ED00013FC0020FCF7BFFE4FF40051FA48FCF70A
:106EE000BAFC08BD10B5F948006800286FD0F84812
:106EF00000884000F549096831F81000F54991FB18
:106F0000F0F4F5480068401CF3490860F348006855
:106F1000401CF249086064B1601FEF49096888426B
:106F200003D20120EE49086006E00020EC49086029
:106F300002E00020EA490860E54800884000E34993
:106F4000096831F81000E34991FBF0F0E249096863
:106F5000884202D80020E0490860DD48008801210D
:106F600001EB4000D949096831F8100040F2712165
:106F70004843DA490968B1EB001F27D3D448008899
:106F8000401CD34908800020D4490860D0480088BC
:106F9000012101EB4000CD49096831F81000A8B982
:106FA0000020CB490880CD490860CB490860C7481C
:106FB0000068FEF734FD0020C4490860C849086035
:106FC000C8490870AFF2E30004F089FA00BF10BDB1
:106FD0002DE9FF4105460024C34BD3E90121186880
:106FE000DB68CDE90213CDE90002002611E03DF88F
:106FF000160016F0CFF88046BC480168404616F0EF
:1070000011F9074616F08EF880B22DF81600701CA4
:10701000C6B2082EEBDBB3480078012801D1BDE8E9
:10702000FF810120AF4908704FF41670FEF709FD8B
:10703000A64908600846006800B9F0E74AE02878E9
:1070400030383DF810006100A04A126822F81100A3
:1070500068785F280DD161009C4A126832F81100EF
:1070600000EBD07149106200984B1B6823F8121096
:1070700010E068787E280DD160009449096831F8E5
:1070800010004FF6FF7101EA400061008F4A12685C
:1070900022F81100A8793038082191FBF0F0012185
:1070A00001EB4401894A126822F81100012000EB2B
:1070B00044008649096831F810002979303948437D
:1070C000012101EB4401814A126822F811000835C0
:1070D000601C84B228780028B1D1012101EB440161
:1070E0007A4A126822F81100AFF2072004F0E5F99D
:1070F00000BF94E7002101710170704730B503466D
:10710000002003E00C5C1C54441CE0B20C5C002C1E
:10711000F8D11C54002004E0155C1C1D2554441CAF
:10712000E0B2145C002CF7D100251C1D255430BDA5
:1071300070B54FF4C860FEF784FC05462C466CA27F
:107140006CA12046FFF7DAFF08346BA26BA1204642
:10715000FFF7D4FF08346AA26AA12046FFF7CEFFEA
:10716000083469A269A12046FFF7C8FF083464A269
:1071700067A12046FFF7C2FF08345FA261A1204645
:10718000FFF7BCFF08345EA25CA12046FFF7B6FF04
:1071900008345BA25BA12046FFF7B0FF083458A279
:1071A00056A12046FFF7AAFF083451A257A1204656
:1071B000FFF7A4FF083457A257A12046FFF79EFF10
:1071C00008344BA24BA12046FFF798FF08344AA28F
:1071D0004AA12046FFF792FF083449A249A1204660
:1071E000FFF78CFF083448A248A12046FFF786FF2E
:1071F000083443A246A12046FFF780FF083440A28E
:1072000040A12046FFF77AFF083439A23BA120466F
:10721000FFF774FF08343CA236A12046FFF76EFF4B
:10722000083433A235A12046FFF768FF083436A2A0
:1072300036A12046FFF762FF08342DA22DA120467B
:10724000FFF75CFF08342AA230A12046FFF756FF63
:1072500008342BA229A12046FFF750FF083428A2AA
:1072600028A12046FFF74AFF083427A223A1204681
:10727000FFF744FF08341EA225A12046FFF73EFF7A
:1072800008341BA21FA12046FFF738FF08341AA2BA
:107290001AA12046FFF732FF083415A21BA1204691
:1072A000FFF72CFF08341BA21BA12046FFF726FF87
:1072B00008340FA20FA12046FFF720FF08340CA2CC
:1072C00012A120462AE000000010014078000020B2
:1072D00082000020A0860100880000208400002099
:1072E000B401224274000020D8DB01087C00002099
:1072F000312F310036000000332F32003200000001
:10730000312F320031000000322F310033000000F5
:1073100030000000352F3200365F0000FFF7EEFE30
:107320000834AFF23402AFF234012046FFF7E6FE34
:107330000834AFF24402FEA12046FFF7DFFE083416
:10734000AFF25402AFF23C012046FFF7D7FE0834FB
:10735000AFF26402F6A12046FFF7D0FE0834AFF288
:107360007002F4A12046FFF7C9FE0834AFF26802AC
:10737000F1A12046FFF7C2FE0834F0A2ECA120469E
:10738000FFF7BCFE0834AFF28802AFF2800120465E
:10739000FFF7B4FE0834AFF29002AFF2A801204626
:1073A000FFF7ACFE0834AFF2B802AFF2A0012046FE
:1073B000FFF7A4FE0834AFF2C002DDA12046FFF7BC
:1073C0009DFE0834AFF2C802AFF2BC012046FFF7C1
:1073D00095FE0834DAA2AFF2CC012046FFF78EFE0C
:1073E0000834AFF2E402D4A12046FFF787FE083448
:1073F000AFF2F402CFA12046FFF780FE0834AFF2CF
:107400000012CBA12046FFF779FE0834AFF210122C
:10741000AFF220112046FFF771FE0834AFF22012C0
:10742000C8A12046FFF76AFE0834AFF23C12AFF263
:107430003C112046FFF762FE0834AFF23C12AFF277
:1074400034112046FFF75AFE0834AFF24412AFF26F
:1074500044112046FFF752FE0834AFF25C12AFF23F
:1074600054112046FFF74AFE0834AFF26412AFF21F
:107470007C112046FFF742FE0834AFF27C12AFF2D7
:1074800074112046FFF73AFE0834AFF29C12A8A10F
:107490002046FFF733FE0834AFF2AC12AFF2AC1166
:1074A0002046FFF72BFE0834AFF2AC12AFF2A0116A
:1074B0002046FFF723FE0834AFF2BC12AFF2B4113E
:1074C0002046FFF71BFE0834AFF2DC12AFF2D411F6
:1074D0002046FFF713FE0834AFF2EC12AFF2DC11D6
:1074E0002046FFF70BFE0834AFF2FC12AFF2F411A6
:1074F0002046FFF703FE083493A2AFF2F0112046B6
:10750000FFF7FCFD0834AFF20822AFF2002120465D
:10751000FFF7F4FD0834AFF21022AFF22821204625
:10752000FFF7ECFD0834AFF23822AFF220212046FD
:10753000FFF7E4FD0834AFF240227DA12046FFF7BB
:10754000DDFD0834AFF24822AFF23C212046FFF7C0
:10755000D5FD0834AFF25822AFF250212046FFF794
:10756000CDFD0834AFF2682273A12046FFF7C6FDB7
:107570000834AFF274226FA12046FFF7BFFD083434
:10758000AFF284226AA12046FFF7B8FD0834AFF2BB
:107590009022AFF2A0212046FFF7B0FD0834AFF2F1
:1075A000A02268A12046FFF7A9FD0834AFF2C0224F
:1075B000AFF2C0212046FFF7A1FD0834AFF2AC22A4
:1075C000AFF2B8212046FFF799FD0834AFF2D02280
:1075D000AFF2C8212046FFF791FD0834AFF2D82260
:1075E000AFF2F0212046FFF789FD0834AFF2F02218
:1075F000AFF2E8212046FFF781FD0834AFF21032E8
:1076000052A12046FFF77AFD0834AFF214324AA1A6
:107610002046FFF773FD0834AFF21C324BA1204621
:10762000FFF76CFD0834AFF2203242A12046FFF78D
:1076300065FD0834AFF248323DA12046FFF75EFDFC
:1076400008343EA2AFF254312046FFF757FD08340C
:107650002046FFF74FFD2846FFF7BAFC2846FEF705
:10766000DEF970BD70B54FF4C860FEF7EAF9054663
:107670002C46AFF27432AFF260312046FFF73EFD88
:107680000834AFF29432AFF284312046FFF736FD72
:107690000834AFF29432AFF280312046FFF72EFD6E
:1076A0000834AFF2AC32AFF29C312046FFF726FD32
:1076B0000834AFF2C432AFF2BC312046FFF71EFDF2
:1076C000083423A2AFF2C4312046FFF717FD083477
:1076D000AFF2D4321FA12046FFF710FD0834AFF2FD
:1076E000F032AFF2CC312046FFF708FD0834AFF29C
:1076F000F03218A12046FFF701FD0834AFF208422E
:10770000AFF208412046FFF7F9FC0834AFF210420F
:10771000AFF208412046FFF7F1FC0834AFF22042F7
:10772000AFF220412046FFF7E9FC083408A213E03D
:1077300037000000317E0000327E0000362F31001D
:10774000312F330035000000332F3100337E00002D
:10775000372F3200375F0000AFF244412046FFF779
:10776000CDFC0834AFF26042AFF260412046FFF733
:10777000C5FC0834AFF28042AFF288412046FFF7E3
:10778000BDFC0834AFF28042AFF280412046FFF7E3
:10779000B5FC0834AFF2A842AFF2A8412046FFF78B
:1077A000ADFC0834AFF2A842AFF268012046FFF703
:1077B000A5FC0834AFF2B842FEA12046FFF79EFCBC
:1077C0000834AFF2BC42AFF2BC412046FFF796FC52
:1077D0000834AFF2DC42AFF2D4412046FFF78EFC12
:1077E0000834AFF2E442AFF2EC412046FFF786FCEA
:1077F0000834AFF20452AFF2EC412046FFF77EFCB2
:107800000834AFF20452EBA12046FFF777FC0834AE
:10781000AFF21452AFF20C512046FFF76FFC083460
:10782000E5A2AFF228512046FFF768FC0834AFF21A
:107830004052AFF21C512046FFF760FC0834AFF213
:107840005052AFF238512046FFF758FC0834AFF2DF
:107850005052AFF258512046FFF750FC0834AFF2B7
:107860006052AFF258512046FFF748FC0834AFF29F
:107870008052AFF25C512046FFF740FC0834AFF273
:107880003812AFF280512046FFF738FC0834AFF2CF
:10789000A052AFF288512046FFF730FC0834AFF217
:1078A000A052AFF2A8512046FFF728FC0834AFF2EF
:1078B000B052AFF260112046FFF720FC0834AFF25F
:1078C000C052AFF2B4512046FFF718FC0834AFF2B3
:1078D000D052AFF2C8512046FFF710FC0834AFF287
:1078E000E052AFF2E8512046FFF708FC0834AFF24F
:1078F000F052AFF2DC512046FFF700FC0834AFF243
:107900000062AFF200612046FFF7F8FB0834AFF2E7
:107910001062AFF218612046FFF7F0FB0834A6A210
:10792000AFF218612046FFF7E9FB0834AFF2286296
:10793000AFF228612046FFF7E1FB0834AFF248625E
:10794000AFF250612046FFF7D9FB0834AFF2506226
:10795000AFF248612046FFF7D1FB0834AFF2706206
:10796000AFF270612046FFF7C9FB0834AFF27062D6
:10797000AFF230212046FFF7C1FB0834AFF280623E
:107980008CA12046FFF7BAFB0834AFF28462AFF255
:1079900084612046FFF7B2FB0834AFF29C62AFF27D
:1079A0005C212046FFF7AAFB0834AFF2AC62AFF2CD
:1079B000B4612046FFF7A2FB0834AFF2BC62AFF21D
:1079C000B0612046FFF79AFB0834AFF2CC6279A190
:1079D0002046FFF793FB0834AFF2DC62AFF2D461CC
:1079E0002046FFF78BFB0834AFF2EC62AFF2F46194
:1079F0002046FFF783FB0834AFF20C72AFF2FC6154
:107A00002046FFF77BFB0834AFF2C422AFF21471BB
:107A10002046FFF773FB0834AFF22C72AFF21471FB
:107A20002046FFF76BFB0834AFF22C72AFF23471D3
:107A30002046FFF763FB0834AFF23C72AFF2EC2153
:107A40002046FFF75BFB0834AFF24C72AFF2407197
:107A50002046FFF753FB0834AFF25C72AFF254716B
:107A60002046FFF74BFB0834AFF26C72AFF21C31CB
:107A70002046FFF743FB0834AFF27C72AFF2687127
:107A80002046FFF73BFB0834AFF29C724BA1204627
:107A9000FFF734FB0834AFF25032AFF28471204666
:107AA000FFF72CFB0834AFF2B872AFF2A07120469A
:107AB000FFF724FB0834AFF27032AFF27831204682
:107AC000FFF71CFB0834AFF2C872AFF2C07120465A
:107AD000FFF714FB0834AFF2D872AFF298312046AA
:107AE000FFF70CFB0834AFF2F072AFF2F8712046EA
:107AF000FFF704FB0834AFF2F872AFF2C83120464A
:107B0000FFF7FCFA0834AFF60802AFF2DC3120468A
:107B1000FFF7F4FA0834AFF61802AFF62801204652
:107B2000FFF7ECFA0834AFF63802AFF2E83120463E
:107B3000FFF7E4FA083420A2AFF648012046FFF729
:107B4000DDFA0834AFF64002AFF218412046FFF7E5
:107B5000D5FA0834AFF66002AFF22C412046FFF7A9
:107B6000CDFA0834AFF67002AFF678012046FFF781
:107B7000C5FA0834AFF66402AFF238412046FFF789
:107B8000BDFA0834AFF68802AFF698012046FFF739
:107B9000B5FA083408A2AFF68C012046FFF7AEFA1A
:107BA0000834AFF69C02AFF274412046FFF7A6FA04
:107BB000083405E034000000342F3100355F000048
:107BC000AFF6CC02AFF298412046FFF797FA08349F
:107BD000AFF6DC02AFF6E4012046FFF78FFA083477
:107BE000AFF6D002AFF2A4412046FFF787FA08347F
:107BF000AFF6F402AFF604112046FFF77FFA08341F
:107C0000AFF24C02AFF6FC012046FFF777FA0834DA
:107C1000AFF62412AFF600112046FFF76FFA0834D2
:107C2000AFF63412AFF624112046FFF767FA083496
:107C3000AFF64412AFF63C112046FFF75FFA083466
:107C4000AFF64C12AFF63C112046FFF757FA083456
:107C5000AFF65412AFF654112046FFF74FFA08342E
:107C6000AFF67412AFF65C112046FFF747FA0834FE
:107C7000AFF22C52AFF67C112046FFF73FFA0834E2
:107C8000AFF68412AFF68C112046FFF737FA0834AE
:107C9000AFF69412AFF244512046FFF72FFA0834A2
:107CA000AFF6A412AFF698112046FFF727FA083472
:107CB000AFF6B412AFF6AC112046FFF71FFA083446
:107CC000AFF6C412AFF274512046FFF717FA08342A
:107CD000AFF6D412AFF6C0112046FFF70FFA083402
:107CE000AFF6F412AFF22C112046FFF707FA083472
:107CF000AFF23C12AFF6E0112046FFF7FFF908346F
:107D0000AFF60422AFF6F0112046FFF7F7F908347A
:107D1000AFF62422AFF614212046FFF7EFF908341E
:107D2000AFF62422AFF62C212046FFF7E7F90834FE
:107D3000AFF63C22AFF62C212046FFF7DFF90834DE
:107D4000AFF64422AFF644212046FFF7D7F90834B6
:107D5000AFF66422AFF64C212046FFF7CFF9083486
:107D6000AFF21C62AFF66C212046FFF7C7F908346A
:107D7000AFF68422AFF66C212046FFF7BFF9083436
:107D8000AFF67C22AFF244612046FFF7B7F9083422
:107D9000AFF6A422AFF68C212046FFF7AFF90834E6
:107DA000AFF6AC22AFF278612046FFF7A7F90834AE
:107DB000AFF6B422AFF6B4212046FFF79FF908349E
:107DC000AFF6C422AFF298612046FFF797F9083466
:107DD000AFF6D422AFF6E4212046FFF78FF908343E
:107DE000AFF6F422AFF2A4612046FFF787F908341A
:107DF000FEA2AFF600312046FFF780F90834204696
:107E0000FFF778F92846FFF7E3F82846FDF707FE65
:107E100070BD70B54FF4C860FDF713FE05462C46E3
:107E2000F3A2AFF60C312046FFF768F90834F1A24F
:107E3000AFF2E0612046FFF761F90834EEA2AFF639
:107E40003C312046FFF75AF90834AFF64C32AFF612
:107E500040312046FFF752F90834E6A2AFF6483128
:107E60002046FFF74BF90834E2A2AFF6683120460E
:107E7000FFF744F90834DEA2AFF228712046FFF77D
:107E80003DF90834DBA2AFF2CC212046FFF736F9EA
:107E90000834DAA2AFF244712046FFF72FF9083414
:107EA000D7A2AFF68C312046FFF728F90834AFF699
:107EB000B032AFF6A4312046FFF720F90834CCA247
:107EC000AFF6AC312046FFF719F90834C9A2AFF27A
:107ED0007C712046FFF712F90834C7A2AFF6DC31F7
:107EE0002046FFF70BF90834AFF6EC32AFF6E0317D
:107EF0002046FFF703F90834BEA2AFF6E43120466E
:107F0000FFF7FCF80834BBA2AFF608412046FFF7A4
:107F1000F5F80834B6A2AFF61C412046FFF7EEF89C
:107F20000834B4A2AFF624412046FFF7E7F808343E
:107F3000B2A2AFF638412046FFF7E0F80834ACA211
:107F4000AFF638412046FFF7D9F80834AFF6504273
:107F5000AFF644412046FFF7D1F80834AFF660424F
:107F6000AFF64C412046FFF7C9F80834AFF6784227
:107F7000AFF2C0312046FFF7C1F80834AFF68042B7
:107F8000AFF680412046FFF7B9F8083499A2AFF662
:107F900094412046FFF7B2F8083496A2AFF69C4110
:107FA0002046FFF7ABF80834AFF6AC42AFF6B44169
:107FB0002046FFF7A3F80834AFF6BC42AFF6B04155
:107FC0002046FFF79BF80834AFF6CC42AFF21441DD
:107FD0002046FFF793F8083485A2AFF6D04120463B
:107FE000FFF78CF8083485A2AFF6F0412046FFF782
:107FF00085F8083480A2AFF6F4412046FFF77EF8FA
:1080000008347CA2AFF6F8412046FFF777F8083431
:10801000AFF61452AFF61C512046FFF76FF8083444
:1080200074A2AFF620512046FFF768F8083471A219
:10803000AFF61C512046FFF761F808346CA2AFF68A
:1080400044512046FFF75AF808346AA2AFF6385177
:108050002046FFF753F8083466A2AFF65851204681
:10806000FFF74CF8083463A2AFF654512046FFF7EF
:1080700045F808345EA2AFF674512046FFF73EF88B
:1080800008345CA2AFF68C512046FFF737F808346D
:10809000AFF69452AFF2E4412046FFF72FF80834D0
:1080A00058A2AFF698512046FFF728F8083452A29C
:1080B000AFF6A8512046FFF721F80834AFF6C052BA
:1080C000AFF6B4512046FFF719F80834AFF6D05296
:1080D000AFF6E0512046FFF711F8083444A2AFF69E
:1080E00094112046FFF70AF80834AFF6EC52AFF6C9
:1080F000B8112046FFF702F808343EA2AFF6CC11C3
:108100002046FEF7FBFF08343AA2AFF6186120467E
:10811000FEF7F4FF083437A2AFF6E8112046FEF769
:10812000EDFF0834AFF62862AFF638612046FEF75F
:10813000E5FF08342FA2AFF604212046FEF7DEFF4C
:1081400008342CA2AFF638612046FEF7D7FF08347A
:10815000AFF65462AFF664612046FEF7CFFF0834F5
:1081600024A2AFF630212046FEF7C8FF083420A233
:10817000AFF644212046FEF7C1FF0834AFF6806217
:10818000AFF690612046FEF7B9FF083419A2AFF6AA
:108190004C212046FEF7B2FF083417A2AFF6AC61BF
:1081A0002046FEF7ABFF0834AFF6AC62AFF6A06135
:1081B0002046FEF7A3FF0834AFF6BC62AFF6CC61F1
:1081C0002046FEF79BFF083409A2AFF68021204627
:1081D000FEF794FF0834AFF6D862AFF6A42120462C
:1081E000FEF78CFF083403A20EE00000372F3100A9
:1081F000322F3200312F3400352F3400332F34002A
:10820000342F3200382F3400AFF6D8212046FEF745
:1082100075FF0834AFF22402AFF628712046FEF74E
:108220006DFF0834AFF23402AFF6F8212046FEF7B6
:1082300065FF0834AFF63872AFF648712046FEF796
:108240005DFF0834AFF25402AFF618312046FEF756
:1082500055FF0834AFF26402AFF64C712046FEF7CA
:108260004DFF0834AFF66872AFF678712046FEF71E
:1082700045FF0834AFF28402AFF648312046FEF7DE
:108280003DFF0834AFF29802AFF65C312046FEF7AE
:1082900035FF0834AFF2A402AFF658312046FEF79E
:1082A0002DFF0834AFF6A872AFF67C312046FEF7FA
:1082B00025FF0834AFF2C002AFF6C8712046FEF7C2
:1082C0001DFF0834AFF6C872AFF6BC712046FEF74A
:1082D00015FF0834AFF6D872AFF6E8712046FEF706
