:020000040800F2
:1028000068260020A92A0008A7770008535300086B
:10281000A37700089D460008BBB300080000000035
:102820000000000000000000000000008F9400087D
:10283000F949000800000000332B000895A30008A8
:10284000C32A0008C32A0008C32A000821810008FF
:10285000C32A0008C32A0008C32A0008C32A0008A4
:10286000C32A0008C32A0008EF4B0008C32A000847
:10287000C32A0008C32A0008C32A0008C32A000884
:10288000C32A0008C32A0008C32A0008C32A000874
:10289000C32A0008C32A0008C32A0008C32A000864
:1028A000C32A0008C32A0008C32A0008C32A000854
:1028B00071A400089DA40008B9A40008C32A000858
:1028C000C32A0008C32A0008C32A0008C32A000834
:1028D000C32A0008D1AE0008C9AF0008C32A000807
:1028E000C32A0008C32A0008C32A0008C32A000814
:1028F000C32A0008C32A0008C32A0008C32A000804
:10290000C32A0008C32A0008C32A0008C32A0008F3
:10291000C32A0008C32A0008C32A0008C32A0008E3
:10292000C32A0008C32A0008C32A0008C32A0008D3
:1029300000F002F800F07EF80AA090E8000C824453
:102940008344AAF10107DA4501D100F073F8AFF230
:10295000090EBAE80F0013F0010F18BFFB1A43F07D
:1029600001031847AC980100CC9801000A444FF0CD
:10297000000C10F8013B13F0070408BF10F8014BDE
:102980001D1108BF10F8015B641E05D010F8016B23
:10299000641E01F8016BF9D113F0080F1EBF10F887
:1029A000014BAD1C0C1B09D16D1E58BF01F801CBAA
:1029B000FAD505E014F8016B01F8016B6D1EF9D52D
:1029C0009142D6D370470000002300240025002642
:1029D000103A28BF78C1FBD8520728BF30C148BF82
:1029E0000B607047662917F00287652917F0FF868C
:1029F000642900F05181752900F04E81782900F09A
:102A00008781732900F0DB86002070471FB500F036
:102A10005CFA00F0D9FE04000020002116F042FE0E
:102A2000401C60600020002116F052FEE0601FBDD7
:102A300010B510BD00F0C8FF1146FFF7E7FF11F019
:102A400027FA00F0E6FF03B4FFF7F2FF03BC09F03A
:102A500040F80000EFF30980704780F30988704761
:102A6000EFF30880704780F30888704740BA7047DA
:102A7000C0BA70470B49D1F800C04A685CF8043B03
:102A80001068184442F8040B8C4528BFA1F1DC0CF7
:102A90008A4228BFA1F1DC02C1F800C04A6020F0E0
:102AA000004070470024002009488047094800473B
:102AB000FEE7FEE7FEE7FEE7FEE7FEE7FEE7FEE7EE
:102AC000FEE7FEE704480549034A054B704700004E
:102AD00011A400083129000868240020682600207D
:102AE00068240020EFF3108072B6704780F31088DE
:102AF0007047264C264D25604FF0000484F309886A
:102B0000244C4FF001052570234C4FF08055256073
:102B100062B6FEE730B4204C4FF08055256030BCE3
:102B2000704730B41C4C4FF08055256030BC704766
:102B300000BF72B6EFF3098028B1203880E8F00FAB
:102B400016490968086000B51548006800B180475B
:102B50005DF804EB134814490A7802700F481349D2
:102B60000A680260106890E8F00F203080F309884E
:102B70004EF0040E62B67047B0FA80F0704790FADB
:102B8000A0F04FEA10407047DDF810F020ED00E0B3
:102B90000000FFFF4400002004ED00E05000002092
:102BA00060000020480000204C000020540000205D
:102BB000704710B5044600F059FB0068005DC00680
:102BC00002D504F1200010BD204610BD0FB41CB585
:102BD000084B06AA7B4469460090059800F0C5FDA5
:102BE00004460020694600F0D3FD20461CBC5DF879
:102BF00014FB0000B90B000070B50446856900683D
:102C0000C10601D5302600E02026C00707D070BDE0
:102C1000D4E9012130469047206A401C20626D1E95
:102C2000F6D570BD70B5044685690078C00707D138
:102C300070BDD4E9012120209047206A401C206209
:102C40006D1EF6D570BD70B50C460546012A05D03F
:102C50002878800600D5EA69002302E0012305E018
:102C60005B1C934202D2E05C0028F9D1A869E61807
:102C7000C01AA861286A184428622846FFF7BCFFDA
:102C800004E0D5E9012114F8010B9047B442F8D3D0
:102C90002846FFF7C7FF70BD2DE9F0410646002426
:102CA00010687529314616A510D0AFF300800028B2
:102CB00002DA404213A507E031688A0701D512A560
:102CC00002E0490704D511A5012401E0AFF300801B
:102CD00000210A2206F1240709E0B0FBF2FCB0FB58
:102CE000F2F302FB1C00303078541846491C0028CF
:102CF000F3D123462A463046BDE8F04100F0C9BA78
:102D0000000000002D0000002B000000200000004B
:102D100070B504460D4621461068AFF30080218847
:102D2000090502D50F4A7A4402E00E4A7A440E326F
:102D3000002104F1240305E000F00F060009965D70
:102D40005E54491C0028F7D120780023000704D5E1
:102D5000702D02D009B1022311322046BDE8704027
:102D600000F097BAAE8401002DE9F05F8946044671
:102D70004FF0000ADFF824B1FB44C0F820A0204641
:102D8000E168884700287DD0252806D0D4E90121B4
:102D90009047206A401C2062F1E700255F462046EC
:102DA000E16888472028064607DB312E05D2B8198E
:102DB00010F8200C08B10543F1E7A80701D525F06C
:102DC0000405C4F81CA00027C4F818A02A2E09D0B6
:102DD000304608F077FE38B304EB8708303EC8F879
:102DE000186019E059F8041B204604EB8702916132
:102DF000E1688847012F064618D1E069002820DAEB
:102E000025F020051DE0D8F8180000EB800006EB47
:102E100040003038C8F818002046E1688847064668
:102E200008F050FE0028EED1012F0AD02E2E08D136
:102E30002046E16888477F1C0646022F45F02005A2
:102E4000C4DBA069002803DA404245F00105A06117
:102E5000E80701D025F01005A6B1A6F14100192818
:102E600002D8203645F400654A46314620462560A2
:102E70004D46FFF7B7FD60B1012807D0ED1D25F0E5
:102E8000070000E007E000F1080978E705F1040910
:102E900075E730467AE7206ABDE8F09F8484010038
:102EA0000B4910B5A1F17C020A4CC2E93712372157
:102EB00006E000EB104342F82130074B00FB0340D3
:102EC0000B1EA1F10101F4DC10BD0120E8E70000B8
:102ED000A0230020E119D666CD0D0100401ECAB224
:102EE00010F8011F8A4202D00029F9D10020704752
:102EF00040EA0103024630B59B0710D14FF0013480
:102F000000E008C208C91D1B9D4315EAC41FF8D084
:102F100013F0FF0102F8011B0DD01B0AF8E711F8AE
:102F2000013B002B02F8013B05D011F8013B002BBF
:102F300002F8013BF3D130BD10B5431C02E010F89C
:102F4000011B71B18107FAD14FF0013202C88C1A0E
:102F50008C4314EAC211F9D0C01A0A0603D0C01E6D
:102F600010BDC01A10BD0A0401D0801E10BD090298
:102F7000FCD0401E10BD40EA010370B59B072ED166
:102F80004FF00136042A2AD308C810C99D1B9D435F
:102F9000121F15EAC61517D0D8B2E1B2401A50EA8E
:102FA000056110D198B2A1B2401A50EA05410AD188
:102FB00023F07F4024F07F41401A50EA052102D1DE
:102FC000180EA0EB146070BDA342DBD018BA21BA72
:102FD000884201D9012070BD4FF0FF3070BD0AB9A1
:102FE000002070BD10F8013B11F8014B63B1A34202
:102FF0000AD1521E08D010F8013B11F8014B1BB149
:10300000A34201D1521EEDD1181B70BD032A40F21C
:10301000308010F0030C00F0158011F8013BBCF17A
:10302000020F624498BF11F801CB00F8013B38BF92
:1030300011F8013BA2F1040298BF00F801CB38BFA0
:1030400000F8013B11F0030300F02580083AC0F0BE
:10305000088051F8043B083A51F804CBA0E8081066
:10306000F5E7121D5CBF51F8043B40F8043BAFF399
:103070000080D20724BF11F8013B11F801CB48BFF3
:1030800011F8012B24BF00F8013B00F801CB48BF29
:1030900000F8012B704710B5203AC0F00B80B1E862
:1030A0001850203AA0E81850B1E81850A0E818507D
:1030B000BFF4F5AF5FEA027C24BFB1E81850A0E886
:1030C000185044BF18C918C0BDE810405FEA827CA0
:1030D00024BF51F8043B40F8043B08BF7047D207B7
:1030E00028BF31F8023B48BF11F8012B28BF20F858
:1030F000023B48BF00F8012B70474FF00002042943
:10310000C0F0128010F0030C00F01B80CCF1040C16
:10311000BCF1020F18BF00F8012BA8BF20F8022B4A
:10312000A1EB0C0100F00DB85FEAC17C24BF00F8F0
:10313000012B00F8012B48BF00F8012B70474FF01E
:10314000000200B5134694469646203922BFA0E8F7
:103150000C50A0E80C50B1F12001BFF4F7AF090703
:1031600028BFA0E80C5048BF0CC05DF804EB8900F4
:1031700028BF40F8042B08BF704748BF20F8022B37
:1031800011F0804F18BF00F8012B704710B50446AE
:1031900010F0030F08BF11F0030F40F015804FF03F
:1031A000013E121FC0F20E8051F8043BA3EB0E0C3F
:1031B0002CEA030C1CEACE1C08BF40F8043BF0D0FC
:1031C000A1F1040102F10402521E08DB11F8013BD7
:1031D000002B00F8013BF7D11146FFF78EFF204688
:1031E00010BD00004FF0013C50F8042B51F8043B97
:1031F0009A4221D1A2EB0C03934313EACC1317D1CB
:1032000050F8042B51F8043B9A4215D1A2EB0C0361
:10321000934313EACC130BD150F8042B51F8043B21
:103220009A4209D1A2EB0C03934313EACC13DBD0EF
:103230004FF00000704700BFD01A01BAB1FA81F117
:1032400001F0180122FA01F0CB40C1F12001DBB2FC
:10325000C0B2C01A2CFA01F3D11A914311EAC3117A
:10326000E6D17047704770477047704710B500F05F
:10327000ABFA001D10BD00BF2D64010010B500F0B9
:10328000A7FA006810BD10B5044600F0A1FA04606A
:1032900010BD2DE9F0470D4699469246044600F1CF
:1032A00024080168880604D5E06921F01001216036
:1032B00000E00120A84201DD471B00E00027A169D2
:1032C0007A1902EB0900081AA0612078C00602D41E
:1032D0002046FFF791FC002608E0D4E901211AF806
:1032E00006009047206A401C761C20624E45F4DBA5
:1032F0002078C0060AD52046FFF77EFC06E0D4E918
:10330000012130209047206A401C2062381EA7F11E
:103310000107F4DC07E0D4E9012118F80500904723
:10332000206A401C2062281EA5F10105F3DC20461E
:10333000FFF778FC2078000602D50220BDE8F08770
:103340000120FBE770472DE9FF4F0C461E464FF06A
:10335000FF378BB0D2E90001DDF860800A908A4621
:10336000C1F30A5505B93D46002108464FF000005B
:10337000BAF1000F00F4400005DA00EB80004FF4D2
:10338000400101EA50004FEA9059B9F1010F00DD08
:10339000B9460A9850EA4A000ED044F61050A5F2F9
:1033A000FF3545432F14B8F1000F1ED07542291E7A
:1033B0001EDDC9F100021CE0B8F1010F4FF0000062
:1033C00001D0302103E0F24305E02154401CB0421B
:1033D000FBDB30460022002121540B99C1F8088004
:1033E000C1E900200FB0BDE8F08FBD1B6D1CDEE70A
:1033F0004A4600DA694206A800F074FA06AB93E880
:10340000070003AB83E8070050460A9900F007FB6A
:103410008DE80700A0F500501F3800900398002D9C
:1034200009DD42F21F014A46084403A90390684699
:1034300000F066FD08E0A0F500504A461F3803A9D9
:103440000390684600F070FD8DE807000004000C52
:1034500003D04FF0FF30410800E01046B8F1000FF4
:1034600003D00022009215461EE0751E05D400F020
:10347000B3F9303262556D1EF9D5B34601220843C7
:1034800002D000227F1C04E02078302801D10022E5
:103490007F1E002A099786D01DE0112D07DA00F063
:1034A0009BF9303262556D1C50EA0102F5D1084398
:1034B00002D00098C8B10EE00021681E05E0235C30
:1034C000625C63542254401E491C8142F7DBAB46C8
:1034D000A81B401E0990002004F80B000B98099AC5
:1034E000C0F80880C0E9002B7CE711264FF00008E7
:1034F00059E72DE9F04F88460446D21D22F0070116
:1035000091B0D1E90001CDE90A0108F051FA024673
:103510000B98C00F01D02D2007E02068810701D54E
:103520002B2002E0202101EAC000032A099001D0EB
:10353000072A05DB03464146204600F093F90BE1DC
:103540002078800601D5E06900E00620B8F1650F1B
:10355000814606D0B8F1660F18D0B8F1670F70D168
:1035600031E00020B9F1110F009001DB112301E0DF
:1035700009F101030AAA01A90CA8FFF7E4FEDDE99D
:103580000C70002609F10105834647E001204B46F7
:1035900000904FF000470AAA01A90CA8FFF7D3FE3C
:1035A000DDE90DB00C995D46002610B909F1010066
:1035B0000D18B9EB050003D4C0F1FF3609F1010580
:1035C000A5EB09002BE0B9F1010F01DA4FF0010979
:1035D0000020B9F1110F0090484601DD112300E0F1
:1035E00003460AAA01A90CA8FFF7ADFEDDE90C709D
:1035F0004D4600268346207800070AD4AB4500DA02
:103600005D4601A8012D04DD411911F8011C302986
:1036100007D04F4502DA17F1040F04DA0120824681
:103620000FE06D1EEEE7002F02DCED1B3E4403E0D1
:10363000781CA84200DD7D1CB81B00F1010A4FF088
:1036400000472078000703D4AA4501DB4FF0FF3A7A
:103650000021B7F1004F0DF143088DF8431024D03D
:1036600002202B23002F01DA7F422D230A21021E84
:10367000A0F1010000DC5FB197FBF1FC97FBF1F2D8
:1036800001FB1C7C17460CF1300C08F801CDEEE76D
:10369000A8F1010003702188090501D5452100E04A
:1036A0006521A0F1010800F8011C09980FA9A1EB00
:1036B0000807FF1D00B10120411901EBEA70A16963
:1036C0003844081A401EA0612078C00602D4204663
:1036D000FFF792FA099828B1D4E901219047206AAE
:1036E000401C20622078C00622D52046FFF784FACD
:1036F0001EE0002E04DBB34502DD01A8805D00E082
:103700003020D4E901219047206A401C2062761CB9
:10371000AAF101005FEA000A0AD100F055F8C0687A
:103720000168405CD4E901219047206A401C206276
:10373000281EA5F10105DCDC07E0D4E9012118F819
:10374000010B9047206A401C2062381EA7F1010738
:10375000F3DC2046FFF766FA032011B043E60000D1
:1037600001694A1C02610878704700B58FB0CDE945
:1037700001310021059105497944CDE90310114635
:103780006846FFF7F1FA0FB000BD0000E5FFFFFF4C
:103790000A6802F8010B0A60704710B5436913B15B
:1037A000AFF3008001E0FFF74EFA012010BD127860
:1037B00000F124010A7000224A700122EDE711682D
:1037C0004FF0FF32E9E7000000487047282400204E
:1037D000004870470824002030B5B0F10A024FEAD3
:1037E000900E71F100034EEA817EB0EB0E0061EBAA
:1037F00091014FEA101E4EEA017E10EB0E0041EBE4
:1038000011114FEA102E4EEA016E10EB0E0041EB43
:1038100011214FEA104E4EEA014E10EB0E0041EB23
:103820001141401841F100014FEAD00040EA4170D7
:103830004FEAD10110EB80054FEA810444EA90740D
:1038400044EB01046D1944EB0404521BA3414FF0F7
:10385000000348BF0A3200D530BD401C41F10001D1
:1038600030BD00002DE9F0411F46044603260168E3
:10387000072A01F4006004DB08B116A505E016A5CF
:1038800003E008B115A500E015A521F010002060A7
:10389000A069C01EA0610FB1401EA0612046FFF7C5
:1038A000ABF94FB1D4E9012138469047206A401C5A
:1038B0002062C01C206206E0206AFAE7D4E90121F8
:1038C00015F8010B9047761EF8D22046FFF7AAF9AB
:1038D000BDE8F0814E414E006E616E00494E4600DB
:1038E000696E66002DE9F047814616468AB0334876
:1038F00078440DC88DE80D0030487844801C03AC36
:103900000DC884E80D0041F69B300844372190FB38
:10391000F1F290FBF1F5A5F1800501FB12041B3CCF
:1039200002D56442012000E00020DFF890A080462C
:103930000027FA44AAF1BE0A0DE0E00709D032469A
:10394000684607EB47010AEB810100F0EDFA8DE8CC
:10395000070064107F1C002CEFD1184F7F44AC3F50
:1039600018E0E80714D007EB04100DF1180A90E8EE
:103970000E008AE80E00C068F04201D19819089044
:10398000324606A903A800F0CFFA03AB83E807008C
:103990006D10641C002DE4D132466946B8F1000F69
:1039A00003A802D000F0ACFA01E000F0BDFAC9E9CA
:1039B0000001C9F808200AB0BDE8F087307A01009C
:1039C00000487047082400207546FFF7F9FFAE460F
:1039D00005006946534620F00700854618B020B51B
:1039E000FFF770F8BDE820404FF000064FF00007E9
:1039F0004FF000084FF0000B21F00701AC46ACE897
:103A0000C009ACE8C009ACE8C009ACE8C0098D4603
:103A100070470446AFF300802046FFF714F85FEAD2
:103A2000400C08BF91F0000F4FEA8C234FEAC122EF
:103A300043EA51514FEA1C5018BF00F5F0404FEADD
:103A4000300018BF41F000415FEA6C5C00F0298053
:103A5000BCF1FF3F08BF40F080407047130C06BF29
:103A600012044FF0100C4FF0000C130E04BF1202A2
:103A70000CF1080C130F04BF12010CF1040C930F8E
:103A800004BF92000CF1020CD30F04BF52000CF1E2
:103A9000010C11464FF00002A0F11F00A0EB0C003A
:103AA000704711F0004F08BF704731F000413FF4FC
:103AB000D5AF0B0C06BF09044FF0100C4FF0000CF3
:103AC0000B0E04BF09020CF1080C0B0F04BF090117
:103AD0000CF1040C8B0F04BF89000CF1020CCB0F0E
:103AE00004BF49000CF1010CCCF12003A0EB0C0049
:103AF00022FA03F302FA0CF241EA030100F1010099
:103B0000704720F07F4C80EA030023F07F47ACEB46
:103B1000070303F57C5300F0004003F1FF032DE998
:103B200080494FEA154B09B44FEA144325EA0B4E7E
:103B300024EA03480FF2042606EB132749083E78CF
:103B40005FEA320203FB0667C7F5000707FB06F6CC
:103B50004FEA54374FEAD64606F1020607FB066CD9
:103B6000CCF1005C4FEA1C472CEA074C07FB06F43B
:103B70000CFB06F504EB15464FEA961634BF002001
:103B80004FF000404FEAD13706FB07FC4FEA1C4CD0
:103B90000CFB0BF7D21B03FB0CF761EB07010CFBD3
:103BA0000EF7B0EB074072EB17420CFB08F734BF7F
:103BB000A2EB0742B2EB074261EB17414FEA0C441C
:103BC0004FEA910706FB07FC4FEA1C4C0CFB0BF776
:103BD000B0EBC74072EB573203FB0CF734BFA2EBDC
:103BE000C742B2EBC74261EB57310CFB0EF7B0EBAB
:103BF000C70072EB57720CFB08F734BFA2EBC70289
:103C0000B2EBC70261EB5771039F4FEA816141EA52
:103C1000921104EBCC044FEAD1374FEA826206FBE3
:103C200007FC42EA90124FEA80604FEA1C4C0CFB02
:103C30000BF7D21B03FB0CF761EB07010CFB0EF734
:103C4000B0EB074072EB17420CFB08F734BFA2EB56
:103C50000742B2EB074261EB17414FEA8C554FEA3E
:103C6000910704EB9C2406FB07FC4FEA1C4C0CFB61
:103C70000BF7B0EBC74072EB573203FB0CF734BFC6
:103C8000A2EBC742B2EBC74261EB57310CFB0EF718
:103C9000B0EBC70072EB57720CFB08F734BFA2EB16
:103CA000C702B2EBC70261EB577115EB4C254FEA27
:103CB000816141EA92114FEA82624FEAD13742EACA
:103CC000901206FB07FC44F100044FEA80604FEAC3
:103CD0001C4C0CFB0BF7D21B03FB0CF761EB070131
:103CE0000CFB0EF7B0EB074072EB17420CFB08F72A
:103CF00034BFA2EB0742B2EB074261EB174115EB71
:103D00001C154FEA813141EA92414FEA823242EA80
:103D100090424FEA80304FEA0C7644F1000448EAC2
:103D200003434EEA0B484FF0000EB2EB080C71EB68
:103D3000030724BF624639464EEB0E0E4FF0000BD0
:103D40000018524149414BEB0B0BB2EB080C71EBE5
:103D500003077BF1000B24BF624639464EEB0E0E83
:103D60004FF0000B0018524149414BEB0B0BB2EBEB
:103D7000080C71EB03077BF1000B24BF6246394648
:103D80004EEB0E0E51EA020718BF46F0010616EB85
:103D90000E7655F1000254F1000103D5BDE889010A
:103DA000BDE80088BDE88901BDE80048B619524168
:103DB00041EB0101A3F10103704780807F7E7D7C90
:103DC0007B7A7978777676757473727171706F6EAD
:103DD0006E6D6C6C6B6A6A69686867666665646458
:103DE000636362616160605F5F5E5E5D5D5C5C5BE2
:103DF0005B5A5A5959585857575656555555545451
:103E0000535352525251515050504F4F4F4E4E4DAE
:103E10004D4D4C4C4C4B4B4B4A4A4A4949494848FA
:103E2000484747474746464645454544444444433A
:103E300043434342424242414141002B26D4770052
:103E400021D01CB54FEA370703B44FF010004FF0F4
:103E500010014FF000000FBCBDE810400BF1010B4A
:103E6000BBF1010F08BF5FEA170722BF12F1010281
:103E700011F101014FF0004143F1000300F0004057
:103E800043EA00007047F9D35708DAE746EA0646E6
:103E900013F1400F4FEA16461FDD13F1200FDFBF6D
:103EA00016430A46002120335B42C8D0C3F12007E5
:103EB00046EA064602FA07F74FEA164646EA0706BA
:103EC000C3F1200722FA03F201FA07F721FA03F1FE
:103ED0004FF0000342EA0702B1E746EA020646EA6B
:103EE00006464FEA164646EA0106BCBF46EA0646C3
:103EF000360C4FF000034FF000024FF000019EE738
:103F00002DE9C048934630B491E8380007C831EA3B
:103F1000400C48BF34EA430C03D5FFF7F2FDFFF72E
:103F20008CFFF0BCBDE800882DE9C048934630B452
:103F300091E8380007C810F0804F08BF13F0804F99
:103F400003D100F005F8FFF778FFF0BCBDE800886A
:103F500020F07F4780EA030023F07F4C07EB0C033F
:103F6000A3F57C5300F00040A3F1FE0392F0000F94
:103F700000F0B38095F0000F00F077802DE9014943
:103F80004FEA11404FEA144621EA004800FB06FCC4
:103F900024EA064708FB06F607FB08F800FB07F7CC
:103FA00018EB06484CEB164C4FEA124B18EB07483F
:103FB0004FEA15464CEB174022EA0B4E0BFB06FC72
:103FC00025EA06470EFB06F607FB0EFE0BFB07F77E
:103FD0001EEB064E4CEB164C4FF000061EEB074E48
:103FE0004CEB174B18EB0B0840F1000018EB0E0BD5
:103FF00058EB000840F100008F1A4FF000013CBF61
:10400000C943661B14BFB5EB040C00213CBFC94378
:10401000F61B4FEA17444EEA8E0E27EA04454FEA94
:104020001C4704FB07622CEA074C05FB07F70CFB57
:1040300005F604FB0CFC16EB074642EB174216EBA9
:104040000C4642EB1C421BEB060658EB02024141B8
:1040500046EA9E0601D5BDE80189B619524141EBF9
:104060000101A3F10103BDE801894FEA14454FEABC
:10407000114724EA054621EA074C05FB07F406FB35
:1040800007F70CFB06F105FB0CFC11EB074144EBB9
:1040900017444FEA124711EB0C4144EB1C4422EA4F
:1040A000074C05FB07F206FB07F70CFB06F605FBC2
:1040B0000CFC16EB074642EB174216EB0C4642EBA4
:1040C0001C456A1854F1000148BF7047B6195241A7
:1040D00041EB0101A3F10103704795F0000F37D0C8
:1040E0004FEA11424FEA144721EA024624EA074CFC
:1040F00002FB07F106FB07F70CFB06F402FB0CFCC6
:1041000014EB074441EB17414FEA154714EB0C44FD
:1041100041EB1C4125EA074C02FB07F506FB07F7BC
:104120000CFB06F602FB0CFC16EB074645EB1745AD
:1041300016EB0C4645EB1C42121951F1000148BF29
:104140007047B619524141EB0101A3F101037047D9
:104150004FEA14454FEA114724EA054621EA074C85
:1041600005FB07F106FB07F70CFB06F24FF0000614
:1041700005FB0CFC12EB074241EB174112EB0C4222
:1041800051EB1C4148BF7047921841EB0101A3F16C
:104190000103704710B50DF031FC408C012804D1AB
:1041A0000DF02CFC0021418403E00DF027FC0121DF
:1041B00041840DF023FC90F82240214606200EF0A9
:1041C000D1FF10BD1CB510A103C9CDE900010DF050
:1041D00015FC808A01280BD100208DF807000821EA
:1041E000684601F0FDFA0DF009FC002181820AE029
:1041F0000DF004FC0121818201208DF807000821C7
:10420000684601F0EDFA1CBD5AA5058210090000B0
:1042100008B50121102003F015FC4FF40050ADF853
:10422000000010208DF8030002208DF8020069467E
:10423000054800F0F7FD002003F0B2FC4FF40051F8
:10424000014800F0C7FE08BD0010014010B5012074
:1042500003F018FC002003F015FC10BD08B5014662
:1042600000200090034800900098084400900098B7
:10427000008808BD006C004008B500220092044A86
:104280000092009A02440092009A116008BD00005A
:10429000006C00400EB500200090019002900320B9
:1042A0008DF8000002208DF8010000208DF802003A
:1042B0008DF8030002208DF804008DF80500694692
:1042C000032014F0AFF90EBD0EB500200090019050
:1042D000029002208DF800008DF8010000208DF87A
:1042E00002008DF8030002208DF804008DF805000F
:1042F0006946032014F096F90EBD0EB5002000901B
:104300000190029004208DF8000002208DF8010039
:1043100000208DF802008DF8030002208DF80400C3
:104320008DF805006946032014F07CF90EBD0EB52A
:10433000002000900190029005208DF800000220DE
:104340008DF8010000208DF802008DF80300022096
:104350008DF8040001208DF805006946032014F053
:1043600061F90EBD0EB50020009001900290022070
:104370008DF800008DF8010000208DF802008DF806
:10438000030002208DF8040001208DF80500694625
:10439000032014F047F90EBD10B50848008830B965
:1043A000002007490860AFF20F000CF07DFA0348C7
:1043B0000088401E0149088010BD000080000020D8
:1043C000B401224210B50748006810F05FFA0020DF
:1043D00004490860044908600449087004480CF066
:1043E00079FA10BD78000020B40122427400002048
:1043F0006945000810B500200249086002480CF029
:1044000053FA10BDB40122429943000810B5044686
:1044100001200449086004480480044807F0A8FB10
:1044200010BD0000B4012242800000209943000822
:104430002DE9FF4105460024464BD3E901211868C8
:10444000DB68CDE90213CDE90002002611E03DF85A
:10445000160016F011F880463F480168404616F0F5
:1044600053F8074615F0D0FF80B22DF81600701CE7
:10447000C6B2082EEBDB39480078012801D1BDE82F
:10448000FF810120354908704FF4167010F012FAC0
:10449000334908600846006800B9F0E74AE0287828
:1044A00030383DF8100061002D4A126822F81100E2
:1044B00068785F280DD16100294A126832F811002E
:1044C00000EBD07149106200254B1B6823F81210D5
:1044D00010E068787E280DD160002149096831F824
:1044E00010004FF6FF7101EA400061001C4A12689B
:1044F00022F81100A8793038082191FBF0F0012151
:1045000001EB4401164A126822F81100012000EB69
:1045100044001349096831F81000297930394843BB
:10452000012101EB44010E4A126822F811000835FE
:10453000601C84B228780028B1D1012101EB44012C
:10454000074A126822F81100064807F025FB00BF51
:1045500095E70000DCAE01087C000020740000201C
:10456000780000206945000810B53A480068002826
:104570006FD03948008840003649096831F810008A
:10458000364991FBF0F436480068401C3449086015
:1045900034480068401C3349086064B1601F3049EA
:1045A0000968884203D201202F49086006E00020F4
:1045B0002D49086002E000202B4908602648008849
:1045C00040002449096831F81000244991FBF0F0BB
:1045D00023490968884202D80020214908601E4802
:1045E0000088012101EB40001A49096831F81000E8
:1045F00040F2712148431B490968B1EB001F27D3E2
:1046000015480088401C144908800020154908609E
:1046100011480088012101EB40000E49096831F87A
:104620001000A8B900200C4908800E4908600C4908
:1046300008600848006810F029F900200549086062
:104640000949086009490870AFF2E3000CF042F92B
:1046500000BF10BD7800002082000020A08601006D
:104660008800002084000020B40122427400002051
:104670002DE9F0410446204615F0CCFA054600220B
:10468000044B15F029F9074615F038F8024908607F
:10469000BDE8F081000024407C00002003F0D2F847
:1046A00070B50546002401240AE000F09BFC61007F
:1046B00030F81100A84201D1012070BD601C84B205
:1046C00000F090FC610030F811000028EDD100BF2F
:1046D000F3E700002DE9F041002500270024FEF754
:1046E00001FA0646002039E0204901EB40114968F3
:1046F00091B31E4901EB401189691C4A02EB40123B
:10470000928A92B2A1EB82010C1D00BF02CC491C1F
:104710000029FBD0154901EB40118969091B0122D1
:1047200002EBA105114901EB401149690F0CAF42A1
:1047300012D20E4901EB4011898A89B20B4A02EB71
:1047400040125161094901EB4011496941EA0541B3
:10475000064A02EB40125161411CC8B22028C3D363
:104760003046FEF7C3F9BDE8F08100001C1B0020B5
:10477000002000BF04E00021034A1154411C88B20C
:104780003A28F8DB704700001E2000207FB5054660
:104790000C46002600200190029003900090FF201C
:1047A0008DF804008DF8050028128DF80600E8B297
:1047B0008DF8070001208DF8080000208DF8090011
:1047C00002208DF80A0000208DF80B001E208DF8C5
:1047D0000C006A46092101A800F0E8FC9DF80000E1
:1047E0008DF80D009DF801008DF80E000B2101A839
:1047F00003F0FEF900BF33E0C8200CF0C5F89DF8C7
:104800000C0000F10901204603F036FA30B3A0791C
:10481000C11D6A46204600F0C9FC9DF80010A07931
:10482000C01D205C814219D19DF80110A07908308B
:10483000205C814212D1E078A17840EA0120A842B0
:104840000CD120799DF8081041F08001884205D1F3
:10485000207AE17940EA012004B070BD701CC6B234
:10486000052EC9DB0A20F7E72DE9F0418EB004469A
:104870000D4616461F464FF0000800200290039098
:10488000049005900190FF208DF808008DF8090034
:1048900020128DF80A00E0B28DF80B0003208DF88D
:1048A0000C0000208DF80D0003208DF80E008DF80F
:1048B0000F508DF810608DF8117001AA0A2102A81E
:1048C00000F074FC9DF804008DF812009DF80500BE
:1048D0008DF813000C2102A803F08AF900BF3DE017
:1048E000C8200CF051F8182106A803F0C5F980B3D0
:1048F0009DF81E00C11D01AA06A800F057FC9DF8F6
:1049000004109DF81E00C01D06AA105C814221D132
:104910009DF805109DF81E000830105C814219D1E9
:104920009DF81B009DF81A1040EA0120A04211D109
:104930009DF81C009DF80C1041F08001884209D1BF
:104940009DF820009DF81F1040EA01200EB0BDE840
:10495000F081FFE708F101001FFA80F8B8F1050FB8
:10496000BEDB0A20F2E700002DE9F84F81468A46B7
:1049700017461C460A9D4FF0004020FA05F807EB49
:104980008400061FFEF7AEF883461948006800EA67
:10499000080010B10120BDE8F88F1548006840EA12
:1049A000080013490860002006E04FF0FF31A6EB35
:1049B00080021160411C88B2A042F6D30D4800EB82
:1049C00045108661002332465146484602F076FF84
:1049D00000902A464846009902F0F2FFA0B205492D
:1049E00001EB451148615846FEF780F80020D2E7F8
:1049F000680000201C1B002002F024FF10B50446B4
:104A0000A0B20BF0C1FF10BD70B504464FF00040DE
:104A100020FA04F5FEF766F8064607480068A84342
:104A2000054908600020054901EB44114860304603
:104A3000FEF75CF870BD0000680000201C1B002021
:104A4000FEB504460E4615460020009001900290E7
:104A500002208DF80000022C52D1A6B3012D17D1EF
:104A600001208DF801008DF802006946042013F042
:104A7000D9FD6946022013F0D5FD00208DF8010014
:104A800002208DF802006946042013F0CBFDADE052
:104A9000022DFCD101208DF8010002208DF80200CA
:104AA0006946042013F0BEFD6946022013F0BAFDEA
:104AB00000208DF8010001208DF8020069460420D5
:104AC00013F0B0FD92E0FFE700208DF80100012017
:104AD0008DF802006946042013F0A4FD6946022007
:104AE00013F0A0FD00208DF8010002208DF80200D7
:104AF000694613F097FD6946042013F093FD75E0B5
:104B0000032C01D0052C51D19EB3012D17D10120CA
:104B10008DF8010003208DF802006946042013F08F
:104B200081FD6946022013F07DFD00208DF8010013
:104B300004208DF80200694613F074FD56E0022D42
:104B400054D101208DF8010004208DF8020069463F
:104B500013F068FD6946022013F064FD00208DF813
:104B6000010003208DF802006946042013F05AFD6D
:104B70003CE0FFE700208DF8010004208DF80200E2
:104B8000694613F04FFD6946022013F04BFD0020EB
:104B90008DF8010003208DF802006946042013F00F
:104BA00041FD6946022013F03DFD1FE0042C1DD19C
:104BB00076B101208DF8010006208DF802006946CB
:104BC000042013F02FFD6946022013F02BFD0DE0A9
:104BD00000208DF8010006208DF8020069460420AF
:104BE00013F020FD6946022013F01CFDFEBD10B538
:104BF000102000F00FF830B1102000F005F810215F
:104C0000002005F0B5FE10BD0149086070470000A6
:104C100014040140014600200022074B1B6803EAF0
:104C20000102054B14331B680B4013B10AB101207C
:104C300000E00020704700000004014000212349EB
:104C40008279002A3AD00A46126803689A430B46D2
:104C50001A600A1D126803689A430B1D1A600279D4
:104C600011440A6803681A430A60184A0832126835
:104C700003689A43154B08331A601A1D12680368BB
:104C80009A43124B0C331A604279102A0ED11A1F24
:104C9000126803681A430D4B08331A601A1D126814
:104CA00003681A43094B0C331A600DE00749427937
:104CB00011440A6803681A430A6005E00279114446
:104CC0000A6803689A430A607047000000040140C4
:104CD00030B5044604254FF4302000F06FF8054647
:104CE000042D17D10C48006940F002000A49086100
:104CF00008464461006940F0400008614FF43020EC
:104D000000F05CF805460448006941F6FD71084072
:104D100001490861284630BD0020024004200B49AB
:104D2000C96801F0010109B101200EE00749C96815
:104D300001F0040109B1022007E00449C96801F04B
:104D4000100109B1032000E0042070470020024058
:104D50000348006940F08000014908617047000085
:104D60000020024070B504460D460426F00200F013
:104D700025F80646042E11D10948006940F00100CB
:104D8000074908612580F00200F018F8064604483B
:104D9000006941F6FE71084001490861304670BD66
:104DA00000200240024803494860034848607047B9
:104DB0002301674500200240AB89EFCD00B50246D4
:104DC0000423FFF7ABFF034603E0FFF7A7FF03460B
:104DD000521E012B01D1002AF7D102B90523184632
:104DE00000BD000030B500228B071C0F0F2303FA13
:104DF00004F20B4B8C1053F824309343084C8D1065
:104E000044F8253023468C1053F824308C07240FA7
:104E100000FA04F42343024C8D1044F8253030BDD1
:104E2000080001402DE9F04102460025002600203F
:104E300000230024002791F803C00CF00F0591F81F
:104E400003C00CF0100CBCF1000F03D091F802C0AD
:104E50004CEA050591F800C0BCF1000F31D0146890
:104E600000202BE04FF0010C0CFA00F3B1F800C069
:104E70000CEA03069E4220D183004FF00F0C0CFA7F
:104E800003F7BC4305FA03FC4CEA040491F803C0A1
:104E9000BCF1280F06D14FF0010C0CFA00FCC2F84F
:104EA00014C00AE091F803C0BCF1480F05D14FF0DF
:104EB000010C0CFA00FCC2F810C0401C0828D1D329
:104EC0001460B1F800C0BCF1FF0F34DD546800205D
:104ED0002EE000F1080C4FF0010808FA0CF3B1F8CD
:104EE00000C00CEA03069E4221D183004FF00F0C54
:104EF0000CFA03F7BC4305FA03FC4CEA040491F8EE
:104F000003C0BCF1280F05D100F1080C08FA0CF819
:104F1000C2F8148091F803C0BCF1480F07D100F12A
:104F2000080C4FF0010808FA0CF8C2F81080401C79
:104F30000828CED35460BDE8F0810000F0B50A46E1
:104F4000002300240021002500F00046B6F1004FA8
:104F500002D11D4EF16901E01B4E7168C0F303459B
:104F600083B200F44016B6F5401F08D121F07061FD
:104F7000154E766826F07066134F7E6012E000F4DE
:104F80008016B6F5801F06D1032606FA05F4A14364
:104F900041F0706106E0460D360103FA06F6B143B2
:104FA00041F0706122B1460D360103FA06F6314335
:104FB00000F00046B6F1004F02D1034EF16101E06E
:104FC000014E7160F0BD000000000140014688689C
:104FD00080B2704741617047016170470048704777
:104FE0003822002000487047A820002002460021F7
:104FF00000BF0DE0012000EB41000A4B13F8100048
:10500000904203D1480033F810007047481C81B229
:10501000012000EB4100034B33F810000028E9D1D8
:1050200000BFF2E71C01002000B50246002101216B
:1050300012E0FFF7D7FF4B0030F81300904209D180
:10504000FFF7D0FF012303EB410330F8130000F416
:105050007F4000BD481C81B2FFF7C4FF4B0030F811
:1050600013000028E5D1FF20F3E700B50246002138
:1050700000BF10E0FFF7B6FF4B0030F8130090427E
:1050800007D1FFF7AFFF012303EB410310F8130033
:1050900000BD481C81B2FFF7A5FF4B0030F813009C
:1050A0000028E7D1FF20F3E730B502460B46002188
:1050B0000024012114E0FFF795FF012505EB4105D0
:1050C00010F81500904209D19C4205D1FFF78AFFE4
:1050D0004D0030F8150030BD601C84B2481C81B210
:1050E000FFF780FF012505EB410530F8150000288A
:1050F000E1D100BFEFE7000070B504460025FDF7E1
:10510000F1FC0646044800EB4410808A85B2304624
:10511000FDF7ECFC284670BD1C1B002070B5044652
:105120000026FDF7DFFC0546074800EB4410406809
:1051300020B1054800EB44104069060C2846FDF7F5
:10514000D5FC304670BD00001C1B002013490988A7
:10515000322904DA1249114A1288885C05E00021DC
:105160000E4A11800E491288885C00210D4A116098
:105170000B4A0A4B1B88D1540B49098821B10A49B3
:105180000988491E084A11800121064A1160034915
:105190000988491C014A118070470000CC0000209A
:1051A000EC1F002094012742D2000020F0B50B46EE
:1051B000FF24FF2509E010F8016B86EA0401074E81
:1051C000765C86EA0504064E755C1E00A3F10107B5
:1051D000BBB2F0D114705570F0BD000044AF0108AF
:1051E00044B0010810B501464A1E034B985C0023E9
:1051F0004A1E014CA35410BD8C00002000B5FFF7DF
:10520000F1FE008800BD00B5FFF7ECFE90F86601E6
:1052100000BD00B5FFF7E6FE00F5B47000BD00006C
:1052200010B50446002300BF04E00548C05CE0540C
:10523000581C83B23A2BF8DBFFF79AFA184610BDD8
:105240001E200020F8B506460C46002500200090E0
:105250000027174806602078FF2819D16078FF28BA
:1052600016D1A079617940EA0120C01D85B26A4655
:1052700029462046FFF79AFF605D9DF8001088429E
:1052800006D1681C205C9DF80110884200D10127DE
:1052900067B12079052803D1204607F0A6FC04E079
:1052A0000521204607F000FD00BF00BFF8BD00004B
:1052B0009401002010B514200BF066FB0CF09EFB4F
:1052C000C08B01280ED1012108460DF04BFF642050
:1052D0000BF074FB002102200DF044FF64200BF062
:1052E0006DFB21E00CF08AFBC08B02280ED100215F
:1052F00001200DF037FF64200BF060FB012102203C
:105300000DF030FF64200BF059FB0DE0002101206F
:105310000DF028FF64200BF051FB002102200DF05E
:1053200021FF64200BF04AFB0CF068FB408C012845
:1053300007D1012106200DF015FF64200BF03EFB84
:1053400006E0002106200DF00DFF64200BF036FB77
:1053500010BD02F077FA00004CF6CC40014908601D
:10536000704700000030004010B500F01DF810BD7F
:1053700070B5044607254FF6FF7000EA4414204636
:10538000E11704EB11610E1245F2555000F020F8C0
:10539000284600F011F8304600F014F800F004F848
:1053A000FFF7DAFF70BD00004AF6AA200149086045
:1053B000704700000030004001494860704700001D
:1053C0000030004001498860704700000030004014
:1053D0000149086070470000003000401CB50446D9
:1053E00009A103C9CDE90001E07960B9207A052857
:1053F00009D1607A0D2806D1A07AC02803D10621F0
:10540000684600F0EDF91CBD5AA503804F0200006C
:105410000146CA1701EB92729210A1EB820292B977
:10542000642091FBF0F200FB121050B94FF4C870E9
:1054300091FBF0F200FB121008B901207047002028
:10544000FCE70120FAE70020F8E7000010B5FF2490
:105450008548FFF7BBFD00F00F04ACB98348007826
:1054600010BB03208249087082480078401C8149A3
:10547000087008460078502816DB02207C49087026
:1054800001207A4908700FE07A480078012806DD8B
:1054900078480078502802DA012075490870002009
:1054A0007449087071490870012C15D16F48407813
:1054B00010BB03206E4948706E484078401C6D490F
:1054C000487008464078502816DB0220684948702A
:1054D0000120664948700FE066484078012806DDE3
:1054E00064484078502802DA012061494870002061
:1054F000604948705D494870022C15D15B4880783E
:1055000010BB03205A4988705A488078401C59497A
:10551000887008468078502816DB0220544988702D
:105520000120524988700FE052488078012806DD3A
:1055300050488078502802DA01204D4988700020B8
:105540004C49887049498870032C15D14748C07868
:1055500010BB03204649C8704648C078401C4549E6
:10556000C8700846C078502816DB02204049C87031
:1055700001203E49C8700FE03E48C078012806DD92
:105580003C48C078502802DA01203949C870002010
:105590003849C8703549C870042C15D13348007992
:1055A00010BB03203249087132480079401C314950
:1055B000087108460079502816DB02202C49087132
:1055C00001202A4908710FE02A480079012806DDE8
:1055D00028480079502802DA012025490871002066
:1055E0002449087121490871052C15D11F484079BB
:1055F00010BB03201E4948711E484079401C1D49BC
:10560000487108464079502816DB02201849487135
:105610000120164948710FE016484079012806DD3F
:1056200014484079502802DA0120114948710020BD
:10563000104948710D4948710D48007870B90C48FF
:10564000407858B90A48807840B90948C07828B9E4
:105650000748007910B90648407918B101210020A7
:1056600005F018FA10BD000000100140980000205D
:105670008C0000209200002008B50121102002F0CB
:10568000E1F90F20ADF8000048208DF80300032059
:105690008DF8020069460348FFF7C4FB024806F094
:1056A00067FA08BD001001404D54000810B586B0DF
:1056B00004460121042002F0C5F90121082002F06E
:1056C000C1F90121480402F09DF94FF48050ADF872
:1056D000140010208DF8170003208DF8160005A97E
:1056E0002A48FFF79FFB0420ADF8140018208DF81E
:1056F000170005A92648FFF795FB0820ADF8140010
:1057000004208DF8170005A92148FFF78BFB012124
:10571000480402F087F900214FF4003002F082F9CA
:1057200001940020ADF80800ADF80A00ADF80C00B7
:10573000ADF810000C20ADF80E0001A9154805F0D9
:105740004FFD26208DF8000000208DF8010002207A
:105750008DF8020001208DF80300684602F026F85B
:10576000012240F225510B4805F015FD012240F2BF
:105770002441084805F00FFD0121064805F079FC99
:1057800000200549086006B010BD0000000C014073
:105790000008014000440040B081214270B5054638
:1057A0000C460C480678002020800B480078012821
:1057B0000FD10848007820803246084928460FF06B
:1057C0008FF83246002105480FF097F80020014974
:1057D000087070BD9E0000209F000020261F002042
:1057E00070B505460E4601200E49086000240CE005
:1057F00000BF40210C4805F097FC0028F9D0295D36
:10580000094805F05EFD601CC4B2B442F0DB00BF85
:105810004021054805F088FC0028F9D00020014906
:10582000086070BDB081214200440040704700B55F
:1058300087B000200490059006900190029003909C
:1058400003208DF8100001208DF811003F208DF805
:10585000120000208DF8130001208DF814000020A4
:105860008DF8150001208DF8040005208DF8050045
:105870003F208DF8060001A9012012F0D3FE02207E
:105880008DF8040000208DF8050005208DF8060035
:1058900001A9042012F0C6FE04A9022012F0C2FEE3
:1058A00007B000BD00B587B00020049005900690B9
:1058B00001900290039003208DF8100001208DF8D4
:1058C000110000208DF812008DF8130001208DF8D2
:1058D000140000208DF8150001208DF8040005202B
:1058E0008DF8050000208DF8060001A9012012F0B6
:1058F00099FE02208DF8040001208DF80500052096
:105900008DF8060001A9042012F08CFE04A90220E3
:1059100012F088FE07B000BD00B50CF06FF8408CA7
:1059200000BD00B50146052904DA0CF067F830F82F
:10593000110000BD0020FCE700B501460CF05EF848
:10594000418400BD00B50246052A03DA0CF056F882
:1059500020F81210002000BD08B50121082002F037
:1059600071F80320ADF8000018208DF80300032023
:105970008DF8020069460E48FFF754FA00200D49E1
:1059800008600D49C1F8A0010121042002F05AF875
:105990000220ADF8000010208DF8030003208DF8E0
:1059A000020069460548FFF73DFA0DF093FB08BD7C
:1059B000000C01409C0122420000224200080140EC
:1059C00070B50024FFF70EFB0546C82229461D4886
:1059D00003F022FCFFF706FB00884FF6FF718842B8
:1059E0000CD100BF06E0FFF7FDFA002120F81410EB
:1059F000601C84B2C82CF6DB04F00AF9002417E01E
:105A000004F0010090B1FFF7EDFA00EB44010878D3
:105A10000880FFF7E7FA10F8140038B1FFF7E2FA50
:105A200000EB4401088840F400600880601C84B2E8
:105A3000642CE5DBFFF7D6FA811C408840F48070C7
:105A4000088070BD28FC03087CB50024002000906D
:105A500001900BF0D3FF808BADF800000BF0CEFF70
:105A6000C08BADF802000BF0C9FF008CADF804004C
:105A70000BF0C4FF408CADF806000BF0BFFF0546ED
:105A800014222946124803F0C7FB00BF0EE00BF0BA
:105A9000B5FF30F814004FF6FF71884204D10BF0C7
:105AA000ADFF002120F81410601C84B2142CEEDB32
:105AB0000BF0A4FFBDF8001081830BF09FFFBDF831
:105AC0000210C1830BF09AFFBDF8041001847CBD65
:105AD00000FC03081CB500200090019006220F492D
:105AE0000F480EF0FDFE0D49891D062268460EF096
:105AF000F7FE002008E00A49095C1DF80020114467
:105B0000074A1154411CC8B20628F4DB0448007847
:105B100000F0FE00024908701CBD0000E8F7FF1FFE
:105B2000FE00002070B54FF4C8600EF0C3FE0546BD
:105B30002C4614A214A1204612F09CFF083411A296
:105B400012A1204612F096FF08340EA210A12046A2
:105B500012F090FF08340BA20EA1204612F08AFF2B
:105B600008340DA20DA1204612F084FF083420460F
:105B70000CF092F82846FEF75BFC28460EF086FEF5
:105B800070BD0000312F32003500000034000000ED
:105B90003300000032000000312F310031000000DE
:105BA00070B54FF4C8600EF085FE05462C46FEA287
:105BB000FEA1204612F05EFF0834FDA2FDA12046A2
:105BC00012F058FF0834FCA2FCA1204612F052FF4C
:105BD0000834FBA2FBA1204612F04CFF0834F6A2C9
:105BE000F9A1204612F046FF0834F1A2F3A12046A5
:105BF00012F040FF0834F0A2EEA1204612F03AFF66
:105C00000834EDA2EDA1204612F034FF0834EAA2D8
:105C1000E8A1204612F02EFF0834E3A2E9A12046B5
:105C200012F028FF0834E9A2E9A1204612F022FF71
:105C30000834DDA2DDA1204612F01CFF0834DCA2EE
:105C4000DCA1204612F016FF0834DBA2DBA12046BF
:105C500012F010FF0834DAA2DAA1204612F00AFF8F
:105C60000834D5A2D8A1204612F004FF0834D2A2ED
:105C7000D2A1204612F0FEFE0834CBA2CDA12046D0
:105C800012F0F8FE0834CEA2C8A1204612F0F2FEAF
:105C90000834C5A2C7A1204612F0ECFE0834C8A201
:105CA000C8A1204612F0E6FE0834BFA2BFA12046DC
:105CB00012F0E0FE0834BCA2C2A1204612F0DAFEC7
:105CC0000834BDA2BBA1204612F0D4FE0834BAA20B
:105CD000BAA1204612F0CEFE0834B9A2B5A12046E2
:105CE00012F0C8FE0834B0A2B7A1204612F0C2FEDE
:105CF0000834ADA2B1A1204612F0BCFE0834ACA21B
:105D0000ACA1204612F0B6FE0834A7A2ADA12046F1
:105D100012F0B0FE0834ADA2ADA1204612F0AAFEEA
:105D20000834A1A2A1A1204612F0A4FE08349EA22C
:105D3000A4A1204612F09EFE08349BA29BA12046FF
:105D400012F098FE083498A2A2A1204612F092FE0A
:105D5000083495A29BA1204612F08CFE083492A232
:105D60009CA1204612F086FE08348FA29AA12046FC
:105D700012F080FE083492A298A1204612F07AFE1A
:105D8000083497A293A1204612F074FE08348AA228
:105D90008CA1204612F06EFE083489A283A1204611
:105DA00012F068FE083480A286A1204612F062FE3E
:105DB00008347FA287A1204612F05CFE08347EA240
:105DC00081A1204612F056FE083486A27DA120460D
:105DD00012F050FE083478A280A1204612F04AFE4C
:105DE000083475A27CA1204612F044FE083472A249
:105DF00078A1204612F03EFE08346FA26BA1204627
:105E000012F038FE08346CA277A1204612F032FE60
:105E1000083465A265A1204612F02CFE083466A263
:105E200068A1204612F026FE083465A265A120462E
:105E300012F020FE083460A262A1204612F01AFE81
:105E400008345FA259A1204612F014FE08345AA269
:105E50005CA1204612F00EFE083453A25DA120463C
:105E600012F008FE083450A250A1204612F002FEA3
:105E7000083451A254A1204612F0FCFD08344EA271
:105E800050A1204612F0F6FD083447A249A1204651
:105E900012F0F0FD083444A248A1204612F0EAFDB9
:105EA000083441A243A1204612F0E4FD08344FA279
:105EB00044A1204612F0DEFD08343FA241A1204655
:105EC00012F0D8FD08343EA238A1204612F0D2FDCF
:105ED000083435A23BA1204612F0CCFD083434A290
:105EE0003CA1204612F0C6FD083433A236A120465C
:105EF00012F0C0FD083430A232A1204612F0BAFDE3
:105F000008342DA235A1204612F0B4FD08342AA28F
:105F100031A1204612F0AEFD083427A22DA1204663
:105F200012F0A8FD083424A220A1204612F0A2FD00
:105F3000083421A22CA1204612F09CFD08341AA29C
:105F40001AA1204612F096FD083420A21DA1204679
:105F500012F090FD083418A21AA1204612F08AFD12
:105F6000083417A211A1204612F084FD083412A2B1
:105F700014A1204612F07EFD08340BA21CA120467D
:105F800012F078FD08340AA214A1204612F072FD26
:105F9000083409A216A1204612F06CFD083408A2AC
:105FA0000DA1204626E00000312F31003600000010
:105FB000332F320032000000312F32003100000058
:105FC000322F31003300000030000000352F320046
:105FD000365F000037000000317E0000327E000096
:105FE000362F3100312F330035000000332F3100C0
:105FF000337E000012F03EFD0834AFF25402AFF2DF
:106000002C01204612F036FD0834AFF22C02AFF21C
:106010006401204612F02EFD083420460BF03CFEB1
:106020002846FEF705FA28460EF030FC70BD000049
:1060300070B54FF4C8600EF03DFC05462C46FEA23C
:10604000FEA1204612F016FD0834FDA2FDA1204657
:1060500012F010FD0834F8A2F8A1204612F00AFD53
:106060000834F9A2F9A1204612F004FD0834F4A284
:10607000F7A1204612F0FEFC0834F6A2F1A120465A
:1060800012F0F8FC0834ECA2F3A1204612F0F2FC66
:106090000834EBA2E9A1204612F0ECFC0834E6A299
:1060A000EDA1204612F0E6FC0834E7A2E8A1204664
:1060B00012F0E0FC0834E0A2E4A1204612F0DAFC81
:1060C0000834DDA2DFA1204612F0D4FC0834E1A29E
:1060D000DAA1204612F0CEFC0834E0A2DBA1204673
:1060E00012F0C8FC0834D8A2DDA1204612F0C2FC90
:1060F0000834DAA2D5A1204612F0BCFC0834D0A2A4
:10610000D7A1204612F0B6FC0834CBA2D5A1204678
:1061100012F0B0FC0834C8A2D3A1204612F0AAFCA9
:106120000834CEA2C9A1204612F0A4FC0834C6A2AD
:10613000C4A1204612F09EFC0834BFA2C4A1204690
:1061400012F098FC0834BEA2C0A1204612F092FCC6
:106150000834B9A2C4A1204612F08CFC0834B6A2BF
:10616000BAA1204612F086FC0834C0A2B8A120468D
:1061700012F080FC0834B2A2B0A1204612F07AFCE2
:106180000834AFA2B1A1204612F074FC0834AAA2D0
:10619000AFA1204612F06EFC0834A7A2ABA12046A6
:1061A00012F068FC0834A6A2A4A1204612F062FCFA
:1061B0000834AFA2A3A1204612F05CFC0834A0A2D0
:1061C000A2A1204612F056FC08349BA2A0A12046B2
:1061D00012F050FC083498A29FA1204612F04AFC0D
:1061E000083495A2A3A1204612F044FC083492A2E0
:1061F00096A1204612F03EFC08348FA294A12046BE
:1062000012F038FC08348CA28CA1204612F032FC2B
:10621000083489A28BA1204612F02CFC083486A2F7
:106220008BA1204612F026FC083490A287A12046BC
:1062300012F020FC083489A284A1204612F01AFC36
:10624000083481A286A1204612F014FC08347AA2F8
:106250007EA1204612F00EFC083479A280A12046CF
:1062600012F008FC083474A27EA1204612F002FC51
:10627000083471A27CA1204612F0FCFB083477A2FE
:1062800072A1204612F0F6FB08346BA275A12046DD
:1062900012F0F0FB083468A26DA1204612F0EAFB70
:1062A000083465A273A1204612F0E4FB083462A210
:1062B0006DA1204612F0DEFB08345FA263A12046E8
:1062C00012F0D8FB08345CA261A1204612F0D2FB88
:1062D00008345BA25BA1204612F0CCFB083464A218
:1062E0005BA1204612F0C6FB083455A257A12046F8
:1062F00012F0C0FB083450A255A1204612F0BAFBA0
:1063000008344DA254A1204612F0B4FB08344AA22E
:1063100058A1204612F0AEFB083447A24BA12046FC
:1063200012F0A8FB083444A24BA1204612F0A2FBB5
:10633000083441A241A1204612F09CFB083440A23F
:106340004DA1204612F096FB083449A23BA12046FD
:1063500012F090FB08343AA23CA1204612F08AFBCE
:10636000083443A23FA1204612F084FB083432A235
:1063700036A1204612F07EFB08342FA239A1204618
:1063800012F078FB083430A235A1204612F072FBDF
:10639000083429A239A1204612F06CFB083426A249
:1063A00037A1204612F066FB083423A22CA1204618
:1063B00012F060FB083422A22AA1204612F05AFBF8
:1063C00008342AA226A1204612F054FB083423A246
:1063D0002AA1204612F04EFB08341BA228A1204619
:1063E00012F048FB083418A21DA1204612F042FB0F
:1063F000083424A21BA1204612F03CFB08340EA254
:1064000017A1204612F036FB083418A20FA120462F
:1064100012F030FB083411A218A1204612F02AFB1A
:10642000083409A216A1204612F024FB083406A263
:106430000BA1204628E00000312F3200365F00001B
:10644000312F310031000000332F320033000000C3
:1064500032000000372F3200375F0000322F31004A
:10646000360000003500000034000000342F3100F9
:10647000332F310030000000355F0000317E000016
:1064800037000000352F320012F0F4FA0834AFF272
:106490000C02AFF23001204612F0ECFA0834AFF2F1
:1064A0006802AFF24401204612F0E4FA0834AFF279
:1064B0004402AFF26801204612F0DCFA0834AFF271
:1064C0008002AFF28801204612F0D4FA0834AFF20D
:1064D0009002AFF29001204612F0CCFA0834AFF2ED
:1064E000A002AFF29401204612F0C4FA0834AFF2D1
:1064F000A802AFF2A801204612F0BCFA0834AFF2AD
:10650000C802AFF2C001204612F0B4FA0834AFF26C
:10651000D002AFF2C801204612F0ACFA0834AFF254
:10652000B002AFF2D401204612F0A4FA0834AFF260
:10653000F802AFF2E401204612F09CFA0834AFF200
:106540000812AFF2EC01204612F094FA0834AFF2D0
:106550001812AFF2E001204612F08CFA0834AFF2C4
:106560002812AFF21811204612F084FA0834AFF264
:106570003812AFF21C11204612F07CFA0834AFF248
:106580004812AFF24811204612F074FA0834AFF204
:106590005012AFF21C11204612F06CFA0834AFF220
:1065A0003412AFF26811204612F064FA0834AFF2E8
:1065B0007812AFF27811204612F05CFA0834AFF28C
:1065C0008012AFF28011204612F054FA0834AFF274
:1065D0009812AFF28411204612F04CFA0834AFF250
:1065E0009812AFF29811204612F044FA0834AFF234
:1065F000B812AFF2B011204612F03CFA0834AFF2F4
:10660000C012AFF2B811204612F034FA0834AFF2DB
:10661000A012AFF2C411204612F02CFA0834AFF2E7
:10662000E012AFF2D811204612F024FA0834AFF28B
:10663000D412AFF2D011204612F01CFA0834AFF297
:106640000022AFF2F811204612F014FA0834AFF22B
:106650000822AFF2D411204612F00CFA0834AFF23F
:106660002822AFF22021204612F004FA0834AFF2BB
:106670003822AFF2F411204612F0FCF90834AFF2E0
:106680004822AFF22421204612F0F4F90834AFF288
:106690005022AFF23021204612F0ECF9083408A263
:1066A000AFF24421204612F0E5F9083420460BF001
:1066B000F3FA2846FDF7BCFE28460EF0E7F870BD59
:1066C000372F310070B54FF4C8600EF0F3F805466F
:1066D0002C46FEA2FEA1204612F0CCF90834FDA201
:1066E000FDA1204612F0C6F90834FCA2FCA1204608
:1066F00012F0C0F90834FBA2FBA1204612F0BAF94F
:106700000834F4A2F2A1204612F0B4F90834F1A240
:10671000F3A1204612F0AEF90834ECA2EEA1204617
:1067200012F0A8F90834EBA2F0A1204612F0A2F969
:106730000834EFA2E8A1204612F09CF90834EDA23B
:10674000E3A1204612F096F90834E6A2E6A120461D
:1067500012F090F90834DDA2DDA1204612F08AF98A
:106760000834DCA2DCA1204612F084F90834DBA254
:10677000DBA1204612F07EF90834DAA2DAA1204625
:1067800012F078F90834D3A2D1A1204612F072F9A0
:106790000834D0A2D2A1204612F06CF90834CBA262
:1067A000D5A1204612F066F90834CAA2CCA1204631
:1067B00012F060F90834CEA2CFA1204612F05AF9A7
:1067C0000834C2A2CDA1204612F054F90834C5A263
:1067D000C5A1204612F04EF90834C2A2BCA1204641
:1067E00012F048F90834C6A2C6A1204612F042F9B8
:1067F0000834BCA2BAA1204612F03CF90834B5A274
:10680000BDA1204612F036F90834B2A2B4A1204648
:1068100012F030F90834B3A2B7A1204612F02AF9D9
:106820000834B0A2B0A1204612F024F90834ADA279
:10683000AEA1204612F01EF90834A4A2AFA1204652
:1068400012F018F90834AAA2ABA1204612F012F9EE
:106850000834A2A2A2A1204612F00CF908349DA28D
:10686000A1A1204612F006F908349EA2A2A120465A
:1068700012F000F9083497A299A1204612F0FAF814
:10688000083494A292A1204612F0F4F808348FA2A2
:1068900099A1204612F0EEF808348EA28CA1204671
:1068A00012F0E8F808348BA28DA1204612F0E2F82D
:1068B000083488A286A1204612F0DCF8083483A2AE
:1068C00087A1204612F0D6F8083482A28AA1204679
:1068D00012F0D0F8083483A28AA1204612F0CAF838
:1068E000083489A285A1204612F0C4F808347BA29E
:1068F00082A1204612F0BEF808347AA27AA120467E
:1069000012F0B8F8083477A280A1204612F0B2F84D
:1069100008346EA27EA1204612F0ACF8083471A2B1
:106920007CA1204612F0A6F808346AA27AA120467B
:1069300012F0A0F8083467A274A1204612F09AF869
:10694000083464A274A1204612F094F8083465A2B9
:106950006EA1204612F08EF808345EA26EA1204689
:1069600012F088F808345BA25FA1204612F082F88A
:1069700008345CA265A1204612F07CF8083455A2C8
:1069800065A1204612F076F8083450A263A1204693
:1069900012F070F8083453A25CA1204612F06AF895
:1069A00008344CA25EA1204612F064F808344BA2D1
:1069B00056A1204612F05EF808344AA24AA12046A9
:1069C00012F058F8083447A250A1204612F052F8AD
:1069D00008343EA24EA1204612F04CF8083441A2E1
:1069E0004CA1204612F046F808343AA24AA12046AB
:1069F00012F040F8083437A244A1204612F03AF8C9
:106A0000083434A244A1204612F034F8083435A2E8
:106A10003EA1204612F02EF808342EA23EA12046B8
:106A200012F028F808342BA22FA1204612F022F8E9
:106A300008342CA235A1204612F01CF8083425A2F7
:106A400035A1204612F016F8083420A233A12046C2
:106A500012F010F808341FA231A1204612F00AF8F3
:106A6000083420A22DA1204612F004F808341BA2FD
:106A700026A1204611F0FEFF08341AA21AA12046D2
:106A800011F0F8FF083417A220A1204611F0F2FF00
:106A900008340EA21EA1204611F0ECFF083411A20A
:106AA0001CA1204611F0E6FF08340AA21AA12046D4
:106AB00011F0E0FF083407A214A1204611F0DAFF1C
:106AC000083404A214A120462CE00000322F32002A
:106AD000365F0000312F3400375F0000352F34005F
:106AE00031000000312F320030000000355F00001F
:106AF000332F3400342F3200320000003300000006
:106B0000332F320034000000382F340036000000EC
:106B1000337E0000327E0000317E0000370000002E
:106B20003500000011F0A6FF0834AFF24802AFF2C2
:106B30002401204611F09EFF0834AFF26802AFF244
:106B40002801204611F096FF0834AFF27802AFF228
:106B50006801204611F08EFF0834AFF27802AFF2E0
:106B60005401204611F086FF0834AFF29802AFF2CC
:106B70005801204611F07EFF0834AFF2B002AFF2A8
:106B80006401204611F076FF0834AFF2A802AFF29C
:106B90008401204611F06EFF0834AFF2C802AFF254
:106BA0008001204611F066FF0834AFF2D002AFF248
:106BB000B401204611F05EFF0834AFF2D802AFF204
:106BC000D801204611F056FF0834AFF2E802AFF2C8
:106BD000C401204611F04EFF0834AFF2EC02AFF2D0
:106BE000D001204611F046FF0834AFF208122FA161
:106BF000204611F03FFF0834AFF21812AFF2F00157
:106C0000204611F037FF0834AFF22812AFF2FC0132
:106C1000204611F02FFF0834AFF23812AFF20811FE
:106C2000204611F027FF0834AFF25812AFF21C11C2
:106C3000204611F01FFF0834AFF24C12AFF23411AE
:106C4000204611F017FF0834AFF28012AFF23C116A
:106C5000204611F00FFF0834AFF27812AFF248115E
:106C6000204611F007FF0834AFF27C12AFF2541146
:106C7000204611F0FFFE0834AFF29812AFF268110F
:106C8000204611F0F7FE0834AFF28C12AFF28411F7
:106C9000204611F0EFFE083420460AF0FDFF28469A
:106CA000FDF7C6FB28460DF0F1FD70BD357E0000F6
:106CB00070B54FF416600DF0FDFD05462C46FEA2A2
:106CC000FEA1204611F0D6FE0834FDA2FDA120460B
:106CD00011F0D0FE0834FCA2FCA1204611F0CAFE3F
:106CE0000834F7A2FAA1204611F0C4FE0834F4A239
:106CF000F6A1204611F0BEFE0834F3A2EFA1204613
:106D000011F0B8FE0834EEA2F2A1204611F0B2FE56
:106D10000834EBA2E9A1204611F0ACFE0834EAA247
:106D2000EDA1204611F0A6FE0834E5A2EBA1204615
:106D300011F0A0FE0834E2A2E6A1204611F09AFE6E
:106D40000834DDA2DDA1204611F094FE0834DCA257
:106D5000DEA1204611F08EFE0834D9A2DCA1204627
:106D600011F088FE0834D8A2DDA1204611F082FE81
:106D70000834DCA2D3A1204611F07CFE0834D9A24D
:106D8000D9A1204611F076FE0834D8A2D4A120461D
:106D900011F070FE0834D5A2D0A1204611F06AFE91
:106DA0000834C5A2C5A1204611F064FE0834C4A26F
:106DB000C4A1204611F05EFE0834C3A2C3A1204640
:106DC00011F058FE0834BEA2C1A1204611F052FEB7
:106DD0000834BBA2BDA1204611F04CFE0834BAA273
:106DE000B6A1204611F046FE0834B5A2B9A120464E
:106DF00011F040FE0834B2A2B0A1204611F03AFED4
:106E00000834B1A2B4A1204611F034FE0834ACA27B
:106E1000B2A1204611F02EFE0834A9A2B4A120464A
:106E200011F028FE0834A6A2ABA1204611F022FEE4
:106E30000834A3A2A7A1204611F01CFE0834A0A28A
:106E40009EA1204611F016FE08349DA2A0A1204666
:106E500011F010FE08349CA298A1204611F00AFE01
:106E6000083499A29BA1204611F004FE08349FA289
:106E700092A1204611F0FEFD083493A297A120466E
:106E800011F0F8FD08348EA291A1204611F0F2FD18
:106E900008348BA292A1204611F0ECFD083488A2A0
:106EA00088A1204611F0E6FD083485A28CA1204679
:106EB00011F0E0FD083482A282A1204611F0DAFD33
:106EC00008347DA288A1204611F0D4FD08347CA2AC
:106ED0007CA1204611F0CEFD083479A280A1204685
:106EE00011F0C8FD083478A279A1204611F0C2FD46
:106EF000083473A271A1204611F0BCFD083470A2C1
:106F000074A1204611F0B6FD08346FA272A120468C
:106F100011F0B0FD08346AA26DA1204611F0AAFD5F
:106F2000083467A26EA1204611F0A4FD083464A2C3
:106F300064A1204611F09EFD083461A268A120469C
:106F400011F098FD08345EA25EA1204611F092FD7A
:106F500008345BA264A1204611F08CFD083458A2CD
:106F600058A1204611F086FD083455A25CA12046A8
:106F700011F080FD08345BA255A1204611F07AFD86
:106F800008345CA24DA1204611F074FD083457A2CC
:106F90004CA1204611F06EFD083449A24CA12046B8
:106FA00011F068FD083446A24DA1204611F062FDA3
:106FB000083443A243A1204611F05CFD083440A2EE
:106FC00047A1204611F056FD08343DA23DA12046C0
:106FD00011F050FD083438A243A1204611F04AFDBB
:106FE000083437A237A1204611F044FD083434A2FA
:106FF0003BA1204611F03EFD083431A234A12046C9
:1070000011F038FD083437A235A1204611F032FDC9
:10701000083434A22EA1204611F02CFD083428A2F9
:1070200026A1204611F026FD083425A229A12046DC
:1070300011F020FD083424A227A1204611F01AFDEA
:1070400008341FA225A1204611F014FD08341CA20B
:1070500020A1204611F00EFD083419A217A12046E8
:1070600011F008FD083416A21AA1204611F002FD05
:10707000083413A211A1204611F0FCFC083410A220
:1070800010A1204611F0F6FC08340DA20BA12046F9
:1070900011F0F0FC08340AA20EA1204611F0EAFC1F
:1070A000083407A205A1204611F0E4FC083404A22C
:1070B00008A1204620E00000332F320036000000F7
:1070C000312F3200337E0000322F320037000000B3
:1070D000317E000035000000330000003000000069
:1070E000327E0000312F3400357E0000342F320014
:1070F00032000000332F340011F0BCFC0834AFF232
:107100001402AFF24801204611F0B4FC0834AFF28B
:107110004802AFF23801204611F0ACFC0834AFF25F
:107120006002AFF26001204611F0A4FC0834AFF217
:107130007002AFF24C01204611F09CFC0834AFF213
:107140008002A6A1204611F095FC0834AFF290020F
:10715000AFF26C01204611F08DFC0834AFF2A002B2
:10716000AFF2A001204611F085FC0834AFF2A8026E
:10717000AFF29401204611F07DFC0834AFF2C0025A
:10718000AFF2B401204611F075FC0834AFF2D00222
:10719000AFF2D801204611F06DFC0834AFF2D802EE
:1071A000AFF2C401204611F065FC0834AFF2F002E2
:1071B000AFF2CC01204611F05DFC0834AFF20812AA
:1071C000AFF20011204611F055FC0834AFF2101256
:1071D000AFF2F801204611F04DFC0834AFF2FC028A
:1071E000AFF22011204611F045FC0834AFF20C122A
:1071F000AFF20C11204611F03DFC0834AFF238120A
:1072000076A1204611F036FC0834AFF24C12AFF2F2
:107210002811204611F02EFC0834AFF25C12AFF2B8
:107220005C11204611F026FC0834AFF26412AFF274
:107230005011204611F01EFC0834AFF27C12AFF260
:107240007C11204611F016FC0834AFF28C12AFF21C
:107250006811204611F00EFC0834AFF27012AFF244
:107260009C11204611F006FC0834AFF2A412AFF2D4
:107270009411204611F0FEFB0834AFF2BC12AFF2BD
:10728000BC11204611F0F6FB0834AFF2CC12AFF27D
:10729000A811204611F0EEFB0834AFF2D4124FA132
:1072A000204611F0E7FB0834AFF2EC12AFF2C81140
:1072B000204611F0DFFB0834AFF2FC12AFF2FC11F4
:1072C000204611F0D7FB0834AFF20422AFF2F011E0
:1072D000204611F0CFFB0834AFF21422AFF2102198
:1072E000204611F0C7FB0834AFF22422AFF224216C
:1072F000204611F0BFFB0834AFF23422AFF22C214C
:10730000204611F0B7FB0834AFF24422AFF240211F
:10731000204611F0AFFB0834AFF25C22AFF26421DB
:10732000204611F0A7FB0834AFF26C22AFF25C21CB
:10733000204611F09FFB0834AFF27422AFF2842193
:10734000204611F097FB0834AFF28C22AFF2742183
:10735000204611F08FFB0834AFF29C22AFF290214F
:10736000204611F087FB0834AFF2AC22AFF2A42123
:10737000204611F07FFB0834AFF29822AFF2B02123
:10738000204611F077FB0834AFF2A822AFF2C421F7
:10739000204611F06FFB0834AFF2DC22AFF2E4219B
:1073A000204611F067FB0834AFF2EC22AFF2DC218B
:1073B000204611F05FFB083409A2AFF200312046ED
:1073C00011F058FB083420460AF066FC2846FDF709
:1073D0002FF828460DF05AFA70BD0000367E0000E6
:1073E000362F320070B54FF4C8600DF063FA0546D1
:1073F0002C4614A214A1204611F03CFB083411A223
:1074000012A1204611F036FB08340EA210A120462E
:1074100011F030FB08340BA20EA1204611F02AFB1C
:1074200008340DA20DA1204611F024FB083420469B
:107430000AF032FC2846FCF7FBFF28460DF026FA3E
:1074400070BD0000312F320031000000320000001A
:107450003300000034000000312F310035000000FF
:107460002DE9FF4704460D46164699460020039035
:10747000029600278046009002A80FF0E3F98DF8ED
:107480000C000398C0F30310022800D01FE001A9EC
:10749000029800F04DF88046029908440290DDE918
:1074A000011047180298381A022800DA0FE002A8E3
:1074B0000FF0C8F98DF80000009800F0010020706E
:1074C00002A80FF0BFF928704FF0010800BF404636
:1074D00004B0BDE8F0872DE9F84305460C460126C7
:1074E00000270020206000BF4FF0FF38781C0746BF
:1074F000042801DD00BF17E001216846A847804647
:10750000B8F1010F00D00FE09DF8001001F07F01ED
:10751000206801FB06002060F6019DF8000000F0E5
:1075200080000028E0D100BF3846BDE8F8830000A5
:1075300070B504460D460348046029460248FFF72B
:10754000CAFF70BD34020020D9BE000830B5024623
:10755000002300BF0846CD1701EB5565ED11A1EBE7
:10756000C515ECB2CD1701EB5565E911002901DD18
:1075700044F0800418465B1C14540029EADC1846C9
:1075800030BD0000401C802801DA401C0AE0B0F544
:10759000804F01DA801C05E00349884201DAC01CF3
:1075A00000E0001D70470000FFFF1F002DE9FE43B3
:1075B00005460E46144602950020019000900027D3
:1075C0004FF0FF38204600F0A5F807468146FFF748
:1075D000D9FFB04202DD6FF001088FE000208DF886
:1075E0000400019820F0F000103001909DF8041084
:1075F00002A811F065FE39460298FFF7A7FF02992D
:1076000008440290207A042808D13EA102A811F073
:1076100043FE042102A811F053FE07E03BA102A89B
:1076200011F03AFE032102A811F04AFE00208DF865
:107630000000A17E009861F341000090E07E08B157
:10764000012100E00021009861F382000090009881
:10765000C0F3800058B194F83D10009861F3C40065
:10766000009094F83C10009861F345100090206C55
:1076700008B9A06C20B1009820F080008030009004
:10768000E06C08B9606D20B1009820F040004030F7
:1076900000909DF8001002A811F012FE218B02A8A4
:1076A00011F014FE02A8D4E90423E16811F026FECB
:1076B000E07E58B102A8D4E90A23616A11F01EFEE7
:1076C00002A8D4E90D23216B11F018FE0098C0F335
:1076D000C01028B102A8D4E91123216C11F00EFECC
:1076E0000098C0F3801028B102A8D4E91423E16CFB
:1076F00011F004FE0298A0EB050800BF4046BDE86B
:10770000FE8300004D515454000000004D51497358
:107710006470000070B504460025207A032801D16A
:107720000C2503E0207A042800D10A25D4E90412AC
:10773000E06800F02AF8801C0544E07E68B1D4E9D6
:107740000A12606A00F021F8861CD4E90D12206B41
:1077500000F01BF83044801C0544206C08B9A06C74
:1077600030B1D4E91112206C00F00FF8801C0544F0
:10777000E06C08B9606D30B1D4E91412E06C00F02F
:1077800004F8801C0544284670BD37B500240098D5
:1077900020B10098FBF7D0FB044600E0019C204696
:1077A0003EBD00F04FF800F04DF8000070B500212C
:1077B00000230F22C47804B3154C246804F4E06459
:1077C000C4F5E064210AC1F10403CA40447804FA14
:1077D00003F184781440214309010E4C0678A15529
:1077E000047804F01F050124AC4005786D11AD004C
:1077F00005F1E025C5F8004109E0047804F01F0513
:107800000124AC40044D0678761145F8264070BD41
:107810000CED00E000E400E080E100E002490143FB
:10782000024A1160704700000000FA050CED00E00C
:10783000024A0A400243024B1A60704780FFFF1F52
:1078400008ED00E00648006800F4E06005490843E0
:10785000001D03490860BFF3408F00BFFEE7000032
:107860000CED00E00000FA0510B50D480068B0B955
:107870000C480068FBF780F90B490860084600686F
:107880000A4908600A480849096800EB411009499B
:1078900008600846006808490860FBF72AF910BD2F
:1078A00044000020680000204C0000204800002018
:1078B0001C1B0020540000205000002070B504461E
:1078C00010464FF080750560051F28462C606FF04C
:1078D0000106051F28462E604FF01236051F284668
:1078E0002E604FF00336051F28462E604FF00236FB
:1078F000051F28462E607610051F28462E60051F9E
:10790000284629604FF01136051F28462E604FF09B
:107910001036051F28462E604FF00936051F2846F1
:107920002E604FF00836051F28462E604FF00736B0
:10793000051F28462E604FF00636051F28462E608C
:107940004FF00536051F28462E604FF00436051F00
:1079500028462E6070BD000010B5FBF7C3F8044642
:1079600006480078401C054908700548007805491C
:1079700008702046FBF7BAF810BD00006400002034
:107980004C0000206C00002010B5FBF7ABF804465B
:107990000948007820B108480078401E0649087060
:1079A0000548007810B92020044908702046FBF7EC
:1079B0009DF803F061FA10BD640000206C00002007
:1079C00010B50346074800EB42100160054800EB84
:1079D000421043604FF00040024C04EB4214E06060
:1079E000002010BD1C1B00200149086270470000E8
:1079F00000000E42024800880A30014908807047A2
:107A00007401002029B1064AD2690243044BDA61AD
:107A100004E0034AD2698243014BDA6170470000F7
:107A20000010024029B1064A12690243044B1A6150
:107A300004E0034A12698243014B1A617047000057
:107A40000010024029B1064A92690243044B9A6130
:107A500004E0034A92698243014B9A617047000037
:107A60000010024029B1064AD2680243044BDA6092
:107A700004E0034AD2688243014BDA607047000099
:107A80000010024001490860704700004004424273
:107A900030B500210022002400232D4D6D6805F033
:107AA0000C0121B1042905D0082923D105E0294D75
:107AB000056022E0274D05601FE0254D6D6805F447
:107AC0007012234D6D6805F48034022505EB924257
:107AD0001CB9214D554305600BE01D4D6D6805F443
:107AE00000351DB11C4D5543056002E0194D55434D
:107AF000056002E0174D056000BF00BF144D6D68C2
:107B000005F0F0010909154D6B5C0568DD40456025
:107B10000F4D6D6805F4E061090A104D6B5C456816
:107B2000DD4085600A4D6D6805F46051C90A0B4D52
:107B30006B5C4568DD40C560054D6D6805F44041EE
:107B4000890B074D6B5CC568B5FBF3F5056130BD6E
:107B50000010024000127A0000093D0018000020C9
:107B60002800002010B501460022002300204A1101
:107B7000012A02D1094C236806E0022A02D1074CEF
:107B8000236A01E0054C636A01F01F02012494405E
:107B90001C400CB1012000E0002010BD001002408C
:107BA00000210B4A11700A4A203A82F8201001285D
:107BB00002D0042808D103E00121054A117004E035
:107BC0000521034A117000E000BF00BF70470000AC
:107BD0002010024001490860704700003C04424206
:107BE0000249096A0143014A1162704700100240CC
:107BF00070B504460D4603F065F90E4909688842E0
:107C000001D0002070BD0DB90020FBE70BE000BFE4
:107C10008021094803F088FA0028F9D02078064925
:107C2000091D0880641C2800A5F10101CDB2EED128
:107C300000BFE7E74C0000200038014070B5054662
:107C40000E4600240B48008838B100BF03E0002036
:107C50002855601C84B2B442F9DB002404E0FDF72F
:107C600075FA2855601C84B2024800880028F6D1B5
:107C7000204670BDD20000202DE9F04105460E4699
:107C8000002400BF03E000202855601C84B2B442E9
:107C9000F9DB002442F2107809E0A8F101001FFA94
:107CA00080F8B8F1000F02D10020BDE8F081214832
:107CB00000780028F1D020480068002838D000243F
:107CC00000270CE001F0BCFFFF2804D101F0CCFF3D
:107CD000FF2800D105E0FDF739FA781C87B2322F72
:107CE000F0DB00BF002410E0FDF730FA2855601CDF
:107CF00084B2B44200D10CE001F0A2FFFF2804D10D
:107D000001F0B2FFFF2800D103E00C4800880028F2
:107D1000EAD100BF0948008850B90020084908800E
:107D2000084908600849088001200849C1F8940101
:107D30002046BAE7D400002020012142D2000020D2
:107D4000CC00002094012742CE00002000002742F2
:107D500010B586B0044601210420FFF773FE01210F
:107D60008803FFF76FFE464803F090F94FF48070E8
:107D7000ADF8140004208DF8170003208DF81600CC
:107D800005A94048FDF74EF84FF480713D48FDF7D6
:107D900023F94FF40060ADF8140010208DF817009F
:107DA00003208DF8160005A93648FDF73BF84FF47F
:107DB00000613448FDF70EF94FF48050ADF814001F
:107DC00010208DF8170003208DF8160005A92D4806
:107DD000FDF728F84FF480512A48FDF7FBF84FF4DF
:107DE0000070ADF8140002208DF8160018208DF8F0
:107DF000170005A92348FDF715F84FF48060ADF88A
:107E0000140004208DF8170005A91E48FDF70AF894
:107E100025208DF8000000208DF8010001208DF84C
:107E200002008DF803006846FFF7C0FC01940020B3
:107E3000ADF80800ADF80A00ADF80C00ADF8100080
:107E40000C20ADF80E0000210D4803F012F90C488B
:107E500003F01CF901A90A4803F0C2F9012240F21B
:107E60002551074803F097F9012240F224410448C4
:107E700003F091F90121024803F0FBF806B010BDB0
:107E800000380140000801401FB504464FF4165069
:107E9000FFF75EFF01201F4908601F49C1F8AC01D0
:107EA000642008F071FD1DA103C9CDE902018DF820
:107EB0000C401CE0062102A8FFF79AFE4FF4FA706E
:107EC00008F062FD00200090019006216846FFF74F
:107ED000B5FE694613A00FF09DFB00B108E09DF8C8
:107EE00004009DF80C10884200D101E000BFE1E7DA
:107EF00000BF0020074908600749C1F8AC016420B1
:107F000008F042FD4FF4E130FFF722FF002004B0FB
:107F100010BD0000B001214200002142C200003A21
:107F2000144000004F4B0000024909888143014A78
:107F300011807047042800400348008840F010007A
:107F40000149088070470000042800400348008869
:107F50004FF6EF710840014908807047042800403F
:107F600070B500260024002500F07AF8064638484F
:107F7000B6FBF0F437480088A0423CD035490C806D
:107F800040F2B27510E02846FDF742FA40B1B4F570
:107F9000B77F02D3A4F5B77404E0681C85B206E08D
:107FA000A4F26D14681C85B2B4F5B67FEBD800BF9F
:107FB00029488580002516E027498888FDF728FA9A
:107FC00030B1012D04D11D2C01D31D3C09E00CE082
:107FD0002248405DA04203D82048405D241A00E0BA
:107FE00003E0681C85B21C2CE6D200BF681C1A494D
:107FF0008871601CC8711648B6FBF0F100FB116473
:108000004FF46160B4FBF0F0134908704FF4616005
:10801000B4FBF0F100FB11403C21B0FBF1F00E4944
:1080200048704FF46160B4FBF0F100FB11403C215B
:10803000B0FBF1F201FB1200074988700B46DA79B8
:108040009979988800F030F803490872002070BDD3
:1080500080510100700000201C1F0020D0AE0108DC
:10806000002103480188001F008841EA0040704752
:108070001C28004001460020064A12880A40D0B25F
:10808000044A121F12880A4012B108B1012000E010
:10809000002070470428004010B5FFF7E1FF10BD35
:1080A000004870471C1F0020F0B503460C461546DB
:1080B000642093FBF0F0C6B2642093FBF0F700FB62
:1080C0001730C1B2132E02DD01F16400C1B20846BF
:1080D000CF1701EB977701EBA707BAB2072092FB06
:1080E000F0F700FB172082B25719601EDFF82CC092
:1080F0001CF80000384482B2CF1701EB9777BF100D
:10810000A1EB87071FB9032C01DA501E82B20720AA
:1081100092FBF0F700FB1720C0B2F0BDC4AE01081F
:1081200010B50120FFF7A6FF08B1FFF719FF0220E5
:10813000FFF7A0FF10B10220FFF7F6FE0520FFF7C2
:10814000F3FE00F02DF910BD29B1064A1288024352
:10815000044B1A8004E0034A12888243014B1A80C0
:1081600070470000002800401CB500240420FCF7E4
:1081700075F845F2500188424AD001214FF0C050B5
:10818000FFF740FC0120FFF72FFCFCF75FF8012010
:10819000FFF706FD0BE0601C84B24FF47A7008F024
:1081A0000DFC40F6C410844201DB01201CBD4120BF
:1081B000FFF7D8FC0028EED04FF48070FFF710FDD9
:1081C0000120FFF707FD00F0EBF800F0F3F80121C4
:1081D0000846FFF7B9FF00F0E3F8FFF7ADFE47F6FA
:1081E000FF7000F0B5F800F0DBF8372000210A231B
:1081F0000222CDE900100C2140F2D97000F02EF8D7
:10820000FFF7A4FE45F250010420FCF735F807E023
:1082100000F0D0F801210846FFF796FF00F0C0F803
:1082200000F00AF8FFF79CFE0120024908700020C8
:10823000BCE700006E00002008B503208DF80000A8
:1082400001208DF8010003208DF8020001208DF837
:1082500003006846FFF7AAFA08BD00002DE9F05FA9
:1082600006460F4690469946DDE90AAB00242C48A5
:10827000007810B90120BDE8F09F40F2B27086424C
:1082800003DB40F63300864201DD0120F3E740F2D4
:10829000B2750AE02846FDF7BBF810B12148044446
:1082A00001E021480444681C85B2B542F2DB781E27
:1082B000C7B2002510E01D48405D40F2A3214843AD
:1082C00004EBC0143046FDF7A3F818B1012D01D11D
:1082D00017480444681C85B2BD42ECDBA8F10100DC
