:020000040800F2
:10280000A8260020A92A000803770008AF52000874
:10281000FF760008F945000857B5000800000000E1
:102820000000000000000000000000006F9400089D
:102830005549000800000000332B000875A300086C
:10284000C32A0008C32A0008C32A0008018100081F
:10285000C32A0008C32A0008C32A0008C32A0008A4
:10286000C32A0008C32A00084B4B0008C32A0008EB
:10287000C32A0008C32A0008C32A0008C32A000884
:10288000C32A0008C32A0008C32A0008C32A000874
:10289000C32A0008C32A0008C32A0008C32A000864
:1028A000C32A0008C32A0008C32A0008C32A000854
:1028B00051A400087DA4000899A40008C32A0008B8
:1028C000C32A0008C32A0008C32A0008C32A000834
:1028D000C32A00086DB0000865B10008C32A0008CB
:1028E000C32A0008C32A0008C32A0008C32A000814
:1028F000C32A0008C32A0008C32A0008C32A000804
:10290000C32A0008C32A000859A50008C32A0008E2
:10291000C32A0008E5AF0008C32A0008C32A00083C
:10292000C32A0008C32A0008C32A0008C32A0008D3
:1029300000F002F800F07EF80AA090E8000C824453
:102940008344AAF10107DA4501D100F073F8AFF230
:10295000090EBAE80F0013F0010F18BFFB1A43F07D
:102960000103184764A5010084A501000A444FF043
:10297000000C10F8013B13F0070408BF10F8014BDE
:102980001D1108BF10F8015B641E05D010F8016B23
:10299000641E01F8016BF9D113F0080F1EBF10F887
:1029A000014BAD1C0C1B09D16D1E58BF01F801CBAA
:1029B000FAD505E014F8016B01F8016B6D1EF9D52D
:1029C0009142D6D370470000002300240025002642
:1029D000103A28BF78C1FBD8520728BF30C148BF82
:1029E0000B607047662918F04085652918F03D8511
:1029F000642900F05181752900F04E81782900F09A
:102A00008781732900F0DB86002070471FB500F036
:102A10005CFA00F0D9FE04000020002117F080FCD1
:102A2000401C60600020002117F090FCE0601FBD9A
:102A300010B510BD00F0C8FF1146FFF7E7FF11F019
:102A4000BFFE00F0E6FF03B4FFF7F2FF03BC09F09E
:102A50002CF90000EFF30980704780F30988704774
:102A6000EFF30880704780F30888704740BA7047DA
:102A7000C0BA70470B49D1F800C04A685CF8043B03
:102A80001068184442F8040B8C4528BFA1F1DC0CF7
:102A90008A4228BFA1F1DC02C1F800C04A6020F0E0
:102AA00000407047402400200948804709480047FB
:102AB000FEE7FEE7FEE7FEE7FEE7FEE7FEE7FEE7EE
:102AC000FEE7FEE704480549034A054B704700004E
:102AD000F1A3000831290008A8240020A82600201E
:102AE000A8240020EFF3108072B6704780F310889E
:102AF0007047264C264D25604FF0000484F309886A
:102B0000244C4FF001052570234C4FF08055256073
:102B100062B6FEE730B4204C4FF08055256030BCE3
:102B2000704730B41C4C4FF08055256030BC704766
:102B300000BF72B6EFF3098028B1203880E8F00FAB
:102B400016490968086000B51548006800B180475B
:102B50005DF804EB134814490A7802700F481349D2
:102B60000A680260106890E8F00F203080F309884E
:102B70004EF0040E62B67047B0FA80F0704790FADB
:102B8000A0F04FEA10407047DDF810F020ED00E0B3
:102B90000000FFFF4400002004ED00E05000002092
:102BA00060000020480000204C000020540000205D
:102BB000704710B5044600F059FB0068005DC00680
:102BC00002D504F1200010BD204610BD0FB41CB585
:102BD000084B06AA7B4469460090059800F0C5FDA5
:102BE00004460020694600F0D3FD20461CBC5DF879
:102BF00014FB0000B90B000070B50446856900683D
:102C0000C10601D5302600E02026C00707D070BDE0
:102C1000D4E9012130469047206A401C20626D1E95
:102C2000F6D570BD70B5044685690078C00707D138
:102C300070BDD4E9012120209047206A401C206209
:102C40006D1EF6D570BD70B50C460546012A05D03F
:102C50002878800600D5EA69002302E0012305E018
:102C60005B1C934202D2E05C0028F9D1A869E61807
:102C7000C01AA861286A184428622846FFF7BCFFDA
:102C800004E0D5E9012114F8010B9047B442F8D3D0
:102C90002846FFF7C7FF70BD2DE9F0410646002426
:102CA00010687529314616A510D0AFF300800028B2
:102CB00002DA404213A507E031688A0701D512A560
:102CC00002E0490704D511A5012401E0AFF300801B
:102CD00000210A2206F1240709E0B0FBF2FCB0FB58
:102CE000F2F302FB1C00303078541846491C0028CF
:102CF000F3D123462A463046BDE8F04100F0C9BA78
:102D0000000000002D0000002B000000200000004B
:102D100070B504460D4621461068AFF30080218847
:102D2000090502D50F4A7A4402E00E4A7A440E326F
:102D3000002104F1240305E000F00F060009965D70
:102D40005E54491C0028F7D120780023000704D5E1
:102D5000702D02D009B1022311322046BDE8704027
:102D600000F097BA429101002DE9F05F89460446D0
:102D70004FF0000ADFF824B1FB44C0F820A0204641
:102D8000E168884700287DD0252806D0D4E90121B4
:102D90009047206A401C2062F1E700255F462046EC
:102DA000E16888472028064607DB312E05D2B8198E
:102DB00010F8200C08B10543F1E7A80701D525F06C
:102DC0000405C4F81CA00027C4F818A02A2E09D0B6
:102DD000304608F063FF38B304EB8708303EC8F88C
:102DE000186019E059F8041B204604EB8702916132
:102DF000E1688847012F064618D1E069002820DAEB
:102E000025F020051DE0D8F8180000EB800006EB47
:102E100040003038C8F818002046E1688847064668
:102E200008F03CFF0028EED1012F0AD02E2E08D149
:102E30002046E16888477F1C0646022F45F02005A2
:102E4000C4DBA069002803DA404245F00105A06117
:102E5000E80701D025F01005A6B1A6F14100192818
:102E600002D8203645F400654A46314620462560A2
:102E70004D46FFF7B7FD60B1012807D0ED1D25F0E5
:102E8000070000E007E000F1080978E705F1040910
:102E900075E730467AE7206ABDE8F09F1891010097
:102EA0000B4910B5A1F17C020A4CC2E93712372157
:102EB00006E000EB104342F82130074B00FB0340D3
:102EC0000B1EA1F10101F4DC10BD0120E8E70000B8
:102ED000E0230020E119D666CD0D0100401ECAB2E4
:102EE00010F8011F8A4202D00029F9D10020704752
:102EF00040EA0103024630B59B0710D14FF0013480
:102F000000E008C208C91D1B9D4315EAC41FF8D084
:102F100013F0FF0102F8011B0DD01B0AF8E711F8AE
:102F2000013B002B02F8013B05D011F8013B002BBF
:102F300002F8013BF3D130BD10B5431C02E010F89C
:102F4000011B71B18107FAD14FF0013202C88C1A0E
:102F50008C4314EAC211F9D0C01A0A0603D0C01E6D
:102F600010BDC01A10BD0A0401D0801E10BD090298
:102F7000FCD0401E10BD40EA010370B59B072ED166
:102F80004FF00136042A2AD308C810C99D1B9D435F
:102F9000121F15EAC61517D0D8B2E1B2401A50EA8E
:102FA000056110D198B2A1B2401A50EA05410AD188
:102FB00023F07F4024F07F41401A50EA052102D1DE
:102FC000180EA0EB146070BDA342DBD018BA21BA72
:102FD000884201D9012070BD4FF0FF3070BD0AB9A1
:102FE000002070BD10F8013B11F8014B63B1A34202
:102FF0000AD1521E08D010F8013B11F8014B1BB149
:10300000A34201D1521EEDD1181B70BD032A40F21C
:10301000308010F0030C00F0158011F8013BBCF17A
:10302000020F624498BF11F801CB00F8013B38BF92
:1030300011F8013BA2F1040298BF00F801CB38BFA0
:1030400000F8013B11F0030300F02580083AC0F0BE
:10305000088051F8043B083A51F804CBA0E8081066
:10306000F5E7121D5CBF51F8043B40F8043BAFF399
:103070000080D20724BF11F8013B11F801CB48BFF3
:1030800011F8012B24BF00F8013B00F801CB48BF29
:1030900000F8012B704710B5203AC0F00B80B1E862
:1030A0001850203AA0E81850B1E81850A0E818507D
:1030B000BFF4F5AF5FEA027C24BFB1E81850A0E886
:1030C000185044BF18C918C0BDE810405FEA827CA0
:1030D00024BF51F8043B40F8043B08BF7047D207B7
:1030E00028BF31F8023B48BF11F8012B28BF20F858
:1030F000023B48BF00F8012B70474FF00002042943
:10310000C0F0128010F0030C00F01B80CCF1040C16
:10311000BCF1020F18BF00F8012BA8BF20F8022B4A
:10312000A1EB0C0100F00DB85FEAC17C24BF00F8F0
:10313000012B00F8012B48BF00F8012B70474FF01E
:10314000000200B5134694469646203922BFA0E8F7
:103150000C50A0E80C50B1F12001BFF4F7AF090703
:1031600028BFA0E80C5048BF0CC05DF804EB8900F4
:1031700028BF40F8042B08BF704748BF20F8022B37
:1031800011F0804F18BF00F8012B704710B50446AE
:1031900010F0030F08BF11F0030F40F015804FF03F
:1031A000013E121FC0F20E8051F8043BA3EB0E0C3F
:1031B0002CEA030C1CEACE1C08BF40F8043BF0D0FC
:1031C000A1F1040102F10402521E08DB11F8013BD7
:1031D000002B00F8013BF7D11146FFF78EFF204688
:1031E00010BD00004FF0013C50F8042B51F8043B97
:1031F0009A4221D1A2EB0C03934313EACC1317D1CB
:1032000050F8042B51F8043B9A4215D1A2EB0C0361
:10321000934313EACC130BD150F8042B51F8043B21
:103220009A4209D1A2EB0C03934313EACC13DBD0EF
:103230004FF00000704700BFD01A01BAB1FA81F117
:1032400001F0180122FA01F0CB40C1F12001DBB2FC
:10325000C0B2C01A2CFA01F3D11A914311EAC3117A
:10326000E6D17047704770477047704710B500F05F
:10327000ABFA001D10BD00BFA970010010B500F031
:10328000A7FA006810BD10B5044600F0A1FA04606A
:1032900010BD2DE9F0470D4699469246044600F1CF
:1032A00024080168880604D5E06921F01001216036
:1032B00000E00120A84201DD471B00E00027A169D2
:1032C0007A1902EB0900081AA0612078C00602D41E
:1032D0002046FFF791FC002608E0D4E901211AF806
:1032E00006009047206A401C761C20624E45F4DBA5
:1032F0002078C0060AD52046FFF77EFC06E0D4E918
:10330000012130209047206A401C2062381EA7F11E
:103310000107F4DC07E0D4E9012118F80500904723
:10332000206A401C2062281EA5F10105F3DC20461E
:10333000FFF778FC2078000602D50220BDE8F08770
:103340000120FBE770472DE9FF4F0C461E464FF06A
:10335000FF378BB0D2E90001DDF860800A908A4621
:10336000C1F30A5505B93D46002108464FF000005B
:10337000BAF1000F00F4400005DA00EB80004FF4D2
:10338000400101EA50004FEA9059B9F1010F00DD08
:10339000B9460A9850EA4A000ED044F61050A5F2F9
:1033A000FF3545432F14B8F1000F1ED07542291E7A
:1033B0001EDDC9F100021CE0B8F1010F4FF0000062
:1033C00001D0302103E0F24305E02154401CB0421B
:1033D000FBDB30460022002121540B99C1F8088004
:1033E000C1E900200FB0BDE8F08FBD1B6D1CDEE70A
:1033F0004A4600DA694206A800F074FA06AB93E880
:10340000070003AB83E8070050460A9900F007FB6A
:103410008DE80700A0F500501F3800900398002D9C
:1034200009DD42F21F014A46084403A90390684699
:1034300000F066FD08E0A0F500504A461F3803A9D9
:103440000390684600F070FD8DE807000004000C52
:1034500003D04FF0FF30410800E01046B8F1000FF4
:1034600003D00022009215461EE0751E05D400F020
:10347000B3F9303262556D1EF9D5B34601220843C7
:1034800002D000227F1C04E02078302801D10022E5
:103490007F1E002A099786D01DE0112D07DA00F063
:1034A0009BF9303262556D1C50EA0102F5D1084398
:1034B00002D00098C8B10EE00021681E05E0235C30
:1034C000625C63542254401E491C8142F7DBAB46C8
:1034D000A81B401E0990002004F80B000B98099AC5
:1034E000C0F80880C0E9002B7CE711264FF00008E7
:1034F00059E72DE9F04F88460446D21D22F0070116
:1035000091B0D1E90001CDE90A0108F03DFB024686
:103510000B98C00F01D02D2007E02068810701D54E
:103520002B2002E0202101EAC000032A099001D0EB
:10353000072A05DB03464146204600F093F90BE1DC
:103540002078800601D5E06900E00620B8F1650F1B
:10355000814606D0B8F1660F18D0B8F1670F70D168
:1035600031E00020B9F1110F009001DB112301E0DF
:1035700009F101030AAA01A90CA8FFF7E4FEDDE99D
:103580000C70002609F10105834647E001204B46F7
:1035900000904FF000470AAA01A90CA8FFF7D3FE3C
:1035A000DDE90DB00C995D46002610B909F1010066
:1035B0000D18B9EB050003D4C0F1FF3609F1010580
:1035C000A5EB09002BE0B9F1010F01DA4FF0010979
:1035D0000020B9F1110F0090484601DD112300E0F1
:1035E00003460AAA01A90CA8FFF7ADFEDDE90C709D
:1035F0004D4600268346207800070AD4AB4500DA02
:103600005D4601A8012D04DD411911F8011C302986
:1036100007D04F4502DA17F1040F04DA0120824681
:103620000FE06D1EEEE7002F02DCED1B3E4403E0D1
:10363000781CA84200DD7D1CB81B00F1010A4FF088
:1036400000472078000703D4AA4501DB4FF0FF3A7A
:103650000021B7F1004F0DF143088DF8431024D03D
:1036600002202B23002F01DA7F422D230A21021E84
:10367000A0F1010000DC5FB197FBF1FC97FBF1F2D8
:1036800001FB1C7C17460CF1300C08F801CDEEE76D
:10369000A8F1010003702188090501D5452100E04A
:1036A0006521A0F1010800F8011C09980FA9A1EB00
:1036B0000807FF1D00B10120411901EBEA70A16963
:1036C0003844081A401EA0612078C00602D4204663
:1036D000FFF792FA099828B1D4E901219047206AAE
:1036E000401C20622078C00622D52046FFF784FACD
:1036F0001EE0002E04DBB34502DD01A8805D00E082
:103700003020D4E901219047206A401C2062761CB9
:10371000AAF101005FEA000A0AD100F055F8C0687A
:103720000168405CD4E901219047206A401C206276
:10373000281EA5F10105DCDC07E0D4E9012118F819
:10374000010B9047206A401C2062381EA7F1010738
:10375000F3DC2046FFF766FA032011B043E60000D1
:1037600001694A1C02610878704700B58FB0CDE945
:1037700001310021059105497944CDE90310114635
:103780006846FFF7F1FA0FB000BD0000E5FFFFFF4C
:103790000A6802F8010B0A60704710B5436913B15B
:1037A000AFF3008001E0FFF74EFA012010BD127860
:1037B00000F124010A7000224A700122EDE711682D
:1037C0004FF0FF32E9E7000000487047682400200E
:1037D000004870474824002030B5B0F10A024FEA93
:1037E000900E71F100034EEA817EB0EB0E0061EBAA
:1037F00091014FEA101E4EEA017E10EB0E0041EBE4
:1038000011114FEA102E4EEA016E10EB0E0041EB43
:1038100011214FEA104E4EEA014E10EB0E0041EB23
:103820001141401841F100014FEAD00040EA4170D7
:103830004FEAD10110EB80054FEA810444EA90740D
:1038400044EB01046D1944EB0404521BA3414FF0F7
:10385000000348BF0A3200D530BD401C41F10001D1
:1038600030BD00002DE9F0411F46044603260168E3
:10387000072A01F4006004DB08B116A505E016A5CF
:1038800003E008B115A500E015A521F010002060A7
:10389000A069C01EA0610FB1401EA0612046FFF7C5
:1038A000ABF94FB1D4E9012138469047206A401C5A
:1038B0002062C01C206206E0206AFAE7D4E90121F8
:1038C00015F8010B9047761EF8D22046FFF7AAF9AB
:1038D000BDE8F0814E414E006E616E00494E4600DB
:1038E000696E66002DE9F047814616468AB0334876
:1038F00078440DC88DE80D0030487844801C03AC36
:103900000DC884E80D0041F69B300844372190FB38
:10391000F1F290FBF1F5A5F1800501FB12041B3CCF
:1039200002D56442012000E00020DFF890A080462C
:103930000027FA44AAF1BE0A0DE0E00709D032469A
:10394000684607EB47010AEB810100F0EDFA8DE8CC
:10395000070064107F1C002CEFD1184F7F44AC3F50
:1039600018E0E80714D007EB04100DF1180A90E8EE
:103970000E008AE80E00C068F04201D19819089044
:10398000324606A903A800F0CFFA03AB83E807008C
:103990006D10641C002DE4D132466946B8F1000F69
:1039A00003A802D000F0ACFA01E000F0BDFAC9E9CA
:1039B0000001C9F808200AB0BDE8F087C086010000
:1039C00000487047482400207546FFF7F9FFAE46CF
:1039D00005006946534620F00700854618B020B51B
:1039E000FFF770F8BDE820404FF000064FF00007E9
:1039F0004FF000084FF0000B21F00701AC46ACE897
:103A0000C009ACE8C009ACE8C009ACE8C0098D4603
:103A100070470446AFF300802046FFF714F85FEAD2
:103A2000400C08BF91F0000F4FEA8C234FEAC122EF
:103A300043EA51514FEA1C5018BF00F5F0404FEADD
:103A4000300018BF41F000415FEA6C5C00F0298053
:103A5000BCF1FF3F08BF40F080407047130C06BF29
:103A600012044FF0100C4FF0000C130E04BF1202A2
:103A70000CF1080C130F04BF12010CF1040C930F8E
:103A800004BF92000CF1020CD30F04BF52000CF1E2
:103A9000010C11464FF00002A0F11F00A0EB0C003A
:103AA000704711F0004F08BF704731F000413FF4FC
:103AB000D5AF0B0C06BF09044FF0100C4FF0000CF3
:103AC0000B0E04BF09020CF1080C0B0F04BF090117
:103AD0000CF1040C8B0F04BF89000CF1020CCB0F0E
:103AE00004BF49000CF1010CCCF12003A0EB0C0049
:103AF00022FA03F302FA0CF241EA030100F1010099
:103B0000704720F07F4C80EA030023F07F47ACEB46
:103B1000070303F57C5300F0004003F1FF032DE998
:103B200080494FEA154B09B44FEA144325EA0B4E7E
:103B300024EA03480FF2042606EB132749083E78CF
:103B40005FEA320203FB0667C7F5000707FB06F6CC
:103B50004FEA54374FEAD64606F1020607FB066CD9
:103B6000CCF1005C4FEA1C472CEA074C07FB06F43B
:103B70000CFB06F504EB15464FEA961634BF002001
:103B80004FF000404FEAD13706FB07FC4FEA1C4CD0
:103B90000CFB0BF7D21B03FB0CF761EB07010CFBD3
:103BA0000EF7B0EB074072EB17420CFB08F734BF7F
:103BB000A2EB0742B2EB074261EB17414FEA0C441C
:103BC0004FEA910706FB07FC4FEA1C4C0CFB0BF776
:103BD000B0EBC74072EB573203FB0CF734BFA2EBDC
:103BE000C742B2EBC74261EB57310CFB0EF7B0EBAB
:103BF000C70072EB57720CFB08F734BFA2EBC70289
:103C0000B2EBC70261EB5771039F4FEA816141EA52
:103C1000921104EBCC044FEAD1374FEA826206FBE3
:103C200007FC42EA90124FEA80604FEA1C4C0CFB02
:103C30000BF7D21B03FB0CF761EB07010CFB0EF734
:103C4000B0EB074072EB17420CFB08F734BFA2EB56
:103C50000742B2EB074261EB17414FEA8C554FEA3E
:103C6000910704EB9C2406FB07FC4FEA1C4C0CFB61
:103C70000BF7B0EBC74072EB573203FB0CF734BFC6
:103C8000A2EBC742B2EBC74261EB57310CFB0EF718
:103C9000B0EBC70072EB57720CFB08F734BFA2EB16
:103CA000C702B2EBC70261EB577115EB4C254FEA27
:103CB000816141EA92114FEA82624FEAD13742EACA
:103CC000901206FB07FC44F100044FEA80604FEAC3
:103CD0001C4C0CFB0BF7D21B03FB0CF761EB070131
:103CE0000CFB0EF7B0EB074072EB17420CFB08F72A
:103CF00034BFA2EB0742B2EB074261EB174115EB71
:103D00001C154FEA813141EA92414FEA823242EA80
:103D100090424FEA80304FEA0C7644F1000448EAC2
:103D200003434EEA0B484FF0000EB2EB080C71EB68
:103D3000030724BF624639464EEB0E0E4FF0000BD0
:103D40000018524149414BEB0B0BB2EB080C71EBE5
:103D500003077BF1000B24BF624639464EEB0E0E83
:103D60004FF0000B0018524149414BEB0B0BB2EBEB
:103D7000080C71EB03077BF1000B24BF6246394648
:103D80004EEB0E0E51EA020718BF46F0010616EB85
:103D90000E7655F1000254F1000103D5BDE889010A
:103DA000BDE80088BDE88901BDE80048B619524168
:103DB00041EB0101A3F10103704780807F7E7D7C90
:103DC0007B7A7978777676757473727171706F6EAD
:103DD0006E6D6C6C6B6A6A69686867666665646458
:103DE000636362616160605F5F5E5E5D5D5C5C5BE2
:103DF0005B5A5A5959585857575656555555545451
:103E0000535352525251515050504F4F4F4E4E4DAE
:103E10004D4D4C4C4C4B4B4B4A4A4A4949494848FA
:103E2000484747474746464645454544444444433A
:103E300043434342424242414141002B26D4770052
:103E400021D01CB54FEA370703B44FF010004FF0F4
:103E500010014FF000000FBCBDE810400BF1010B4A
:103E6000BBF1010F08BF5FEA170722BF12F1010281
:103E700011F101014FF0004143F1000300F0004057
:103E800043EA00007047F9D35708DAE746EA0646E6
:103E900013F1400F4FEA16461FDD13F1200FDFBF6D
:103EA00016430A46002120335B42C8D0C3F12007E5
:103EB00046EA064602FA07F74FEA164646EA0706BA
:103EC000C3F1200722FA03F201FA07F721FA03F1FE
:103ED0004FF0000342EA0702B1E746EA020646EA6B
:103EE00006464FEA164646EA0106BCBF46EA0646C3
:103EF000360C4FF000034FF000024FF000019EE738
:103F00002DE9C048934630B491E8380007C831EA3B
:103F1000400C48BF34EA430C03D5FFF7F2FDFFF72E
:103F20008CFFF0BCBDE800882DE9C048934630B452
:103F300091E8380007C810F0804F08BF13F0804F99
:103F400003D100F005F8FFF778FFF0BCBDE800886A
:103F500020F07F4780EA030023F07F4C07EB0C033F
:103F6000A3F57C5300F00040A3F1FE0392F0000F94
:103F700000F0B38095F0000F00F077802DE9014943
:103F80004FEA11404FEA144621EA004800FB06FCC4
:103F900024EA064708FB06F607FB08F800FB07F7CC
:103FA00018EB06484CEB164C4FEA124B18EB07483F
:103FB0004FEA15464CEB174022EA0B4E0BFB06FC72
:103FC00025EA06470EFB06F607FB0EFE0BFB07F77E
:103FD0001EEB064E4CEB164C4FF000061EEB074E48
:103FE0004CEB174B18EB0B0840F1000018EB0E0BD5
:103FF00058EB000840F100008F1A4FF000013CBF61
:10400000C943661B14BFB5EB040C00213CBFC94378
:10401000F61B4FEA17444EEA8E0E27EA04454FEA94
:104020001C4704FB07622CEA074C05FB07F70CFB57
:1040300005F604FB0CFC16EB074642EB174216EBA9
:104040000C4642EB1C421BEB060658EB02024141B8
:1040500046EA9E0601D5BDE80189B619524141EBF9
:104060000101A3F10103BDE801894FEA14454FEABC
:10407000114724EA054621EA074C05FB07F406FB35
:1040800007F70CFB06F105FB0CFC11EB074144EBB9
:1040900017444FEA124711EB0C4144EB1C4422EA4F
:1040A000074C05FB07F206FB07F70CFB06F605FBC2
:1040B0000CFC16EB074642EB174216EB0C4642EBA4
:1040C0001C456A1854F1000148BF7047B6195241A7
:1040D00041EB0101A3F10103704795F0000F37D0C8
:1040E0004FEA11424FEA144721EA024624EA074CFC
:1040F00002FB07F106FB07F70CFB06F402FB0CFCC6
:1041000014EB074441EB17414FEA154714EB0C44FD
:1041100041EB1C4125EA074C02FB07F506FB07F7BC
:104120000CFB06F602FB0CFC16EB074645EB1745AD
:1041300016EB0C4645EB1C42121951F1000148BF29
:104140007047B619524141EB0101A3F101037047D9
:104150004FEA14454FEA114724EA054621EA074C85
:1041600005FB07F106FB07F70CFB06F24FF0000614
:1041700005FB0CFC12EB074241EB174112EB0C4222
:1041800051EB1C4148BF7047921841EB0101A3F16C
:104190000103704710B50EF041F8408C012804D19E
:1041A0000EF03CF80021418403E00EF037F80121C5
:1041B00041840EF033F890F82240214606200FF09B
:1041C000D9FB10BD1CB510A103C9CDE900010EF04B
:1041D00025F8808A01280BD100208DF807000821DE
:1041E000684601F0ABFA0EF019F8002181820AE06E
:1041F0000EF014F80121818201208DF807000821BA
:10420000684601F09BFA1CBD5AA505821009000002
:1042100008B50121102003F001FC4FF40050ADF867
:10422000000010208DF8030002208DF8020069467E
:10423000054800F0A5FD002003F09EFC4FF400515E
:10424000014800F075FE08BD0010014010B50120C6
:1042500003F004FC002003F001FC10BD08B501468A
:1042600000200090034800900098084400900098B7
:10427000008808BD006C004008B500220092044A86
:104280000092009A02440092009A116008BD00005A
:10429000006C00400EB500200090019002900320B9
:1042A0008DF8000002208DF8010000208DF802003A
:1042B0008DF8030002208DF804008DF80500694692
:1042C000032014F0FFFE0EBD0EB5002000900190FB
:1042D000029002208DF800008DF8010000208DF87A
:1042E00002008DF8030002208DF804008DF805000F
:1042F0006946032014F0E6FE0EBD0EB500200090C6
:104300000190029004208DF8000002208DF8010039
:1043100000208DF802008DF8030002208DF80400C3
:104320008DF805006946032014F0CCFE0EBD0EB5D5
:10433000002000900190029005208DF800000220DE
:104340008DF8010000208DF802008DF80300022096
:104350008DF8040001208DF805006946032014F053
:10436000B1FE0EBD0EB5002000900190029002201B
:104370008DF800008DF8010000208DF802008DF806
:10438000030002208DF8040001208DF80500694625
:10439000032014F097FE0EBD10B50848008830B910
:1043A000002007490860AFF20F000CF041FE0348FF
:1043B0000088401E0149088010BD000080000020D8
:1043C000B401224210B50948006810F03DFF0020FA
:1043D0000649086006480CF041FE06480CF028FE2D
:1043E0000020054908600549087010BD78000020CC
:1043F00041C2000849C10008B401224274000020F3
:1044000010B500200249086002480CF011FE10BDF2
:10441000B40122429943000810B504460120044922
:10442000086004480480044807F0AAFC10BD00009E
:10443000B401224280000020994300082DE9FF4189
:10444000054600245A4AD2E901311068D268CDE904
:10445000013103920090002611E03DF8160016F09D
:1044600049FE804653480168404616F08BFE0746D9
:1044700016F008FE80B22DF81600701CC6B2082E89
:10448000EBDB4D480078012801D1BDE8FF81012018
:10449000494908704FF4966010F0EAFE47490860F9
:1044A0000846006800B9F0E769E0287830383DF840
:1044B00010006100414A126842F8210068785F28C4
:1044C0000BD160003D49096851F8200040086100A7
:1044D0003A4A126842F821000DE068787E280AD135
:1044E00060003649096851F8200040006100334AF5
:1044F000126842F8210060003049096851F8200034
:1045000060B160002D49096851F820002C49B1FBC9
:10451000F0F06100294A126842F82100A879303889
:10452000082191FBF0F0012101EB4401234A1268BC
:1045300042F82100012000EB44002049096851F8AD
:104540002000297930394843012101EB44011B4AFD
:10455000126842F82100012000EB44001749096865
:1045600051F8200000EB80004000012101EB4401E4
:10457000124A126842F821000835601C84B228787B
:10458000002892D1012101EB44010C4A126842F843
:1045900021000A490968098888B215F067FA0948B4
:1045A00007F010FC084807F0EBFB00BF6DE70000C8
:1045B00070BB01087C0000207400002078000020FF
:1045C00040420F0041C2000849C100082DE9F041F6
:1045D0000446204616F05CF905460022044B15F00F
:1045E000B9FF074615F0C8FE02490860BDE8F08132
:1045F000000024407C00002003F0D2F870B505468E
:10460000002401240AE000F09BFC610030F8110056
:10461000A84201D1012070BD601C84B200F090FC62
:10462000610030F811000028EDD100BFF3E7000071
:104630002DE9F041002500270024FEF753FA064635
:10464000002039E0204901EB4011496891B31E492F
:1046500001EB401189691C4A02EB4012928A92B226
:10466000A1EB82010C1D00BF02CC491C0029FBD02C
:10467000154901EB40118969091B012202EBA105D3
:10468000114901EB401149690F0CAF4212D20E499A
:1046900001EB4011898A89B20B4A02EB4012516149
:1046A000094901EB4011496941EA0541064A02EB1B
:1046B00040125161411CC8B22028C3D33046FEF7D6
:1046C00015FABDE8F0810000341B0020002000BF77
:1046D00004E00021034A1154411C88B23A28F8DB57
:1046E00070470000362000207FB505460C460026A6
:1046F00000200190029003900090FF208DF80400AC
:104700008DF8050028128DF80600E8B28DF8070034
:1047100001208DF8080000208DF8090002208DF896
:104720000A0000208DF80B001E208DF80C006A4650
:10473000092101A800F0E8FC9DF800008DF80D00AB
:104740009DF801008DF80E000B2101A803F03CFA42
:1047500000BF33E0C8200CF0F1FC9DF80C0000F124
:104760000901204603F078FA30B3A079C11D6A46EA
:10477000204600F0C9FC9DF80010A079C01D205C07
:10478000814219D19DF80110A0790830205C814246
:1047900012D1E078A17840EA0120A8420CD120791A
:1047A0009DF8081041F08001884205D1207AE17916
:1047B00040EA012004B070BD701CC6B2052EC9DBF2
:1047C0000A20F7E72DE9F0418EB004460D46164663
:1047D0001F464FF0000800200290039004900590BF
:1047E0000190FF208DF808008DF8090020128DF847
:1047F0000A00E0B28DF80B0003208DF80C000020B9
:104800008DF80D0003208DF80E008DF80F508DF8F7
:1048100010608DF8117001AA0A2102A800F074FC42
:104820009DF804008DF812009DF805008DF8130026
:104830000C2102A803F0C8F900BF3DE0C8200CF02D
:104840007DFC182106A803F007FA80B39DF81E002E
:10485000C11D01AA06A800F057FC9DF804109DF8A0
:104860001E00C01D06AA105C814221D19DF80510D2
:104870009DF81E000830105C814219D19DF81B0084
:104880009DF81A1040EA0120A04211D19DF81C00A9
:104890009DF80C1041F08001884209D19DF820005C
:1048A0009DF81F1040EA01200EB0BDE8F081FFE73F
:1048B00008F101001FFA80F8B8F1050FBEDB0A20ED
:1048C000F2E700002DE9F84F81468A4617461C465C
:1048D0000A9D4FF0004020FA05F807EB8400061F00
:1048E000FEF700F983461948006800EA080010B195
:1048F0000120BDE8F88F1548006840EA0800134918
:104900000860002006E04FF0FF31A6EB8002116046
:10491000411C88B2A042F6D30D4800EB45108661D9
:10492000002332465146484602F076FF00902A4660
:104930004846009903F01CF8A0B2054901EB451167
:1049400048615846FEF7D2F80020D2E76800002000
:10495000341B002002F024FF10B50446A0B20CF076
:10496000EDFB10BD70B504464FF0004020FA04F591
:10497000FEF7B8F8064607480068A84305490860EE
:104980000020054901EB441148603046FEF7AEF8BF
:1049900070BD000068000020341B0020FEB50446F6
:1049A0000E461546002000900190029002208DF8DE
:1049B0000000022C52D1A6B3012D17D101208DF891
:1049C00001008DF802006946042014F07BFB694663
:1049D000022014F077FB00208DF8010002208DF8F2
:1049E00002006946042014F06DFBADE0022DFCD1FD
:1049F00001208DF8010002208DF802006946042094
:104A000014F060FB6946022014F05CFB00208DF876
:104A1000010001208DF802006946042014F052FBC9
:104A200092E0FFE700208DF8010001208DF80200E0
:104A30006946042014F046FB6946022014F042FB4C
:104A400000208DF8010002208DF80200694614F064
:104A500039FB6946042014F035FB75E0032C01D0C6
:104A6000052C51D19EB3012D17D101208DF80100E5
:104A700003208DF802006946042014F023FB6946E8
:104A8000022014F01FFB00208DF8010004208DF897
:104A90000200694614F016FB56E0022D54D10120A5
:104AA0008DF8010004208DF80200694614F00AFB1D
:104AB0006946022014F006FB00208DF80100032057
:104AC0008DF802006946042014F0FCFA3CE0FFE790
:104AD00000208DF8010004208DF80200694614F0D2
:104AE000F1FA6946022014F0EDFA00208DF8010079
:104AF00003208DF802006946042014F0E3FA6946A9
:104B0000022014F0DFFA1FE0042C1DD176B1012041
:104B10008DF8010006208DF802006946042014F08B
:104B2000D1FA6946022014F0CDFA0DE000208DF88C
:104B3000010006208DF802006946042014F0C2FA34
:104B40006946022014F0BEFAFEBD10B5102000F038
:104B50000FF830B1102000F005F81021002005F00A
:104B60008DFF10BD0149086070470000140401402A
:104B7000014600200022074B1B6803EA0102054B97
:104B800014331B680B4013B10AB1012000E0002070
:104B90007047000000040140002123498279002A67
:104BA0003AD00A46126803689A430B461A600A1DF7
:104BB000126803689A430B1D1A60027911440A684F
:104BC00003681A430A60184A0832126803689A4355
:104BD000154B08331A601A1D126803689A43124B6A
:104BE0000C331A604279102A0ED11A1F126803681A
:104BF0001A430D4B08331A601A1D126803681A43D2
:104C0000094B0C331A600DE00749427911440A68D8
:104C100003681A430A6005E0027911440A680368D0
:104C20009A430A60704700000004014030B5044612
:104C300004254FF4302000F06FF80546042D17D1FD
:104C40000C48006940F002000A49086108464461C6
:104C5000006940F0400008614FF4302000F05CF83B
:104C600005460448006941F6FD71084001490861A4
:104C7000284630BD0020024004200B49C96801F0DD
:104C8000010109B101200EE00749C96801F00401E2
:104C900009B1022007E00449C96801F0100109B117
:104CA000032000E004207047002002400348006910
:104CB00040F0800001490861704700000020024078
:104CC00070B504460D460426F00200F025F80646AD
:104CD000042E11D10948006940F00100074908611C
:104CE0002580F00200F018F806460448006941F6F5
:104CF000FE71084001490861304670BD0020024045
:104D000002480349486003484860704723016745EB
:104D100000200240AB89EFCD00B502460423FFF727
:104D2000ABFF034603E0FFF7A7FF0346521E012B2C
:104D300001D1002AF7D102B90523184600BD0000B1
:104D400030B500228B071C0F0F2303FA04F20B4B24
:104D50008C1053F824309343084C8D1044F82530C0
:104D600023468C1053F824308C07240F00FA04F4E7
:104D70002343024C8D1044F8253030BD080001401B
:104D80002DE9F041024600250026002000230024E2
:104D9000002791F803C00CF00F0591F803C00CF048
:104DA000100CBCF1000F03D091F802C04CEA0505CD
:104DB00091F800C0BCF1000F31D0146800202BE046
:104DC0004FF0010C0CFA00F3B1F800C00CEA030636
:104DD0009E4220D183004FF00F0C0CFA03F7BC4326
:104DE00005FA03FC4CEA040491F803C0BCF1280F57
:104DF00006D14FF0010C0CFA00FCC2F814C00AE016
:104E000091F803C0BCF1480F05D14FF0010C0CFA2A
:104E100000FCC2F810C0401C0828D1D31460B1F8BF
:104E200000C0BCF1FF0F34DD546800202EE000F11B
:104E3000080C4FF0010808FA0CF3B1F800C00CEAB6
:104E400003069E4221D183004FF00F0C0CFA03F7AA
:104E5000BC4305FA03FC4CEA040491F803C0BCF11E
:104E6000280F05D100F1080C08FA0CF8C2F81480DC
:104E700091F803C0BCF1480F07D100F1080C4FF0C6
:104E8000010808FA0CF8C2F81080401C0828CED39C
:104E90005460BDE8F0810000F0B50A46002300240C
:104EA0000021002500F00046B6F1004F02D11D4E52
:104EB000F16901E01B4E7168C0F3034583B200F451
:104EC0004016B6F5401F08D121F07061154E766886
:104ED00026F07066134F7E6012E000F48016B6F57F
:104EE000801F06D1032606FA05F4A14341F0706144
:104EF00006E0460D360103FA06F6B14341F0706153
:104F000022B1460D360103FA06F6314300F00046A1
:104F1000B6F1004F02D1034EF16101E0014E716024
:104F2000F0BD0000000001400146886880B2704773
:104F30004161704701617047004870477822002046
:104F400000487047E82000200246002100BF0DE025
:104F5000012000EB41000A4B13F81000904203D1EE
:104F6000480033F810007047481C81B2012000EB64
:104F70004100034B33F810000028E9D100BFF2E7ED
:104F80002A01002000B502460021012112E0FFF7AE
:104F9000D7FF4B0030F81300904209D1FFF7D0FF44
:104FA000012303EB410330F8130000F47F4000BD00
:104FB000481C81B2FFF7C4FF4B0030F813000028F3
:104FC000E5D1FF20F3E700B50246002100BF10E065
:104FD000FFF7B6FF4B0030F81300904207D1FFF700
:104FE000AFFF012303EB410310F8130000BD481C81
:104FF00081B2FFF7A5FF4B0030F813000028E7D17E
:10500000FF20F3E730B502460B46002100240121C2
:1050100014E0FFF795FF012505EB410510F8150099
:10502000904209D19C4205D1FFF78AFF4D0030F82C
:10503000150030BD601C84B2481C81B2FFF780FFB0
:10504000012505EB410530F815000028E1D100BF2E
:10505000EFE7000070B504460025FDF743FD064666
:10506000044800EB4410808A85B23046FDF73EFDCF
:10507000284670BD341B002070B504460026FDF79D
:1050800031FD0546074800EB4410406820B1054853
:1050900000EB44104069060C2846FDF727FD30461A
:1050A00070BD0000341B002013490988322904DA3E
:1050B0001249114A1288885C05E000210E4A1180CD
:1050C0000E491288885C00210D4A11600B4A0A4B78
:1050D0001B88D1540B49098821B10A490988491E06
:1050E000084A11800121064A116003490988491CB8
:1050F000014A118070470000D400002004200020E5
:1051000094012742DA000020F0B50B46FF24FF256A
:1051100009E010F8016B86EA0401074E765C86EA26
:105120000504064E755C1E00A3F10107BBB2F0D169
:1051300014705570F0BD0000D8BB0108D8BC010840
:1051400010B501464A1E034B985C00234A1E014CD1
:10515000A35410BD9400002000B5FFF7F1FE0088B5
:1051600000BD00B5FFF7ECFE90F8660100BD00B58C
:10517000FFF7E6FE00F5B47000BD000010B5044670
:10518000002300BF04E00548C05CE054581C83B213
:105190003A2BF8DBFFF79AFA184610BD36200020AC
:1051A000F8B506460C460025002000900027174859
:1051B00006602078FF2819D16078FF2816D1A079E1
:1051C000617940EA0120C01D85B26A462946204621
:1051D000FFF79AFF605D9DF80010884206D1681CB9
:1051E000205C9DF80110884200D1012767B1207929
:1051F000052803D1204607F0C0FE04E00521204623
:1052000007F01AFF00BF00BFF8BD0000A401002096
:1052100010B514200BF092FF0DF000F8C08B0128A0
:105220000ED1012108460EF0A5FB64200BF0B2FF61
:10523000002102200EF09EFB64200BF0ABFF21E06A
:105240000CF0ECFFC08B02280ED1002101200EF0E3
:1052500091FB64200BF09EFF012102200EF08AFBDF
:1052600064200BF097FF0DE0002101200EF082FB7F
:1052700064200BF08FFF002102200EF07BFB6420E6
:105280000BF088FF0CF0CAFF408C012807D10121E8
:1052900006200EF06FFB64200BF07CFF06E000217F
:1052A00006200EF067FB64200BF074FF10BD02F0C7
:1052B00077FA00004CF6CC400149086070470000C6
:1052C0000030004010B500F01DF810BD70B5044668
:1052D00007254FF6FF7000EA44142046E11704EB5F
:1052E00011610E1245F2555000F020F8284600F0EA
:1052F00011F8304600F014F800F004F8FFF7DAFF78
:1053000070BD00004AF6AA200149086070470000FD
:105310000030004001494860704700000030004004
:105320000149886070470000003000400149086072
:1053300070470000003000401CB5044609A103C9B5
:10534000CDE90001E07960B9207A052809D1607AB9
:105350000D2806D1A07AC02803D10621684600F0A6
:10536000EDF91CBD5AA503804F0200000146CA1783
:1053700001EB92729210A1EB820292B9642091FB30
:10538000F0F200FB121050B94FF4C87091FBF0F22C
:1053900000FB121008B9012070470020FCE7012033
:1053A000FAE70020F8E7000010B5FF248548FFF772
:1053B000BBFD00F00F04ACB98348007810BB03209C
:1053C0008249087082480078401C8149087008466C
:1053D0000078502816DB02207C49087001207A49A9
:1053E00008700FE07A480078012806DD78480078D8
:1053F000502802DA012075490870002074490870AD
:1054000071490870012C15D16F48407810BB0320FA
:105410006E4948706E484078401C6D494870084697
:105420004078502816DB0220684948700120664900
:1054300048700FE066484078012806DD64484078EF
:10544000502802DA01206149487000206049487004
:105450005D494870022C15D15B48807810BB032051
:105460005A4988705A488078401C594988700846C3
:105470008078502816DB0220544988700120524958
:1054800088700FE052488078012806DD5048807807
:10549000502802DA01204D49887000204C4988705C
:1054A00049498870032C15D14748C07810BB0320A8
:1054B0004649C8704648C078401C4549C8700846EF
:1054C000C078502816DB02204049C87001203E49B0
:1054D000C8700FE03E48C078012806DD3C48C0781F
:1054E000502802DA01203949C87000203849C870B4
:1054F0003549C870042C15D13348007910BB0320FE
:105500003249087132480079401C31490871084617
:105510000079502816DB02202C49087101202A4905
:1055200008710FE02A480079012806DD2848007933
:10553000502802DA01202549087100202449087109
:1055400021490871052C15D11F48407910BB032053
:105550001E4948711E484079401C1D494871084643
:105560004079502816DB022018494871012016495D
:1055700048710FE016484079012806DD144840794B
:10558000502802DA01201149487100201049487161
:105590000D4948710D48007870B90C48407858B9E9
:1055A0000A48807840B90948C07828B90748007986
:1055B00010B90648407918B10121002005F0EEFA33
:1055C00010BD000000100140A00000209400002049
:1055D0009A00002008B50121102002F01FFA0F20C8
:1055E000ADF8000048208DF8030003208DF802007C
:1055F00069460348FFF7C4FB024806F0C1FB08BD3B
:1056000000100140A953000810B586B004460121DE
:10561000042002F003FA0121082002F0FFF9012121
:10562000480402F0DBF94FF48050ADF8140010206C
:105630008DF8170003208DF8160005A92A48FFF7FA
:105640009FFB0420ADF8140018208DF8170005A961
:105650002648FFF795FB0820ADF8140004208DF8CC
:10566000170005A92148FFF78BFB0121480402F030
:10567000C5F900214FF4003002F0C0F90194002078
:10568000ADF80800ADF80A00ADF80C00ADF8100058
:105690000C20ADF80E0001A9154805F06FFE26207C
:1056A0008DF8000000208DF8010002208DF8020026
:1056B00001208DF80300684602F026F8012240F22E
:1056C00025510B4805F035FE012240F224410848DF
:1056D00005F02FFE0121064805F099FD002005493F
:1056E000086006B010BD0000000C01400008014039
:1056F00000440040B081214270B505460C460C487C
:105700000678002020800B48007801280FD1084837
:10571000007820803246084928460FF0BFFD324607
:10572000002105480FF0C7FD00200149087070BD39
:10573000A6000020A70000203E1F002070B50546EF
:105740000E4601200E49086000240CE000BF4021F5
:105750000C4805F0B7FD0028F9D0295D094805F08F
:105760007EFE601CC4B2B442F0DB00BF402105489D
:1057700005F0A8FD0028F9D000200149086070BD9F
:10578000B081214200440040704700B587B000203E
:1057900004900590069001900290039003208DF8EC
:1057A000100001208DF811003F208DF8120000201C
:1057B0008DF8130001208DF8140000208DF81500DD
:1057C00001208DF8040005208DF805003F208DF89C
:1057D000060001A9012013F075FC02208DF80400D9
:1057E00000208DF8050005208DF8060001A9042091
:1057F00013F068FC04A9022013F064FC07B000BD9C
:1058000000B587B0002004900590069001900290AA
:10581000039003208DF8100001208DF81100002066
:105820008DF812008DF8130001208DF8140000206F
:105830008DF8150001208DF8040005208DF8050075
:1058400000208DF8060001A9012013F03BFC022086
:105850008DF8040001208DF8050005208DF8060064
:1058600001A9042013F02EFC04A9022013F02AFC45
:1058700007B000BD00B50CF0D1FC408C00BD00B5F8
:105880000146052904DA0CF0C9FC30F8110000BD0E
:105890000020FCE700B501460CF0C0FC418400BDCF
:1058A00000B50246052A03DA0CF0B8FC20F8121005
:1058B000002000BD08B50121082002F0AFF8032048
:1058C000ADF8000018208DF8030003208DF80200C9
:1058D00069460E48FFF754FA00200D4908600D494B
:1058E000C1F8A0010121042002F098F80220ADF8CF
:1058F000000010208DF8030003208DF80200694697
:105900000548FFF73DFA0DF0EDFF08BD000C014022
:105910009C012242000022420008014070B5002490
:10592000FFF70EFB0546C82229461D4803F064FC1C
:10593000FFF706FB00884FF6FF7188420CD100BFCD
:1059400006E0FFF7FDFA002120F81410601C84B275
:10595000C82CF6DB04F04CF9002417E004F0010039
:1059600090B1FFF7EDFA00EB440108780880FFF7EB
:10597000E7FA10F8140038B1FFF7E2FA00EB44013F
:10598000088840F400600880601C84B2642CE5DB69
:10599000FFF7D6FA811C408840F48070088070BD03
:1059A00028FC03087CB500240020009001900CF036
:1059B00035FC808BADF800000CF030FCC08BADF8EE
:1059C00002000CF02BFC008CADF804000CF026FC5F
:1059D000408CADF806000CF021FC05461422294647
:1059E000124803F009FC00BF0EE00CF017FC30F881
:1059F00014004FF6FF71884204D10CF00FFC002117
:105A000020F81410601C84B2142CEEDB0CF006FCA1
:105A1000BDF8001081830CF001FCBDF80210C183B9
:105A20000CF0FCFBBDF8041001847CBD00FC0308F5
:105A30001CB500200090019006220F490F480FF07E
:105A40002DFC0D49891D062268460FF027FC002019
:105A500008E00A49095C1DF800201144074A115466
:105A6000411CC8B20628F4DB0448007800F0FE00B0
:105A7000024908701CBD0000E8F7FF1F0601002066
:105A800070B54FF4C8600FF0F3FB05462C4614A226
:105A900014A1204613F046FD083411A212A120469D
:105AA00013F040FD08340EA210A1204613F03AFD79
:105AB00008340BA20EA1204613F034FD08340DA2C9
:105AC0000DA1204613F02EFD083420460CF0ECFC0E
:105AD0002846FEF7B3FC28460FF0B6FB70BD000069
:105AE000312F320035000000340000003300000088
:105AF00032000000312F31003100000070B54FF44A
:105B0000C8600FF0B5FB05462C46FEA2FEA120465C
:105B100013F008FD0834FDA2FDA1204613F002FD9C
:105B20000834FCA2FCA1204613F0FCFC0834FBA2C4
:105B3000FBA1204613F0F6FC0834F6A2F9A120469A
:105B400013F0F0FC0834F1A2F3A1204613F0EAFCB4
:105B50000834F0A2EEA1204613F0E4FC0834EDA2D4
:105B6000EDA1204613F0DEFC0834EAA2E8A12046AD
:105B700013F0D8FC0834E3A2E9A1204613F0D2FCCC
:105B80000834E9A2E9A1204613F0CCFC0834DDA2D8
:105B9000DDA1204613F0C6FC0834DCA2DCA12046BF
:105BA00013F0C0FC0834DBA2DBA1204613F0BAFCE2
:105BB0000834DAA2DAA1204613F0B4FC0834D5A2E6
:105BC000D8A1204613F0AEFC0834D2A2D2A12046C0
:105BD00013F0A8FC0834CBA2CDA1204613F0A2FC00
:105BE0000834CEA2C8A1204613F09CFC0834C5A2FC
:105BF000C7A1204613F096FC0834C8A2C8A12046CD
:105C000013F090FC0834BFA2BFA1204613F08AFC19
:105C10000834BCA2C2A1204613F084FC0834BDA203
:105C2000BBA1204613F07EFC0834BAA2BAA12046DC
:105C300013F078FC0834B9A2B5A1204613F072FC29
:105C40000834B0A2B7A1204613F06CFC0834ADA212
:105C5000B1A1204613F066FC0834ACA2ACA12046EA
:105C600013F060FC0834A7A2ADA1204613F05AFC43
:105C70000834ADA2ADA1204613F054FC0834A1A213
:105C8000A1A1204613F04EFC08349EA2A4A12046F8
:105C900013F048FC08349BA29BA1204613F042FC61
:105CA000083498A2A2A1204613F03CFC083495A227
:105CB0009BA1204613F036FC083492A29CA12046FA
:105CC00013F030FC08348FA29AA1204613F02AFC6E
:105CD000083492A298A1204613F024FC083497A21D
:105CE00093A1204613F01EFC08348AA28CA1204602
:105CF00013F018FC083489A283A1204613F012FC8B
:105D0000083480A286A1204613F00CFC08347FA240
:105D100087A1204613F006FC08347EA281A120460C
:105D200013F000FC083486A27DA1204613F0FAFB94
:105D3000083478A280A1204613F0F4FB083475A241
:105D40007CA1204613F0EEFB083472A278A1204615
:105D500013F0E8FB08346FA26BA1204613F0E2FBBE
:105D600008346CA277A1204613F0DCFB083465A24E
:105D700065A1204613F0D6FB083466A268A1204630
:105D800013F0D0FB083465A265A1204613F0CAFBCE
:105D9000083460A262A1204613F0C4FB08345FA25D
:105DA00059A1204613F0BEFB08345AA25CA120463C
:105DB00013F0B8FB083453A25DA1204613F0B2FBE8
:105DC000083450A250A1204613F0ACFB083451A275
:105DD00054A1204613F0A6FB08344EA250A1204641
:105DE00013F0A0FB083447A249A1204613F09AFB08
:105DF000083444A248A1204613F094FB083441A281
:105E000043A1204613F08EFB08344FA244A1204644
:105E100013F088FB08343FA241A1204613F082FB17
:105E200008343EA238A1204613F07CFB083435A28A
:105E30003BA1204613F076FB083434A23CA1204657
:105E400013F070FB083433A236A1204613F06AFB2E
:105E5000083430A232A1204613F064FB08342DA28E
:105E600035A1204613F05EFB08342AA231A120465A
:105E700013F058FB083427A22DA1204613F052FB43
:105E8000083424A220A1204613F04CFB083421A2A0
:105E90002CA1204613F046FB08341AA21AA1204672
:105EA00013F040FB083420A21DA1204613F03AFB5A
:105EB000083418A21AA1204613F034FB083417A2A4
:105EC00011A1204613F02EFB083412A214A1204683
:105ED00013F028FB08340BA21CA1204613F022FB70
:105EE00008340AA214A1204613F01CFB083409A2AE
:105EF00016A1204613F016FB083408A20DA1204677
:105F000026E00000312F310036000000332F320030
:105F100032000000312F320031000000322F3100FA
:105F20003300000030000000352F3200365F0000E3
:105F300037000000317E0000327E0000362F310035
:105F4000312F330035000000332F3100337E000045
:105F500013F0E8FA0834AFF25402AFF22C012046F5
:105F600013F0E0FA0834AFF22C02AFF264012046DD
:105F700013F0D8FA083420460CF096FA2846FEF7BB
:105F80005DFA28460FF060F970BD000070B54FF45F
:105F9000C8600FF06DF905462C46FEA2FEA1204612
:105FA00013F0C0FA0834FDA2FDA1204613F0BAFA9E
:105FB0000834F8A2F8A1204613F0B4FA0834F9A284
:105FC000F9A1204613F0AEFA0834F4A2F7A1204656
:105FD00013F0A8FA0834F6A2F1A1204613F0A2FAB1
:105FE0000834ECA2F3A1204613F09CFA0834EBA28B
:105FF000E9A1204613F096FA0834E6A2EDA1204666
:1060000013F090FA0834E7A2E8A1204613F08AFAC8
:106010000834E0A2E4A1204613F084FA0834DDA29B
:10602000DFA1204613F07EFA0834E1A2DAA120466F
:1060300013F078FA0834E0A2DBA1204613F072FADC
:106040000834D8A2DDA1204613F06CFA0834DAA295
:10605000D5A1204613F066FA0834D0A2D7A1204675
:1060600013F060FA0834CBA2D5A1204613F05AFAF7
:106070000834C8A2D3A1204613F054FA0834CEA2A3
:10608000C9A1204613F04EFA0834C6A2C4A1204686
:1060900013F048FA0834BFA2C4A1204613F042FA14
:1060A0000834BEA2C0A1204613F03CFA0834B9A2BD
:1060B000C4A1204613F036FA0834B6A2BAA120468D
:1060C00013F030FA0834C0A2B8A1204613F02AFA1F
:1060D0000834B2A2B0A1204613F024FA0834AFA2CB
:1060E000B1A1204613F01EFA0834AAA2AFA120469F
:1060F00013F018FA0834A7A2ABA1204613F012FA45
:106100000834A6A2A4A1204613F00CFA0834AFA2CA
:10611000A3A1204613F006FA0834A0A2A2A12046AB
:1061200013F000FA08349BA2A0A1204613F0FAF95C
:10613000083498A29FA1204613F0F4F9083495A2E0
:10614000A3A1204613F0EEF9083492A296A12046AE
:1061500013F0E8F908348FA294A1204613F0E2F975
:1061600008348CA28CA1204613F0DCF9083489A2F3
:106170008BA1204613F0D6F9083486A28BA12046C5
:1061800013F0D0F9083490A287A1204613F0CAF981
:10619000083489A284A1204613F0C4F9083481A2EE
:1061A00086A1204613F0BEF908347AA27EA12046CB
:1061B00013F0B8F9083479A280A1204613F0B2F99F
:1061C000083474A27EA1204613F0ACF9083471A201
:1061D0007CA1204613F0A6F9083477A272A12046CC
:1061E00013F0A0F908346BA275A1204613F09AF9B8
:1061F000083468A26DA1204613F094F9083465A212
:1062000073A1204613F08EF9083462A26DA12046D6
:1062100013F088F908345FA263A1204613F082F9D5
:1062200008345CA261A1204613F07CF908345BA21B
:106230005BA1204613F076F9083464A25BA12046E6
:1062400013F070F9083455A257A1204613F06AF9EB
:10625000083450A255A1204613F064F908344DA229
:1062600054A1204613F05EF908344AA258A12046F2
:1062700013F058F9083447A24BA1204613F052F905
:10628000083444A24BA1204613F04CF9083441A233
:1062900041A1204613F046F9083440A24DA1204602
:1062A00013F040F9083449A23BA1204613F03AF913
:1062B00008343AA23CA1204613F034F9083443A232
:1062C0003FA1204613F02EF9083432A236A1204611
:1062D00013F028F908342FA239A1204613F022F92F
:1062E000083430A235A1204613F01CF9083429A245
:1062F00039A1204613F016F9083426A237A120460A
:1063000013F010F9083423A22CA1204613F00AF947
:10631000083422A22AA1204613F004F908342AA244
:1063200026A1204613F0FEF8083423A22AA1204615
:1063300013F0F8F808341BA228A1204613F0F2F855
:10634000083418A21DA1204613F0ECF8083424A24A
:106350001BA1204613F0E6F808340EA217A1204630
:1063600013F0E0F8083418A20FA1204613F0DAF871
:10637000083411A218A1204613F0D4F8083409A259
:1063800016A1204613F0CEF8083406A20BA1204631
:1063900028E00000312F3200365F0000312F31003D
:1063A00031000000332F32003300000032000000C3
:1063B000372F3200375F0000322F310036000000E7
:1063C0003500000034000000342F3100332F31003D
:1063D00030000000355F0000317E00003700000013
:1063E000352F320013F09EF80834AFF20C02AFF2F2
:1063F0003001204613F096F80834AFF26802AFF28D
:106400004401204613F08EF80834AFF24402AFF294
:106410006801204613F086F80834AFF28002AFF22C
:106420008801204613F07EF80834AFF29002AFF2F4
:106430009001204613F076F80834AFF2A002AFF2D4
:106440009401204613F06EF80834AFF2A802AFF2C0
:10645000A801204613F066F80834AFF2C802AFF284
:10646000C001204613F05EF80834AFF2D002AFF25C
:10647000C801204613F056F80834AFF2B002AFF26C
:10648000D401204613F04EF80834AFF2F802AFF210
:10649000E401204613F046F80834AFF20812AFF2D8
:1064A000EC01204613F03EF80834AFF21812AFF2B8
:1064B000E001204613F036F80834AFF22812AFF2AC
:1064C0001811204613F02EF80834AFF23812AFF24C
:1064D0001C11204613F026F80834AFF24812AFF230
:1064E0004811204613F01EF80834AFF25012AFF2F4
:1064F0001C11204613F016F80834AFF23412AFF234
:106500006811204613F00EF80834AFF27812AFF29B
:106510007811204613F006F80834AFF28012AFF27B
:106520008011204612F0FEFF0834AFF29812AFF24D
:106530008411204612F0F6FF0834AFF29812AFF241
:106540009811204612F0EEFF0834AFF2B812AFF205
:10655000B011204612F0E6FF0834AFF2C012AFF2DD
:10656000B811204612F0DEFF0834AFF2A012AFF2ED
:10657000C411204612F0D6FF0834AFF2E012AFF299
:10658000D811204612F0CEFF0834AFF2D412AFF289
:10659000D011204612F0C6FF0834AFF20022AFF24D
:1065A000F811204612F0BEFF0834AFF20822AFF215
:1065B000D411204612F0B6FF0834AFF22822AFF211
:1065C0002021204612F0AEFF0834AFF23822AFF29D
:1065D000F411204612F0A6FF0834AFF24822AFF2C1
:1065E0002421204612F09EFF0834AFF25022AFF271
:1065F0003021204612F096FF083408A2AFF2442161
:10660000204612F08FFF083420460BF04DFF28463D
:10661000FDF714FF28460EF017FE70BD372F31002E
:1066200070B54FF4C8600EF023FE05462C46FEA25E
:10663000FEA1204612F076FF0834FDA2FDA12046FF
:1066400012F070FF0834FCA2FCA1204612F06AFF91
:106650000834FBA2FBA1204612F064FF0834F4A228
:10666000F2A1204612F05EFF0834F1A2F3A1204609
:1066700012F058FF0834ECA2EEA1204612F052FFAF
:106680000834EBA2F0A1204612F04CFF0834EFA230
:10669000E8A1204612F046FF0834EDA2E3A120460F
:1066A00012F040FF0834E6A2E6A1204612F03AFFBD
:1066B0000834DDA2DDA1204612F034FF0834DCA24C
:1066C000DCA1204612F02EFF0834DBA2DBA120461D
:1066D00012F028FF0834DAA2DAA1204612F022FFD5
:1066E0000834D3A2D1A1204612F01CFF0834D0A256
:1066F000D2A1204612F016FF0834CBA2D5A1204625
:1067000012F010FF0834CAA2CCA1204612F00AFFF2
:106710000834CEA2CFA1204612F004FF0834C2A252
:10672000CDA1204612F0FEFE0834C5A2C5A1204628
:1067300012F0F8FE0834C2A2BCA1204612F0F2FE0C
:106740000834C6A2C6A1204612F0ECFE0834BCA252
:10675000BAA1204612F0E6FE0834B5A2BDA120463B
:1067600012F0E0FE0834B2A2B4A1204612F0DAFE24
:106770000834B3A2B7A1204612F0D4FE0834B0A268
:10678000B0A1204612F0CEFE0834ADA2AEA1204644
:1067900012F0C8FE0834A4A2AFA1204612F0C2FE37
:1067A0000834AAA2ABA1204612F0BCFE0834A2A273
:1067B000A2A1204612F0B6FE08349DA2A1A1204657
:1067C00012F0B0FE08349EA2A2A1204612F0AAFE4A
:1067D000083497A299A1204612F0A4FE083494A28E
:1067E00092A1204612F09EFE08348FA299A1204665
:1067F00012F098FE08348EA28CA1204612F092FE70
:1068000008348BA28DA1204612F08CFE083488A299
:1068100086A1204612F086FE083483A287A1204676
:1068200012F080FE083482A28AA1204612F07AFE7D
:10683000083483A28AA1204612F074FE083489A28B
:1068400085A1204612F06EFE08347BA282A120466C
:1068500012F068FE08347AA27AA1204612F062FE95
:10686000083477A280A1204612F05CFE08346EA2A4
:106870007EA1204612F056FE083471A27CA120466B
:1068800012F050FE08346AA27AA1204612F04AFEA5
:10689000083467A274A1204612F044FE083464A2B2
:1068A00074A1204612F03EFE083465A26EA1204677
:1068B00012F038FE08345EA26EA1204612F032FEBD
:1068C00008345BA25FA1204612F02CFE08345CA2C3
:1068D00065A1204612F026FE083455A265A1204687
:1068E00012F020FE083450A263A1204612F01AFED6
:1068F000083453A25CA1204612F014FE08344CA2C6
:106900005EA1204612F00EFE08344BA256A120468E
:1069100012F008FE08344AA24AA1204612F002FEF4
:10692000083447A250A1204612F0FCFD08343EA2D4
:106930004EA1204612F0F6FD083441A24CA120469B
:1069400012F0F0FD08343AA24AA1204612F0EAFD06
:10695000083437A244A1204612F0E4FD083434A2E2
:1069600044A1204612F0DEFD083435A23EA12046A7
:1069700012F0D8FD08342EA23EA1204612F0D2FD1E
:1069800008342BA22FA1204612F0CCFD08342CA2F3
:1069900035A1204612F0C6FD083425A235A12046B7
:1069A00012F0C0FD083420A233A1204612F0BAFD37
:1069B00008341FA231A1204612F0B4FD083420A2F1
:1069C0002DA1204612F0AEFD08341BA226A12046C0
:1069D00012F0A8FD08341AA21AA1204612F0A2FD56
:1069E000083417A220A1204612F09CFD08340EA204
:1069F0001EA1204612F096FD083411A21CA12046CB
:106A000012F090FD08340AA21AA1204612F08AFD65
:106A1000083407A214A1204612F084FD083404A211
:106A200014A120462CE00000322F3200365F000017
:106A3000312F3400375F0000352F34003100000063
:106A4000312F320030000000355F0000332F34005A
:106A5000342F32003200000033000000332F3200A8
:106A600034000000382F340036000000337E000070
:106A7000327E0000317E000037000000350000004B
:106A800012F050FD0834AFF24802AFF22401204664
:106A900012F048FD0834AFF26802AFF22801204638
:106AA00012F040FD0834AFF27802AFF268012046E0
:106AB00012F038FD0834AFF27802AFF254012046EC
:106AC00012F030FD0834AFF29802AFF258012046C0
:106AD00012F028FD0834AFF2B002AFF26401204694
:106AE00012F020FD0834AFF2A802AFF28401204674
:106AF00012F018FD0834AFF2C802AFF28001204650
:106B000012F010FD0834AFF2D002AFF2B40120460B
:106B100012F008FD0834AFF2D802AFF2D8012046D7
:106B200012F000FD0834AFF2E802AFF2C4012046D3
:106B300012F0F8FC0834AFF2EC02AFF2D0012046BC
:106B400012F0F0FC0834AFF208122FA1204612F028
:106B5000E9FC0834AFF21812AFF2F001204612F04F
:106B6000E1FC0834AFF22812AFF2FC01204612F02B
:106B7000D9FC0834AFF23812AFF20811204612F0F7
:106B8000D1FC0834AFF25812AFF21C11204612F0BB
:106B9000C9FC0834AFF24C12AFF23411204612F0A7
:106BA000C1FC0834AFF28012AFF23C11204612F063
:106BB000B9FC0834AFF27812AFF24811204612F057
:106BC000B1FC0834AFF27C12AFF25411204612F03F
:106BD000A9FC0834AFF29812AFF26811204612F007
:106BE000A1FC0834AFF28C12AFF28411204612F0EF
:106BF00099FC083420460BF057FC2846FDF71EFC94
:106C000028460EF021FB70BD357E000070B54FF4B4
:106C100016600EF02DFB05462C46FEA2FEA1204676
:106C200012F080FC0834FDA2FDA1204612F07AFC8F
:106C30000834FCA2FCA1204612F074FC0834F7A230
:106C4000FAA1204612F06EFC0834F4A2F6A1204608
:106C500012F068FC0834F3A2EFA1204612F062FCA7
:106C60000834EEA2F2A1204612F05CFC0834EBA23C
:106C7000E9A1204612F056FC0834EAA2EDA1204614
:106C800012F050FC0834E5A2EBA1204612F04AFCB9
:106C90000834E2A2E6A1204612F044FC0834DDA24A
:106CA000DDA1204612F03EFC0834DCA2DEA1204625
:106CB00012F038FC0834D9A2DCA1204612F032FCD4
:106CC0000834D8A2DDA1204612F02CFC0834DCA246
:106CD000D3A1204612F026FC0834D9A2D9A120461F
:106CE00012F020FC0834D8A2D4A1204612F01AFCDD
:106CF0000834D5A2D0A1204612F014FC0834C5A255
:106D0000C5A1204612F00EFC0834C4A2C4A120463E
:106D100012F008FC0834C3A2C3A1204612F002FC02
:106D20000834BEA2C1A1204612F0FCFB0834BBA26D
:106D3000BDA1204612F0F6FB0834BAA2B6A1204647
:106D400012F0F0FB0834B5A2B9A1204612F0EAFB1C
:106D50000834B2A2B0A1204612F0E4FB0834B1A27C
:106D6000B4A1204612F0DEFB0834ACA2B2A120464A
:106D700012F0D8FB0834A9A2B4A1204612F0D2FB2D
:106D80000834A6A2ABA1204612F0CCFB0834A3A283
:106D9000A7A1204612F0C6FB0834A0A29EA120465F
:106DA00012F0C0FB08349DA2A0A1204612F0BAFB4D
:106DB00008349CA298A1204612F0B4FB083499A292
:106DC0009BA1204612F0AEFB08349FA292A1204660
:106DD00012F0A8FB083493A297A1204612F0A2FB60
:106DE00008348EA291A1204612F09CFB08348BA29D
:106DF00092A1204612F096FB083488A288A1204672
:106E000012F090FB083485A28CA1204612F08AFB78
:106E1000083482A282A1204612F084FB08347DA2AD
:106E200088A1204612F07EFB08347CA27CA120467B
:106E300012F078FB083479A280A1204612F072FB90
:106E4000083478A279A1204612F06CFB083473A2B2
:106E500071A1204612F066FB083470A274A120468E
:106E600012F060FB08346FA272A1204612F05AFBA8
:106E700008346AA26DA1204612F054FB083467A2C0
:106E80006EA1204612F04EFB083464A264A1204695
:106E900012F048FB083461A268A1204612F042FBC0
:106EA00008345EA25EA1204612F03CFB08345BA2CF
:106EB00064A1204612F036FB083458A258A120469F
:106EC00012F030FB083455A25CA1204612F02AFBD8
:106ED00008345BA255A1204612F024FB08345CA2C2
:106EE0004DA1204612F01EFB083457A24CA12046AB
:106EF00012F018FB083449A24CA1204612F012FBF4
:106F0000083446A24DA1204612F00CFB083443A2DF
:106F100043A1204612F006FB083440A247A12046B8
:106F200012F000FB08343DA23DA1204612F0FAFA0F
:106F3000083438A243A1204612F0F4FA083437A2EC
:106F400037A1204612F0EEFA083434A23BA12046C5
:106F500012F0E8FA083431A234A1204612F0E2FA25
:106F6000083437A235A1204612F0DCFA083434A2E6
:106F70002EA1204612F0D6FA083428A226A12046D7
:106F800012F0D0FA083425A229A1204612F0CAFA3C
:106F9000083424A227A1204612F0C4FA08341FA204
:106FA00025A1204612F0BEFA08341CA220A12046DA
:106FB00012F0B8FA083419A217A1204612F0B2FA5A
:106FC000083416A21AA1204612F0ACFA083413A213
:106FD00011A1204612F0A6FA083410A210A12046F2
:106FE00012F0A0FA08340DA20BA1204612F09AFA72
:106FF00008340AA20EA1204612F094FA083407A21F
:1070000005A1204612F08EFA083404A208A12046F9
:1070100020E00000332F320036000000312F320014
:10702000337E0000322F320037000000317E000036
:10703000350000003300000030000000327E000008
:10704000312F3400357E0000342F32003200000032
:10705000332F340012F066FA0834AFF21402AFF2A4
:107060004801204612F05EFA0834AFF24802AFF24F
:107070003801204612F056FA0834AFF26002AFF23F
:107080006001204612F04EFA0834AFF27002AFF2FF
:107090004C01204612F046FA0834AFF28002A6A155
:1070A000204612F03FFA0834AFF29002AFF26C01C2
:1070B000204612F037FA0834AFF2A002AFF2A00176
:1070C000204612F02FFA0834AFF2A802AFF2940172
:1070D000204612F027FA0834AFF2C002AFF2B40132
:1070E000204612F01FFA0834AFF2D002AFF2D801F6
:1070F000204612F017FA0834AFF2D802AFF2C401FA
:10710000204612F00FFA0834AFF2F002AFF2CC01D1
:10711000204612F007FA0834AFF20812AFF200115D
:10712000204612F0FFF90834AFF21012AFF2F80166
:10713000204612F0F7F90834AFF2FC02AFF220114A
:10714000204612F0EFF90834AFF20C12AFF20C1136
:10715000204612F0E7F90834AFF2381276A1204643
:1071600012F0E0F90834AFF24C12AFF228112046C9
:1071700012F0D8F90834AFF25C12AFF25C1120467D
:1071800012F0D0F90834AFF26412AFF25011204679
:1071900012F0C8F90834AFF27C12AFF27C1120462D
:1071A00012F0C0F90834AFF28C12AFF26811204629
:1071B00012F0B8F90834AFF27012AFF29C11204609
:1071C00012F0B0F90834AFF2A412AFF294112046D5
:1071D00012F0A8F90834AFF2BC12AFF2BC1120468D
:1071E00012F0A0F90834AFF2CC12AFF2A811204689
:1071F00012F098F90834AFF2D4124FA1204612F0E1
:1072000091F90834AFF2EC12AFF2C811204612F037
:1072100089F90834AFF2FC12AFF2FC11204612F0EB
:1072200081F90834AFF20422AFF2F011204612F0D7
:1072300079F90834AFF21422AFF21021204612F08F
:1072400071F90834AFF22422AFF22421204612F063
:1072500069F90834AFF23422AFF22C21204612F043
:1072600061F90834AFF24422AFF24021204612F017
:1072700059F90834AFF25C22AFF26421204612F0D3
:1072800051F90834AFF26C22AFF25C21204612F0C3
:1072900049F90834AFF27422AFF28421204612F08B
:1072A00041F90834AFF28C22AFF27421204612F07B
:1072B00039F90834AFF29C22AFF29021204612F047
:1072C00031F90834AFF2AC22AFF2A421204612F01B
:1072D00029F90834AFF29822AFF2B021204612F01B
:1072E00021F90834AFF2A822AFF2C421204612F0EF
:1072F00019F90834AFF2DC22AFF2E421204612F093
:1073000011F90834AFF2EC22AFF2DC21204612F082
:1073100009F9083409A2AFF20031204612F002F94F
:10732000083420460BF0C0F82846FDF787F82846B9
:107330000DF08AFF70BD0000367E0000362F32004F
:1073400070B54FF4C8600DF093FF05462C4614A2AB
:1073500014A1204612F0E6F8083411A212A120462A
:1073600012F0E0F808340EA210A1204612F0DAF86C
:1073700008340BA20EA1204612F0D4F808340DA256
:107380000DA1204612F0CEF8083420460BF08CF800
:107390002846FDF753F828460DF056FF70BD000053
:1073A000312F3200310000003200000033000000B5
:1073B00034000000312F3100350000002DE9FF4777
:1073C00004460D4616469946002003900296002773
:1073D0008046009002A80FF00BFF8DF80C00039878
:1073E000C0F30310022800D01FE001A9029800F0AA
:1073F0004DF88046029908440290DDE901104718D3
:107400000298381A022800DA0FE002A80FF0F0FE06
:107410008DF80000009800F00100207002A80FF025
:10742000E7FE28704FF0010800BF404604B0BDE8F9
:10743000F0872DE9F84305460C4601260027002079
:10744000206000BF4FF0FF38781C0746042801DD9C
:1074500000BF17E001216846A8478046B8F1010F38
:1074600000D00FE09DF8001001F07F01206801FBC3
:1074700006002060F6019DF8000000F08000002862
:10748000E0D100BF3846BDE8F883000070B504467F
:107490000D460348046029460248FFF7CAFF70BD45
:1074A0004C02002059C2000830B50246002300BF3C
:1074B0000846CD1701EB5565ED11A1EBC515ECB2F2
:1074C000CD1701EB5565E911002901DD44F0800479
:1074D00018465B1C14540029EADC184630BD000035
:1074E000401C802801DA401C0AE0B0F5804F01DA28
:1074F000801C05E00349884201DAC01C00E0001D41
:1075000070470000FFFF1F002DE9FE4305460E46B1
:107510001446029500200190009000274FF0FF389C
:10752000204600F0A5F807468146FFF7D9FFB04294
:1075300002DD6FF001088FE000208DF80400019853
:1075400020F0F000103001909DF8041002A812F015
:10755000F5FC39460298FFF7A7FF0299084402900C
:10756000207A042808D13EA102A812F0D3FC0421FD
:1075700002A812F0E3FC07E03BA102A812F0CAFC4B
:10758000032102A812F0DAFC00208DF80000A17E91
:10759000009861F341000090E07E08B1012100E015
:1075A0000021009861F3820000900098C0F38000F1
:1075B00058B194F83D10009861F3C400009094F81D
:1075C0003C10009861F345100090206C08B9A06C45
:1075D00020B1009820F0800080300090E06C08B965
:1075E000606D20B1009820F04000403000909DF880
:1075F000001002A812F0A2FC218B02A812F0A4FC39
:1076000002A8D4E90423E16812F0B6FCE07E58B188
:1076100002A8D4E90A23616A12F0AEFC02A8D4E9F8
:107620000D23216B12F0A8FC0098C0F3C01028B104
:1076300002A8D4E91123216C12F09EFC0098C0F33B
:10764000801028B102A8D4E91423E16C12F094FC54
:107650000298A0EB050800BF4046BDE8FE8300008D
:107660004D515454000000004D51497364700000A6
:1076700070B504460025207A032801D10C2503E0CB
:10768000207A042800D10A25D4E90412E06800F029
:107690002AF8801C0544E07E68B1D4E90A12606AC9
:1076A00000F021F8861CD4E90D12206B00F01BF8C5
:1076B0003044801C0544206C08B9A06C30B1D4E97A
:1076C0001112206C00F00FF8801C0544E06C08B922
:1076D000606D30B1D4E91412E06C00F004F8801C45
:1076E0000544284670BD37B50024009820B10098A5
:1076F000FBF722FC044600E0019C20463EBD00F062
:107700004FF800F04DF8000070B5002100230F2263
:10771000C47804B3154C246804F4E064C4F5E06450
:10772000210AC1F10403CA40447804FA03F18478C1
:107730001440214309010E4C0678A155047804F049
:107740001F050124AC4005786D11AD0005F1E02561
:10775000C5F8004109E0047804F01F050124AC409D
:10776000044D0678761145F8264070BD0CED00E01A
:1077700000E400E080E100E002490143024A1160B8
:10778000704700000000FA050CED00E0024A0A40D4
:107790000243024B1A60704780FFFF1F08ED00E0B4
:1077A0000648006800F4E06005490843001D0349ED
:1077B0000860BFF3408F00BFFEE700000CED00E063
:1077C0000000FA0510B50D480068B0B90C48006813
:1077D000FBF7D2F90B490860084600680A490860BF
:1077E0000A480849096800EB411009490860084641
:1077F000006808490860FBF77CF910BD44000020D0
:10780000680000204C00002048000020341B0020AD
:10781000540000205000002070B5044610464FF080
:1078200080750560051F28462C606FF00106051F56
:1078300028462E604FF01236051F28462E604FF066
:107840000336051F28462E604FF00236051F2846D6
:107850002E607610051F28462E60051F28462960D9
:107860004FF01136051F28462E604FF01036051FC9
:1078700028462E604FF00936051F28462E604FF02F
:107880000836051F28462E604FF00736051F28468C
:107890002E604FF00636051F28462E604FF0053645
:1078A000051F28462E604FF00436051F28462E601F
:1078B00070BD000010B5FBF715F9044607480068D5
:1078C00040B107480078401C054908700548007819
:1078D000054908702046FBF709F910BD4400002057
:1078E000640000204C0000206C00002010B5FBF765
:1078F000F9F804460D48006868B10D48007820B1D9
:107900000B480078401E0A4908700948007810B9F1
:107910002020084908702046FBF7E8F800F00CF832
:1079200000B110BD03F032FB00BFFAE744000020B5
:10793000640000206C00002070B50024FBF7D2F832
:107940000546034804782846FBF7D0F8204670BD6A
:107950006400002070B50024FBF7C4F80546034816
:1079600004682846FBF7C2F8204670BD4C00002092
:1079700010B50346074800EB42100160054800EBD4
:10798000421043604FF00040024C04EB4214E060B0
:10799000002010BD341B002070B504460026FBF704
:1079A000A1F80546202C03D2044800EB44100668D9
:1079B0002846FBF79BF8304670BD0000341B0020C2
:1079C000014908627047000000000E42024800882A
:1079D000401C0149088070478401002029B1064AF3
:1079E000D2690243044BDA6104E0034AD26982435C
:1079F000014BDA61704700000010024029B1064ACD
:107A000012690243044B1A6104E0034A126982437B
:107A1000014B1A61704700000010024029B1064A6C
:107A200092690243044B9A6104E0034A92698243DB
:107A3000014B9A61704700000010024029B1064ACC
:107A4000D2680243044BDA6004E0034AD2688243FE
:107A5000014BDA60704700000010024001490860E5
:107A6000704700004004424230B50021002200244B
:107A700000232D4D6D6805F00C0121B1042905D0BE
:107A8000082923D105E0294D056022E0274D056036
:107A90001FE0254D6D6805F47012234D6D6805F4E7
:107AA0008034022505EB92421CB9214D55430560F7
:107AB0000BE01D4D6D6805F400351DB11C4D55439F
:107AC000056002E0194D5543056002E0174D056061
:107AD00000BF00BF144D6D6805F0F0010909154D98
:107AE0006B5C0568DD4045600F4D6D6805F4E06135
:107AF000090A104D6B5C4568DD4085600A4D6D6874
:107B000005F46051C90A0B4D6B5C4568DD40C560EA
:107B1000054D6D6805F44041890B074D6B5CC568E8
:107B2000B5FBF3F5056130BD0010024000127A008C
:107B300000093D00180000202800002010B5014673
:107B40000022002300204A11012A02D1094C236897
:107B500006E0022A02D1074C236A01E0054C636A61
:107B600001F01F02012494401C400CB1012000E0F0
:107B7000002010BD0010024000210B4A11700A4A7B
:107B8000203A82F82010012802D0042808D103E00E
:107B90000121054A117004E00521034A117000E03B
:107BA00000BF00BF7047000020100240014908607C
:107BB000704700003C0442420249096A0143014AFD
:107BC000116270470010024070B504460D4603F084
:107BD00047FA0646FFF7BEFE864201D0002070BD80
:107BE0000DB90020FBE70BE000BF8021084803F03F
:107BF00069FB0028F9D020780549091D0880641C1C
:107C00002800A5F10101CDB2EED100BFE7E70000E9
:107C10000038014070B505460E4600240D48008826
:107C200038B100BF03E000202855601C84B2B44284
:107C3000F9DB002407E0FDF737FA2855601C84B211
:107C4000B44200DB03E0034800880028F3D100BF02
:107C5000204670BDDA0000202DE9F04105460E46B1
:107C6000002400BF03E000202855601C84B2B44209
:107C7000F9DB002442F2107809E0A8F101001FFAB4
:107C800080F8B8F1000F02D10020BDE8F081214852
:107C900000780028F1D020480068002838D000245F
:107CA00000270CE001F0BCFFFF2804D101F0CCFF5D
:107CB000FF2800D105E0FDF7F7F9781C87B2322FD5
:107CC000F0DB00BF002410E0FDF7EEF92855601C42
:107CD00084B2B44200D10CE001F0A2FFFF2804D12D
:107CE00001F0B2FFFF2800D103E00C480088002813
:107CF000EAD100BF0948008850B90020084908802F
:107D0000084908600849088001200849C1F8940121
:107D10002046BAE7DC00002020012142DA000020E2
:107D2000D400002094012742D60000200000274202
:107D300010B586B0044601210420FFF76FFE012133
:107D40008803FFF76BFE464803F06EFA4FF480702D
:107D5000ADF8140004208DF8170003208DF81600EC
:107D600005A94048FDF70CF84FF480713D48FDF738
:107D7000E1F84FF40060ADF8140010208DF8170002
:107D800003208DF8160005A93648FCF7F9FF4FF4DB
:107D900000613448FDF7CCF84FF48050ADF8140082
:107DA00010208DF8170003208DF8160005A92D4826
:107DB000FCF7E6FF4FF480512A48FDF7B9F84FF47D
:107DC0000070ADF8140002208DF8160018208DF810
:107DD000170005A92348FCF7D3FF4FF48060ADF8E6
:107DE000140004208DF8170005A91E48FCF7C8FFF1
:107DF00025208DF8000000208DF8010001208DF86D
:107E000002008DF803006846FFF77EFC0194002015
:107E1000ADF80800ADF80A00ADF80C00ADF81000A0
:107E20000C20ADF80E0000210D4803F0F0F90C48CD
:107E300003F0FAF901A90A4803F0A0FA012240F27E
:107E40002551074803F075FA012240F22441044805
:107E500003F06FFA0121024803F0D9F906B010BD12
:107E600000380140000801401FB504464FF4165089
:107E7000FFF75EFF01201F4908601F49C1F8AC01F0
:107E8000642009F05BF91DA103C9CDE902018DF859
:107E90000C401CE0062102A8FFF796FE4FF4FA7092
:107EA00009F04CF900200090019006216846FFF788
:107EB000B1FE694613A010F0EDF800B108E09DF89E
:107EC00004009DF80C10884200D101E000BFE1E7FA
:107ED00000BF0020074908600749C1F8AC016420D1
:107EE00009F02CF94FF4E130FFF722FF002004B035
:107EF00010BD0000B001214200002142C200003A42
:107F0000144000004F4B0000024909888143014A98
:107F100011807047042800400348008840F010009A
:107F20000149088070470000042800400348008889
:107F30004FF6EF710840014908807047042800405F
:107F400070B500260024002500F07AF8064638486F
:107F5000B6FBF0F437480088A0423CD035490C808D
:107F600040F2B27510E02846FDF700FA40B1B4F5D2
:107F7000B77F02D3A4F5B77404E0681C85B206E0AD
:107F8000A4F26D14681C85B2B4F5B67FEBD800BFBF
:107F900029488580002516E027498888FDF7E6F9FD
:107FA00030B1012D04D11D2C01D31D3C09E00CE0A2
:107FB0002248405DA04203D82048405D241A00E0DA
:107FC00003E0681C85B21C2CE6D200BF681C1A496D
:107FD0008871601CC8711648B6FBF0F100FB116493
:107FE0004FF46160B4FBF0F0134908704FF4616026
:107FF000B4FBF0F100FB11403C21B0FBF1F00E4965
:1080000048704FF46160B4FBF0F100FB11403C217B
:10801000B0FBF1F201FB1200074988700B46DA79D8
:108020009979988800F030F803490872002070BDF3
:108030008051010070000020341F002064BB010843
:10804000002103480188001F008841EA0040704772
:108050001C28004001460020064A12880A40D0B27F
:10806000044A121F12880A4012B108B1012000E030
:10807000002070470428004010B5FFF7E1FF10BD55
:1080800000487047341F0020F0B503460C461546E3
:10809000642093FBF0F0C6B2642093FBF0F700FB82
:1080A0001730C1B2132E02DD01F16400C1B20846DF
:1080B000CF1701EB977701EBA707BAB2072092FB26
:1080C000F0F700FB172082B25719601EDFF82CC0B2
:1080D0001CF80000384482B2CF1701EB9777BF102D
:1080E000A1EB87071FB9032C01DA501E82B20720CB
:1080F00092FBF0F700FB1720C0B2F0BD58BB01089F
:1081000010B50120FFF7A6FF08B1FFF719FF022005
:10811000FFF7A0FF10B10220FFF7F6FE0520FFF7E2
:10812000F3FE00F02DF910BD29B1064A1288024372
:10813000044B1A8004E0034A12888243014B1A80E0
:1081400070470000002800401CB500240420FCF704
:1081500085F845F2500188424AD001214FF0C050C5
:10816000FFF73CFC0120FFF72BFCFCF76FF8012028
:10817000FFF702FD0BE0601C84B24FF47A7009F047
:1081800009F840F6C410844201DB01201CBD4120E7
:10819000FFF7D4FC0028EED04FF48070FFF70CFD01
:1081A0000120FFF703FD00F0EBF800F0F3F80121E8
:1081B0000846FFF7B9FF00F0E3F8FFF7ADFE47F61A
:1081C000FF7000F0B5F800F0DBF8372000210A233B
:1081D0000222CDE900100C2140F2D97000F02EF8F7
:1081E000FFF7A4FE45F250010420FCF745F807E034
:1081F00000F0D0F801210846FFF796FF00F0C0F824
:1082000000F00AF8FFF79CFE0120024908700020E8
:10821000BCE700006E00002008B503208DF80000C8
:1082200001208DF8010003208DF8020001208DF857
:1082300003006846FFF768FA08BD00002DE9F05F0B
:1082400006460F4690469946DDE90AAB00242C48C5
:10825000007810B90120BDE8F09F40F2B27086426C
:1082600003DB40F63300864201DD0120F3E740F2F4
:10827000B2750AE02846FDF779F810B121480444A8
:1082800001E021480444681C85B2B542F2DB781E47
:10829000C7B2002510E01D48405D40F2A3214843CD
:1082A00004EBC0143046FDF761F818B1012D01D17F
:1082B00017480444681C85B2BD42ECDBA8F10100FC
:1082C00040F2A321484304EBC014C9EB4910C0EBB2
:1082D000092004EB0014CAEB0A1004EB80045C4490
