:020000040800F2
:10280000B0230020712A00088B7500088151000850
:102810008775000821450008CBA8000800000000CB
:10282000000000000000000000000000DF91000830
:102830007148000800000000FB2A00089D9800086D
:102840008B2A00088B2A00088B2A0008FD7E0008CE
:102850008B2A00088B2A00088B2A00088B2A000884
:102860008B2A00088B2A00082F4A00088B2A0008B0
:102870008B2A00088B2A00088B2A00088B2A000864
:102880008B2A00088B2A00088B2A00088B2A000854
:102890008B2A00088B2A00088B2A00088B2A000844
:1028A0008B2A00088B2A00088B2A00088B2A000834
:1028B0007D990008A9990008C59900088B2A00088D
:1028C0008B2A00088B2A00088B2A00088B2A000814
:1028D0008B2A0008F9A30008E9A400088B2A000845
:1028E0008B2A00088B2A00088B2A00088B2A0008F4
:1028F0008B2A00088B2A00088B2A00088B2A0008E4
:102900008B2A00088B2A00088B2A00088B2A0008D3
:102910008B2A00088B2A00088B2A00088B2A0008C3
:102920008B2A00088B2A00088B2A00088B2A0008B3
:1029300000F002F800F07CF80AA090E8000C824455
:102940008344AAF10107DA4501D100F071F8AFF232
:10295000090EBAE80F0013F0010F18BFFB1A43F07D
:102960000103184748600100686001000A444FF005
:10297000000C10F8013B13F0070408BF10F8014BDE
:102980001D1108BF10F8015B641E05D010F8016B23
:10299000641E01F8016BF9D113F0080F1EBF10F887
:1029A000014BAD1C0C1B09D16D1E58BF01F801CBAA
:1029B000FAD505E014F8016B01F8016B6D1EF9D52D
:1029C0009142D6D370470000002300240025002642
:1029D000103A28BF78C1FBD8520728BF30C148BF82
:1029E0000B607047662915F0DE83652915F0DB83DF
:1029F000642900F03381752900F03081782900F0D6
:102A00006981732900F09F86002070471FB500F090
:102A10009FFE04000020002114F020FB401C606099
:102A20000020002114F030FBE0601FBD10B510BD88
:102A300000F08EFF1146FFF7E9FF0FF0A5F900F057
:102A4000ACFF03B4FFF7F2FF03BC08F0C8FA0000C4
:102A5000EFF30980704780F309887047EFF308802F
:102A6000704780F30888704740BA7047C0BA704713
:102A70000948804709480047FEE7FEE7FEE7FEE712
:102A8000FEE7FEE7FEE7FEE7FEE7FEE7044805494E
:102A9000034A054B704700001D99000831290008C2
:102AA000B0210020B0230020B0210020EFF31080DF
:102AB00072B6704780F310887047254C254D25600D
:102AC0004FF0000484F30988234C4FF00105257072
:102AD000224C4FF08055256062B6FEE730B41F4CA3
:102AE0004FF08055256030BC704730B41B4C4FF020
:102AF0008055256030BC704700BF72B6EFF3098087
:102B000028B1203880E8F00F15490968086000B541
:102B10001448006800B180475DF804EB124813497F
:102B20000A7802700E4812490A680260106890E83C
:102B3000F00F203080F309884EF0040E62B6704723
:102B4000B0FA80F0704790FAA0F04FEA104070475A
:102B500020ED00E00000FFFF4400002004ED00E055
:102B60005000002060000020480000204C000020A1
:102B700054000020704710B5044600F03BFB00688D
:102B8000005DC00602D504F1200010BD204610BD36
:102B90000FB41CB5084B06AA7B4469460090059803
:102BA00000F0A7FD04460020694600F0B5FD204670
:102BB0001CBC5DF814FB00007D0B000070B50446E2
:102BC00085690068C10601D5302600E02026C007CF
:102BD00007D070BDD4E9012130469047206A401CDF
:102BE00020626D1EF6D570BD70B50446856900780B
:102BF000C00707D170BDD4E9012120209047206A89
:102C0000401C20626D1EF6D570BD70B50C460546A1
:102C1000012A05D02878800600D5EA69002302E061
:102C2000012305E05B1C934202D2E05C0028F9D14D
:102C3000A869E618C01AA861286A184428622846BC
:102C4000FFF7BCFF04E0D5E9012114F8010B904720
:102C5000B442F8D32846FFF7C7FF70BD2DE9F04115
:102C60000646002410687529314616A510D0AFF32A
:102C70000080002802DA404213A507E031688A0785
:102C800001D512A502E0490704D511A5012401E0F0
:102C9000AFF3008000210A2206F1240709E0B0FB0F
:102CA000F2FCB0FBF2F302FB1C0030307854184603
:102CB000491C0028F3D123462A463046BDE8F0419E
:102CC00000F0ABBA000000002D0000002B00000057
:102CD0002000000070B504460D4621461068AFF391
:102CE00000802188090502D50F4A7A4402E00E4A85
:102CF0007A440E32002104F1240305E000F00F06AF
:102D00000009965D5E54491C0028F7D12078002305
:102D1000000704D5702D02D009B1022311322046DC
:102D2000BDE8704000F079BAAD5801002DE9F05FC0
:102D3000894604464FF0000ADFF824B1FB44C0F88E
:102D400020A02046E168884700287DD0252806D0AD
:102D5000D4E901219047206A401C2062F1E7002558
:102D60005F462046E16888472028064607DB312E6B
:102D700005D2B81910F8200C08B10543F1E7A807EF
:102D800001D525F00405C4F81CA00027C4F818A03C
:102D90002A2E09D0304608F01BF938B304EB870817
:102DA000303EC8F8186019E059F8041B204604EBBF
:102DB00087029161E1688847012F064618D1E069D2
:102DC000002820DA25F020051DE0D8F8180000EBD7
:102DD000800006EB40003038C8F818002046E16853
:102DE0008847064608F0F4F80028EED1012F0AD0F3
:102DF0002E2E08D12046E16888477F1C0646022F08
:102E000045F02005C4DBA069002803DA404245F004
:102E10000105A061E80701D025F01005A6B1A6F1D3
:102E20004100192802D8203645F400654A4631464B
:102E3000204625604D46FFF7D5FD60B1012807D03B
:102E4000ED1D25F0070000E007E000F1080978E734
:102E500005F1040975E730467AE7206ABDE8F09F7E
:102E600083580100401ECAB210F8011F8A4202D0E6
:102E70000029F9D10020704740EA0103024630B52D
:102E80009B0710D14FF0013400E008C208C91D1B98
:102E90009D4315EAC41FF8D013F0FF0102F8011B8F
:102EA0000DD01B0AF8E711F8013B002B02F8013B9B
:102EB00005D011F8013B002B02F8013BF3D130BDE6
:102EC00010B5431C02E010F8011B71B18107FAD163
:102ED0004FF0013202C88C1A8C4314EAC211F9D0A7
:102EE000C01A0A0603D0C01E10BDC01A10BD0A04C5
:102EF00001D0801E10BD0902FCD0401E10BD40EA6A
:102F0000010370B59B072ED14FF00136042A2AD356
:102F100008C810C99D1B9D43121F15EAC61517D07E
:102F2000D8B2E1B2401A50EA056110D198B2A1B20C
:102F3000401A50EA05410AD123F07F4024F07F4136
:102F4000401A50EA052102D1180EA0EB146070BDA2
:102F5000A342DBD018BA21BA884201D9012070BD42
:102F60004FF0FF3070BD0AB9002070BD10F8013B72
:102F700011F8014B63B1A3420AD1521E08D010F8D8
:102F8000013B11F8014B1BB1A34201D1521EEDD1FF
:102F9000181B70BD032A40F2308010F0030C00F0C3
:102FA000158011F8013BBCF1020F624498BF11F883
:102FB00001CB00F8013B38BF11F8013BA2F104023C
:102FC00098BF00F801CB38BF00F8013B11F00303B4
:102FD00000F02580083AC0F0088051F8043B083A18
:102FE00051F804CBA0E80810F5E7121D5CBF51F8BA
:102FF000043B40F8043BAFF30080D20724BF11F834
:10300000013B11F801CB48BF11F8012B24BF00F898
:10301000013B00F801CB48BF00F8012B704710B509
:10302000203AC0F00B80B1E81850203AA0E81850C0
:10303000B1E81850A0E81850BFF4F5AF5FEA027C81
:1030400024BFB1E81850A0E8185044BF18C918C0F0
:10305000BDE810405FEA827C24BF51F8043B40F891
:10306000043B08BF7047D20728BF31F8023B48BF76
:1030700011F8012B28BF20F8023B48BF00F8012BB4
:1030800070474FF000020429C0F0128010F0030CCA
:1030900000F01B80CCF1040CBCF1020F18BF00F84B
:1030A000012BA8BF20F8022BA1EB0C0100F00DB8FA
:1030B0005FEAC17C24BF00F8012B00F8012B48BF58
:1030C00000F8012B70474FF0000200B513469446FC
:1030D0009646203922BFA0E80C50A0E80C50B1F170
:1030E0002001BFF4F7AF090728BFA0E80C5048BF84
:1030F0000CC05DF804EB890028BF40F8042B08BF22
:10310000704748BF20F8022B11F0804F18BF00F81D
:10311000012B704710B5044610F0030F08BF11F0E3
:10312000030F40F015804FF0013E121FC0F20E80D9
:1031300051F8043BA3EB0E0C2CEA030C1CEACE1C4A
:1031400008BF40F8043BF0D0A1F1040102F10402F1
:10315000521E08DB11F8013B002B00F8013BF7D1B0
:103160001146FFF78EFF204610BD00004FF0013CD6
:1031700050F8042B51F8043B9A4221D1A2EB0C03E6
:10318000934313EACC1317D150F8042B51F8043BA6
:103190009A4215D1A2EB0C03934313EACC130BD143
:1031A00050F8042B51F8043B9A4209D1A2EB0C03CE
:1031B000934313EACC13DBD04FF00000704700BFFD
:1031C000D01A01BAB1FA81F101F0180122FA01F026
:1031D000CB40C1F12001DBB2C0B2C01A2CFA01F31E
:1031E000D11A914311EAC311E6D170477047704775
:1031F0007047704710B500F0ABFA001D10BD00BF5E
:103200005D3E010010B500F0A7FA006810BD10B5D2
:10321000044600F0A1FA046010BD2DE9F0470D4608
:1032200099469246044600F124080168880604D5B0
:10323000E06921F01001216000E00120A84201DDD9
:10324000471B00E00027A1697A1902EB0900081A60
:10325000A0612078C00602D42046FFF7AFFC00260C
:1032600008E0D4E901211AF806009047206A401CC2
:10327000761C20624E45F4DB2078C0060AD5204635
:10328000FFF79CFC06E0D4E9012130209047206A3A
:10329000401C2062381EA7F10107F4DC07E0D4E9E6
:1032A000012118F805009047206A401C2062281E62
:1032B000A5F10105F3DC2046FFF796FC2078000617
:1032C00002D50220BDE8F0870120FBE770472DE919
:1032D000FF4F0C461E464FF0FF378BB0D2E900017E
:1032E000DDF860800A908A46C1F30A5505B93D466B
:1032F000002108464FF00000BAF1000F00F4400032
:1033000005DA00EB80004FF4400101EA50004FEA7B
:103310009059B9F1010F00DDB9460A9850EA4A0008
:103320000ED044F61050A5F2FF3545432F14B8F1E6
:10333000000F1ED07542291E1EDDC9F100021CE0DF
:10334000B8F1010F4FF0000001D0302103E0F2434B
:1033500005E02154401CB042FBDB30460022002136
:1033600021540B99C1F80880C1E900200FB0BDE8D5
:10337000F08FBD1B6D1CDEE74A4600DA694206A8E5
:1033800000F074FA06AB93E8070003AB83E807008C
:1033900050460A9900F007FB8DE80700A0F50050A1
:1033A0001F3800900398002D09DD42F21F014A46A4
:1033B000084403A90390684600F066FD08E0A0F504
:1033C00000504A461F3803A90390684600F070FD7C
:1033D0008DE807000004000C03D04FF0FF304108D7
:1033E00000E01046B8F1000F03D00022009215460D
:1033F0001EE0751E05D400F0B3F9303262556D1E23
:10340000F9D5B3460122084302D000227F1C04E014
:103410002078302801D100227F1E002A099786D00B
:103420001DE0112D07DA00F09BF9303262556D1C5A
:1034300050EA0102F5D1084302D00098C8B10EE06D
:103440000021681E05E0235C625C63542254401E28
:10345000491C8142F7DBAB46A81B401E09900020A7
:1034600004F80B000B98099AC0F80880C0E9002BFB
:103470007CE711264FF0000859E72DE9F04F884608
:103480000446D21D22F0070191B0D1E90001CDE937
:103490000A0107F013FD02460B98C00F01D02D2042
:1034A00007E02068810701D52B2002E0202101EAF6
:1034B000C000032A099001D0072A05DB03464146D4
:1034C000204600F093F90BE12078800601D5E069F1
:1034D00000E00620B8F1650F814606D0B8F1660F0E
:1034E00018D0B8F1670F70D131E00020B9F1110F99
:1034F000009001DB112301E009F101030AAA01A9EF
:103500000CA8FFF7E4FEDDE90C70002609F10105C7
:10351000834647E001204B4600904FF000470AAA3F
:1035200001A90CA8FFF7D3FEDDE90DB00C995D46AB
:10353000002610B909F101000D18B9EB050003D4FC
:10354000C0F1FF3609F10105A5EB09002BE0B9F147
:10355000010F01DA4FF001090020B9F1110F0090BD
:10356000484601DD112300E003460AAA01A90CA880
:10357000FFF7ADFEDDE90C704D460026834620784E
:1035800000070AD4AB4500DA5D4601A8012D04DD31
:10359000411911F8011C302907D04F4502DA17F103
:1035A000040F04DA012082460FE06D1EEEE7002FC3
:1035B00002DCED1B3E4403E0781CA84200DD7D1CCC
:1035C000B81B00F1010A4FF000472078000703D430
:1035D000AA4501DB4FF0FF3A0021B7F1004F0DF192
:1035E00043088DF8431024D002202B23002F01DA4A
:1035F0007F422D230A21021EA0F1010000DC5FB1F1
:1036000097FBF1FC97FBF1F201FB1C7C17460CF1D8
:10361000300C08F801CDEEE7A8F101000370218815
:10362000090501D5452100E06521A0F1010800F858
:10363000011C09980FA9A1EB0807FF1D00B101208B
:10364000411901EBEA70A1693844081A401EA061D3
:103650002078C00602D42046FFF7B0FA099828B1B6
:10366000D4E901219047206A401C20622078C006DE
:1036700022D52046FFF7A2FA1EE0002E04DBB34558
:1036800002DD01A8805D00E03020D4E901219047EF
:10369000206A401C2062761CAAF101005FEA000A41
:1036A0000AD100F055F8C0680168405CD4E90121F6
:1036B0009047206A401C2062281EA5F10105DCDC31
:1036C00007E0D4E9012118F8010B9047206A401C5B
:1036D0002062381EA7F10107F3DC2046FFF784FAC9
:1036E000032011B043E6000001694A1C026108781A
:1036F000704700B58FB0CDE9013100210591054932
:103700007944CDE9031011466846FFF70FFB0FB06F
:1037100000BD0000E5FFFFFF0A6802F8010B0A6028
:10372000704710B5436913B1AFF3008001E0FFF7B4
:103730006CFA012010BD127800F124010A700022F9
:103740004A700122EDE711684FF0FF32E9E700000F
:103750000048704770210020004870475021002029
:1037600030B5B0F10A024FEA900E71F100034EEA53
:10377000817EB0EB0E0061EB91014FEA101E4EEA24
:10378000017E10EB0E0041EB11114FEA102E4EEAB4
:10379000016E10EB0E0041EB11214FEA104E4EEA84
:1037A000014E10EB0E0041EB1141401841F10001B8
:1037B0004FEAD00040EA41704FEAD10110EB80059A
:1037C0004FEA810444EA907444EB01046D1944EB20
:1037D0000404521BA3414FF0000348BF0A3200D536
:1037E00030BD401C41F1000130BD00002DE9F04129
:1037F0001F46044603260168072A01F4006004DB23
:1038000008B116A505E016A503E008B115A500E06E
:1038100015A521F010002060A069C01EA0610FB1A5
:10382000401EA0612046FFF7C9F94FB1D4E901213C
:1038300038469047206A401C2062C01C206206E087
:10384000206AFAE7D4E9012115F8010B9047761EAA
:10385000F8D22046FFF7C8F9BDE8F0814E414E008E
:103860006E616E00494E4600696E66002DE9F047B4
:10387000814616468AB0334878440DC88DE80D005D
:1038800030487844801C03AC0DC884E80D0041F634
:103890009B300844372190FBF1F290FBF1F5A5F144
:1038A000800501FB12041B3C02D56442012000E0AC
:1038B0000020DFF890A080460027FA44AAF1BE0A53
:1038C0000DE0E00709D03246684607EB47010AEBF6
:1038D000810100F0EDFA8DE8070064107F1C002CD8
:1038E000EFD1184F7F44AC3F18E0E80714D007EB46
:1038F00004100DF1180A90E80E008AE80E00C06866
:10390000F04201D198190890324606A903A800F0A8
:10391000CFFA03AB83E807006D10641C002DE4D1DF
:1039200032466946B8F1000F03A802D000F0ACFAA5
:1039300001E000F0BDFAC9E90001C9F808200AB0A9
:10394000BDE8F087684E0100004870475021002014
:103950007546FFF7F9FFAE4605006946534620F06D
:103960000700854618B020B5FFF790F8BDE8204065
:103970004FF000064FF000074FF000084FF0000B2B
:1039800021F00701AC46ACE8C009ACE8C009ACE8DE
:10399000C009ACE8C0098D4670470446AFF300800B
:1039A0002046FFF74EF85FEA400C08BF91F0000F89
:1039B0004FEA8C234FEAC12243EA51514FEA1C508F
:1039C00018BF00F5F0404FEA300018BF41F0004149
:1039D0005FEA6C5C00F02980BCF1FF3F08BF40F05B
:1039E00080407047130C06BF12044FF0100C4FF0CC
:1039F000000C130E04BF12020CF1080C130F04BFCD
:103A000012010CF1040C930F04BF92000CF1020C94
:103A1000D30F04BF52000CF1010C11464FF000020D
:103A2000A0F11F00A0EB0C00704711F0004F08BF81
:103A3000704731F000413FF4D5AF0B0C06BF0904CD
:103A40004FF0100C4FF0000C0B0E04BF09020CF1EC
:103A5000080C0B0F04BF09010CF1040C8B0F04BF01
:103A600089000CF1020CCB0F04BF49000CF1010CD2
:103A7000CCF12003A0EB0C0022FA03F302FA0CF2C3
:103A800041EA030100F10100704720F07F4C80EA19
:103A9000030023F07F47ACEB070303F57C5300F0F2
:103AA000004003F1FF032DE980494FEA154B09B4AB
:103AB0004FEA144325EA0B4E24EA03480FF204268A
:103AC00006EB132749083E785FEA320203FB0667DC
:103AD000C7F5000707FB06F64FEA54374FEAD6460C
:103AE00006F1020607FB066CCCF1005C4FEA1C47AE
:103AF0002CEA074C07FB06F40CFB06F504EB154615
:103B00004FEA961634BF00204FF000404FEAD137FD
:103B100006FB07FC4FEA1C4C0CFB0BF7D21B03FB0C
:103B20000CF761EB07010CFB0EF7B0EB074072EBF3
:103B300017420CFB08F734BFA2EB0742B2EB074277
:103B400061EB17414FEA0C444FEA910706FB07FC73
:103B50004FEA1C4C0CFB0BF7B0EBC74072EB573233
:103B600003FB0CF734BFA2EBC742B2EBC74261EBD9
:103B700057310CFB0EF7B0EBC70072EB57720CFB22
:103B800008F734BFA2EBC702B2EBC70261EB577173
:103B9000039F4FEA816141EA921104EBCC044FEAA2
:103BA000D1374FEA826206FB07FC42EA90124FEAE5
:103BB00080604FEA1C4C0CFB0BF7D21B03FB0CF78D
:103BC00061EB07010CFB0EF7B0EB074072EB1742FD
:103BD0000CFB08F734BFA2EB0742B2EB074261EBE4
:103BE00017414FEA8C554FEA910704EB9C2406FBE2
:103BF00007FC4FEA1C4C0CFB0BF7B0EBC74072EB19
:103C0000573203FB0CF734BFA2EBC742B2EBC742FB
:103C100061EB57310CFB0EF7B0EBC70072EB57723C
:103C20000CFB08F734BFA2EBC702B2EBC70261EB93
:103C3000577115EB4C254FEA816141EA92114FEA29
:103C400082624FEAD13742EA901206FB07FC44F148
:103C500000044FEA80604FEA1C4C0CFB0BF7D21BB0
:103C600003FB0CF761EB07010CFB0EF7B0EB074011
:103C700072EB17420CFB08F734BFA2EB0742B2EB22
:103C8000074261EB174115EB1C154FEA813141EA00
:103C900092414FEA823242EA90424FEA80304FEA44
:103CA0000C7644F1000448EA03434EEA0B484FF017
:103CB000000EB2EB080C71EB030724BF62463946D5
:103CC0004EEB0E0E4FF0000B0018524149414BEBEA
:103CD0000B0BB2EB080C71EB03077BF1000B24BF5D
:103CE000624639464EEB0E0E4FF0000B0018524163
:103CF00049414BEB0B0BB2EB080C71EB03077BF16B
:103D0000000B24BF624639464EEB0E0E51EA020705
:103D100018BF46F0010616EB0E7655F1000254F17D
:103D2000000103D5BDE88901BDE80088BDE889012F
:103D3000BDE80048B619524141EB0101A3F101036E
:103D4000704780807F7E7D7C7B7A79787776767508
:103D50007473727171706F6E6E6D6C6C6B6A6A6980
:103D60006868676666656464636362616160605F1A
:103D70005F5E5E5D5D5C5C5B5B5A5A595958585793
:103D800057565655555554545353525252515150FB
:103D900050504F4F4F4E4E4D4D4D4C4C4C4B4B4B4E
:103DA0004A4A4A4949494848484747474746464694
:103DB00045454544444444434343434242424241CF
:103DC0004141002B26D4770021D01CB54FEA37079C
:103DD00003B44FF010004FF010014FF000000FBC83
:103DE000BDE810400BF1010BBBF1010F08BF5FEA0A
:103DF000170722BF12F1010211F101014FF000413A
:103E000043F1000300F0004043EA00007047F9D39B
:103E10005708DAE746EA064613F1400F4FEA16461E
:103E20001FDD13F1200FDFBF16430A4600212033A8
:103E30005B42C8D0C3F1200746EA064602FA07F7FC
:103E40004FEA164646EA0706C3F1200722FA03F2B4
:103E500001FA07F721FA03F14FF0000342EA0702E3
:103E6000B1E746EA020646EA06464FEA164646EA41
:103E70000106BCBF46EA0646360C4FF000034FF081
:103E800000024FF000019EE72DE9C048934630B490
:103E900091E8380007C831EA400C48BF34EA430CC7
:103EA00003D5FFF7F2FDFFF78CFFF0BCBDE80088FB
:103EB0002DE9C048934630B491E8380007C810F0A7
:103EC000804F08BF13F0804F03D100F005F8FFF7D3
:103ED00078FFF0BCBDE8008820F07F4780EA03004F
:103EE00023F07F4C07EB0C03A3F57C5300F000405C
:103EF000A3F1FE0392F0000F00F0B38095F0000FE5
:103F000000F077802DE901494FEA11404FEA14464D
:103F100021EA004800FB06FC24EA064708FB06F6F7
:103F200007FB08F800FB07F718EB06484CEB164CAC
:103F30004FEA124B18EB07484FEA15464CEB174077
:103F400022EA0B4E0BFB06FC25EA06470EFB06F6A3
:103F500007FB0EFE0BFB07F71EEB064E4CEB164C59
:103F60004FF000061EEB074E4CEB174B18EB0B08FF
:103F700040F1000018EB0E0B58EB000840F1000078
:103F80008F1A4FF000013CBFC943661B14BFB5EB4D
:103F9000040C00213CBFC943F61B4FEA17444EEA0C
:103FA0008E0E27EA04454FEA1C4704FB07622CEA01
:103FB000074C05FB07F70CFB05F604FB0CFC16EBA6
:103FC000074642EB174216EB0C4642EB1C421BEB3A
:103FD000060658EB0202414146EA9E0601D5BDE8BD
:103FE0000189B619524141EB0101A3F10103BDE87A
:103FF00001894FEA14454FEA114724EA054621EAB0
:10400000074C05FB07F406FB07F70CFB06F105FB65
:104010000CFC11EB074144EB17444FEA124711EB3C
:104020000C4144EB1C4422EA074C05FB07F206FB5B
:1040300007F70CFB06F605FB0CFC16EB074642EBFC
:10404000174216EB0C4642EB1C456A1854F100016E
:1040500048BF7047B619524141EB0101A3F101037A
:10406000704795F0000F37D04FEA11424FEA1447DE
:1040700021EA024624EA074C02FB07F106FB07F798
:104080000CFB06F402FB0CFC14EB074441EB17415C
:104090004FEA154714EB0C4441EB1C4125EA074C51
:1040A00002FB07F506FB07F70CFB06F602FB0CFC10
:1040B00016EB074645EB174516EB0C4645EB1C4245
:1040C000121951F1000148BF7047B619524141EB36
:1040D0000101A3F1010370474FEA14454FEA11476C
:1040E00024EA054621EA074C05FB07F106FB07F722
:1040F0000CFB06F24FF0000605FB0CFC12EB07422E
:1041000041EB174112EB0C4251EB1C4148BF704789
:10411000921841EB0101A3F10103704710B50BF0B8
:104120001BFD408C012804D10BF016FD00214184B9
:1041300003E00BF011FD012141840BF00DFD90F81F
:104140002240214606200CF085FF10BD1CB510A1B1
:1041500003C9CDE900010BF0FFFC808A01280BD1D7
:1041600000208DF807000821684601F041FA0BF0A5
:10417000F3FC002181820AE00BF0EEFC0121818238
:1041800001208DF807000821684601F031FA1CBDB6
:104190005AA505821009000008B50121102003F07E
:1041A00043FB4FF40050ADF8000010208DF80300E1
:1041B00002208DF802006946054800F053FD0020FA
:1041C00003F0E0FB4FF40051014800F023FE08BD6E
:1041D0000010014010B5012003F046FB002003F061
:1041E00043FB10BD08B50146002000900348009035
:1041F0000098084400900098008808BD006C0040BA
:1042000008B500220092044A0092009A02440092EB
:10421000009A116008BD0000006C00400EB500203F
:1042200000900190029003208DF8000002208DF88C
:10423000010000208DF802008DF8030002208DF8A7
:1042400004008DF805006946032011F01BFE0EBD29
:104250000EB5002000900190029002208DF8000021
:104260008DF8010000208DF802008DF80300022077
:104270008DF804008DF805006946032011F002FE58
:104280000EBD0EB5002000900190029004208DF824
:10429000000002208DF8010000208DF802008DF84A
:1042A000030002208DF804008DF805006946032004
:1042B00011F0E8FD0EBD0EB50020009001900290B7
:1042C00005208DF8000002208DF8010000208DF8F7
:1042D00002008DF8030002208DF8040001208DF803
:1042E00005006946032011F0CDFD0EBD0EB500207E
:1042F00000900190029002208DF800008DF80100DE
:1043000000208DF802008DF8030002208DF80400D3
:1043100001208DF805006946032011F0B3FD0EBDA4
:104320007FB505460024384B0FCB8DE80F0037488A
:104330000078012800D17FBD0120344908704FF476
:1043400016700EF0F7FA324908600846006800B9A6
:10435000F1E74AE0287830383DF8100061002C4A37
:10436000126822F8110068785F280DD16100284A90
:10437000126832F8110000EBD07149106200244B32
:104380001B6823F8121010E068787E280DD16000B9
:104390001F49096831F810004FF6FF7101EA40002B
:1043A00061001B4A126822F81100A87930380821F0
:1043B00091FBF0F0012101EB4401154A126822F84B
:1043C0001100012000EB44001149096831F8100088
:1043D000297930394843012101EB44010C4A126824
:1043E00022F811000835601C84B228780028B1D169
:1043F000012101EB4401064A126822F81100054828
:1044000006F050FE00BF96E7B4820108700000205D
:10441000740000201944000810B53A4800680028CC
:104420006FD03948008840003649096831F81000DB
:10443000364991FBF0F436480068401C3449086066
:1044400034480068401C3349086064B1601F30493B
:104450000968884203D201202F49086006E0002045
:104460002D49086002E000202B490860264800889A
:1044700040002449096831F81000244991FBF0F00C
:1044800023490968884202D80020214908601E4853
:104490000088012101EB40001A49096831F8100039
:1044A00040F2712148431B490968B1EB001F27D333
:1044B00015480088401C14490880002015490860F0
:1044C00011480088012101EB40000E49096831F8CC
:1044D0001000A8B900200C4908800E4908600C495A
:1044E0000860084800680EF011FA002005490860CD
:1044F0000949086009490870AFF2E3000AF064FC5A
:1045000000BF10BD7400002078000020A0860100CC
:10451000800000207C000020B401224270000020B6
:1045200003F082F870B50546002401240AE000F08B
:1045300079FC610030F81100A84201D1012070BD62
:10454000601C84B200F06EFC610030F8110000289D
:10455000EDD100BFF3E700002DE9F0410025002771
:104560000024FEF7A3FA0646002039E0204901EBBB
:104570004011496891B31E4901EB401189691C4AF9
:1045800002EB4012928A92B2A1EB82010C1D00BF95
:1045900002CC491C0029FBD0154901EB4011896967
:1045A000091B012202EBA105114901EB40114969E8
:1045B0000F0CAF4212D20E4901EB4011898A89B229
:1045C0000B4A02EB40125161094901EB4011496964
:1045D00041EA0541064A02EB40125161411CC8B252
:1045E0002028C3D33046FEF765FABDE8F08100000D
:1045F000041A0020002000BF04E00021034A1154E7
:10460000411C88B23A28F8DB704700005E1E00208B
:104610007FB505460C4600260020019002900390CD
:104620000090FF208DF804008DF8050028128DF809
:104630000600E8B28DF8070001208DF80800002080
:104640008DF8090002208DF80A0000208DF80B007B
:104650001E208DF80C006A46092101A800F0C0FC5C
:104660009DF800008DF80D009DF801008DF80E00FA
:104670000B2101A803F0AEF900BF33E0C8200AF017
:10468000E5FB9DF80C0000F10901204603F0E6F976
:1046900030B3A079C11D6A46204600F0A1FC9DF808
:1046A0000010A079C01D205C814219D19DF8011035
:1046B000A0790830205C814212D1E078A17840EAEC
:1046C0000120A8420CD120799DF8081041F080010A
:1046D000884205D1207AE17940EA012004B070BD1A
:1046E000701CC6B2052EC9DB0A20F7E72DE9F041A0
:1046F0008EB004460D4616461F464FF000080020B7
:1047000002900390049005900190FF208DF808001E
:104710008DF8090020128DF80A00E0B28DF80B0028
:1047200003208DF80C0000208DF80D0003208DF87B
:104730000E008DF80F508DF810608DF8117001AAE1
:104740000A2102A800F04CFC9DF804008DF812002C
:104750009DF805008DF813000C2102A803F03AF92A
:1047600000BF3DE0C8200AF071FB182106A803F045
:1047700075F980B39DF81E00C11D01AA06A800F0BE
:104780002FFC9DF804109DF81E00C01D06AA105CA9
:10479000814221D19DF805109DF81E000830105C63
:1047A000814219D19DF81B009DF81A1040EA0120A2
:1047B000A04211D19DF81C009DF80C1041F0800121
:1047C000884209D19DF820009DF81F1040EA012081
:1047D0000EB0BDE8F081FFE708F101001FFA80F894
:1047E000B8F1050FBEDB0A20F2E700002DE9F05F0B
:1047F00081468A4617461C460A9D4FF0004020FA23
:1048000005F807EB8400061F1748006800EA080057
:1048100010B10120BDE8F09F1348006840EA08008D
:1048200011490860002006E04FF0FF31A6EB80023E
:104830001160411C88B2A042F6D30C4800EB451031
:104840008661002332465146484602F029FF8346DE
:104850002A465946484602F0A5FFA0B2034901EB9B
:10486000451148610020D5E768000020041A0020A7
:1048700002F0DAFE10B50446A0B20AF0E7FA10BD65
:10488000FEB504460E4615460020009001900290A9
:1048900002208DF80000022C52D1A6B3012D17D1B1
:1048A00001208DF801008DF802006946042011F006
:1048B000E9FA6946022011F0E5FA00208DF80100BE
:1048C00002208DF802006946042011F0DBFAADE009
:1048D000022DFCD101208DF8010002208DF802008C
:1048E0006946042011F0CEFA6946022011F0CAFA96
:1048F00000208DF8010001208DF802006946042097
:1049000011F0C0FA92E0FFE700208DF801000120CD
:104910008DF802006946042011F0B4FA69460220BD
:1049200011F0B0FA00208DF8010002208DF802008D
:10493000694611F0A7FA6946042011F0A3FA75E060
:10494000032C01D0052C51D19EB3012D17D101208C
:104950008DF8010003208DF802006946042011F053
:1049600091FA6946022011F08DFA00208DF80100BD
:1049700004208DF80200694611F084FA56E0022DF9
:1049800054D101208DF8010004208DF80200694601
:1049900011F078FA6946022011F074FA00208DF8BF
:1049A000010003208DF802006946042011F06AFA24
:1049B0003CE0FFE700208DF8010004208DF80200A4
:1049C000694611F05FFA6946022011F05BFA002097
:1049D0008DF8010003208DF802006946042011F0D3
:1049E00051FA6946022011F04DFA1FE0042C1DD146
:1049F00076B101208DF8010006208DF8020069468D
:104A0000042011F03FFA6946022011F03BFA0DE054
:104A100000208DF8010006208DF802006946042070
:104A200011F030FA6946022011F02CFAFEBD10B5E3
:104A3000102000F00FF830B1102000F005F8102120
:104A4000002005F02DFA10BD0149086070470000F4
:104A500014040140014600200022074B1B6803EAB2
:104A60000102054B14331B680B4013B10AB101203E
:104A700000E00020704700000004014000212349AD
:104A80008279002A3AD00A46126803689A430B4694
:104A90001A600A1D126803689A430B1D1A60027996
:104AA00011440A6803681A430A60184A08321268F7
:104AB00003689A43154B08331A601A1D126803687D
:104AC0009A43124B0C331A604279102A0ED11A1FE6
:104AD000126803681A430D4B08331A601A1D1268D6
:104AE00003681A43094B0C331A600DE007494279F9
:104AF00011440A6803681A430A6005E00279114408
:104B00000A6803689A430A60704700000004014085
:104B100030B5044604254FF4302000F06FF8054608
:104B2000042D17D10C48006940F002000A490861C1
:104B300008464461006940F0400008614FF43020AD
:104B400000F05CF805460448006941F6FD71084034
:104B500001490861284630BD0020024004200B496D
:104B6000C96801F0010109B101200EE00749C968D7
:104B700001F0040109B1022007E00449C96801F00D
:104B8000100109B1032000E004207047002002401A
:104B90000348006940F08000014908617047000047
:104BA0000020024070B504460D460426F00200F0D5
:104BB00025F80646042E11D10948006940F001008D
:104BC000074908612580F00200F018F806460448FD
:104BD000006941F6FE71084001490861304670BD28
:104BE000002002400248034948600348486070477B
:104BF0002301674500200240AB89EFCD00B5024696
:104C00000423FFF7ABFF034603E0FFF7A7FF0346CC
:104C1000521E012B01D1002AF7D102B905231846F3
:104C200000BD000030B500228B071C0F0F2303FAD4
:104C300004F20B4B8C1053F824309343084C8D1026
:104C400044F8253023468C1053F824308C07240F69
:104C500000FA04F42343024C8D1044F8253030BD93
:104C6000080001402DE9F041024600250026002001
:104C700000230024002791F803C00CF00F0591F8E1
:104C800003C00CF0100CBCF1000F03D091F802C06F
:104C90004CEA050591F800C0BCF1000F31D0146852
:104CA00000202BE04FF0010C0CFA00F3B1F800C02B
:104CB0000CEA03069E4220D183004FF00F0C0CFA41
:104CC00003F7BC4305FA03FC4CEA040491F803C063
:104CD000BCF1280F06D14FF0010C0CFA00FCC2F811
:104CE00014C00AE091F803C0BCF1480F05D14FF0A1
:104CF000010C0CFA00FCC2F810C0401C0828D1D3EB
:104D00001460B1F800C0BCF1FF0F34DD546800201E
:104D10002EE000F1080C4FF0010808FA0CF3B1F88E
:104D200000C00CEA03069E4221D183004FF00F0C15
:104D30000CFA03F7BC4305FA03FC4CEA040491F8AF
:104D400003C0BCF1280F05D100F1080C08FA0CF8DB
:104D5000C2F8148091F803C0BCF1480F07D100F1EC
:104D6000080C4FF0010808FA0CF8C2F81080401C3B
:104D70000828CED35460BDE8F0810000F0B50A46A3
:104D8000002300240021002500F00046B6F1004F6A
:104D900002D11D4EF16901E01B4E7168C0F303455D
:104DA00083B200F44016B6F5401F08D121F07061BF
:104DB000154E766826F07066134F7E6012E000F4A0
:104DC0008016B6F5801F06D1032606FA05F4A14326
:104DD00041F0706106E0460D360103FA06F6B14374
:104DE00041F0706122B1460D360103FA06F63143F7
:104DF00000F00046B6F1004F02D1034EF16101E030
:104E0000014E7160F0BD000000000140014688685D
:104E100080B2704741617047016170470048704738
:104E20007820002000487047E81E0020024600213C
:104E300000BF0DE0012000EB41000A4B13F8100009
:104E4000904203D1480033F810007047481C81B2EB
:104E5000012000EB4100034B33F810000028E9D19A
:104E600000BFF2E71C01002000B50246002101212D
:104E700012E0FFF7D7FF4B0030F81300904209D142
:104E8000FFF7D0FF012303EB410330F8130000F4D8
:104E90007F4000BD481C81B2FFF7C4FF4B0030F8D3
:104EA00013000028E5D1FF20F3E700B502460021FA
:104EB00000BF10E0FFF7B6FF4B0030F81300904240
:104EC00007D1FFF7AFFF012303EB410310F81300F5
:104ED00000BD481C81B2FFF7A5FF4B0030F813005E
:104EE0000028E7D1FF20F3E730B502460B4600214A
:104EF0000024012114E0FFF795FF012505EB410592
:104F000010F81500904209D19C4205D1FFF78AFFA5
:104F10004D0030F8150030BD601C84B2481C81B2D1
:104F2000FFF780FF012505EB410530F8150000284B
:104F3000E1D100BFEFE7000070B504460025FDF7A2
:104F4000B5FD0646044800EB4410808A85B2304621
:104F5000FDF7B0FD284670BD041A002070B5044668
:104F60000025FDF7A3FD0646044800EB4410406908
:104F7000050C3046FDF79EFD284670BD041A002042
:104F800013490988322904DA1249114A1288885CC7
:104F900005E000210E4A11800E491288885C00212C
:104FA0000D4A11600B4A0A4B1B88D1540B490988E2
:104FB00021B10A490988491E084A11800121064A7F
:104FC000116003490988491C014A1180704700009B
:104FD000C40000202C1E002094012742CA0000209B
:104FE000F0B50B46FF24FF2509E010F8016B86EAB7
:104FF0000401074E765C86EA0504064E755C1E00C9
:10500000A3F10107BBB2F0D114705570F0BD0000E0
:105010001C8301081C84010810B501464A1E034B7D
:10502000985C00234A1E014CA35410BD840000204C
:1050300000B5FFF7F7FE008800BD00B5FFF7F2FEF0
:1050400090F8660100BD00B5FFF7ECFE00F5B47006
:1050500000BD000010B50446002300BF04E0054871
:10506000C05CE054581C83B23A2BF8DBFFF7C2FA5D
:10507000184610BD5E1E0020F8B506460C460025F9
:10508000002000900027174806602078FF2819D1DB
:105090006078FF2816D1A079617940EA0120C01D0F
:1050A00085B26A4629462046FFF79AFF605D9DF863
:1050B0000010884206D1681C205C9DF801108842CF
:1050C00000D1012767B12079052803D1204606F0D9
:1050D0007EFB04E00521204606F0D2FB00BF00BFA6
:1050E000F8BD00009401002010B50AF035FDC08B1A
:1050F00001280ED1012108460BF0ACFF642009F015
:10510000BFFE002102200BF0A5FF642009F0B8FECD
:1051100021E00AF021FDC08B02280ED100210120E0
:105120000BF098FF642009F0ABFE012102200BF088
:1051300091FF642009F0A4FE0DE0002101200BF096
:1051400089FF642009F09CFE002102200BF082FF01
:10515000642009F095FE0AF0FFFC408C012807D17D
:10516000012106200BF076FF642009F089FE06E09D
:10517000002106200BF06EFF642009F081FE10BDB7
:1051800002F052FA0D480078642805DA0B480078DE
:10519000401C0A4908700FE00020084908700848C0
:1051A00000883C2805DA06480088401C044908802D
:1051B00002E0002002490880704700001102002030
:1051C0001202002010B500F001F810BD4AF6AA2026
:1051D0000149086070470000003000401CB50446DB
:1051E00009A103C9CDE90001E07960B9207A052859
:1051F00009D1607A0D2806D1A07AC02803D10621F2
:10520000684600F0F5F91CBD5AA503804F02000066
:105210000146CA1701EB92729210A1EB820292B979
:10522000642091FBF0F200FB121050B94FF4C870EB
:1052300091FBF0F200FB121008B90120704700202A
:10524000FCE70120FAE70020F8E7000010B5FF2492
:105250008548FFF7DBFD00F00F04ACB98348007808
:1052600010BB03208249087082480078401C8149A5
:10527000087008460078502816DB02207C49087028
:1052800001207A4908700FE07A480078012806DD8D
:1052900078480078502802DA01207549087000200B
:1052A0007449087071490870012C15D16F48407815
:1052B00010BB03206E4948706E484078401C6D4911
:1052C000487008464078502816DB0220684948702C
:1052D0000120664948700FE066484078012806DDE5
:1052E00064484078502802DA012061494870002063
:1052F000604948705D494870022C15D15B48807840
:1053000010BB03205A4988705A488078401C59497C
:10531000887008468078502816DB0220544988702F
:105320000120524988700FE052488078012806DD3C
:1053300050488078502802DA01204D4988700020BA
:105340004C49887049498870032C15D14748C0786A
:1053500010BB03204649C8704648C078401C4549E8
:10536000C8700846C078502816DB02204049C87033
:1053700001203E49C8700FE03E48C078012806DD94
:105380003C48C078502802DA01203949C870002012
:105390003849C8703549C870042C15D13348007994
:1053A00010BB03203249087132480079401C314952
:1053B000087108460079502816DB02202C49087134
:1053C00001202A4908710FE02A480079012806DDEA
:1053D00028480079502802DA012025490871002068
:1053E0002449087121490871052C15D11F484079BD
:1053F00010BB03201E4948711E484079401C1D49BE
:10540000487108464079502816DB02201849487137
:105410000120164948710FE016484079012806DD41
:1054200014484079502802DA0120114948710020BF
:10543000104948710D4948710D48007870B90C4801
:10544000407858B90A48807840B90948C07828B9E6
:105450000748007910B90648407918B101210020A9
:1054600004F01EFD10BD000000100140900000205F
:10547000840000208A00002038B50121102002F0AD
:10548000D3F90F20ADF8000048208DF80300032069
:105490008DF8020069460848FFF7E4FB074805F06D
:1054A000EDFD002405E0611CC8B2FFF7B5FD601CEE
:1054B000C4B2062CF7DB38BD001001404D52000885
:1054C00010B586B004460121042002F0ADF9012197
:1054D000082002F0A9F90121480402F085F94FF4EF
:1054E0008050ADF8140010208DF8170003208DF8BF
:1054F000160005A92A48FFF7B5FB0420ADF81400F3
:1055000018208DF8170005A92648FFF7ABFB0820E7
:10551000ADF8140004208DF8170005A92148FFF705
:10552000A1FB0121480402F06FF900214FF4003083
:1055300002F06AF901940020ADF80800ADF80A0005
:10554000ADF80C00ADF810000C20ADF80E0001A96C
:10555000154805F0CDF826208DF8000000208DF8C4
:10556000010002208DF8020001208DF8030068463A
:1055700002F00EF8012240F225510B4805F093F895
:10558000012240F22441084805F08DF80121064827
:1055900004F0F7FF00200549086006B010BD0000C8
:1055A000000C01400008014000440040B08121424D
:1055B00070B505460C460B480678007820800A48EE
:1055C000007801280CD13246084928460DF0C8F968
:1055D0003246002105480DF0D0F90020014908703D
:1055E00070BD000096000020970000200E1E0020D5
:1055F00070B505460E4601200E49086000240CE0F7
:1056000000BF40210C4805F017F80028F9D0295DAB
:10561000094805F0DEF8601CC4B2B442F0DB00BFFC
:105620004021054805F008F80028F9D0002001497C
:10563000086070BDB081214200440040704700B551
:105640000AF08AFA408C00BD00B50146052904DA4B
:105650000AF082FA30F8110000BD0020FCE700B526
:1056600001460AF079FA418400BD00B50246052AD8
:1056700003DA0AF071FA20F81210002000BD0000D1
:1056800008B50121082002F0CFF80320ADF8000092
:1056900018208DF8030003208DF8020069463B486E
:1056A000FFF7E0FA00203A4908603A49C1F884015E
:1056B0000121082002F0B8F80820ADF80000102001
:1056C0008DF8030003208DF8020069462F48FFF78C
:1056D000C9FA0121202002F0A7F80420ADF800004B
:1056E00010208DF8030003208DF8020069462A4837
:1056F000FFF7B8FA0121102002F096F84FF480600D
:10570000ADF8000010208DF8030003208DF8020092
:1057100069462248FFF7A6FA0121042002F084F826
:105720004FF40040ADF8000010208DF80300032076
:105730008DF8020069461A48FFF794FA0121082003
:1057400002F072F80120ADF8000010208DF803007F
:1057500003208DF802000121042002F065F80220E8
:10576000ADF8000010208DF8030003208DF8020032
:1057700069460B48FFF776FA002005490C310860AE
:105780000CF0EAF80BF032FC08BD0000000C014000
:10579000808121420080214200140140001001401C
:1057A0000008014070B50024FFF73CFB0546C82205
:1057B00029461D4803F0D8FB00BF0EE0FFF732FB7F
:1057C00030F814004FF6FF71884204D1FFF72AFB2E
:1057D000002120F81410601C84B2C82CEEDB0024D9
:1057E00017E004F0010090B1FFF71CFB00EB44014F
:1057F00008780880FFF716FB10F8140038B1FFF79F
:1058000011FB00EB4401088840F400600880601C34
:1058100084B2642CE5DBFFF705FB811C408840F473
:105820008070088070BD000028FC03087CB500244F
:105830000020009001900AF08FF9808BADF80000F5
:105840000AF08AF9C08BADF802000AF085F9008CE5
:10585000ADF804000AF080F9408CADF806000AF0BB
:105860007BF9054614222946124803F07DFB00BF50
:105870000EE00AF071F930F814004FF6FF7188421B
:1058800004D10AF069F9002120F81410601C84B2D8
:10589000142CEEDB0AF060F9BDF8001081830AF0E9
:1058A0005BF9BDF80210C1830AF056F9BDF8041087
:1058B00001847CBD00FC03081CB500200090019011
:1058C00006220F490F480DF04BF80D49891D06229D
:1058D00068460DF045F8002008E00A49095C1DF80B
:1058E00000201144074A1154411CC8B20628F4DBB9
:1058F0000448007800F0FE00024908701CBD00005A
:10590000E8F7FF1FFE00002070B54FF4C8600DF0EF
:1059100011F805462C4614A214A1204610F01EFDD5
:10592000083411A212A1204610F018FD08340EA26E
:1059300010A1204610F012FD08340BA20EA1204643
:1059400010F00CFD08340DA20DA1204610F006FD4C
:10595000083420460AF014FA2846FEF7E1FC2846EF
:105960000CF0D4FF70BD0000312F32003500000074
:10597000340000003300000032000000312F3100FD
:105980003100000070B54FF4C8600CF0D3FF05463D
:105990002C46FEA2FEA1204610F0E0FC0834FDA239
:1059A000FDA1204610F0DAFC0834FCA2FCA1204640
:1059B00010F0D4FC0834FBA2FBA1204610F0CEFC72
:1059C0000834F6A2F9A1204610F0C8FC0834F1A270
:1059D000F3A1204610F0C2FC0834F0A2EEA120464C
:1059E00010F0BCFC0834EDA2EDA1204610F0B6FC8E
:1059F0000834EAA2E8A1204610F0B0FC0834E3A283
:105A0000E9A1204610F0AAFC0834E9A2E9A1204649
:105A100010F0A4FC0834DDA2DDA1204610F09EFCAD
:105A20000834DCA2DCA1204610F098FC0834DBA28C
:105A3000DBA1204610F092FC0834DAA2DAA120465D
:105A400010F08CFC0834D5A2D8A1204610F086FCBA
:105A50000834D2A2D2A1204610F080FC0834CBA298
:105A6000CDA1204610F07AFC0834CEA2C8A1204671
:105A700010F074FC0834C5A2C7A1204610F06EFCDB
:105A80000834C8A2C8A1204610F068FC0834BFA2A0
:105A9000BFA1204610F062FC0834BCA2C2A120467F
:105AA00010F05CFC0834BDA2BBA1204610F056FCEF
:105AB0000834BAA2BAA1204610F050FC0834B9A2AA
:105AC000B5A1204610F04AFC0834B0A2B7A1204688
:105AD00010F044FC0834ADA2B1A1204610F03EFC09
:105AE0000834ACA2ACA1204610F038FC0834A7A2C0
:105AF000ADA1204610F032FC0834ADA2ADA1204685
:105B000010F02CFC0834A1A2A1A1204610F026FC24
:105B100008349EA2A4A1204610F020FC08349BA2C9
:105B20009BA1204610F01AFC083498A2A2A120469E
:105B300010F014FC083495A29BA1204610F00EFC36
:105B4000083492A29CA1204610F008FC08348FA2D1
:105B50009AA1204610F002FC083492A298A1204697
:105B600010F0FCFB083497A293A1204610F0F6FB3E
:105B700008348AA28CA1204610F0F0FB083489A2D8
:105B800083A1204610F0EAFB083480A286A12046BB
:105B900010F0E4FB08347FA287A1204610F0DEFB62
:105BA00008347EA281A1204610F0D8FB083486A2DA
:105BB0007DA1204610F0D2FB083478A280A12046B7
:105BC00010F0CCFB083475A27CA1204610F0C6FB77
:105BD000083472A278A1204610F0C0FB08346FA2EE
:105BE0006BA1204610F0BAFB08346CA277A12046C6
:105BF00010F0B4FB083465A265A1204610F0AEFB9E
:105C0000083466A268A1204610F0A8FB083465A2FB
:105C100065A1204610F0A2FB083460A262A12046D4
:105C200010F09CFB08345FA259A1204610F096FBAF
:105C300008345AA25CA1204610F090FB083453A20D
:105C40005DA1204610F08AFB083450A250A12046E6
:105C500010F084FB083451A254A1204610F07EFBC2
:105C600008344EA250A1204610F078FB083447A219
:105C700049A1204610F072FB083444A248A12046F6
:105C800010F06CFB083441A243A1204610F066FBE3
:105C900008344FA244A1204610F060FB08343FA214
:105CA00041A1204610F05AFB08343EA238A12046FC
:105CB00010F054FB083435A23BA1204610F04EFBF7
:105CC000083434A23CA1204610F048FB083433A22B
:105CD00036A1204610F042FB083430A232A1204603
:105CE00010F03CFB08342DA235A1204610F036FB05
:105CF00008342AA231A1204610F030FB083427A234
:105D00002DA1204610F02AFB083424A220A1204611
:105D100010F024FB083421A22CA1204610F01EFB19
:105D200008341AA21AA1204610F018FB083420A249
:105D30001DA1204610F012FB083418A21AA120461B
:105D400010F00CFB083417A211A1204610F006FB3E
:105D5000083412A214A1204610F000FB08340BA254
:105D60001CA1204610F0FAFA08340AA214A1204619
:105D700010F0F4FA083409A216A1204610F0EEFA49
:105D8000083408A20DA1204626E00000312F310082
:105D900036000000332F320032000000312F320075
:105DA00031000000322F31003300000030000000CD
:105DB000352F3200365F000037000000317E0000D2
:105DC000327E0000362F3100312F330035000000C5
:105DD000332F3100337E000010F0C0FA0834AFF2E8
:105DE0005402AFF22C01204610F0B8FA0834AFF29A
:105DF0002C02AFF26401204610F0B0FA08342046BD
:105E000009F0BEFF2846FEF78BFA28460CF07EFD0F
:105E100070BD000070B54FF4C8600CF08BFD0546F6
:105E20002C46FEA2FEA1204610F098FA0834FDA2EE
:105E3000FDA1204610F092FA0834F8A2F8A12046FD
:105E400010F08CFA0834F9A2F9A1204610F086FA75
:105E50000834F4A2F7A1204610F080FA0834F6A224
:105E6000F1A1204610F07AFA0834ECA2F3A1204602
:105E700010F074FA0834EBA2E9A1204610F06EFA93
:105E80000834E6A2EDA1204610F068FA0834E7A233
:105E9000E8A1204610F062FA0834E0A2E4A120460E
:105EA00010F05CFA0834DDA2DFA1204610F056FAAB
:105EB0000834E1A2DAA1204610F050FA0834E0A23A
:105EC000DBA1204610F04AFA0834D8A2DDA1204612
:105ED00010F044FA0834DAA2D5A1204610F03EFAB8
:105EE0000834D0A2D7A1204610F038FA0834CBA24B
:105EF000D5A1204610F032FA0834C8A2D3A120461A
:105F000010F02CFA0834CEA2C9A1204610F026FACF
:105F10000834C6A2C4A1204610F020FA0834BFA25B
:105F2000C4A1204610F01AFA0834BEA2C0A120462F
:105F300010F014FA0834B9A2C4A1204610F00EFAE9
:105F40000834B6A2BAA1204610F008FA0834C0A25C
:105F5000B8A1204610F002FA0834B2A2B0A120463F
:105F600010F0FCF90834AFA2B1A1204610F0F6F908
:105F70000834AAA2AFA1204610F0F0F90834A7A275
:105F8000ABA1204610F0EAF90834A6A2A4A120464D
:105F900010F0E4F90834AFA2A3A1204610F0DEF916
:105FA0000834A0A2A2A1204610F0D8F908349BA280
:105FB000A0A1204610F0D2F9083498A29FA1204653
:105FC00010F0CCF9083495A2A3A1204610F0C6F930
:105FD000083492A296A1204610F0C0F908348FA28E
:105FE00094A1204610F0BAF908348CA28CA1204666
:105FF00010F0B4F9083489A28BA1204610F0AEF954
:10600000083486A28BA1204610F0A8F9083490A28B
:1060100087A1204610F0A2F9083489A284A1204665
:1060200010F09CF9083481A286A1204610F096F960
:1060300008347AA27EA1204610F090F9083479A2A3
:1060400080A1204610F08AF9083474A27EA120466F
:1060500010F084F9083471A27CA1204610F07EF97A
:10606000083477A272A1204610F078F908346BA2A8
:1060700075A1204610F072F9083468A26DA120467F
:1060800010F06CF9083465A273A1204610F066F98F
:10609000083462A26DA1204610F060F908345FA2B6
:1060A00063A1204610F05AF908345CA261A1204691
:1060B00010F054F908345BA25BA1204610F04EF9B1
:1060C000083464A25BA1204610F048F9083455A2B8
:1060D00057A1204610F042F9083450A255A120469D
:1060E00010F03CF908344DA254A1204610F036F9C6
:1060F00008344AA258A1204610F030F9083447A2CB
:106100004BA1204610F02AF9083444A24BA12046A6
:1061100010F024F9083441A241A1204610F01EF9E4
:10612000083440A24DA1204610F018F9083449A2C5
:106130003BA1204610F012F908343AA23CA12046B7
:1061400010F00CF9083443A23FA1204610F006F9E4
:10615000083432A236A1204610F000F908342FA2EC
:1061600039A1204610F0FAF8083430A235A12046B3
:1061700010F0F4F8083429A239A1204610F0EEF806
:10618000083426A237A1204610F0E8F8083423A2EC
:106190002CA1204610F0E2F8083422A22AA12046C1
:1061A00010F0DCF808342AA226A1204610F0D6F818
:1061B000083423A22AA1204610F0D0F808341BA2EC
:1061C00028A1204610F0CAF8083418A21DA12046C4
:1061D00010F0C4F8083424A21BA1204610F0BEF829
:1061E00008340EA217A1204610F0B8F8083418A2FF
:1061F0000FA1204610F0B2F8083411A218A12046D1
:1062000010F0ACF8083409A216A1204610F0A6F848
:10621000083406A20BA1204628E00000312F3200EE
:10622000365F0000312F310031000000332F320083
:106230003300000032000000372F3200375F0000CB
:10624000322F31003600000035000000340000001D
:10625000342F3100332F310030000000355F000053
:10626000317E000037000000352F320010F076F844
:106270000834AFF20C02AFF23001204610F06EF895
:106280000834AFF26802AFF24401204610F066F81D
:106290000834AFF24402AFF26801204610F05EF815
:1062A0000834AFF28002AFF28801204610F056F8B1
:1062B0000834AFF29002AFF29001204610F04EF891
:1062C0000834AFF2A002AFF29401204610F046F875
:1062D0000834AFF2A802AFF2A801204610F03EF851
:1062E0000834AFF2C802AFF2C001204610F036F811
:1062F0000834AFF2D002AFF2C801204610F02EF8F9
:106300000834AFF2B002AFF2D401204610F026F804
:106310000834AFF2F802AFF2E401204610F01EF8A4
:106320000834AFF20812AFF2EC01204610F016F874
:106330000834AFF21812AFF2E001204610F00EF868
:106340000834AFF22812AFF21811204610F006F808
:106350000834AFF23812AFF21C1120460FF0FEFFE6
:106360000834AFF24812AFF2481120460FF0F6FFA2
:106370000834AFF25012AFF21C1120460FF0EEFFBE
:106380000834AFF23412AFF2681120460FF0E6FF86
:106390000834AFF27812AFF2781120460FF0DEFF2A
:1063A0000834AFF28012AFF2801120460FF0D6FF12
:1063B0000834AFF29812AFF2841120460FF0CEFFEE
:1063C0000834AFF29812AFF2981120460FF0C6FFD2
:1063D0000834AFF2B812AFF2B01120460FF0BEFF92
:1063E0000834AFF2C012AFF2B81120460FF0B6FF7A
:1063F0000834AFF2A012AFF2C41120460FF0AEFF86
:106400000834AFF2E012AFF2D81120460FF0A6FF29
:106410000834AFF2D412AFF2D01120460FF09EFF35
:106420000834AFF20022AFF2F81120460FF096FFC9
:106430000834AFF20822AFF2D41120460FF08EFFDD
:106440000834AFF22822AFF2202120460FF086FF59
:106450000834AFF23822AFF2F41120460FF07EFF7D
:106460000834AFF24822AFF2242120460FF076FF25
:106470000834AFF25022AFF2302120460FF06EFF09
:10648000083408A2AFF2442120460FF067FF083419
:10649000204609F075FC2846FDF742FF28460CF01F
:1064A00035FA70BD372F310070B54FF4C8600CF06D
:1064B00041FA05462C46FEA2FEA120460FF04EFFF3
:1064C0000834FDA2FDA120460FF048FF0834FCA2CD
:1064D000FCA120460FF042FF0834FBA2FBA120469E
:1064E0000FF03CFF0834F4A2F2A120460FF036FF73
:1064F0000834F1A2F3A120460FF030FF0834ECA2DB
:10650000EEA120460FF02AFF0834EBA2F0A12046AE
:106510000FF024FF0834EFA2E8A120460FF01EFF81
:106520000834EDA2E3A120460FF018FF0834E6A2DC
:10653000E6A120460FF012FF0834DDA2DDA12046BF
:106540000FF00CFF0834DCA2DCA120460FF006FFA0
:106550000834DBA2DBA120460FF000FF0834DAA2EA
:10656000DAA120460FF0FAFE0834D3A2D1A12046CA
:106570000FF0F4FE0834D0A2D2A120460FF0EEFEB8
:106580000834CBA2D5A120460FF0E8FE0834CAA2F9
:10659000CCA120460FF0E2FE0834CEA2CFA12046C7
:1065A0000FF0DCFE0834C2A2CDA120460FF0D6FECB
:1065B0000834C5A2C5A120460FF0D0FE0834C2A2FF
:1065C000BCA120460FF0CAFE0834C6A2C6A12046D0
:1065D0000FF0C4FE0834BCA2BAA120460FF0BEFEE4
:1065E0000834B5A2BDA120460FF0B8FE0834B2A20F
:1065F000B4A120460FF0B2FE0834B3A2B7A12046E2
:106600000FF0ACFE0834B0A2B0A120460FF0A6FEF9
:106610000834ADA2AEA120460FF0A0FE0834A4A21B
:10662000AFA120460FF09AFE0834AAA2ABA12046E3
:106630000FF094FE0834A2A2A2A120460FF08EFE15
:1066400008349DA2A1A120460FF088FE08349EA226
:10665000A2A120460FF082FE083497A299A12046FD
:106660000FF07CFE083494A292A120460FF076FE33
:1066700008348FA299A120460FF070FE08348EA234
:106680008CA120460FF06AFE08348BA28DA1204613
:106690000FF064FE083488A286A120460FF05EFE4B
:1066A000083483A287A120460FF058FE083482A246
:1066B0008AA120460FF052FE083483A28AA1204608
:1066C0000FF04CFE083489A285A120460FF046FE4B
:1066D00008347BA282A120460FF040FE08347AA243
:1066E0007AA120460FF03AFE083477A280A1204616
:1066F0000FF034FE08346EA27EA120460FF02EFE6D
:10670000083471A27CA120460FF028FE08346AA24A
:106710007AA120460FF022FE083467A274A1204619
:106720000FF01CFE083464A274A120460FF016FE80
:10673000083465A26EA120460FF010FE08345EA258
:106740006EA120460FF00AFE08345BA25FA120462E
:106750000FF004FE08345CA265A120460FF0FEFD98
:10676000083455A265A120460FF0F8FD083450A268
:1067700063A120460FF0F2FD083453A25CA120462D
:106780000FF0ECFD08344CA25EA120460FF0E6FDB0
:1067900008344BA256A120460FF0E0FD08344AA26F
:1067A0004AA120460FF0DAFD083447A250A1204646
:1067B0000FF0D4FD08343EA24EA120460FF0CEFDCE
:1067C000083441A24CA120460FF0C8FD08343AA27B
:1067D0004AA120460FF0C2FD083437A244A120464A
:1067E0000FF0BCFD083434A244A120460FF0B6FDE2
:1067F000083435A23EA120460FF0B0FD08342EA289
:106800003EA120460FF0AAFD08342BA22FA120465E
:106810000FF0A4FD08342CA235A120460FF09EFDF8
:10682000083425A235A120460FF098FD083420A297
:1068300033A120460FF092FD08341FA231A120465B
:106840000FF08CFD083420A22DA120460FF086FD0C
:1068500008341BA226A120460FF080FD08341AA29E
:106860001AA120460FF07AFD083417A220A1204675
:106870000FF074FD08340EA21EA120460FF06EFD2D
:10688000083411A21CA120460FF068FD08340AA2AA
:106890001AA120460FF062FD083407A214A1204679
:1068A0000FF05CFD083404A214A120462CE0000087
:1068B000322F3200365F0000312F3400375F000086
:1068C000352F340031000000312F3200300000003D
:1068D000355F0000332F3400342F320032000000C7
:1068E00033000000332F320034000000382F340012
:1068F00036000000337E0000327E0000317E000052
:1069000037000000350000000FF028FD0834AFF21A
:106910004802AFF2240120460FF020FD0834AFF208
:106920006802AFF2280120460FF018FD0834AFF2DC
:106930007802AFF2680120460FF010FD0834AFF284
:106940007802AFF2540120460FF008FD0834AFF290
:106950009802AFF2580120460FF000FD0834AFF264
:10696000B002AFF2640120460FF0F8FC0834AFF239
:10697000A802AFF2840120460FF0F0FC0834AFF219
:10698000C802AFF2800120460FF0E8FC0834AFF2F5
:10699000D002AFF2B40120460FF0E0FC0834AFF2B1
:1069A000D802AFF2D80120460FF0D8FC0834AFF27D
:1069B000E802AFF2C40120460FF0D0FC0834AFF279
:1069C000EC02AFF2D00120460FF0C8FC0834AFF261
:1069D00008122FA120460FF0C1FC0834AFF21812A4
:1069E000AFF2F00120460FF0B9FC0834AFF22812E4
:1069F000AFF2FC0120460FF0B1FC0834AFF23812C0
:106A0000AFF2081120460FF0A9FC0834AFF258127B
:106A1000AFF21C1120460FF0A1FC0834AFF24C126B
:106A2000AFF2341120460FF099FC0834AFF2801217
:106A3000AFF23C1120460FF091FC0834AFF278120F
:106A4000AFF2481120460FF089FC0834AFF27C12F7
:106A5000AFF2541120460FF081FC0834AFF29812C7
:106A6000AFF2681120460FF079FC0834AFF28C12B7
:106A7000AFF2841120460FF071FC0834204609F073
:106A80007FF92846FDF74CFC28460BF03FFF70BD10
:106A9000357E000070B54FF416600BF04BFF0546D5
:106AA0002C46FEA2FEA120460FF058FC0834FDA2A1
:106AB000FDA120460FF052FC0834FCA2FCA12046A8
:106AC0000FF04CFC0834F7A2FAA120460FF046FC68
:106AD0000834F4A2F6A120460FF040FC0834F3A2DB
:106AE000EFA120460FF03AFC0834EEA2F2A12046B6
:106AF0000FF034FC0834EBA2E9A120460FF02EFC85
:106B00000834EAA2EDA120460FF028FC0834E5A2E3
:106B1000EBA120460FF022FC0834E2A2E6A12046B9
:106B20000FF01CFC0834DDA2DDA120460FF016FC9E
:106B30000834DCA2DEA120460FF010FC0834D9A2F4
:106B4000DCA120460FF00AFC0834D8A2DDA12046C3
:106B50000FF004FC0834DCA2D3A120460FF0FEFBAA
:106B60000834D9A2D9A120460FF0F8FB0834D8A2E6
:106B7000D4A120460FF0F2FB0834D5A2D0A12046C4
:106B80000FF0ECFB0834C5A2C5A120460FF0E6FBD0
:106B90000834C4A2C4A120460FF0E0FB0834C3A20D
:106BA000C3A120460FF0DAFB0834BEA2C1A12046E3
:106BB0000FF0D4FB0834BBA2BDA120460FF0CEFBE2
:106BC0000834BAA2B6A120460FF0C8FB0834B5A21B
:106BD000B9A120460FF0C2FB0834B2A2B0A12046F2
:106BE0000FF0BCFB0834B1A2B4A120460FF0B6FBF5
:106BF0000834ACA2B2A120460FF0B0FB0834A9A221
:106C0000B4A120460FF0AAFB0834A6A2ABA12046EF
:106C10000FF0A4FB0834A3A2A7A120460FF09EFB0F
:106C20000834A0A29EA120460FF098FB08349DA234
:106C3000A0A120460FF092FB08349CA298A1204608
:106C40000FF08CFB083499A29BA120460FF086FB25
:106C500008349FA292A120460FF080FB083493A233
:106C600097A120460FF07AFB08348EA291A120460E
:106C70000FF074FB08348BA292A120460FF06EFB3C
:106C8000083488A288A120460FF068FB083485A24A
:106C90008CA120460FF062FB083482A282A120461C
:106CA0000FF05CFB08347DA288A120460FF056FB54
:106CB00008347CA27CA120460FF050FB083479A256
:106CC00080A120460FF04AFB083478A279A1204623
:106CD0000FF044FB083473A271A120460FF03EFB75
:106CE000083470A274A120460FF038FB08346FA25C
:106CF00072A120460FF032FB08346AA26DA1204633
:106D00000FF02CFB083467A26EA120460FF026FB83
:106D1000083464A264A120460FF020FB083461A26D
:106D200068A120460FF01AFB08345EA25EA120463F
:106D30000FF014FB08345BA264A120460FF00EFB99
:106D4000083458A258A120460FF008FB083455A279
:106D50005CA120460FF002FB08345BA255A120463F
:106D60000FF0FCFA08345CA24DA120460FF0F6FAB1
:106D7000083457A24CA120460FF0F0FA083449A27B
:106D80004CA120460FF0EAFA083446A24DA1204655
:106D90000FF0E4FA083443A243A120460FF0DEFAD4
:106DA000083440A247A120460FF0D8FA08343DA28B
:106DB0003DA120460FF0D2FA083438A243A1204664
:106DC0000FF0CCFA083437A237A120460FF0C6FAEC
:106DD000083434A23BA120460FF0C0FA083431A297
:106DE00034A120460FF0BAFA083437A235A1204664
:106DF0000FF0B4FA083434A22EA120460FF0AEFAF8
:106E0000083428A226A120460FF0A8FA083425A2AB
:106E100029A120460FF0A2FA083424A227A1204677
:106E20000FF09CFA08341FA225A120460FF096FA15
:106E300008341CA220A120460FF090FA083419A2B1
:106E400017A120460FF08AFA083416A21AA120468C
:106E50000FF084FA083413A211A120460FF07EFA35
:106E6000083410A210A120460FF078FA08340DA2C1
:106E70000BA120460FF072FA08340AA20EA1204698
:106E80000FF06CFA083407A205A120460FF066FA4D
:106E9000083404A208A1204620E00000332F32006D
:106EA00036000000312F3200337E0000322F3200D6
:106EB00037000000317E0000350000003300000084
:106EC00030000000327E0000312F3400357E00009B
:106ED000342F320032000000332F34000FF03EFA1E
:106EE0000834AFF21402AFF2480120460FF036FA30
:106EF0000834AFF24802AFF2380120460FF02EFA04
:106F00000834AFF26002AFF2600120460FF026FABB
:106F10000834AFF27002AFF24C0120460FF01EFAB7
:106F20000834AFF28002A6A120460FF017FA083409
:106F3000AFF29002AFF26C0120460FF00FFA083466
:106F4000AFF2A002AFF2A00120460FF007FA08341A
:106F5000AFF2A802AFF2940120460FF0FFF9083417
:106F6000AFF2C002AFF2B40120460FF0F7F90834D7
:106F7000AFF2D002AFF2D80120460FF0EFF908349B
:106F8000AFF2D802AFF2C40120460FF0E7F908349F
:106F9000AFF2F002AFF2CC0120460FF0DFF9083477
:106FA000AFF20812AFF2001120460FF0D7F9083403
:106FB000AFF21012AFF2F80120460FF0CFF908340B
:106FC000AFF2FC02AFF2201120460FF0C7F90834EF
:106FD000AFF20C12AFF20C1120460FF0BFF90834DB
:106FE000AFF2381276A120460FF0B8F90834AFF2AC
:106FF0004C12AFF2281120460FF0B0F90834AFF26E
:107000005C12AFF25C1120460FF0A8F90834AFF221
:107010006412AFF2501120460FF0A0F90834AFF21D
:107020007C12AFF27C1120460FF098F90834AFF2D1
:107030008C12AFF2681120460FF090F90834AFF2CD
:107040007012AFF29C1120460FF088F90834AFF2AD
:10705000A412AFF2941120460FF080F90834AFF279
:10706000BC12AFF2BC1120460FF078F90834AFF231
:10707000CC12AFF2A81120460FF070F90834AFF22D
:10708000D4124FA120460FF069F90834AFF2EC1288
:10709000AFF2C81120460FF061F90834AFF2FC12CC
:1070A000AFF2FC1120460FF059F90834AFF2042278
:1070B000AFF2F01120460FF051F90834AFF214226C
:1070C000AFF2102120460FF049F90834AFF2242224
:1070D000AFF2242120460FF041F90834AFF23422F8
:1070E000AFF22C2120460FF039F90834AFF24422D8
:1070F000AFF2402120460FF031F90834AFF25C22A4
:10710000AFF2642120460FF029F90834AFF26C2267
:10711000AFF25C2120460FF021F90834AFF274225F
:10712000AFF2842120460FF019F90834AFF28C2217
:10713000AFF2742120460FF011F90834AFF29C220F
:10714000AFF2902120460FF009F90834AFF2AC22DB
:10715000AFF2A42120460FF001F90834AFF29822D3
:10716000AFF2B02120460FF0F9F80834AFF2A822B0
:10717000AFF2C42120460FF0F1F80834AFF2DC2260
:10718000AFF2E42120460FF0E9F80834AFF2EC2228
:10719000AFF2DC2120460FF0E1F8083409A2AFF28B
:1071A000003120460FF0DAF80834204608F0E8FDF8
:1071B0002846FDF7B5F828460BF0A8FB70BD000087
:1071C000367E0000362F320070B54FF4C8600BF0E9
:1071D000B1FB05462C4614A214A120460FF0BEF8C0
:1071E000083411A212A120460FF0B8F808340EA2FC
:1071F00010A120460FF0B2F808340BA20EA12046D1
:107200000FF0ACF808340DA20DA120460FF0A6F83F
:107210000834204608F0B4FD2846FDF781F82846DA
:107220000BF074FB70BD0000312F32003100000004
:10723000320000003300000034000000312F310024
:10724000350000002DE9FF4704460D4616469946D5
:1072500000200390029600278046009002A80DF0BF
:10726000FFFA8DF80C000398C0F30310022800D039
:107270001FE001A9029800F04DF8804602990844E9
:107280000290DDE9011047180298381A022800DA46
:107290000FE002A80DF0E4FA8DF80000009800F06D
:1072A0000100207002A80DF0DBFA28704FF00108F1
:1072B00000BF404604B0BDE8F0872DE9F84305461D
:1072C0000C46012600270020206000BF4FF0FF3849
:1072D000781C0746042801DD00BF17E0012168463D
:1072E000A8478046B8F1010F00D00FE09DF80010CC
:1072F00001F07F01206801FB06002060F6019DF887
:10730000000000F080000028E0D100BF3846BDE852
:10731000F883000070B504460D4603480460294612
:107320000248FFF7CAFF70BD18020020CDB0000868
:1073300030B50246002300BF0846CD1701EB556566
:10734000ED11A1EBC515ECB2CD1701EB5565E911B7
:10735000002901DD44F0800418465B1C1454002908
:10736000EADC184630BD0000401C802801DA401CD1
:107370000AE0B0F5804F01DA801C05E0034988423D
:1073800001DAC01C00E0001D70470000FFFF1F0075
:107390002DE9FE4305460E46144602950020019055
:1073A000009000274FF0FF38204600F0A5F8074670
:1073B0008146FFF7D9FFB04202DD6FF001088FE090
:1073C00000208DF80400019820F0F00010300190AA
:1073D0009DF8041002A80FF04FFC39460298FFF701
:1073E000A7FF029908440290207A042808D13EA100
:1073F00002A80FF02DFC042102A80FF03DFC07E0CD
:107400003BA102A80FF024FC032102A80FF034FCDA
:1074100000208DF80000A17E009861F341000090EB
:10742000E07E08B1012100E00021009861F38200B4
:1074300000900098C0F3800058B194F83D10009877
:1074400061F3C400009094F83C10009861F345107B
:107450000090206C08B9A06C20B1009820F080004A
:1074600080300090E06C08B9606D20B1009820F089
:107470004000403000909DF8001002A80FF0FCFB87
:10748000218B02A80FF0FEFB02A8D4E90423E168D7
:107490000FF010FCE07E58B102A8D4E90A23616A1B
:1074A0000FF008FC02A8D4E90D23216B0FF002FCB9
:1074B0000098C0F3C01028B102A8D4E91123216CB0
:1074C0000FF0F8FB0098C0F3801028B102A8D4E9AF
:1074D0001423E16C0FF0EEFB0298A0EB050800BF4F
:1074E0004046BDE8FE8300004D51545400000000AA
:1074F0004D5149736470000070B504460025207A30
:10750000032801D10C2503E0207A042800D10A25A4
:10751000D4E90412E06800F02AF8801C0544E07EFB
:1075200068B1D4E90A12606A00F021F8861CD4E937
:107530000D12206B00F01BF83044801C0544206CB9
:1075400008B9A06C30B1D4E91112206C00F00FF82A
:10755000801C0544E06C08B9606D30B1D4E91412A8
:10756000E06C00F004F8801C0544284670BD37B577
:107570000024009820B10098FBF7A2FC044600E02C
:10758000019C20463EBD00F04FF800F04DF8000091
:1075900070B5002100230F22C47804B3154C246871
:1075A00004F4E064C4F5E064210AC1F10403CA40B4
:1075B000447804FA03F184781440214309010E4C05
:1075C0000678A155047804F01F050124AC40057825
:1075D0006D11AD0005F1E025C5F8004109E0047822
:1075E00004F01F050124AC40044D0678761145F8DF
:1075F000264070BD0CED00E000E400E080E100E01A
:1076000002490143024A1160704700000000FA0578
:107610000CED00E0024A0A400243024B1A60704738
:1076200080FFFF1F08ED00E00648006800F4E060FE
:1076300005490843001D03490860BFF3408F00BFA0
:10764000FEE700000CED00E00000FA0510B50D4863
:107650000068B0B90C480068FBF772FA0B49086083
:10766000084600680A4908600A480849096800EBAA
:107670004110094908600846006808490860FBF79E
:107680001CFA10BD44000020680000204C000020BF
:1076900048000020041A0020540000205000002060
:1076A00070B5044610464FF080750560051F2846EA
:1076B0002C606FF00106051F28462E604FF0123631
:1076C000051F28462E604FF00336051F28462E6002
:1076D0004FF00236051F28462E607610051F2846FB
:1076E0002E60051F284629604FF01136051F2846D9
:1076F0002E604FF01036051F28462E604FF00936D9
:10770000051F28462E604FF00836051F28462E60BC
:107710004FF00736051F28462E604FF00636051F2E
:1077200028462E604FF00536051F28462E604FF084
:107730000436051F28462E6070BD000010B5FBF70B
:10774000B5F9044606480078401C0549087005480C
:107750000078054908702046FBF7ACF910BD000021
:10776000640000204C0000206C00002010B5FBF7E6
:107770009DF904460948007820B108480078401E69
:10778000064908700548007810B92020044908709F
:107790002046FBF78FF902F003FE10BD64000020C5
:1077A0006C00002010B50346074800EB4210016052
:1077B000054800EB421043604FF00040024C04EBE0
:1077C0004214E060002010BD041A00200149086244
:1077D0007047000000000E42024800880A3001494C
:1077E000088070477401002029B1064AD26902431B
:1077F000044BDA6104E0034AD2698243014BDA6147
:10780000704700000010024029B1064A1269024385
:10781000044B1A6104E0034A12698243014B1A6166
:10782000704700000010024029B1064A92690243E5
:10783000044B9A6104E0034A92698243014B9A61C6
:10784000704700000010024029B1064AD268024386
:10785000044BDA6004E0034AD2688243014BDA60E9
:1078600070470000001002400149086070470000A6
:107870004004424230B500210022002400232D4D57
:107880006D6805F00C0121B1042905D0082923D128
:1078900005E0294D056022E0274D05601FE0254DDC
:1078A0006D6805F47012234D6D6805F4803402256F
:1078B00005EB92421CB9214D554305600BE01D4D6F
:1078C0006D6805F400351DB11C4D5543056002E09F
:1078D000194D5543056002E0174D056000BF00BF1C
:1078E000144D6D6805F0F0010909154D6B5C0568D4
:1078F000DD4045600F4D6D6805F4E061090A104DEB
:107900006B5C4568DD4085600A4D6D6805F460512B
:10791000C90A0B4D6B5C4568DD40C560054D6D685F
:1079200005F44041890B074D6B5CC568B5FBF3F569
:10793000056130BD0010024000127A0000093D00D0
:10794000180000202800002010B501460022002366
:1079500000204A11012A02D1094C236806E0022ABC
:1079600002D1074C236A01E0054C636A01F01F0253
:10797000012494401C400CB1012000E0002010BD07
:107980000010024000210B4A11700A4A203A82F886
:107990002010012802D0042808D103E00121054A63
:1079A000117004E00521034A117000E000BF00BF20
:1079B0007047000020100240014908607047000035
:1079C0003C0442420249096A0143014A116270477C
:1079D0000010024070B504460D4602F007FD0E4946
:1079E0000968884201D0002070BD0DB90020FBE776
:1079F0000BE000BF8021094802F01EFE0028F9D0EC
:107A000020780649091D0880641C2800A5F10101A1
:107A1000CDB2EED100BFE7E74C00002000380140B6
:107A200070B505460E4600240B48008838B100BFEB
:107A300003E000202855601C84B2B442F9DB002426
:107A400004E0FDF79DFA2855601C84B202480088C6
:107A50000028F6D1204670BDCA0000202DE9F04173
:107A600005460E46002400BF03E000202855601C98
:107A700084B2B442F9DB002442F2107809E0A8F1A4
:107A800001001FFA80F8B8F1000F02D10020BDE814
:107A9000F081214800780028F1D0204800680028B3
:107AA00038D0002400270CE001F0B2FBFF2804D1FD
:107AB00001F0C2FBFF2800D105E0FDF761FA781C58
:107AC00087B2322FF0DB00BF002410E0FDF758FA38
:107AD0002855601C84B2B44200D10CE001F098FB40
:107AE000FF2804D101F0A8FBFF2800D103E00C48D7
:107AF00000880028EAD100BF0948008850B900205A
:107B00000849088008490860084908800120084998
:107B1000C1F894012046BAE7CC00002020012142A0
:107B2000CA000020C400002094012742C6000020A3
:107B30000000274210B586B0044601210420FFF75B
:107B400073FE01218803FFF76FFE464802F026FD11
:107B50004FF48070ADF8140004208DF81700032056
:107B60008DF8160005A94048FDF77CF84FF48071A8
:107B70003D48FDF751F94FF40060ADF814001020B6
:107B80008DF8170003208DF8160005A93648FDF77B
:107B900069F84FF400613448FDF73CF94FF4805028
:107BA000ADF8140010208DF8170003208DF8160092
:107BB00005A92D48FDF756F84FF480512A48FDF7E6
:107BC00029F94FF40070ADF8140002208DF816006A
:107BD00018208DF8170005A92348FDF743F84FF446
:107BE0008060ADF8140004208DF8170005A91E4828
:107BF000FDF738F825208DF8000000208DF80100F1
:107C00008DF8020001208DF803006846FFF7C0FCE4
:107C100001940020ADF80800ADF80A00ADF80C00A2
:107C2000ADF810000C20ADF80E0000210D4802F058
:107C3000A8FC0C4802F0B2FC01A90A4802F058FD69
:107C4000012240F22551074802F02DFD012240F2A9
:107C50002441044802F027FD0121024802F091FC72
:107C600006B010BD00380140000801401FB50446B1
:107C70004FF41650FFF75EFF01201F4908601F49AF
:107C8000C1F8AC01642007F0E1F81DA103C9CDE9FA
:107C900002018DF80C401CE0062102A8FFF79AFEB5
:107CA0004FF4FA7007F0D2F80020009001900621FE
:107CB0006846FFF7B5FE694613A00DF035FB00B12D
:107CC00008E09DF804009DF80C10884200D101E006
:107CD00000BFE1E700BF0020074908600749C1F87D
:107CE000AC01642007F0B2F84FF4E130FFF722FF57
:107CF000002004B010BD0000B0012142000021426C
:107D0000C200003A144000004F4B000002490988AD
:107D10008143014A118070470428004003480088CD
:107D200040F010000149088070470000042800401E
:107D3000034800884FF6EF710840014908807047FA
:107D40000428004070B500260024002500F07AF8D1
:107D500006463848B6FBF0F437480088A0423CD0CD
:107D600035490C8040F2B27510E02846FDF750FA14
:107D700040B1B4F5B77F02D3A4F5B77404E0681C32
:107D800085B206E0A4F26D14681C85B2B4F5B67F26
:107D9000EBD800BF29488580002516E02749888850
:107DA000FDF736FA30B1012D04D11D2C01D31D3C55
:107DB00009E00CE02248405DA04203D82048405D25
:107DC000241A00E003E0681C85B21C2CE6D200BF38
:107DD000681C1A498871601CC8711648B6FBF0F11E
:107DE00000FB11644FF46160B4FBF0F013490870BC
:107DF0004FF46160B4FBF0F100FB11403C21B0FB9B
:107E0000F1F00E4948704FF46160B4FBF0F100FBF3
:107E100011403C21B0FBF1F201FB120007498870D0
:107E20000B46DA799979988800F02CF803490872A2
:107E3000002070BD805101006E000020041E002053
:107E4000A6820108002103480188001F008841EA3A
:107E5000004070471C28004001460020064A128856
:107E60000A40D0B2044A121F12880A4012B108B167
:107E7000012000E0002070470428004000487047BF
:107E8000041E0020F0B503460C461546642093FB03
:107E9000F0F0C6B2642093FBF0F700FB1730C1B2DC
:107EA000132E02DD01F16400C1B20846CF1701EBC9
:107EB000977701EBA707BAB2072092FBF0F700FB18
:107EC000172082B25719601EDFF82CC01CF8000082
:107ED000384482B2CF1701EB9777BF10A1EB870729
:107EE0001FB9032C01DA501E82B2072092FBF0F773
:107EF00000FB1720C0B2F0BD9A82010810B5012026
:107F0000FFF7AAFF08B1FFF71DFF0220FFF7A4FF4C
:107F100010B10220FFF7FAFE0520FFF7F7FE00F090
:107F200015F910BD29B1064A12880243044B1A8084
:107F300004E0034A12888243014B1A807047000014
:107F4000002800401CB500240420FCF74BF945F242
:107F50005001884247D001214FF0C050FFF744FC48
:107F60000120FFF733FCFCF735F90120FFF70AFD8C
:107F700004E0601CC4B20A2006F082FF4120FFF733
:107F8000E3FC0028F5D0FA2C01DB01201CBD4FF4E6
:107F90008070FFF717FD0120FFF70EFD00F0D6F807
:107FA00000F0DEF801210846FFF7BCFF00F0CEF834
:107FB000FFF7B4FE47F6FF7000F0A6F800F0C6F831
:107FC000372000210A230222CDE900100C2140F2C3
:107FD000D97000F027F8FFF7ABFE45F250010420FE
:107FE000FCF70EF907E000F0BBF801210846FFF7A7
:107FF00099FF00F0ABF800F004F8FFF7A3FE0020B3
:10800000C4E708B503208DF8000001208DF80100B9
:1080100003208DF8020001208DF803006846FFF769
:10802000B7FA08BD2DE9F05F06460F46904699461F
:10803000DDE90AAB002440F2B270864203DB40F671
:108040003300864202DD0120BDE8F09F40F2B275A8
:108050000AE02846FDF7DCF810B12048044401E0AE
:108060001F480444681C85B2B542F2DB781EC7B2D3
:10807000002510E01B48405D40F2A321484304EB7B
:10808000C0143046FDF7C4F818B1012D01D11648CF
:108090000444681C85B2BD42ECDBA8F1010040F24B
:1080A000A321484304EBC014C9EB4910C0EB0920DD
:1080B00004EB0014CAEB0A1004EB80045C440121B9
:1080C0004FF0C050FFF790FB0120FFF77FFB2046E9
:1080D00000F00CF800F03AF80020B5E70085E20166
:1080E0008033E101A68201088051010000B50246FB
:1080F000FFF714FE100C03490880091D0A80FFF7E2
:1081000017FE00BD1828004000B50246FFF706FE26
:10811000C2F3034003490880091D0A80FFF708FEE7
:1081200000BD00000828004010B5044601214FF0B2
:10813000C050FFF759FB0120FFF748FB2046FFF72F
:10814000D5FF00F003F8002010BD000000BF034879
:10815000008800F020000028F9D070470428004073
:10816000074800884FF6F77108400549088000BFAE
:108170000348008800F008000028F9D0704700008C
:10818000042800402DE9F04780460D462621404650
:1081900000F0D6F8064616B90020BDE8F08740F298
:1081A000B450864200DD06462821404600F0C8F85B
:1081B0000746B946C7F30A0710213A48FCF72AFEDA
:1081C000384600F01BFC182101EB4811C8B200F042
:1081D00005FC354800F0A5FE00F0FF0AB819B0F51F
:1081E000006F11DA00240CE0002000F0F7FB2E48AD
:1081F00000F097FE00F0FF0A85F800A06D1C601CDF
:1082000084B2B442F0DB39E0C7F5006087B20024E5
:108210000CE0002000F0E2FB234800F082FE00F0BA
:10822000FF0A85F800A06D1C601C84B2BC42F0DB24
:1082300010211C48FCF7F0FD10211A48FCF7EAFD5C
:10824000002000F0DBFB182101EB4811C8B200F060
:10825000C5FB154800F065FE00F0FF0A0CE00020A9
:1082600000F0BCFB104800F05CFE00F0FF0A85F84F
:1082700000A06D1C601C84B2B442F0DB10210948E0
:10828000FCF7CAFD09EB06001FFA80F94A462821CF
:10829000404602F0A9FD40220121404602F086FD41
:1082A00030467AE7000801400030014070B50446CE
:1082B00010210D48FCF7AEFD204600F09FFB012089
:1082C00000F08CFB094800F02CFEC5B2002000F045
:1082D00085FB064800F025FEC5B210210248FCF7D8
